{
  "_format": "hh-sol-artifact-1",
  "contractName": "BOT",
  "sourceName": "contracts/BOT.sol",
  "abi": [
    {
      "inputs": [],
      "stateMutability": "nonpayable",
      "type": "constructor"
    },
    {
      "inputs": [
        {
          "internalType": "address",
          "name": "spender",
          "type": "address"
        },
        {
          "internalType": "uint256",
          "name": "allowance",
          "type": "uint256"
        },
        {
          "internalType": "uint256",
          "name": "needed",
          "type": "uint256"
        }
      ],
      "name": "ERC20InsufficientAllowance",
      "type": "error"
    },
    {
      "inputs": [
        {
          "internalType": "address",
          "name": "sender",
          "type": "address"
        },
        {
          "internalType": "uint256",
          "name": "balance",
          "type": "uint256"
        },
        {
          "internalType": "uint256",
          "name": "needed",
          "type": "uint256"
        }
      ],
      "name": "ERC20InsufficientBalance",
      "type": "error"
    },
    {
      "inputs": [
        {
          "internalType": "address",
          "name": "approver",
          "type": "address"
        }
      ],
      "name": "ERC20InvalidApprover",
      "type": "error"
    },
    {
      "inputs": [
        {
          "internalType": "address",
          "name": "receiver",
          "type": "address"
        }
      ],
      "name": "ERC20InvalidReceiver",
      "type": "error"
    },
    {
      "inputs": [
        {
          "internalType": "address",
          "name": "sender",
          "type": "address"
        }
      ],
      "name": "ERC20InvalidSender",
      "type": "error"
    },
    {
      "inputs": [
        {
          "internalType": "address",
          "name": "spender",
          "type": "address"
        }
      ],
      "name": "ERC20InvalidSpender",
      "type": "error"
    },
    {
      "inputs": [
        {
          "internalType": "address",
          "name": "owner",
          "type": "address"
        }
      ],
      "name": "OwnableInvalidOwner",
      "type": "error"
    },
    {
      "inputs": [
        {
          "internalType": "address",
          "name": "account",
          "type": "address"
        }
      ],
      "name": "OwnableUnauthorizedAccount",
      "type": "error"
    },
    {
      "inputs": [],
      "name": "ReentrancyGuardReentrantCall",
      "type": "error"
    },
    {
      "anonymous": false,
      "inputs": [
        {
          "indexed": true,
          "internalType": "address",
          "name": "owner",
          "type": "address"
        },
        {
          "indexed": true,
          "internalType": "address",
          "name": "spender",
          "type": "address"
        },
        {
          "indexed": false,
          "internalType": "uint256",
          "name": "value",
          "type": "uint256"
        }
      ],
      "name": "Approval",
      "type": "event"
    },
    {
      "anonymous": false,
      "inputs": [
        {
          "indexed": true,
          "internalType": "address",
          "name": "to",
          "type": "address"
        },
        {
          "indexed": false,
          "internalType": "uint256",
          "name": "amount",
          "type": "uint256"
        }
      ],
      "name": "FaucetMint",
      "type": "event"
    },
    {
      "anonymous": false,
      "inputs": [
        {
          "indexed": false,
          "internalType": "bool",
          "name": "enabled",
          "type": "bool"
        }
      ],
      "name": "FaucetToggled",
      "type": "event"
    },
    {
      "anonymous": false,
      "inputs": [
        {
          "indexed": true,
          "internalType": "address",
          "name": "previousOwner",
          "type": "address"
        },
        {
          "indexed": true,
          "internalType": "address",
          "name": "newOwner",
          "type": "address"
        }
      ],
      "name": "OwnershipTransferred",
      "type": "event"
    },
    {
      "anonymous": false,
      "inputs": [
        {
          "indexed": true,
          "internalType": "address",
          "name": "from",
          "type": "address"
        },
        {
          "indexed": true,
          "internalType": "address",
          "name": "to",
          "type": "address"
        },
        {
          "indexed": false,
          "internalType": "uint256",
          "name": "value",
          "type": "uint256"
        }
      ],
      "name": "Transfer",
      "type": "event"
    },
    {
      "inputs": [],
      "name": "FAUCET_AMOUNT",
      "outputs": [
        {
          "internalType": "uint256",
          "name": "",
          "type": "uint256"
        }
      ],
      "stateMutability": "view",
      "type": "function"
    },
    {
      "inputs": [],
      "name": "FAUCET_COOLDOWN",
      "outputs": [
        {
          "internalType": "uint256",
          "name": "",
          "type": "uint256"
        }
      ],
      "stateMutability": "view",
      "type": "function"
    },
    {
      "inputs": [],
      "name": "MAX_SUPPLY",
      "outputs": [
        {
          "internalType": "uint256",
          "name": "",
          "type": "uint256"
        }
      ],
      "stateMutability": "view",
      "type": "function"
    },
    {
      "inputs": [
        {
          "internalType": "address",
          "name": "owner",
          "type": "address"
        },
        {
          "internalType": "address",
          "name": "spender",
          "type": "address"
        }
      ],
      "name": "allowance",
      "outputs": [
        {
          "internalType": "uint256",
          "name": "",
          "type": "uint256"
        }
      ],
      "stateMutability": "view",
      "type": "function"
    },
    {
      "inputs": [
        {
          "internalType": "address",
          "name": "spender",
          "type": "address"
        },
        {
          "internalType": "uint256",
          "name": "value",
          "type": "uint256"
        }
      ],
      "name": "approve",
      "outputs": [
        {
          "internalType": "bool",
          "name": "",
          "type": "bool"
        }
      ],
      "stateMutability": "nonpayable",
      "type": "function"
    },
    {
      "inputs": [
        {
          "internalType": "address",
          "name": "account",
          "type": "address"
        }
      ],
      "name": "balanceOf",
      "outputs": [
        {
          "internalType": "uint256",
          "name": "",
          "type": "uint256"
        }
      ],
      "stateMutability": "view",
      "type": "function"
    },
    {
      "inputs": [
        {
          "internalType": "uint256",
          "name": "value",
          "type": "uint256"
        }
      ],
      "name": "burn",
      "outputs": [],
      "stateMutability": "nonpayable",
      "type": "function"
    },
    {
      "inputs": [
        {
          "internalType": "address",
          "name": "account",
          "type": "address"
        },
        {
          "internalType": "uint256",
          "name": "value",
          "type": "uint256"
        }
      ],
      "name": "burnFrom",
      "outputs": [],
      "stateMutability": "nonpayable",
      "type": "function"
    },
    {
      "inputs": [],
      "name": "decimals",
      "outputs": [
        {
          "internalType": "uint8",
          "name": "",
          "type": "uint8"
        }
      ],
      "stateMutability": "view",
      "type": "function"
    },
    {
      "inputs": [
        {
          "internalType": "address",
          "name": "to",
          "type": "address"
        },
        {
          "internalType": "uint256",
          "name": "amount",
          "type": "uint256"
        }
      ],
      "name": "faucet",
      "outputs": [],
      "stateMutability": "nonpayable",
      "type": "function"
    },
    {
      "inputs": [
        {
          "internalType": "address",
          "name": "account",
          "type": "address"
        }
      ],
      "name": "faucetCooldownRemaining",
      "outputs": [
        {
          "internalType": "uint256",
          "name": "",
          "type": "uint256"
        }
      ],
      "stateMutability": "view",
      "type": "function"
    },
    {
      "inputs": [],
      "name": "faucetEnabled",
      "outputs": [
        {
          "internalType": "bool",
          "name": "",
          "type": "bool"
        }
      ],
      "stateMutability": "view",
      "type": "function"
    },
    {
      "inputs": [
        {
          "internalType": "address",
          "name": "",
          "type": "address"
        }
      ],
      "name": "lastFaucetRequest",
      "outputs": [
        {
          "internalType": "uint256",
          "name": "",
          "type": "uint256"
        }
      ],
      "stateMutability": "view",
      "type": "function"
    },
    {
      "inputs": [
        {
          "internalType": "address",
          "name": "to",
          "type": "address"
        },
        {
          "internalType": "uint256",
          "name": "amount",
          "type": "uint256"
        }
      ],
      "name": "mint",
      "outputs": [],
      "stateMutability": "nonpayable",
      "type": "function"
    },
    {
      "inputs": [],
      "name": "name",
      "outputs": [
        {
          "internalType": "string",
          "name": "",
          "type": "string"
        }
      ],
      "stateMutability": "view",
      "type": "function"
    },
    {
      "inputs": [],
      "name": "owner",
      "outputs": [
        {
          "internalType": "address",
          "name": "",
          "type": "address"
        }
      ],
      "stateMutability": "view",
      "type": "function"
    },
    {
      "inputs": [],
      "name": "renounceOwnership",
      "outputs": [],
      "stateMutability": "nonpayable",
      "type": "function"
    },
    {
      "inputs": [
        {
          "internalType": "bool",
          "name": "enabled",
          "type": "bool"
        }
      ],
      "name": "setFaucetEnabled",
      "outputs": [],
      "stateMutability": "nonpayable",
      "type": "function"
    },
    {
      "inputs": [],
      "name": "symbol",
      "outputs": [
        {
          "internalType": "string",
          "name": "",
          "type": "string"
        }
      ],
      "stateMutability": "view",
      "type": "function"
    },
    {
      "inputs": [],
      "name": "totalSupply",
      "outputs": [
        {
          "internalType": "uint256",
          "name": "",
          "type": "uint256"
        }
      ],
      "stateMutability": "view",
      "type": "function"
    },
    {
      "inputs": [
        {
          "internalType": "address",
          "name": "to",
          "type": "address"
        },
        {
          "internalType": "uint256",
          "name": "value",
          "type": "uint256"
        }
      ],
      "name": "transfer",
      "outputs": [
        {
          "internalType": "bool",
          "name": "",
          "type": "bool"
        }
      ],
      "stateMutability": "nonpayable",
      "type": "function"
    },
    {
      "inputs": [
        {
          "internalType": "address",
          "name": "from",
          "type": "address"
        },
        {
          "internalType": "address",
          "name": "to",
          "type": "address"
        },
        {
          "internalType": "uint256",
          "name": "value",
          "type": "uint256"
        }
      ],
      "name": "transferFrom",
      "outputs": [
        {
          "internalType": "bool",
          "name": "",
          "type": "bool"
        }
      ],
      "stateMutability": "nonpayable",
      "type": "function"
    },
    {
      "inputs": [
        {
          "internalType": "address",
          "name": "newOwner",
          "type": "address"
        }
      ],
      "name": "transferOwnership",
      "outputs": [],
      "stateMutability": "nonpayable",
      "type": "function"
    }
  ],
  "bytecode": "0x60806040526007805460ff1916600117905534801561001c575f80fd5b50336040518060400160405280600e81526020016d2137ba31b430b4b7102a37b5b2b760911b815250604051806040016040528060038152602001621093d560ea1b8152508160039081610070919061033c565b50600461007d828261033c565b5050506001600160a01b0381166100ae57604051631e4fbdf760e01b81525f60048201526024015b60405180910390fd5b6100b7816100f5565b5060017f9b779b17422d0df92223018b32b4d1fa46e071723d6817e2486d003becc55f00556100f03369d3c21bcecceda1000000610146565b61041b565b600580546001600160a01b038381166001600160a01b0319831681179093556040519116919082907f8be0079c531659141344cd1fd0a4f28419497f9722a3daafe3b4186f6b6457e0905f90a35050565b6001600160a01b03821661016f5760405163ec442f0560e01b81525f60048201526024016100a5565b61017a5f838361017e565b5050565b6001600160a01b0383166101a8578060025f82825461019d91906103f6565b909155506102189050565b6001600160a01b0383165f90815260208190526040902054818110156101fa5760405163391434e360e21b81526001600160a01b038516600482015260248101829052604481018390526064016100a5565b6001600160a01b0384165f9081526020819052604090209082900390555b6001600160a01b03821661023457600280548290039055610252565b6001600160a01b0382165f9081526020819052604090208054820190555b816001600160a01b0316836001600160a01b03167fddf252ad1be2c89b69c2b068fc378daa952ba7f163c4a11628f55a4df523b3ef8360405161029791815260200190565b60405180910390a3505050565b634e487b7160e01b5f52604160045260245ffd5b600181811c908216806102cc57607f821691505b6020821081036102ea57634e487b7160e01b5f52602260045260245ffd5b50919050565b601f82111561033757805f5260205f20601f840160051c810160208510156103155750805b601f840160051c820191505b81811015610334575f8155600101610321565b50505b505050565b81516001600160401b03811115610355576103556102a4565b6103698161036384546102b8565b846102f0565b6020601f82116001811461039b575f83156103845750848201515b5f19600385901b1c1916600184901b178455610334565b5f84815260208120601f198516915b828110156103ca57878501518255602094850194600190920191016103aa565b50848210156103e757868401515f19600387901b60f8161c191681555b50505050600190811b01905550565b8082018082111561041557634e487b7160e01b5f52601160045260245ffd5b92915050565b610e78806104285f395ff3fe608060405234801561000f575f80fd5b5060043610610148575f3560e01c806376697640116100bf57806395d89b411161007957806395d89b41146102a6578063a9059cbb146102ae578063b44bae8e146102c1578063d5ace7ba146102d4578063dd62ed3e146102f3578063f2fde38b1461032b575f80fd5b8063766976401461023957806379cc6790146102495780637b56c2b21461025c5780637d1d5d191461026f5780638da5cb5b146102785780638f303e9614610293575f80fd5b806332cb6b0c1161011057806332cb6b0c146101c157806340c10f19146101d457806342966c68146101e95780635d1c3f04146101fc57806370a0823114610209578063715018a614610231575f80fd5b806306fdde031461014c578063095ea7b31461016a57806318160ddd1461018d57806323b872dd1461019f578063313ce567146101b2575b5f80fd5b61015461033e565b6040516101619190610c60565b60405180910390f35b61017d610178366004610cb0565b6103ce565b6040519015158152602001610161565b6002545b604051908152602001610161565b61017d6101ad366004610cd8565b6103e7565b60405160128152602001610161565b6101916b033b2e3c9fd0803ce800000081565b6101e76101e2366004610cb0565b61040a565b005b6101e76101f7366004610d12565b610468565b60075461017d9060ff1681565b610191610217366004610d29565b6001600160a01b03165f9081526020819052604090205490565b6101e7610475565b610191683635c9adc5dea0000081565b6101e7610257366004610cb0565b610488565b6101e761026a366004610cb0565b61049d565b610191610e1081565b6005546040516001600160a01b039091168152602001610161565b6101e76102a1366004610d49565b61071f565b61015461076e565b61017d6102bc366004610cb0565b61077d565b6101916102cf366004610d29565b61078a565b6101916102e2366004610d29565b60066020525f908152604090205481565b610191610301366004610d68565b6001600160a01b039182165f90815260016020908152604080832093909416825291909152205490565b6101e7610339366004610d29565b6107ed565b60606003805461034d90610d99565b80601f016020809104026020016040519081016040528092919081815260200182805461037990610d99565b80156103c45780601f1061039b576101008083540402835291602001916103c4565b820191905f5260205f20905b8154815290600101906020018083116103a757829003601f168201915b5050505050905090565b5f336103db818585610827565b60019150505b92915050565b5f336103f4858285610839565b6103ff8585856108b5565b506001949350505050565b610412610912565b6b033b2e3c9fd0803ce80000008161042960025490565b6104339190610de5565b111561045a5760405162461bcd60e51b815260040161045190610df8565b60405180910390fd5b610464828261093f565b5050565b6104723382610973565b50565b61047d610912565b6104865f6109a7565b565b610493823383610839565b6104648282610973565b6104a56109f8565b60075460ff166104ee5760405162461bcd60e51b81526020600482015260146024820152731093d50e8819985d58d95d08191a5cd8589b195960621b6044820152606401610451565b6001600160a01b0382166105385760405162461bcd60e51b8152602060048201526011602482015270424f543a207a65726f206164647265737360781b6044820152606401610451565b6b033b2e3c9fd0803ce80000008161054f60025490565b6105599190610de5565b11156105775760405162461bcd60e51b815260040161045190610df8565b46617a69036105d25761058a828261093f565b816001600160a01b03167f8a28e0854ec5cebc76dc276a5b565c3a3b0c140a254ed392854ee136cb258b69826040516105c591815260200190565b60405180910390a26106f6565b335f908152600660205260409020546105ee90610e1090610de5565b42101561063d5760405162461bcd60e51b815260206004820152601b60248201527f424f543a2066617563657420636f6f6c646f776e2061637469766500000000006044820152606401610451565b6b033b2e3c9fd0803ce8000000683635c9adc5dea0000061065d60025490565b6106679190610de5565b11156106855760405162461bcd60e51b815260040161045190610df8565b335f9081526006602052604090204290556106a982683635c9adc5dea0000061093f565b816001600160a01b03167f8a28e0854ec5cebc76dc276a5b565c3a3b0c140a254ed392854ee136cb258b69683635c9adc5dea000006040516106ed91815260200190565b60405180910390a25b61046460017f9b779b17422d0df92223018b32b4d1fa46e071723d6817e2486d003becc55f0055565b610727610912565b6007805460ff19168215159081179091556040519081527f87e7975983dfa9eadba810a775cce04da400ce8dcc3f201b0e2def605d58911d9060200160405180910390a150565b60606004805461034d90610d99565b5f336103db8185856108b5565b6001600160a01b0381165f908152600660205260408120546107af90610e1090610de5565b42106107bc57505f919050565b6001600160a01b0382165f9081526006602052604090205442906107e390610e1090610de5565b6103e19190610e2f565b6107f5610912565b6001600160a01b03811661081e57604051631e4fbdf760e01b81525f6004820152602401610451565b610472816109a7565b6108348383836001610a26565b505050565b6001600160a01b038381165f908152600160209081526040808320938616835292905220545f198110156108af57818110156108a157604051637dc7a0d960e11b81526001600160a01b03841660048201526024810182905260448101839052606401610451565b6108af84848484035f610a26565b50505050565b6001600160a01b0383166108de57604051634b637e8f60e11b81525f6004820152602401610451565b6001600160a01b0382166109075760405163ec442f0560e01b81525f6004820152602401610451565b610834838383610af8565b6005546001600160a01b031633146104865760405163118cdaa760e01b8152336004820152602401610451565b6001600160a01b0382166109685760405163ec442f0560e01b81525f6004820152602401610451565b6104645f8383610af8565b6001600160a01b03821661099c57604051634b637e8f60e11b81525f6004820152602401610451565b610464825f83610af8565b600580546001600160a01b038381166001600160a01b0319831681179093556040519116919082907f8be0079c531659141344cd1fd0a4f28419497f9722a3daafe3b4186f6b6457e0905f90a35050565b610a00610c1e565b60027f9b779b17422d0df92223018b32b4d1fa46e071723d6817e2486d003becc55f0055565b6001600160a01b038416610a4f5760405163e602df0560e01b81525f6004820152602401610451565b6001600160a01b038316610a7857604051634a1406b160e11b81525f6004820152602401610451565b6001600160a01b038085165f90815260016020908152604080832093871683529290522082905580156108af57826001600160a01b0316846001600160a01b03167f8c5be1e5ebec7d5bd14f71427d1e84f3dd0314c0f7b2291e5b200ac8c7c3b92584604051610aea91815260200190565b60405180910390a350505050565b6001600160a01b038316610b22578060025f828254610b179190610de5565b90915550610b929050565b6001600160a01b0383165f9081526020819052604090205481811015610b745760405163391434e360e21b81526001600160a01b03851660048201526024810182905260448101839052606401610451565b6001600160a01b0384165f9081526020819052604090209082900390555b6001600160a01b038216610bae57600280548290039055610bcc565b6001600160a01b0382165f9081526020819052604090208054820190555b816001600160a01b0316836001600160a01b03167fddf252ad1be2c89b69c2b068fc378daa952ba7f163c4a11628f55a4df523b3ef83604051610c1191815260200190565b60405180910390a3505050565b7f9b779b17422d0df92223018b32b4d1fa46e071723d6817e2486d003becc55f005460020361048657604051633ee5aeb560e01b815260040160405180910390fd5b602081525f82518060208401528060208501604085015e5f604082850101526040601f19601f83011684010191505092915050565b80356001600160a01b0381168114610cab575f80fd5b919050565b5f8060408385031215610cc1575f80fd5b610cca83610c95565b946020939093013593505050565b5f805f60608486031215610cea575f80fd5b610cf384610c95565b9250610d0160208501610c95565b929592945050506040919091013590565b5f60208284031215610d22575f80fd5b5035919050565b5f60208284031215610d39575f80fd5b610d4282610c95565b9392505050565b5f60208284031215610d59575f80fd5b81358015158114610d42575f80fd5b5f8060408385031215610d79575f80fd5b610d8283610c95565b9150610d9060208401610c95565b90509250929050565b600181811c90821680610dad57607f821691505b602082108103610dcb57634e487b7160e01b5f52602260045260245ffd5b50919050565b634e487b7160e01b5f52601160045260245ffd5b808201808211156103e1576103e1610dd1565b60208082526018908201527f424f543a206d617820737570706c792065786365656465640000000000000000604082015260600190565b818103818111156103e1576103e1610dd156fea2646970667358221220869b9598f873324d4ba2058efe88846faadb948e95f7b5126a4ed213806439fd64736f6c634300081a0033",
  "linkReferences": {},
  "deployedLinkReferences": {}
}