{
  "_format": "hh-sol-artifact-1",
  "contractName": "HubTreasury",
  "sourceName": "contracts/hub/HubTreasury.sol",
  "abi": [
    {
      "inputs": [
        {
          "internalType": "address",
          "name": "_devWallet",
          "type": "address"
        },
        {
          "internalType": "address",
          "name": "_daoWallet",
          "type": "address"
        },
        {
          "internalType": "address",
          "name": "_reserveWallet",
          "type": "address"
        },
        {
          "internalType": "address",
          "name": "_feeRouter",
          "type": "address"
        }
      ],
      "stateMutability": "nonpayable",
      "type": "constructor"
    },
    {
      "anonymous": false,
      "inputs": [
        {
          "indexed": true,
          "internalType": "address",
          "name": "source",
          "type": "address"
        },
        {
          "indexed": true,
          "internalType": "address",
          "name": "token",
          "type": "address"
        },
        {
          "indexed": false,
          "internalType": "uint256",
          "name": "amount",
          "type": "uint256"
        },
        {
          "indexed": false,
          "internalType": "bytes32",
          "name": "category",
          "type": "bytes32"
        }
      ],
      "name": "FeeReceived",
      "type": "event"
    },
    {
      "anonymous": false,
      "inputs": [
        {
          "indexed": true,
          "internalType": "address",
          "name": "feeRouter",
          "type": "address"
        }
      ],
      "name": "FeeRouterUpdated",
      "type": "event"
    },
    {
      "anonymous": false,
      "inputs": [
        {
          "indexed": false,
          "internalType": "uint16",
          "name": "devBps",
          "type": "uint16"
        },
        {
          "indexed": false,
          "internalType": "uint16",
          "name": "daoBps",
          "type": "uint16"
        },
        {
          "indexed": false,
          "internalType": "uint16",
          "name": "reserveBps",
          "type": "uint16"
        }
      ],
      "name": "FeeSplitsUpdated",
      "type": "event"
    },
    {
      "anonymous": false,
      "inputs": [
        {
          "indexed": true,
          "internalType": "address",
          "name": "previousOwner",
          "type": "address"
        },
        {
          "indexed": true,
          "internalType": "address",
          "name": "newOwner",
          "type": "address"
        }
      ],
      "name": "OwnershipTransferred",
      "type": "event"
    },
    {
      "inputs": [
        {
          "internalType": "address",
          "name": "token",
          "type": "address"
        },
        {
          "internalType": "address",
          "name": "source",
          "type": "address"
        },
        {
          "internalType": "uint256",
          "name": "amount",
          "type": "uint256"
        },
        {
          "internalType": "bytes32",
          "name": "category",
          "type": "bytes32"
        }
      ],
      "name": "collectFee",
      "outputs": [],
      "stateMutability": "payable",
      "type": "function"
    },
    {
      "inputs": [],
      "name": "daoBps",
      "outputs": [
        {
          "internalType": "uint16",
          "name": "",
          "type": "uint16"
        }
      ],
      "stateMutability": "view",
      "type": "function"
    },
    {
      "inputs": [],
      "name": "daoWallet",
      "outputs": [
        {
          "internalType": "address",
          "name": "",
          "type": "address"
        }
      ],
      "stateMutability": "view",
      "type": "function"
    },
    {
      "inputs": [],
      "name": "devBps",
      "outputs": [
        {
          "internalType": "uint16",
          "name": "",
          "type": "uint16"
        }
      ],
      "stateMutability": "view",
      "type": "function"
    },
    {
      "inputs": [],
      "name": "devWallet",
      "outputs": [
        {
          "internalType": "address",
          "name": "",
          "type": "address"
        }
      ],
      "stateMutability": "view",
      "type": "function"
    },
    {
      "inputs": [],
      "name": "feeRouter",
      "outputs": [
        {
          "internalType": "address",
          "name": "",
          "type": "address"
        }
      ],
      "stateMutability": "view",
      "type": "function"
    },
    {
      "inputs": [],
      "name": "owner",
      "outputs": [
        {
          "internalType": "address",
          "name": "",
          "type": "address"
        }
      ],
      "stateMutability": "view",
      "type": "function"
    },
    {
      "inputs": [],
      "name": "renounceOwnership",
      "outputs": [],
      "stateMutability": "nonpayable",
      "type": "function"
    },
    {
      "inputs": [],
      "name": "reserveBps",
      "outputs": [
        {
          "internalType": "uint16",
          "name": "",
          "type": "uint16"
        }
      ],
      "stateMutability": "view",
      "type": "function"
    },
    {
      "inputs": [],
      "name": "reserveWallet",
      "outputs": [
        {
          "internalType": "address",
          "name": "",
          "type": "address"
        }
      ],
      "stateMutability": "view",
      "type": "function"
    },
    {
      "inputs": [
        {
          "internalType": "address",
          "name": "_feeRouter",
          "type": "address"
        }
      ],
      "name": "setFeeRouter",
      "outputs": [],
      "stateMutability": "nonpayable",
      "type": "function"
    },
    {
      "inputs": [
        {
          "internalType": "uint16",
          "name": "_devBps",
          "type": "uint16"
        },
        {
          "internalType": "uint16",
          "name": "_daoBps",
          "type": "uint16"
        },
        {
          "internalType": "uint16",
          "name": "_reserveBps",
          "type": "uint16"
        }
      ],
      "name": "setFeeSplits",
      "outputs": [],
      "stateMutability": "nonpayable",
      "type": "function"
    },
    {
      "inputs": [
        {
          "internalType": "address",
          "name": "token",
          "type": "address"
        },
        {
          "internalType": "uint256",
          "name": "amount",
          "type": "uint256"
        },
        {
          "internalType": "address",
          "name": "recipient",
          "type": "address"
        }
      ],
      "name": "sweepERC20",
      "outputs": [],
      "stateMutability": "nonpayable",
      "type": "function"
    },
    {
      "inputs": [
        {
          "internalType": "uint256",
          "name": "amount",
          "type": "uint256"
        },
        {
          "internalType": "address payable",
          "name": "recipient",
          "type": "address"
        }
      ],
      "name": "sweepNative",
      "outputs": [],
      "stateMutability": "nonpayable",
      "type": "function"
    },
    {
      "inputs": [
        {
          "internalType": "address",
          "name": "newOwner",
          "type": "address"
        }
      ],
      "name": "transferOwnership",
      "outputs": [],
      "stateMutability": "nonpayable",
      "type": "function"
    },
    {
      "stateMutability": "payable",
      "type": "receive"
    }
  ],
  "bytecode": "0x60806040523480156200001157600080fd5b506040516200139d3803806200139d833981016040819052620000349162000219565b6200003f33620001ac565b6001600160a01b038416620000905760405162461bcd60e51b8152602060048201526012602482015271125b9d985b1a590819195d881dd85b1b195d60721b60448201526064015b60405180910390fd5b6001600160a01b038316620000dd5760405162461bcd60e51b8152602060048201526012602482015271125b9d985b1a590819185bc81dd85b1b195d60721b604482015260640162000087565b6001600160a01b038216620001355760405162461bcd60e51b815260206004820152601660248201527f496e76616c696420726573657276652077616c6c657400000000000000000000604482015260640162000087565b600180546001600160a01b03199081166001600160a01b039687161790915560028054821694861694909417909355600380549093169184169190911790915560048054919092166001600160b01b03199091161761017760a21b1763ffffffff60b01b19166301b5827160b31b17905562000276565b600080546001600160a01b038381166001600160a01b0319831681178455604051919092169283917f8be0079c531659141344cd1fd0a4f28419497f9722a3daafe3b4186f6b6457e09190a35050565b80516001600160a01b03811681146200021457600080fd5b919050565b600080600080608085870312156200023057600080fd5b6200023b85620001fc565b93506200024b60208601620001fc565b92506200025b60408601620001fc565b91506200026b60608601620001fc565b905092959194509250565b61111780620002866000396000f3fe6080604052600436106100ec5760003560e01c8063846344fe1161008a578063c267ada411610059578063c267ada414610276578063d72b11bd14610296578063f29ebf61146102b6578063f2fde38b146102d657600080fd5b8063846344fe146101f6578063896100a8146102185780638da5cb5b146102385780638ea5220f1461025657600080fd5b80636033e315116100c65780636033e31514610174578063698a589714610187578063715018a6146101bf57806378b2c179146101d457600080fd5b80632f77e519146100f8578063389254491461011a5780635e964c1f1461015457600080fd5b366100f357005b600080fd5b34801561010457600080fd5b50610118610113366004610e8e565b6102f6565b005b34801561012657600080fd5b5060045461013c90600160c01b900461ffff1681565b60405161ffff90911681526020015b60405180910390f35b34801561016057600080fd5b5061011861016f366004610ee6565b6103f8565b610118610182366004610f28565b610463565b34801561019357600080fd5b506002546101a7906001600160a01b031681565b6040516001600160a01b03909116815260200161014b565b3480156101cb57600080fd5b506101186105ee565b3480156101e057600080fd5b5060045461013c90600160a01b900461ffff1681565b34801561020257600080fd5b5060045461013c90600160b01b900461ffff1681565b34801561022457600080fd5b50610118610233366004610f6e565b610602565b34801561024457600080fd5b506000546001600160a01b03166101a7565b34801561026257600080fd5b506001546101a7906001600160a01b031681565b34801561028257600080fd5b50610118610291366004610f9e565b6106ed565b3480156102a257600080fd5b506003546101a7906001600160a01b031681565b3480156102c257600080fd5b506004546101a7906001600160a01b031681565b3480156102e257600080fd5b506101186102f1366004610f9e565b610786565b6102fe6107ff565b806103098385610fd8565b6103139190610fd8565b61ffff16612710146103655760405162461bcd60e51b8152602060048201526016602482015275053706c6974206d75737420657175616c2031303030360541b60448201526064015b60405180910390fd5b6004805463ffffffff60a01b1916600160a01b61ffff86811691820261ffff60b01b191692909217600160b01b8684169081029190911761ffff60c01b1916600160c01b93861693840217909355604080519182526020820193909352918201527f6f415c11b7bcf9aa53bc9fb02d93cbd1dce90adf2fdf7bc03dd24ece4fe2fc709060600160405180910390a1505050565b6104006107ff565b6001600160a01b03811661044a5760405162461bcd60e51b8152602060048201526011602482015270125b9d985b1a59081c9958da5c1a595b9d607a1b604482015260640161035c565b61045e6001600160a01b0384168284610859565b505050565b6004546001600160a01b031633146104ab5760405162461bcd60e51b815260206004820152600b60248201526a27b7363c903937baba32b960a91b604482015260640161035c565b600082116104e95760405162461bcd60e51b815260206004820152600b60248201526a16995c9bc8185b5bdd5b9d60aa1b604482015260640161035c565b6001600160a01b038416610546578134146105385760405162461bcd60e51b815260206004820152600f60248201526e09cc2e8d2ecca40dad2e6dac2e8c6d608b1b604482015260640161035c565b610541826108ab565b610592565b34156105885760405162461bcd60e51b8152602060048201526011602482015270556e6578706563746564206e617469766560781b604482015260640161035c565b6105928483610afc565b836001600160a01b0316836001600160a01b03167fa805a6f08f442b78557bf1d843e4f3ea5428e9f65855b549b8c9b3ce1f3620bb84846040516105e0929190918252602082015260400190565b60405180910390a350505050565b6105f66107ff565b6106006000610bc2565b565b61060a6107ff565b6001600160a01b0381166106545760405162461bcd60e51b8152602060048201526011602482015270125b9d985b1a59081c9958da5c1a595b9d607a1b604482015260640161035c565b6000816001600160a01b03168360405160006040518083038185875af1925050503d80600081146106a1576040519150601f19603f3d011682016040523d82523d6000602084013e6106a6565b606091505b505090508061045e5760405162461bcd60e51b815260206004820152601360248201527213985d1a5d99481cddd9595c0819985a5b1959606a1b604482015260640161035c565b6106f56107ff565b6001600160a01b03811661073c5760405162461bcd60e51b815260206004820152600e60248201526d24b73b30b634b2103937baba32b960911b604482015260640161035c565b600480546001600160a01b0319166001600160a01b0383169081179091556040517f5ccf3fd6765dc8494fc06089f546346290465d6e9ee1c0a33854372d264d9c4890600090a250565b61078e6107ff565b6001600160a01b0381166107f35760405162461bcd60e51b815260206004820152602660248201527f4f776e61626c653a206e6577206f776e657220697320746865207a65726f206160448201526564647265737360d01b606482015260840161035c565b6107fc81610bc2565b50565b6000546001600160a01b031633146106005760405162461bcd60e51b815260206004820181905260248201527f4f776e61626c653a2063616c6c6572206973206e6f7420746865206f776e6572604482015260640161035c565b604080516001600160a01b038416602482015260448082018490528251808303909101815260649091019091526020810180516001600160e01b031663a9059cbb60e01b17905261045e908490610c12565b600454600090612710906108ca90600160a01b900461ffff1684610ffa565b6108d49190611017565b600454909150600090612710906108f690600160b01b900461ffff1685610ffa565b6109009190611017565b905060008161090f8486611039565b6109199190611039565b6001546040519192506000916001600160a01b039091169085908381818185875af1925050503d806000811461096b576040519150601f19603f3d011682016040523d82523d6000602084013e610970565b606091505b50509050806109b75760405162461bcd60e51b815260206004820152601360248201527211195d881d1c985b9cd9995c8819985a5b1959606a1b604482015260640161035c565b6002546040516000916001600160a01b03169085908381818185875af1925050503d8060008114610a04576040519150601f19603f3d011682016040523d82523d6000602084013e610a09565b606091505b5050905080610a505760405162461bcd60e51b8152602060048201526013602482015272111053c81d1c985b9cd9995c8819985a5b1959606a1b604482015260640161035c565b6003546040516000916001600160a01b03169085908381818185875af1925050503d8060008114610a9d576040519150601f19603f3d011682016040523d82523d6000602084013e610aa2565b606091505b5050905080610af35760405162461bcd60e51b815260206004820152601760248201527f52657365727665207472616e73666572206661696c6564000000000000000000604482015260640161035c565b50505050505050565b60045460009061271090610b1b90600160a01b900461ffff1684610ffa565b610b259190611017565b60045490915060009061271090610b4790600160b01b900461ffff1685610ffa565b610b519190611017565b9050600081610b608486611039565b610b6a9190611039565b600154909150610b87906001600160a01b03878116911685610859565b600254610ba1906001600160a01b03878116911684610859565b600354610bbb906001600160a01b03878116911683610859565b5050505050565b600080546001600160a01b038381166001600160a01b0319831681178455604051919092169283917f8be0079c531659141344cd1fd0a4f28419497f9722a3daafe3b4186f6b6457e09190a35050565b6000610c67826040518060400160405280602081526020017f5361666545524332303a206c6f772d6c6576656c2063616c6c206661696c6564815250856001600160a01b0316610ce79092919063ffffffff16565b9050805160001480610c88575080806020019051810190610c88919061104c565b61045e5760405162461bcd60e51b815260206004820152602a60248201527f5361666545524332303a204552433230206f7065726174696f6e20646964206e6044820152691bdd081cdd58d8d9595960b21b606482015260840161035c565b6060610cf68484600085610cfe565b949350505050565b606082471015610d5f5760405162461bcd60e51b815260206004820152602660248201527f416464726573733a20696e73756666696369656e742062616c616e636520666f6044820152651c8818d85b1b60d21b606482015260840161035c565b600080866001600160a01b03168587604051610d7b9190611092565b60006040518083038185875af1925050503d8060008114610db8576040519150601f19603f3d011682016040523d82523d6000602084013e610dbd565b606091505b5091509150610dce87838387610dd9565b979650505050505050565b60608315610e48578251600003610e41576001600160a01b0385163b610e415760405162461bcd60e51b815260206004820152601d60248201527f416464726573733a2063616c6c20746f206e6f6e2d636f6e7472616374000000604482015260640161035c565b5081610cf6565b610cf68383815115610e5d5781518083602001fd5b8060405162461bcd60e51b815260040161035c91906110ae565b803561ffff81168114610e8957600080fd5b919050565b600080600060608486031215610ea357600080fd5b610eac84610e77565b9250610eba60208501610e77565b9150610ec860408501610e77565b90509250925092565b6001600160a01b03811681146107fc57600080fd5b600080600060608486031215610efb57600080fd5b8335610f0681610ed1565b9250602084013591506040840135610f1d81610ed1565b809150509250925092565b60008060008060808587031215610f3e57600080fd5b8435610f4981610ed1565b93506020850135610f5981610ed1565b93969395505050506040820135916060013590565b60008060408385031215610f8157600080fd5b823591506020830135610f9381610ed1565b809150509250929050565b600060208284031215610fb057600080fd5b8135610fbb81610ed1565b9392505050565b634e487b7160e01b600052601160045260246000fd5b61ffff818116838216019080821115610ff357610ff3610fc2565b5092915050565b808202811582820484141761101157611011610fc2565b92915050565b60008261103457634e487b7160e01b600052601260045260246000fd5b500490565b8181038181111561101157611011610fc2565b60006020828403121561105e57600080fd5b81518015158114610fbb57600080fd5b60005b83811015611089578181015183820152602001611071565b50506000910152565b600082516110a481846020870161106e565b9190910192915050565b60208152600082518060208401526110cd81604085016020870161106e565b601f01601f1916919091016040019291505056fea26469706673582212204f60a4a29f0309b63e3497a828b54c4bb9f76e76b626c66942616003ef3c3eb364736f6c63430008180033",
  "linkReferences": {},
  "deployedLinkReferences": {}
}