{
  "_format": "hh-sol-artifact-1",
  "contractName": "HubDappExample",
  "sourceName": "contracts/hub/HubDappExample.sol",
  "abi": [
    {
      "inputs": [
        {
          "internalType": "address",
          "name": "_revenueToken",
          "type": "address"
        },
        {
          "internalType": "address",
          "name": "_hubFeeCollector",
          "type": "address"
        },
        {
          "internalType": "uint16",
          "name": "_hubFeeBps",
          "type": "uint16"
        }
      ],
      "stateMutability": "nonpayable",
      "type": "constructor"
    },
    {
      "anonymous": false,
      "inputs": [
        {
          "indexed": true,
          "internalType": "address",
          "name": "payer",
          "type": "address"
        },
        {
          "indexed": false,
          "internalType": "uint256",
          "name": "grossAmount",
          "type": "uint256"
        },
        {
          "indexed": false,
          "internalType": "uint256",
          "name": "netAmount",
          "type": "uint256"
        },
        {
          "indexed": false,
          "internalType": "uint256",
          "name": "feeAmount",
          "type": "uint256"
        },
        {
          "indexed": false,
          "internalType": "uint256",
          "name": "timestamp",
          "type": "uint256"
        }
      ],
      "name": "DappAudit",
      "type": "event"
    },
    {
      "anonymous": false,
      "inputs": [
        {
          "indexed": true,
          "internalType": "address",
          "name": "collector",
          "type": "address"
        },
        {
          "indexed": false,
          "internalType": "uint16",
          "name": "feeBps",
          "type": "uint16"
        }
      ],
      "name": "HubFeeConfig",
      "type": "event"
    },
    {
      "anonymous": false,
      "inputs": [
        {
          "indexed": true,
          "internalType": "address",
          "name": "previousOwner",
          "type": "address"
        },
        {
          "indexed": true,
          "internalType": "address",
          "name": "newOwner",
          "type": "address"
        }
      ],
      "name": "OwnershipTransferred",
      "type": "event"
    },
    {
      "anonymous": false,
      "inputs": [
        {
          "indexed": true,
          "internalType": "address",
          "name": "payer",
          "type": "address"
        },
        {
          "indexed": false,
          "internalType": "uint256",
          "name": "grossAmount",
          "type": "uint256"
        },
        {
          "indexed": false,
          "internalType": "uint256",
          "name": "netAmount",
          "type": "uint256"
        },
        {
          "indexed": true,
          "internalType": "address",
          "name": "token",
          "type": "address"
        },
        {
          "indexed": false,
          "internalType": "uint256",
          "name": "targetChainId",
          "type": "uint256"
        },
        {
          "indexed": false,
          "internalType": "bytes32",
          "name": "category",
          "type": "bytes32"
        }
      ],
      "name": "RevenueProcessed",
      "type": "event"
    },
    {
      "inputs": [],
      "name": "hubFeeBps",
      "outputs": [
        {
          "internalType": "uint16",
          "name": "",
          "type": "uint16"
        }
      ],
      "stateMutability": "view",
      "type": "function"
    },
    {
      "inputs": [],
      "name": "hubFeeCollector",
      "outputs": [
        {
          "internalType": "address",
          "name": "",
          "type": "address"
        }
      ],
      "stateMutability": "view",
      "type": "function"
    },
    {
      "inputs": [
        {
          "internalType": "address",
          "name": "",
          "type": "address"
        }
      ],
      "name": "netRevenue",
      "outputs": [
        {
          "internalType": "uint256",
          "name": "",
          "type": "uint256"
        }
      ],
      "stateMutability": "view",
      "type": "function"
    },
    {
      "inputs": [],
      "name": "owner",
      "outputs": [
        {
          "internalType": "address",
          "name": "",
          "type": "address"
        }
      ],
      "stateMutability": "view",
      "type": "function"
    },
    {
      "inputs": [
        {
          "internalType": "uint256",
          "name": "grossAmount",
          "type": "uint256"
        },
        {
          "internalType": "uint256",
          "name": "targetChainId",
          "type": "uint256"
        },
        {
          "internalType": "bytes32",
          "name": "category",
          "type": "bytes32"
        }
      ],
      "name": "processRevenue",
      "outputs": [
        {
          "internalType": "uint256",
          "name": "netAmount",
          "type": "uint256"
        }
      ],
      "stateMutability": "nonpayable",
      "type": "function"
    },
    {
      "inputs": [],
      "name": "renounceOwnership",
      "outputs": [],
      "stateMutability": "nonpayable",
      "type": "function"
    },
    {
      "inputs": [],
      "name": "revenueToken",
      "outputs": [
        {
          "internalType": "address",
          "name": "",
          "type": "address"
        }
      ],
      "stateMutability": "view",
      "type": "function"
    },
    {
      "inputs": [
        {
          "internalType": "address",
          "name": "collector",
          "type": "address"
        },
        {
          "internalType": "uint16",
          "name": "feeBps",
          "type": "uint16"
        }
      ],
      "name": "setHubFeeConfig",
      "outputs": [],
      "stateMutability": "nonpayable",
      "type": "function"
    },
    {
      "inputs": [
        {
          "internalType": "address",
          "name": "token",
          "type": "address"
        }
      ],
      "name": "setRevenueToken",
      "outputs": [],
      "stateMutability": "nonpayable",
      "type": "function"
    },
    {
      "inputs": [
        {
          "internalType": "address",
          "name": "newOwner",
          "type": "address"
        }
      ],
      "name": "transferOwnership",
      "outputs": [],
      "stateMutability": "nonpayable",
      "type": "function"
    },
    {
      "inputs": [
        {
          "internalType": "address",
          "name": "token",
          "type": "address"
        },
        {
          "internalType": "uint256",
          "name": "amount",
          "type": "uint256"
        }
      ],
      "name": "withdrawNetRevenue",
      "outputs": [],
      "stateMutability": "nonpayable",
      "type": "function"
    }
  ],
  "bytecode": "0x60806040523480156200001157600080fd5b506040516200115e3803806200115e8339810160408190526200003491620001f2565b6200003f3362000185565b6001600160a01b0383166200009b5760405162461bcd60e51b815260206004820152601560248201527f496e76616c696420726576656e756520746f6b656e000000000000000000000060448201526064015b60405180910390fd5b6001600160a01b038216620000f35760405162461bcd60e51b815260206004820152601560248201527f496e76616c69642066656520636f6c6c6563746f720000000000000000000000604482015260640162000092565b6107d08161ffff1611156200013a5760405162461bcd60e51b815260206004820152600c60248201526b08ccaca40e8dede40d0d2ced60a31b604482015260640162000092565b600280546001600160a01b039485166001600160a01b03199091161790556001805461ffff909216600160a01b026001600160b01b0319909216929093169190911717905562000246565b600080546001600160a01b038381166001600160a01b0319831681178455604051919092169283917f8be0079c531659141344cd1fd0a4f28419497f9722a3daafe3b4186f6b6457e09190a35050565b80516001600160a01b0381168114620001ed57600080fd5b919050565b6000806000606084860312156200020857600080fd5b6200021384620001d5565b92506200022360208501620001d5565b9150604084015161ffff811681146200023b57600080fd5b809150509250925092565b610f0880620002566000396000f3fe608060405234801561001057600080fd5b50600436106100a95760003560e01c80638da5cb5b116100715780638da5cb5b14610151578063b1af21fe14610162578063cde8861514610175578063dbf12e8a14610188578063ef0ef77d1461019b578063f2fde38b146101ae57600080fd5b8063181b7b24146100ae578063289a0d98146100e1578063556e4e68146100f65780635b36cfb314610121578063715018a614610149575b600080fd5b6100ce6100bc366004610cb3565b60036020526000908152604090205481565b6040519081526020015b60405180910390f35b6100f46100ef366004610cd5565b6101c1565b005b600254610109906001600160a01b031681565b6040516001600160a01b0390911681526020016100d8565b60015461013690600160a01b900461ffff1681565b60405161ffff90911681526020016100d8565b6100f4610262565b6000546001600160a01b0316610109565b6100f4610170366004610cff565b610276565b6100ce610183366004610d3d565b610375565b600154610109906001600160a01b031681565b6100f46101a9366004610cb3565b610419565b6100f46101bc366004610cb3565b610489565b336000908152600360205260409020548111156102255760405162461bcd60e51b815260206004820152601860248201527f496e73756666696369656e74206e657420726576656e7565000000000000000060448201526064015b60405180910390fd5b3360009081526003602052604081208054839290610244908490610d7f565b9091555061025e90506001600160a01b0383163383610502565b5050565b61026a61056a565b61027460006105c4565b565b61027e61056a565b6001600160a01b0382166102c85760405162461bcd60e51b815260206004820152601160248201527024b73b30b634b21031b7b63632b1ba37b960791b604482015260640161021c565b6107d08161ffff16111561030d5760405162461bcd60e51b815260206004820152600c60248201526b08ccaca40e8dede40d0d2ced60a31b604482015260640161021c565b600180546001600160a01b0384166001600160b01b03199091168117600160a01b61ffff851690810291909117909255604051918252907f206efbc01407531bcfca41be15ac32ca47513daa5782938f6665da779c212fe89060200160405180910390a25050565b600254600090610390906001600160a01b0316858585610614565b336000908152600360205260408120805492935083929091906103b4908490610d98565b90915550506002546040805186815260208101849052908101859052606081018490526001600160a01b039091169033907fd8012303c9a1a17f0148ee2a6f715f576fc5f3aadc90d5aadaa08415edd09c979060800160405180910390a39392505050565b61042161056a565b6001600160a01b0381166104675760405162461bcd60e51b815260206004820152600d60248201526c24b73b30b634b2103a37b5b2b760991b604482015260640161021c565b600280546001600160a01b0319166001600160a01b0392909216919091179055565b61049161056a565b6001600160a01b0381166104f65760405162461bcd60e51b815260206004820152602660248201527f4f776e61626c653a206e6577206f776e657220697320746865207a65726f206160448201526564647265737360d01b606482015260840161021c565b6104ff816105c4565b50565b6040516001600160a01b03831660248201526044810182905261056590849063a9059cbb60e01b906064015b60408051601f198184030181529190526020810180516001600160e01b03166001600160e01b031990931692909217909152610a61565b505050565b6000546001600160a01b031633146102745760405162461bcd60e51b815260206004820181905260248201527f4f776e61626c653a2063616c6c6572206973206e6f7420746865206f776e6572604482015260640161021c565b600080546001600160a01b038381166001600160a01b0319831681178455604051919092169283917f8be0079c531659141344cd1fd0a4f28419497f9722a3daafe3b4186f6b6457e09190a35050565b6001546000906001600160a01b03166106675760405162461bcd60e51b81526020600482015260156024820152741199594818dbdb1b1958dd1bdc881b9bdd081cd95d605a1b604482015260640161021c565b600154600160a01b900461ffff166106ba5760405162461bcd60e51b815260206004820152601660248201527511995948189c1cc81b9bdd0818dbdb999a59dd5c995960521b604482015260640161021c565b600084116106fe5760405162461bcd60e51b815260206004820152601160248201527047726f737320616d6f756e74207a65726f60781b604482015260640161021c565b6001546000906127109061071d90600160a01b900461ffff1687610dab565b6107279190610dc2565b905060006107358287610d7f565b90506001600160a01b0387166107fd5785341461078c5760405162461bcd60e51b8152602060048201526015602482015274125b9d985b1a59081b985d1a5d9948185b5bdd5b9d605a1b604482015260640161021c565b60015460405163cf300b9160e01b81526001600160a01b039091169063cf300b919084906107c69033908c9084908c908c90600401610de4565b6000604051808303818588803b1580156107df57600080fd5b505af11580156107f3573d6000803e3d6000fd5b5050505050610a55565b6108126001600160a01b038816333089610b36565b6040516370a0823160e01b815230600482015286906001600160a01b038916906370a0823190602401602060405180830381865afa158015610858573d6000803e3d6000fd5b505050506040513d601f19601f8201168201806040525081019061087c9190610e24565b10156108ca5760405162461bcd60e51b815260206004820152601a60248201527f4461707020646964206e6f7420726563656976652067726f7373000000000000604482015260640161021c565b6001546108e4906001600160a01b03898116911684610502565b6001546040516370a0823160e01b81526001600160a01b03918216600482015283918916906370a0823190602401602060405180830381865afa15801561092f573d6000803e3d6000fd5b505050506040513d601f19601f820116820180604052508101906109539190610e24565b10156109a15760405162461bcd60e51b815260206004820152601860248201527f46656520636f6c6c6563746f72206e6f742066756e6465640000000000000000604482015260640161021c565b60015460405163cf300b9160e01b81526001600160a01b039091169063cf300b91906109d99033908b9087908b908b90600401610de4565b600060405180830381600087803b1580156109f357600080fd5b505af1158015610a07573d6000803e3d6000fd5b505060408051898152602081018590529081018590524260608201523392507fe5e6381592fb15cf404d99e123ac1f990460d6ae5ce01c8fdcef4dfa2c66d8ca915060800160405180910390a25b9150505b949350505050565b6000610ab6826040518060400160405280602081526020017f5361666545524332303a206c6f772d6c6576656c2063616c6c206661696c6564815250856001600160a01b0316610b749092919063ffffffff16565b9050805160001480610ad7575080806020019051810190610ad79190610e3d565b6105655760405162461bcd60e51b815260206004820152602a60248201527f5361666545524332303a204552433230206f7065726174696f6e20646964206e6044820152691bdd081cdd58d8d9595960b21b606482015260840161021c565b6040516001600160a01b0380851660248301528316604482015260648101829052610b6e9085906323b872dd60e01b9060840161052e565b50505050565b6060610a59848460008585600080866001600160a01b03168587604051610b9b9190610e83565b60006040518083038185875af1925050503d8060008114610bd8576040519150601f19603f3d011682016040523d82523d6000602084013e610bdd565b606091505b5091509150610bee87838387610bf9565b979650505050505050565b60608315610c68578251600003610c61576001600160a01b0385163b610c615760405162461bcd60e51b815260206004820152601d60248201527f416464726573733a2063616c6c20746f206e6f6e2d636f6e7472616374000000604482015260640161021c565b5081610a59565b610a598383815115610c7d5781518083602001fd5b8060405162461bcd60e51b815260040161021c9190610e9f565b80356001600160a01b0381168114610cae57600080fd5b919050565b600060208284031215610cc557600080fd5b610cce82610c97565b9392505050565b60008060408385031215610ce857600080fd5b610cf183610c97565b946020939093013593505050565b60008060408385031215610d1257600080fd5b610d1b83610c97565b9150602083013561ffff81168114610d3257600080fd5b809150509250929050565b600080600060608486031215610d5257600080fd5b505081359360208301359350604090920135919050565b634e487b7160e01b600052601160045260246000fd5b81810381811115610d9257610d92610d69565b92915050565b80820180821115610d9257610d92610d69565b8082028115828204841417610d9257610d92610d69565b600082610ddf57634e487b7160e01b600052601260045260246000fd5b500490565b6001600160a01b03958616815293909416602084015260408301919091526060820152608081019190915260c060a0820181905260009082015260e00190565b600060208284031215610e3657600080fd5b5051919050565b600060208284031215610e4f57600080fd5b81518015158114610cce57600080fd5b60005b83811015610e7a578181015183820152602001610e62565b50506000910152565b60008251610e95818460208701610e5f565b9190910192915050565b6020815260008251806020840152610ebe816040850160208701610e5f565b601f01601f1916919091016040019291505056fea26469706673582212203e80837858edea94c0bdb3db8569af7c61f51d156f666d1d657039e224b6a17764736f6c63430008180033",
  "linkReferences": {},
  "deployedLinkReferences": {}
}