{
  "_format": "hh-sol-artifact-1",
  "contractName": "HubFeeRouter",
  "sourceName": "contracts/hub/HubFeeRouter.sol",
  "abi": [
    {
      "inputs": [
        {
          "internalType": "address",
          "name": "_adapter",
          "type": "address"
        },
        {
          "internalType": "uint256",
          "name": "_localChainId",
          "type": "uint256"
        }
      ],
      "stateMutability": "nonpayable",
      "type": "constructor"
    },
    {
      "anonymous": false,
      "inputs": [
        {
          "indexed": true,
          "internalType": "address",
          "name": "payer",
          "type": "address"
        },
        {
          "indexed": true,
          "internalType": "address",
          "name": "token",
          "type": "address"
        },
        {
          "indexed": false,
          "internalType": "uint256",
          "name": "amount",
          "type": "uint256"
        },
        {
          "indexed": true,
          "internalType": "address",
          "name": "treasury",
          "type": "address"
        },
        {
          "indexed": false,
          "internalType": "uint256",
          "name": "timestamp",
          "type": "uint256"
        }
      ],
      "name": "FeeAudit",
      "type": "event"
    },
    {
      "anonymous": false,
      "inputs": [
        {
          "indexed": true,
          "internalType": "address",
          "name": "feeCollector",
          "type": "address"
        }
      ],
      "name": "FeeCollectorUpdated",
      "type": "event"
    },
    {
      "anonymous": false,
      "inputs": [
        {
          "indexed": true,
          "internalType": "address",
          "name": "token",
          "type": "address"
        },
        {
          "indexed": false,
          "internalType": "uint256",
          "name": "amount",
          "type": "uint256"
        },
        {
          "indexed": false,
          "internalType": "uint256",
          "name": "localChainId",
          "type": "uint256"
        },
        {
          "indexed": false,
          "internalType": "uint256",
          "name": "targetChainId",
          "type": "uint256"
        },
        {
          "indexed": false,
          "internalType": "bytes32",
          "name": "category",
          "type": "bytes32"
        }
      ],
      "name": "FeeRouted",
      "type": "event"
    },
    {
      "anonymous": false,
      "inputs": [
        {
          "indexed": true,
          "internalType": "address",
          "name": "previousOwner",
          "type": "address"
        },
        {
          "indexed": true,
          "internalType": "address",
          "name": "newOwner",
          "type": "address"
        }
      ],
      "name": "OwnershipTransferred",
      "type": "event"
    },
    {
      "anonymous": false,
      "inputs": [
        {
          "indexed": true,
          "internalType": "uint256",
          "name": "chainId",
          "type": "uint256"
        },
        {
          "indexed": true,
          "internalType": "address",
          "name": "treasury",
          "type": "address"
        }
      ],
      "name": "TreasuryRegistered",
      "type": "event"
    },
    {
      "inputs": [],
      "name": "adapter",
      "outputs": [
        {
          "internalType": "contract UniversalAdapter",
          "name": "",
          "type": "address"
        }
      ],
      "stateMutability": "view",
      "type": "function"
    },
    {
      "inputs": [],
      "name": "feeCollector",
      "outputs": [
        {
          "internalType": "address",
          "name": "",
          "type": "address"
        }
      ],
      "stateMutability": "view",
      "type": "function"
    },
    {
      "inputs": [],
      "name": "localChainId",
      "outputs": [
        {
          "internalType": "uint256",
          "name": "",
          "type": "uint256"
        }
      ],
      "stateMutability": "view",
      "type": "function"
    },
    {
      "inputs": [],
      "name": "owner",
      "outputs": [
        {
          "internalType": "address",
          "name": "",
          "type": "address"
        }
      ],
      "stateMutability": "view",
      "type": "function"
    },
    {
      "inputs": [
        {
          "internalType": "uint256",
          "name": "chainId",
          "type": "uint256"
        },
        {
          "internalType": "address",
          "name": "treasury",
          "type": "address"
        }
      ],
      "name": "registerTreasury",
      "outputs": [],
      "stateMutability": "nonpayable",
      "type": "function"
    },
    {
      "inputs": [],
      "name": "renounceOwnership",
      "outputs": [],
      "stateMutability": "nonpayable",
      "type": "function"
    },
    {
      "inputs": [
        {
          "internalType": "address",
          "name": "token",
          "type": "address"
        },
        {
          "internalType": "address",
          "name": "payer",
          "type": "address"
        },
        {
          "internalType": "uint256",
          "name": "amount",
          "type": "uint256"
        },
        {
          "internalType": "uint256",
          "name": "targetChainId",
          "type": "uint256"
        },
        {
          "internalType": "bytes32",
          "name": "category",
          "type": "bytes32"
        }
      ],
      "name": "routeFee",
      "outputs": [],
      "stateMutability": "payable",
      "type": "function"
    },
    {
      "inputs": [
        {
          "internalType": "address",
          "name": "_feeCollector",
          "type": "address"
        }
      ],
      "name": "setFeeCollector",
      "outputs": [],
      "stateMutability": "nonpayable",
      "type": "function"
    },
    {
      "inputs": [
        {
          "internalType": "address",
          "name": "newOwner",
          "type": "address"
        }
      ],
      "name": "transferOwnership",
      "outputs": [],
      "stateMutability": "nonpayable",
      "type": "function"
    },
    {
      "inputs": [
        {
          "internalType": "uint256",
          "name": "",
          "type": "uint256"
        }
      ],
      "name": "treasuryByChain",
      "outputs": [
        {
          "internalType": "address",
          "name": "",
          "type": "address"
        }
      ],
      "stateMutability": "view",
      "type": "function"
    }
  ],
  "bytecode": "0x608060405234801561001057600080fd5b50604051610e4f380380610e4f83398101604081905261002f916100fd565b610038336100ad565b6001600160a01b0382166100845760405162461bcd60e51b815260206004820152600f60248201526e24b73b30b634b21030b230b83a32b960891b604482015260640160405180910390fd5b600180546001600160a01b0319166001600160a01b039390931692909217909155600255610137565b600080546001600160a01b038381166001600160a01b0319831681178455604051919092169283917f8be0079c531659141344cd1fd0a4f28419497f9722a3daafe3b4186f6b6457e09190a35050565b6000806040838503121561011057600080fd5b82516001600160a01b038116811461012757600080fd5b6020939093015192949293505050565b610d09806101466000396000f3fe6080604052600436106100915760003560e01c8063a42dce8011610059578063a42dce801461013f578063c415b95c1461015f578063c62403931461017f578063ef1c1f7c1461019f578063f2fde38b146101d557600080fd5b806303eadcfc1461009657806359d0e6a7146100d35780635b056da5146100e8578063715018a61461010c5780638da5cb5b14610121575b600080fd5b3480156100a257600080fd5b506001546100b6906001600160a01b031681565b6040516001600160a01b0390911681526020015b60405180910390f35b6100e66100e1366004610b61565b6101f5565b005b3480156100f457600080fd5b506100fe60025481565b6040519081526020016100ca565b34801561011857600080fd5b506100e66105fe565b34801561012d57600080fd5b506000546001600160a01b03166100b6565b34801561014b57600080fd5b506100e661015a366004610bae565b610612565b34801561016b57600080fd5b506003546100b6906001600160a01b031681565b34801561018b57600080fd5b506100e661019a366004610bd0565b6106ae565b3480156101ab57600080fd5b506100b66101ba366004610bfc565b6004602052600090815260409020546001600160a01b031681565b3480156101e157600080fd5b506100e66101f0366004610bae565b610758565b6003546001600160a01b031633146102495760405162461bcd60e51b815260206004820152601260248201527127b7363c903332b29031b7b63632b1ba37b960711b60448201526064015b60405180910390fd5b6000828152600460205260409020546001600160a01b0316806102ae5760405162461bcd60e51b815260206004820152601760248201527f5472656173757279206e6f7420726567697374657265640000000000000000006044820152606401610240565b600084116102ec5760405162461bcd60e51b815260206004820152600b60248201526a16995c9bc8185b5bdd5b9d60aa1b6044820152606401610240565b6002548303610477576001600160a01b0386166103ae578334146103435760405162461bcd60e51b815260206004820152600e60248201526d125b9d985b1a5908185b5bdd5b9d60921b6044820152606401610240565b604051636033e31560e01b81526001600160a01b03821690636033e315908690610377908a908a9084908990600401610c15565b6000604051808303818588803b15801561039057600080fd5b505af11580156103a4573d6000803e3d6000fd5b50505050506105a0565b6103c36001600160a01b0387163383876107d1565b604051636033e31560e01b81526001600160a01b03821690636033e315906103f5908990899089908890600401610c15565b600060405180830381600087803b15801561040f57600080fd5b505af1158015610423573d6000803e3d6000fd5b5050604080518781524260208201526001600160a01b0380861694508a811693508916917fd1817554a667df062f15b09cf907330f99ccc42e3880c83f963646079c37d391910160405180910390a46105a0565b6001600160a01b0386166104cd5760405162461bcd60e51b815260206004820181905260248201527f43726f73732d636861696e206e6174697665206e6f7420737570706f727465646044820152606401610240565b600154600254604051631effa54360e21b81526001600160a01b0390921691637bfe950c91610505918a9133918a9190600401610c15565b600060405180830381600087803b15801561051f57600080fd5b505af1158015610533573d6000803e3d6000fd5b50506001546040516320e8c56560e01b81526001600160a01b0390911692506320e8c565915061056d908990859089908990600401610c15565b600060405180830381600087803b15801561058757600080fd5b505af115801561059b573d6000803e3d6000fd5b505050505b6002546040805186815260208101929092528101849052606081018390526001600160a01b038716907f9d2f44bad0847363c98376f84c020e971ba1fbe64a9bcf1a992a3122beca2c859060800160405180910390a2505050505050565b610606610831565b610610600061088b565b565b61061a610831565b6001600160a01b0381166106645760405162461bcd60e51b815260206004820152601160248201527024b73b30b634b21031b7b63632b1ba37b960791b6044820152606401610240565b600380546001600160a01b0319166001600160a01b0383169081179091556040517fe5693914d19c789bdee50a362998c0bc8d035a835f9871da5d51152f0582c34f90600090a250565b6106b6610831565b6001600160a01b0381166106ff5760405162461bcd60e51b815260206004820152601060248201526f496e76616c696420747265617375727960801b6044820152606401610240565b60008281526004602052604080822080546001600160a01b0319166001600160a01b0385169081179091559051909184917fd2880d2b3432aecf0f82bdaa514c1d21225b86d06248663e493ba230043527d29190a35050565b610760610831565b6001600160a01b0381166107c55760405162461bcd60e51b815260206004820152602660248201527f4f776e61626c653a206e6577206f776e657220697320746865207a65726f206160448201526564647265737360d01b6064820152608401610240565b6107ce8161088b565b50565b604080516001600160a01b0385811660248301528416604482015260648082018490528251808303909101815260849091019091526020810180516001600160e01b03166323b872dd60e01b17905261082b9085906108db565b50505050565b6000546001600160a01b031633146106105760405162461bcd60e51b815260206004820181905260248201527f4f776e61626c653a2063616c6c6572206973206e6f7420746865206f776e65726044820152606401610240565b600080546001600160a01b038381166001600160a01b0319831681178455604051919092169283917f8be0079c531659141344cd1fd0a4f28419497f9722a3daafe3b4186f6b6457e09190a35050565b6000610930826040518060400160405280602081526020017f5361666545524332303a206c6f772d6c6576656c2063616c6c206661696c6564815250856001600160a01b03166109b59092919063ffffffff16565b90508051600014806109515750808060200190518101906109519190610c3e565b6109b05760405162461bcd60e51b815260206004820152602a60248201527f5361666545524332303a204552433230206f7065726174696f6e20646964206e6044820152691bdd081cdd58d8d9595960b21b6064820152608401610240565b505050565b60606109c484846000856109cc565b949350505050565b606082471015610a2d5760405162461bcd60e51b815260206004820152602660248201527f416464726573733a20696e73756666696369656e742062616c616e636520666f6044820152651c8818d85b1b60d21b6064820152608401610240565b600080866001600160a01b03168587604051610a499190610c84565b60006040518083038185875af1925050503d8060008114610a86576040519150601f19603f3d011682016040523d82523d6000602084013e610a8b565b606091505b5091509150610a9c87838387610aa7565b979650505050505050565b60608315610b16578251600003610b0f576001600160a01b0385163b610b0f5760405162461bcd60e51b815260206004820152601d60248201527f416464726573733a2063616c6c20746f206e6f6e2d636f6e74726163740000006044820152606401610240565b50816109c4565b6109c48383815115610b2b5781518083602001fd5b8060405162461bcd60e51b81526004016102409190610ca0565b80356001600160a01b0381168114610b5c57600080fd5b919050565b600080600080600060a08688031215610b7957600080fd5b610b8286610b45565b9450610b9060208701610b45565b94979496505050506040830135926060810135926080909101359150565b600060208284031215610bc057600080fd5b610bc982610b45565b9392505050565b60008060408385031215610be357600080fd5b82359150610bf360208401610b45565b90509250929050565b600060208284031215610c0e57600080fd5b5035919050565b6001600160a01b0394851681529290931660208301526040820152606081019190915260800190565b600060208284031215610c5057600080fd5b81518015158114610bc957600080fd5b60005b83811015610c7b578181015183820152602001610c63565b50506000910152565b60008251610c96818460208701610c60565b9190910192915050565b6020815260008251806020840152610cbf816040850160208701610c60565b601f01601f1916919091016040019291505056fea26469706673582212206376754250f1f18ce60cef9ab03ff52b15d81d2d621d6d17e5f03c441998799664736f6c63430008180033",
  "linkReferences": {},
  "deployedLinkReferences": {}
}