{
  "_format": "hh-sol-artifact-1",
  "contractName": "HubGovernance",
  "sourceName": "contracts/hub/HubGovernance.sol",
  "abi": [
    {
      "inputs": [
        {
          "internalType": "address",
          "name": "_x3",
          "type": "address"
        },
        {
          "internalType": "address",
          "name": "_wrappedX3",
          "type": "address"
        },
        {
          "internalType": "address",
          "name": "_hubToken",
          "type": "address"
        },
        {
          "internalType": "address",
          "name": "_hubStaking",
          "type": "address"
        }
      ],
      "stateMutability": "nonpayable",
      "type": "constructor"
    },
    {
      "anonymous": false,
      "inputs": [
        {
          "indexed": true,
          "internalType": "uint256",
          "name": "proposalId",
          "type": "uint256"
        },
        {
          "indexed": false,
          "internalType": "uint256",
          "name": "forVotes",
          "type": "uint256"
        },
        {
          "indexed": false,
          "internalType": "uint256",
          "name": "againstVotes",
          "type": "uint256"
        },
        {
          "indexed": false,
          "internalType": "bool",
          "name": "passed",
          "type": "bool"
        },
        {
          "indexed": false,
          "internalType": "uint256",
          "name": "timestamp",
          "type": "uint256"
        }
      ],
      "name": "GovernanceAudit",
      "type": "event"
    },
    {
      "anonymous": false,
      "inputs": [
        {
          "indexed": true,
          "internalType": "address",
          "name": "previousOwner",
          "type": "address"
        },
        {
          "indexed": true,
          "internalType": "address",
          "name": "newOwner",
          "type": "address"
        }
      ],
      "name": "OwnershipTransferred",
      "type": "event"
    },
    {
      "anonymous": false,
      "inputs": [
        {
          "indexed": true,
          "internalType": "uint256",
          "name": "id",
          "type": "uint256"
        },
        {
          "indexed": false,
          "internalType": "string",
          "name": "description",
          "type": "string"
        },
        {
          "indexed": false,
          "internalType": "uint256",
          "name": "voteStart",
          "type": "uint256"
        },
        {
          "indexed": false,
          "internalType": "uint256",
          "name": "voteEnd",
          "type": "uint256"
        }
      ],
      "name": "ProposalCreated",
      "type": "event"
    },
    {
      "anonymous": false,
      "inputs": [
        {
          "indexed": true,
          "internalType": "uint256",
          "name": "id",
          "type": "uint256"
        },
        {
          "indexed": false,
          "internalType": "bool",
          "name": "approved",
          "type": "bool"
        },
        {
          "indexed": false,
          "internalType": "uint256",
          "name": "executedAt",
          "type": "uint256"
        }
      ],
      "name": "ProposalExecuted",
      "type": "event"
    },
    {
      "anonymous": false,
      "inputs": [
        {
          "indexed": true,
          "internalType": "uint256",
          "name": "id",
          "type": "uint256"
        },
        {
          "indexed": false,
          "internalType": "uint256",
          "name": "executionTime",
          "type": "uint256"
        }
      ],
      "name": "ProposalQueued",
      "type": "event"
    },
    {
      "anonymous": false,
      "inputs": [
        {
          "indexed": true,
          "internalType": "uint256",
          "name": "id",
          "type": "uint256"
        },
        {
          "indexed": true,
          "internalType": "address",
          "name": "voter",
          "type": "address"
        },
        {
          "indexed": false,
          "internalType": "bool",
          "name": "support",
          "type": "bool"
        },
        {
          "indexed": false,
          "internalType": "uint256",
          "name": "weight",
          "type": "uint256"
        }
      ],
      "name": "Voted",
      "type": "event"
    },
    {
      "inputs": [],
      "name": "TIMELOCK_DELAY",
      "outputs": [
        {
          "internalType": "uint256",
          "name": "",
          "type": "uint256"
        }
      ],
      "stateMutability": "view",
      "type": "function"
    },
    {
      "inputs": [
        {
          "internalType": "string",
          "name": "description",
          "type": "string"
        },
        {
          "internalType": "uint256",
          "name": "duration",
          "type": "uint256"
        }
      ],
      "name": "createProposal",
      "outputs": [],
      "stateMutability": "nonpayable",
      "type": "function"
    },
    {
      "inputs": [
        {
          "internalType": "uint256",
          "name": "id",
          "type": "uint256"
        }
      ],
      "name": "execute",
      "outputs": [],
      "stateMutability": "nonpayable",
      "type": "function"
    },
    {
      "inputs": [
        {
          "internalType": "uint256",
          "name": "id",
          "type": "uint256"
        }
      ],
      "name": "getProposal",
      "outputs": [
        {
          "internalType": "string",
          "name": "description",
          "type": "string"
        },
        {
          "internalType": "uint256",
          "name": "voteStart",
          "type": "uint256"
        },
        {
          "internalType": "uint256",
          "name": "voteEnd",
          "type": "uint256"
        },
        {
          "internalType": "uint256",
          "name": "forVotes",
          "type": "uint256"
        },
        {
          "internalType": "uint256",
          "name": "againstVotes",
          "type": "uint256"
        },
        {
          "internalType": "bool",
          "name": "executed",
          "type": "bool"
        }
      ],
      "stateMutability": "view",
      "type": "function"
    },
    {
      "inputs": [],
      "name": "hubStaking",
      "outputs": [
        {
          "internalType": "contract IHubStaking",
          "name": "",
          "type": "address"
        }
      ],
      "stateMutability": "view",
      "type": "function"
    },
    {
      "inputs": [],
      "name": "hubToken",
      "outputs": [
        {
          "internalType": "contract IERC20",
          "name": "",
          "type": "address"
        }
      ],
      "stateMutability": "view",
      "type": "function"
    },
    {
      "inputs": [],
      "name": "owner",
      "outputs": [
        {
          "internalType": "address",
          "name": "",
          "type": "address"
        }
      ],
      "stateMutability": "view",
      "type": "function"
    },
    {
      "inputs": [],
      "name": "proposalCount",
      "outputs": [
        {
          "internalType": "uint256",
          "name": "",
          "type": "uint256"
        }
      ],
      "stateMutability": "view",
      "type": "function"
    },
    {
      "inputs": [
        {
          "internalType": "uint256",
          "name": "id",
          "type": "uint256"
        }
      ],
      "name": "queueProposal",
      "outputs": [],
      "stateMutability": "nonpayable",
      "type": "function"
    },
    {
      "inputs": [],
      "name": "renounceOwnership",
      "outputs": [],
      "stateMutability": "nonpayable",
      "type": "function"
    },
    {
      "inputs": [
        {
          "internalType": "address",
          "name": "newOwner",
          "type": "address"
        }
      ],
      "name": "transferOwnership",
      "outputs": [],
      "stateMutability": "nonpayable",
      "type": "function"
    },
    {
      "inputs": [
        {
          "internalType": "uint256",
          "name": "id",
          "type": "uint256"
        },
        {
          "internalType": "bool",
          "name": "support",
          "type": "bool"
        }
      ],
      "name": "vote",
      "outputs": [],
      "stateMutability": "nonpayable",
      "type": "function"
    },
    {
      "inputs": [
        {
          "internalType": "address",
          "name": "voter",
          "type": "address"
        }
      ],
      "name": "votingPower",
      "outputs": [
        {
          "internalType": "uint256",
          "name": "",
          "type": "uint256"
        }
      ],
      "stateMutability": "view",
      "type": "function"
    },
    {
      "inputs": [],
      "name": "wrappedX3",
      "outputs": [
        {
          "internalType": "contract IERC20",
          "name": "",
          "type": "address"
        }
      ],
      "stateMutability": "view",
      "type": "function"
    },
    {
      "inputs": [],
      "name": "x3",
      "outputs": [
        {
          "internalType": "contract IERC20",
          "name": "",
          "type": "address"
        }
      ],
      "stateMutability": "view",
      "type": "function"
    }
  ],
  "bytecode": "0x60806040523480156200001157600080fd5b50604051620011aa380380620011aa83398101604081905262000034916200022a565b6200003f33620001bd565b6001600160a01b038416620000885760405162461bcd60e51b815260206004820152600a602482015269496e76616c696420783360b01b60448201526064015b60405180910390fd5b6001600160a01b038316620000d45760405162461bcd60e51b8152602060048201526011602482015270496e76616c69642077726170706564583360781b60448201526064016200007f565b6001600160a01b0382166200011f5760405162461bcd60e51b815260206004820152601060248201526f24b73b30b634b210343ab12a37b5b2b760811b60448201526064016200007f565b6001600160a01b038116620001695760405162461bcd60e51b815260206004820152600f60248201526e496e76616c6964207374616b696e6760881b60448201526064016200007f565b600180546001600160a01b039586166001600160a01b031991821617909155600280549486169482169490941790935560038054928516928416929092179091556004805491909316911617905562000287565b600080546001600160a01b038381166001600160a01b0319831681178455604051919092169283917f8be0079c531659141344cd1fd0a4f28419497f9722a3daafe3b4186f6b6457e09190a35050565b80516001600160a01b03811681146200022557600080fd5b919050565b600080600080608085870312156200024157600080fd5b6200024c856200020d565b93506200025c602086016200020d565b92506200026c604086016200020d565b91506200027c606086016200020d565b905092959194509250565b610f1380620002976000396000f3fe608060405234801561001057600080fd5b50600436106100f45760003560e01c8063a3b7887311610097578063da35c66411610066578063da35c664146101f3578063f1ef0202146101fc578063f2fde38b1461020f578063fe0d94c11461022257600080fd5b8063a3b7887314610195578063c07473f6146101a8578063c7f758a8146101bb578063c9d27afe146101e057600080fd5b80635ba1c1a9116100d35780635ba1c1a914610151578063715018a6146101695780638da5cb5b1461017157806394a14a341461018257600080fd5b806203f795146100f9578063257aff351461012957806335facf781461013c575b600080fd5b60045461010c906001600160a01b031681565b6040516001600160a01b0390911681526020015b60405180910390f35b60035461010c906001600160a01b031681565b61014f61014a366004610b92565b610235565b005b61015b6202a30081565b604051908152602001610120565b61014f610320565b6000546001600160a01b031661010c565b61014f610190366004610c0a565b610334565b60015461010c906001600160a01b031681565b61015b6101b6366004610c23565b610423565b6101ce6101c9366004610c0a565b610604565b60405161012096959493929190610c53565b61014f6101ee366004610ccc565b6106f0565b61015b60055481565b60025461010c906001600160a01b031681565b61014f61021d366004610c23565b6108cb565b61014f610230366004610c0a565b610944565b61023d610ae8565b600081116102865760405162461bcd60e51b8152602060048201526011602482015270111d5c985d1a5bdb881c995c5d5a5c9959607a1b60448201526064015b60405180910390fd5b6001600560008282546102999190610d01565b90915550506005546000908152600660205260409020806102bb848683610dc3565b5043600182018190556102cf908390610d01565b60028201819055600554600183015460405191927f5d072faeaf3fe9518eca824577834e1efc3ff209025796dd8819b72706cd0bd5926103129289928992610e84565b60405180910390a250505050565b610328610ae8565b6103326000610b42565b565b61033c610ae8565b6000818152600660205260409020600281015443116103935760405162461bcd60e51b8152602060048201526013602482015272159bdd1a5b99c81b9bdd08199a5b9a5cda1959606a1b604482015260640161027d565b6006810154156103d65760405162461bcd60e51b815260206004820152600e60248201526d105b1c9958591e481c5d595d595960921b604482015260640161027d565b6103e36202a30042610d01565b6006820181905560405190815282907f9a2e42fd6722813d69113e7d0079d3d940171428df7373df9c7f7617cfda28929060200160405180910390a25050565b60048054604051627a4a8160e21b81526001600160a01b0384811693820193909352600092909116906301e92a0490602401602060405180830381865afa158015610472573d6000803e3d6000fd5b505050506040513d601f19601f820116820180604052508101906104969190610ec4565b6003546040516370a0823160e01b81526001600160a01b038581166004830152909116906370a0823190602401602060405180830381865afa1580156104e0573d6000803e3d6000fd5b505050506040513d601f19601f820116820180604052508101906105049190610ec4565b6002546040516370a0823160e01b81526001600160a01b038681166004830152909116906370a0823190602401602060405180830381865afa15801561054e573d6000803e3d6000fd5b505050506040513d601f19601f820116820180604052508101906105729190610ec4565b6001546040516370a0823160e01b81526001600160a01b038781166004830152909116906370a0823190602401602060405180830381865afa1580156105bc573d6000803e3d6000fd5b505050506040513d601f19601f820116820180604052508101906105e09190610ec4565b6105ea9190610d01565b6105f49190610d01565b6105fe9190610d01565b92915050565b60606000806000806000806006600089815260200190815260200160002090508060000181600101548260020154836003015484600401548560050160009054906101000a900460ff1685805461065a90610d38565b80601f016020809104026020016040519081016040528092919081815260200182805461068690610d38565b80156106d35780601f106106a8576101008083540402835291602001916106d3565b820191906000526020600020905b8154815290600101906020018083116106b657829003601f168201915b505050505095509650965096509650965096505091939550919395565b600082815260066020526040902060018101544310156107475760405162461bcd60e51b8152602060048201526012602482015271159bdd1a5b99c81b9bdd081cdd185c9d195960721b604482015260640161027d565b806002015443111561078a5760405162461bcd60e51b815260206004820152600c60248201526b159bdd1a5b99c8195b99195960a21b604482015260640161027d565b33600090815260078201602052604090205460ff16156107dc5760405162461bcd60e51b815260206004820152600d60248201526c105b1c9958591e481d9bdd1959609a1b604482015260640161027d565b60006107e733610423565b90506000811161082b5760405162461bcd60e51b815260206004820152600f60248201526e2737903b37ba34b733903837bbb2b960891b604482015260640161027d565b3360009081526007830160205260409020805460ff19166001179055821561086c57808260030160008282546108619190610d01565b909155506108869050565b808260040160008282546108809190610d01565b90915550505b60408051841515815260208101839052339186917f7c2de587c00d75474a0c6c6fa96fd3b45dc974cd4e8a75f712bb84c950dce1b5910160405180910390a350505050565b6108d3610ae8565b6001600160a01b0381166109385760405162461bcd60e51b815260206004820152602660248201527f4f776e61626c653a206e6577206f776e657220697320746865207a65726f206160448201526564647265737360d01b606482015260840161027d565b61094181610b42565b50565b61094c610ae8565b6000818152600660208190526040909120908101546109a35760405162461bcd60e51b8152602060048201526013602482015272141c9bdc1bdcd85b081b9bdd081c5d595d5959606a1b604482015260640161027d565b80600601544210156109ee5760405162461bcd60e51b8152602060048201526014602482015273151a5b595b1bd8dac81b9bdd08195e1c1a5c995960621b604482015260640161027d565b600581015460ff1615610a365760405162461bcd60e51b815260206004820152601060248201526f105b1c9958591e48195e1958dd5d195960821b604482015260640161027d565b60058101805460ff191660011790556004810154600382015460408051919092108082524260208301529184917fec8f304a675f7bb10c5d3eb44ea2444dd65a0da66105763bd6b5bb98aa1461db910160405180910390a2600382015460048301546040805192835260208301919091528215159082015242606082015283907fa81f6c5e7aa293bc1175c8692a1def5f36d27c47b0d228038d8f69af6e3a71fe9060800160405180910390a2505050565b6000546001600160a01b031633146103325760405162461bcd60e51b815260206004820181905260248201527f4f776e61626c653a2063616c6c6572206973206e6f7420746865206f776e6572604482015260640161027d565b600080546001600160a01b038381166001600160a01b0319831681178455604051919092169283917f8be0079c531659141344cd1fd0a4f28419497f9722a3daafe3b4186f6b6457e09190a35050565b600080600060408486031215610ba757600080fd5b833567ffffffffffffffff80821115610bbf57600080fd5b818601915086601f830112610bd357600080fd5b813581811115610be257600080fd5b876020828501011115610bf457600080fd5b6020928301989097509590910135949350505050565b600060208284031215610c1c57600080fd5b5035919050565b600060208284031215610c3557600080fd5b81356001600160a01b0381168114610c4c57600080fd5b9392505050565b60c08152600087518060c084015260005b81811015610c81576020818b0181015160e0868401015201610c64565b50600060e0828501015260e0601f19601f830116840101915050866020830152856040830152846060830152836080830152610cc160a083018415159052565b979650505050505050565b60008060408385031215610cdf57600080fd5b8235915060208301358015158114610cf657600080fd5b809150509250929050565b808201808211156105fe57634e487b7160e01b600052601160045260246000fd5b634e487b7160e01b600052604160045260246000fd5b600181811c90821680610d4c57607f821691505b602082108103610d6c57634e487b7160e01b600052602260045260246000fd5b50919050565b601f821115610dbe576000816000526020600020601f850160051c81016020861015610d9b5750805b601f850160051c820191505b81811015610dba57828155600101610da7565b5050505b505050565b67ffffffffffffffff831115610ddb57610ddb610d22565b610def83610de98354610d38565b83610d72565b6000601f841160018114610e235760008515610e0b5750838201355b600019600387901b1c1916600186901b178355610e7d565b600083815260209020601f19861690835b82811015610e545786850135825560209485019460019092019101610e34565b5086821015610e715760001960f88860031b161c19848701351681555b505060018560011b0183555b5050505050565b606081528360608201528385608083013760006080858301015260006080601f19601f870116830101905083602083015282604083015295945050505050565b600060208284031215610ed657600080fd5b505191905056fea26469706673582212200ec1dc4a439a1236a788af1669bf42ab62eea550082aa85fe71a56d8d02c06c364736f6c63430008180033",
  "linkReferences": {},
  "deployedLinkReferences": {}
}