{"abi":[{"type":"constructor","inputs":[],"stateMutability":"nonpayable"},{"type":"function","name":"BPS_PRECISION","inputs":[],"outputs":[{"name":"","type":"uint256","internalType":"uint256"}],"stateMutability":"view"},{"type":"function","name":"DEFAULT_ADMIN_ROLE","inputs":[],"outputs":[{"name":"","type":"bytes32","internalType":"bytes32"}],"stateMutability":"view"},{"type":"function","name":"MIN_LIQUIDITY","inputs":[],"outputs":[{"name":"","type":"uint256","internalType":"uint256"}],"stateMutability":"view"},{"type":"function","name":"ORACLE_ROLE","inputs":[],"outputs":[{"name":"","type":"bytes32","internalType":"bytes32"}],"stateMutability":"view"},{"type":"function","name":"PRICE_PRECISION","inputs":[],"outputs":[{"name":"","type":"uint256","internalType":"uint256"}],"stateMutability":"view"},{"type":"function","name":"UPGRADER_ROLE","inputs":[],"outputs":[{"name":"","type":"bytes32","internalType":"bytes32"}],"stateMutability":"view"},{"type":"function","name":"UPGRADE_INTERFACE_VERSION","inputs":[],"outputs":[{"name":"","type":"string","internalType":"string"}],"stateMutability":"view"},{"type":"function","name":"aiSignals","inputs":[{"name":"","type":"uint256","internalType":"uint256"},{"name":"","type":"uint256","internalType":"uint256"}],"outputs":[{"name":"agent","type":"address","internalType":"address"},{"name":"prediction","type":"bool","internalType":"bool"},{"name":"confidence","type":"uint256","internalType":"uint256"},{"name":"reasoning","type":"string","internalType":"string"},{"name":"timestamp","type":"uint256","internalType":"uint256"}],"stateMutability":"view"},{"type":"function","name":"buy","inputs":[{"name":"marketId","type":"uint256","internalType":"uint256"},{"name":"isYes","type":"bool","internalType":"bool"},{"name":"maxCost","type":"uint256","internalType":"uint256"},{"name":"minShares","type":"uint256","internalType":"uint256"}],"outputs":[{"name":"shares","type":"uint256","internalType":"uint256"},{"name":"cost","type":"uint256","internalType":"uint256"}],"stateMutability":"nonpayable"},{"type":"function","name":"claim","inputs":[{"name":"marketId","type":"uint256","internalType":"uint256"}],"outputs":[{"name":"payout","type":"uint256","internalType":"uint256"}],"stateMutability":"nonpayable"},{"type":"function","name":"collateralToken","inputs":[],"outputs":[{"name":"","type":"address","internalType":"contract IERC20"}],"stateMutability":"view"},{"type":"function","name":"createMarket","inputs":[{"name":"marketType","type":"uint8","internalType":"enum PredictionMarket.MarketType"},{"name":"question","type":"string","internalType":"string"},{"name":"resolutionTime","type":"uint256","internalType":"uint256"},{"name":"fee","type":"uint256","internalType":"uint256"},{"name":"oracle","type":"address","internalType":"address"},{"name":"oracleData","type":"bytes","internalType":"bytes"}],"outputs":[{"name":"marketId","type":"uint256","internalType":"uint256"}],"stateMutability":"nonpayable"},{"type":"function","name":"getAIConsensus","inputs":[{"name":"marketId","type":"uint256","internalType":"uint256"}],"outputs":[{"name":"yesVotes","type":"uint256","internalType":"uint256"},{"name":"noVotes","type":"uint256","internalType":"uint256"},{"name":"avgConfidence","type":"uint256","internalType":"uint256"}],"stateMutability":"view"},{"type":"function","name":"getAISignals","inputs":[{"name":"marketId","type":"uint256","internalType":"uint256"}],"outputs":[{"name":"","type":"tuple[]","internalType":"struct PredictionMarket.AISignal[]","components":[{"name":"agent","type":"address","internalType":"address"},{"name":"prediction","type":"bool","internalType":"bool"},{"name":"confidence","type":"uint256","internalType":"uint256"},{"name":"reasoning","type":"string","internalType":"string"},{"name":"timestamp","type":"uint256","internalType":"uint256"}]}],"stateMutability":"view"},{"type":"function","name":"getMarket","inputs":[{"name":"marketId","type":"uint256","internalType":"uint256"}],"outputs":[{"name":"","type":"tuple","internalType":"struct PredictionMarket.Market","components":[{"name":"marketId","type":"uint256","internalType":"uint256"},{"name":"marketType","type":"uint8","internalType":"enum PredictionMarket.MarketType"},{"name":"status","type":"uint8","internalType":"enum PredictionMarket.MarketStatus"},{"name":"resolution","type":"uint8","internalType":"enum PredictionMarket.Outcome"},{"name":"question","type":"string","internalType":"string"},{"name":"questionHash","type":"bytes32","internalType":"bytes32"},{"name":"creator","type":"address","internalType":"address"},{"name":"resolutionTime","type":"uint256","internalType":"uint256"},{"name":"createdAt","type":"uint256","internalType":"uint256"},{"name":"resolvedAt","type":"uint256","internalType":"uint256"},{"name":"totalLiquidity","type":"uint256","internalType":"uint256"},{"name":"yesShares","type":"uint256","internalType":"uint256"},{"name":"noShares","type":"uint256","internalType":"uint256"},{"name":"yesPrice","type":"uint256","internalType":"uint256"},{"name":"noPrice","type":"uint256","internalType":"uint256"},{"name":"fee","type":"uint256","internalType":"uint256"},{"name":"oracle","type":"address","internalType":"address"},{"name":"oracleData","type":"bytes","internalType":"bytes"}]}],"stateMutability":"view"},{"type":"function","name":"getMetrics","inputs":[{"name":"marketId","type":"uint256","internalType":"uint256"}],"outputs":[{"name":"","type":"tuple","internalType":"struct PredictionMarket.MarketMetrics","components":[{"name":"totalVolume","type":"uint256","internalType":"uint256"},{"name":"uniqueTraders","type":"uint256","internalType":"uint256"},{"name":"maxPrice","type":"uint256","internalType":"uint256"},{"name":"minPrice","type":"uint256","internalType":"uint256"},{"name":"lastTradeTime","type":"uint256","internalType":"uint256"}]}],"stateMutability":"view"},{"type":"function","name":"getPosition","inputs":[{"name":"marketId","type":"uint256","internalType":"uint256"},{"name":"trader","type":"address","internalType":"address"}],"outputs":[{"name":"","type":"tuple","internalType":"struct PredictionMarket.Position","components":[{"name":"yesShares","type":"uint256","internalType":"uint256"},{"name":"noShares","type":"uint256","internalType":"uint256"},{"name":"costBasis","type":"uint256","internalType":"uint256"},{"name":"claimed","type":"bool","internalType":"bool"}]}],"stateMutability":"view"},{"type":"function","name":"getPrices","inputs":[{"name":"marketId","type":"uint256","internalType":"uint256"}],"outputs":[{"name":"yesPrice","type":"uint256","internalType":"uint256"},{"name":"noPrice","type":"uint256","internalType":"uint256"}],"stateMutability":"view"},{"type":"function","name":"getRoleAdmin","inputs":[{"name":"role","type":"bytes32","internalType":"bytes32"}],"outputs":[{"name":"","type":"bytes32","internalType":"bytes32"}],"stateMutability":"view"},{"type":"function","name":"grantRole","inputs":[{"name":"role","type":"bytes32","internalType":"bytes32"},{"name":"account","type":"address","internalType":"address"}],"outputs":[],"stateMutability":"nonpayable"},{"type":"function","name":"hasRole","inputs":[{"name":"role","type":"bytes32","internalType":"bytes32"},{"name":"account","type":"address","internalType":"address"}],"outputs":[{"name":"","type":"bool","internalType":"bool"}],"stateMutability":"view"},{"type":"function","name":"initialize","inputs":[{"name":"_admin","type":"address","internalType":"address"},{"name":"_collateralToken","type":"address","internalType":"address"},{"name":"_treasury","type":"address","internalType":"address"},{"name":"_platformFee","type":"uint256","internalType":"uint256"}],"outputs":[],"stateMutability":"nonpayable"},{"type":"function","name":"marketCount","inputs":[],"outputs":[{"name":"","type":"uint256","internalType":"uint256"}],"stateMutability":"view"},{"type":"function","name":"marketMetrics","inputs":[{"name":"","type":"uint256","internalType":"uint256"}],"outputs":[{"name":"totalVolume","type":"uint256","internalType":"uint256"},{"name":"uniqueTraders","type":"uint256","internalType":"uint256"},{"name":"maxPrice","type":"uint256","internalType":"uint256"},{"name":"minPrice","type":"uint256","internalType":"uint256"},{"name":"lastTradeTime","type":"uint256","internalType":"uint256"}],"stateMutability":"view"},{"type":"function","name":"markets","inputs":[{"name":"","type":"uint256","internalType":"uint256"}],"outputs":[{"name":"marketId","type":"uint256","internalType":"uint256"},{"name":"marketType","type":"uint8","internalType":"enum PredictionMarket.MarketType"},{"name":"status","type":"uint8","internalType":"enum PredictionMarket.MarketStatus"},{"name":"resolution","type":"uint8","internalType":"enum PredictionMarket.Outcome"},{"name":"question","type":"string","internalType":"string"},{"name":"questionHash","type":"bytes32","internalType":"bytes32"},{"name":"creator","type":"address","internalType":"address"},{"name":"resolutionTime","type":"uint256","internalType":"uint256"},{"name":"createdAt","type":"uint256","internalType":"uint256"},{"name":"resolvedAt","type":"uint256","internalType":"uint256"},{"name":"totalLiquidity","type":"uint256","internalType":"uint256"},{"name":"yesShares","type":"uint256","internalType":"uint256"},{"name":"noShares","type":"uint256","internalType":"uint256"},{"name":"yesPrice","type":"uint256","internalType":"uint256"},{"name":"noPrice","type":"uint256","internalType":"uint256"},{"name":"fee","type":"uint256","internalType":"uint256"},{"name":"oracle","type":"address","internalType":"address"},{"name":"oracleData","type":"bytes","internalType":"bytes"}],"stateMutability":"view"},{"type":"function","name":"maxDuration","inputs":[],"outputs":[{"name":"","type":"uint256","internalType":"uint256"}],"stateMutability":"view"},{"type":"function","name":"minDuration","inputs":[],"outputs":[{"name":"","type":"uint256","internalType":"uint256"}],"stateMutability":"view"},{"type":"function","name":"platformFee","inputs":[],"outputs":[{"name":"","type":"uint256","internalType":"uint256"}],"stateMutability":"view"},{"type":"function","name":"positions","inputs":[{"name":"","type":"uint256","internalType":"uint256"},{"name":"","type":"address","internalType":"address"}],"outputs":[{"name":"yesShares","type":"uint256","internalType":"uint256"},{"name":"noShares","type":"uint256","internalType":"uint256"},{"name":"costBasis","type":"uint256","internalType":"uint256"},{"name":"claimed","type":"bool","internalType":"bool"}],"stateMutability":"view"},{"type":"function","name":"proxiableUUID","inputs":[],"outputs":[{"name":"","type":"bytes32","internalType":"bytes32"}],"stateMutability":"view"},{"type":"function","name":"quoteBuy","inputs":[{"name":"marketId","type":"uint256","internalType":"uint256"},{"name":"isYes","type":"bool","internalType":"bool"},{"name":"maxCost","type":"uint256","internalType":"uint256"}],"outputs":[{"name":"shares","type":"uint256","internalType":"uint256"},{"name":"cost","type":"uint256","internalType":"uint256"}],"stateMutability":"view"},{"type":"function","name":"quoteSell","inputs":[{"name":"marketId","type":"uint256","internalType":"uint256"},{"name":"isYes","type":"bool","internalType":"bool"},{"name":"shares","type":"uint256","internalType":"uint256"}],"outputs":[{"name":"returnAmount","type":"uint256","internalType":"uint256"}],"stateMutability":"view"},{"type":"function","name":"renounceRole","inputs":[{"name":"role","type":"bytes32","internalType":"bytes32"},{"name":"callerConfirmation","type":"address","internalType":"address"}],"outputs":[],"stateMutability":"nonpayable"},{"type":"function","name":"resolveMarket","inputs":[{"name":"marketId","type":"uint256","internalType":"uint256"},{"name":"outcome","type":"uint8","internalType":"enum PredictionMarket.Outcome"}],"outputs":[],"stateMutability":"nonpayable"},{"type":"function","name":"revokeRole","inputs":[{"name":"role","type":"bytes32","internalType":"bytes32"},{"name":"account","type":"address","internalType":"address"}],"outputs":[],"stateMutability":"nonpayable"},{"type":"function","name":"seedMarket","inputs":[{"name":"marketId","type":"uint256","internalType":"uint256"},{"name":"amount","type":"uint256","internalType":"uint256"}],"outputs":[],"stateMutability":"nonpayable"},{"type":"function","name":"sell","inputs":[{"name":"marketId","type":"uint256","internalType":"uint256"},{"name":"isYes","type":"bool","internalType":"bool"},{"name":"shares","type":"uint256","internalType":"uint256"},{"name":"minReturn","type":"uint256","internalType":"uint256"}],"outputs":[{"name":"returnAmount","type":"uint256","internalType":"uint256"}],"stateMutability":"nonpayable"},{"type":"function","name":"submitAISignal","inputs":[{"name":"marketId","type":"uint256","internalType":"uint256"},{"name":"prediction","type":"bool","internalType":"bool"},{"name":"confidence","type":"uint256","internalType":"uint256"},{"name":"reasoning","type":"string","internalType":"string"}],"outputs":[],"stateMutability":"nonpayable"},{"type":"function","name":"supportsInterface","inputs":[{"name":"interfaceId","type":"bytes4","internalType":"bytes4"}],"outputs":[{"name":"","type":"bool","internalType":"bool"}],"stateMutability":"view"},{"type":"function","name":"trades","inputs":[{"name":"","type":"uint256","internalType":"uint256"},{"name":"","type":"uint256","internalType":"uint256"}],"outputs":[{"name":"trader","type":"address","internalType":"address"},{"name":"isYes","type":"bool","internalType":"bool"},{"name":"shares","type":"uint256","internalType":"uint256"},{"name":"price","type":"uint256","internalType":"uint256"},{"name":"timestamp","type":"uint256","internalType":"uint256"}],"stateMutability":"view"},{"type":"function","name":"treasury","inputs":[],"outputs":[{"name":"","type":"address","internalType":"address"}],"stateMutability":"view"},{"type":"function","name":"upgradeToAndCall","inputs":[{"name":"newImplementation","type":"address","internalType":"address"},{"name":"data","type":"bytes","internalType":"bytes"}],"outputs":[],"stateMutability":"payable"},{"type":"event","name":"AISignalSubmitted","inputs":[{"name":"marketId","type":"uint256","indexed":true,"internalType":"uint256"},{"name":"agent","type":"address","indexed":true,"internalType":"address"},{"name":"prediction","type":"bool","indexed":false,"internalType":"bool"},{"name":"confidence","type":"uint256","indexed":false,"internalType":"uint256"}],"anonymous":false},{"type":"event","name":"Initialized","inputs":[{"name":"version","type":"uint64","indexed":false,"internalType":"uint64"}],"anonymous":false},{"type":"event","name":"LiquidityAdded","inputs":[{"name":"marketId","type":"uint256","indexed":true,"internalType":"uint256"},{"name":"provider","type":"address","indexed":true,"internalType":"address"},{"name":"amount","type":"uint256","indexed":false,"internalType":"uint256"}],"anonymous":false},{"type":"event","name":"MarketActivated","inputs":[{"name":"marketId","type":"uint256","indexed":true,"internalType":"uint256"},{"name":"initialLiquidity","type":"uint256","indexed":false,"internalType":"uint256"}],"anonymous":false},{"type":"event","name":"MarketCreated","inputs":[{"name":"marketId","type":"uint256","indexed":true,"internalType":"uint256"},{"name":"marketType","type":"uint8","indexed":false,"internalType":"enum PredictionMarket.MarketType"},{"name":"question","type":"string","indexed":false,"internalType":"string"},{"name":"resolutionTime","type":"uint256","indexed":false,"internalType":"uint256"}],"anonymous":false},{"type":"event","name":"MarketResolved","inputs":[{"name":"marketId","type":"uint256","indexed":true,"internalType":"uint256"},{"name":"outcome","type":"uint8","indexed":false,"internalType":"enum PredictionMarket.Outcome"}],"anonymous":false},{"type":"event","name":"RewardClaimed","inputs":[{"name":"marketId","type":"uint256","indexed":true,"internalType":"uint256"},{"name":"trader","type":"address","indexed":true,"internalType":"address"},{"name":"amount","type":"uint256","indexed":false,"internalType":"uint256"}],"anonymous":false},{"type":"event","name":"RoleAdminChanged","inputs":[{"name":"role","type":"bytes32","indexed":true,"internalType":"bytes32"},{"name":"previousAdminRole","type":"bytes32","indexed":true,"internalType":"bytes32"},{"name":"newAdminRole","type":"bytes32","indexed":true,"internalType":"bytes32"}],"anonymous":false},{"type":"event","name":"RoleGranted","inputs":[{"name":"role","type":"bytes32","indexed":true,"internalType":"bytes32"},{"name":"account","type":"address","indexed":true,"internalType":"address"},{"name":"sender","type":"address","indexed":true,"internalType":"address"}],"anonymous":false},{"type":"event","name":"RoleRevoked","inputs":[{"name":"role","type":"bytes32","indexed":true,"internalType":"bytes32"},{"name":"account","type":"address","indexed":true,"internalType":"address"},{"name":"sender","type":"address","indexed":true,"internalType":"address"}],"anonymous":false},{"type":"event","name":"TradeExecuted","inputs":[{"name":"marketId","type":"uint256","indexed":true,"internalType":"uint256"},{"name":"trader","type":"address","indexed":true,"internalType":"address"},{"name":"isYes","type":"bool","indexed":false,"internalType":"bool"},{"name":"shares","type":"uint256","indexed":false,"internalType":"uint256"},{"name":"price","type":"uint256","indexed":false,"internalType":"uint256"},{"name":"cost","type":"uint256","indexed":false,"internalType":"uint256"}],"anonymous":false},{"type":"event","name":"Upgraded","inputs":[{"name":"implementation","type":"address","indexed":true,"internalType":"address"}],"anonymous":false},{"type":"error","name":"AccessControlBadConfirmation","inputs":[]},{"type":"error","name":"AccessControlUnauthorizedAccount","inputs":[{"name":"account","type":"address","internalType":"address"},{"name":"neededRole","type":"bytes32","internalType":"bytes32"}]},{"type":"error","name":"AddressEmptyCode","inputs":[{"name":"target","type":"address","internalType":"address"}]},{"type":"error","name":"AlreadyClaimed","inputs":[]},{"type":"error","name":"ERC1967InvalidImplementation","inputs":[{"name":"implementation","type":"address","internalType":"address"}]},{"type":"error","name":"ERC1967NonPayable","inputs":[]},{"type":"error","name":"FailedCall","inputs":[]},{"type":"error","name":"InsufficientLiquidity","inputs":[]},{"type":"error","name":"InsufficientShares","inputs":[]},{"type":"error","name":"InvalidInitialization","inputs":[]},{"type":"error","name":"InvalidMarketStatus","inputs":[]},{"type":"error","name":"InvalidPrice","inputs":[]},{"type":"error","name":"MarketNotActive","inputs":[]},{"type":"error","name":"MarketNotFound","inputs":[]},{"type":"error","name":"MarketNotResolved","inputs":[]},{"type":"error","name":"NotInitializing","inputs":[]},{"type":"error","name":"ReentrancyGuardReentrantCall","inputs":[]},{"type":"error","name":"ResolutionTimeNotReached","inputs":[]},{"type":"error","name":"ResolutionTimePassed","inputs":[]},{"type":"error","name":"SafeERC20FailedOperation","inputs":[{"name":"token","type":"address","internalType":"address"}]},{"type":"error","name":"UUPSUnauthorizedCallContext","inputs":[]},{"type":"error","name":"UUPSUnsupportedProxiableUUID","inputs":[{"name":"slot","type":"bytes32","internalType":"bytes32"}]}],"bytecode":{"object":"0x60a080604052346100f1573060805260017f9b779b17422d0df92223018b32b4d1fa46e071723d6817e2486d003becc55f00557ff0c57e16840df040f15088dc2f81fe391c3923bec73e23a9662efc9c229c6a009081549060ff8260401c166100e257506001600160401b036002600160401b03198282160161009d575b6040516131df9081620000f7823960805181818161159701526116510152f35b6001600160401b031990911681179091556040519081527fc7f505b2f371ae2175ee4913f4499e1f2633a7b5936321eed1cdaeb6115181d290602090a138808061007d565b63f92ee8a960e01b8152600490fd5b600080fdfe60a080604052600436101561001357600080fd5b60003560e01c90816301ffc9a7146126a65750806307e2cea51461266b5780630abf18991461242957806321b77d63146124055780632353313814612264578063248a9ca3146122285780632534d29b14611c4a57806326232a2e14611c2c5780632a7beacc14611bbb5780632f2ff15d14611b6f57806336568abe14611b28578063379607f5146119c55780633f7b54d71461185f5780634f1ef2861461160157806352d1902d14611584578063567157611461156657806361d027b31461153d5780636db5c8fd1461151f578063717bd21d146114ee578063733b03ae14611453578063914929561461141b57806391d14854146113c157806394af82011461139457806395082d25146113715780639a8e4495146112c4578063a217fddf146112a8578063ad3cb1cc14611250578063b1283e77146110aa578063b2016bd414611081578063b8a65b9214610fbf578063bdad35e514610d24578063cf756fdf14610b77578063d29f541d14610ac0578063d547741f14610a72578063df55406e146108eb578063e41de313146108ce578063e684d7181461085f578063eb44fdd314610552578063ec97908214610534578063f25367da14610285578063f591b7811461022d5763f72c0d8b146101ed57600080fd5b346102285760003660031901126102285760206040517f189ab7a9244df0848122154315af71fe140f3db0fe014031783b0946b8c9d2e38152f35b600080fd5b3461022857602036600319011261022857600435600052600360205260a06040600020805490600181015490600281015460046003830154920154926040519485526020850152604084015260608301526080820152f35b3461022857608036600319011261022857600435602435801515809103610228576001600160401b0391604435606435848111610228576102ca903690600401612736565b9490836000526020916000835260406000209687541561052257600197880154889060081c60ff166102fb816129ad565b03610510576103e885116104d65785600052600584526040600020916040519161032483612801565b338352610340868401958a875260408501928984523691612874565b926060810193845260808101944286528054600160401b8110156104aa5761036c918d8201815561278f565b9690966104c0579051865491516001600160a81b03199092166001600160a01b03919091161790151560a01b60ff60a01b16178555518985015560028401915180519182116104aa576103c9826103c385546128dd565b85612b0c565b8599601f831160011461044557509080600395969798999a6104029360009261043a575b50508160011b916000199060031b1c19161790565b90555b519101556040519384528301527fbbabd2aaab6a33e709763742ea00388b3c2a1ecebbad5bc6505662006d4aa89e60403393a3005b015190508b806103ed565b9190601f1982169a84600052876000209160005b8d8110610495575083600398999a9b9c9d1061047d575b505050811b019055610405565b015160001983881b60f8161c191690558a8080610470565b81830151845592850192918901918901610459565b634e487b7160e01b600052604160045260246000fd5b634e487b7160e01b600052600060045260246000fd5b60405162461bcd60e51b8152600481018590526012602482015271496e76616c696420636f6e666964656e636560701b6044820152606490fd5b604051635a90bb8d60e11b8152600490fd5b6040516307db1be560e41b8152600490fd5b34610228576000366003190112610228576020600154604051908152f35b3461022857602036600319011261022857606061022060405161057481612837565b600081526000602082015260006040820152600083820152826080820152600060a0820152600060c0820152600060e08201526000610100820152600061012082015260006101408201526000610160820152600061018082015260006101a082015260006101c082015260006101e0820152600061020082015201526004356000526000602052604060002060405161060d81612837565b8154815260018201549161062360ff84166129ad565b60ff8316602083015261063b60ff8460081c166129ad565b60ff8360081c166040830152600460ff8460101c1610156108495761072a600f9160ff6108459560101c1660608501526040516106868161067f8160028601612917565b0382612853565b6080850152600381015460a085015260048101546001600160a01b0390811660c0860152600582015460e08601526006820154610100860152600782015461012086015260088201546101408601526009820154610160860152600a820154610180860152600b8201546101a0860152600c8201546101c0860152600d8201546101e0860152600e8201541661020085015260405192839161067f91839101612917565b6102208201526040519182916020835280516020840152602081015161074f816129ad565b60408401526040810151610762816129ad565b6060840152610779606082015160808501906129b7565b610220610797608083015161024060a08701526102608601906127c1565b9160a081015160c086015260018060a01b0360c08201511660e086015260e08101516101008601526101008101516101208601526101208101516101408601526101408101516101608601526101608101516101808601526101808101516101a08601526101a08101516101c08601526101c08101516101e08601526101e081015161020086015260018060a01b0361020082015116828601520151601f19848303016102408501526127c1565b0390f35b634e487b7160e01b600052602160045260246000fd5b3461022857604036600319011261022857610878612763565b600435600052600260205260406000209060018060a01b03166000526020526080604060002080549060018101549060ff6003600283015492015416916040519384526020840152604083015215156060820152f35b346102285760003660031901126102285760206040516127108152f35b34610228576040366003190112610228576004356024356004811015610228573360009081527f0b45fb0a7d123af421db170fce034e3ce3a70e5f1150428004face1400c458f260205260409020547f68e79a7bf1e0bc45d0a330c573bc367f9cf464fd326078812f301165fbda4ef19060ff1615610a5457508160005260006020526040600020805415610522576001810191825491600160ff8460081c16610994816129ad565b03610a425760058101544210610a305781156109f9576109e3827f739f283563fb51ab6b89ee95d937b2e63a6cfcb83c385dbebb629f9d97bd43e69561020060209661ff001916178155612aeb565b6007429101556109f660405180926129b7565ba2005b60405162461bcd60e51b815260206004820152600f60248201526e496e76616c6964206f7574636f6d6560881b6044820152606490fd5b60405163dca075a360e01b8152600490fd5b6040516356d85b9f60e01b8152600490fd5b6044906040519063e2517d3f60e01b82523360048301526024820152fd5b3461022857604036600319011261022857610abe600435610a91612763565b908060005260008051602061316a833981519152602052610ab9600160406000200154612d3a565b612fca565b005b3461022857604036600319011261022857610ad9612763565b60006060604051610ae98161281c565b8281528260208201528260408201520152600435600052600260205260406000209060018060a01b031660005260205260806040600020604051610b2c8161281c565b815491828252600181015460208301908152606060ff600360028501549460408701958652015416930192151583526040519384525160208401525160408301525115156060820152f35b3461022857608036600319011261022857610b90612779565b610b98612763565b6001600160a01b0391906044358381169190829003610228577ff0c57e16840df040f15088dc2f81fe391c3923bec73e23a9662efc9c229c6a009384549360ff8560401c1615946001600160401b03811680159081610d1c575b6001149081610d12575b159081610d09575b50610cf75767ffffffffffffffff198116600117875585610cd8575b5060ff865460401c1615610cc65780610c3b610c4b92612d6d565b50610c4581612dfb565b50612eab565b506bffffffffffffffffffffffff60a01b91168160065416176006556007541617600755606435600855610e106009556301e13380600a55610c8957005b68ff00000000000000001981541690557fc7f505b2f371ae2175ee4913f4499e1f2633a7b5936321eed1cdaeb6115181d2602060405160018152a1005b604051631afcd79f60e31b8152600490fd5b68ffffffffffffffffff19166801000000000000000117865586610c20565b60405163f92ee8a960e01b8152600490fd5b90501588610c04565b303b159150610bfc565b879150610bf2565b3461022857610d32366126f9565b91610d3e939193612b62565b816000526020906000825260406000209283541561052257600160ff8186015460081c16610d6b816129ad565b03610510576005840154421015610fad577fabff6569b71cce63ff94a874ea69f0f4d278c4516c1d0b43cd99b93f966f192e84610dae60409885610dbb9861304d565b96819888939210156129c4565b600654610dd6908390309033906001600160a01b0316612ccd565b8415610f715760098101610deb898254612a4d565b905583600052600286528860002033600052865288600020610e0e898254612a5a565b90555b83600052600286528860002033600052865260028960002001610e35838254612a5a565b905560088101610e46838254612a5a565b9055610e5181612be0565b83600052600486528860002085600014610f6357610e9c600b830154915b8b5190610e7b82612801565b33825288159384158b8401528c8e8401526060830152426080830152612a67565b84600052600387528960002090610eb4848354612a5a565b82554260048301558680610f52575b610f43575b80610f32575b610f22575b508415610f1957600b01545b8851941515855260208501889052604085015260608401523392608090a3600160008051602061318a833981519152558351928352820152f35b600c0154610edf565b6003600c83015491015589610ed3565b50600c820154600382015411610ece565b600b8301546002830155610ec8565b50600b830154600283015410610ec3565b610e9c600c83015491610e6f565b600a8101610f80898254612a4d565b905583600052600286528860002033600052865260018960002001610fa6898254612a5a565b9055610e11565b604051636a859ca960e01b8152600490fd5b346102285760203660031901126102285760008060043560005260056020526040600020916000808454945b85821061102557506060949050801561101b5761100791612a2d565b905b60405192835260208301526040820152f35b5050600090611009565b90919360ff611034848461278f565b505460a01c161561106b5761106361104d600192612adc565b955b8261105a868661278f565b50015490612a5a565b920190610feb565b939261106361107b600192612adc565b9461104f565b34610228576000366003190112610228576006546040516001600160a01b039091168152602090f35b346102285760203660031901126102285760043560005260006020526040600020805490600181015481604051808060028401906110e791612917565b036110f29082612853565b600382015494600160a01b60019003918260048501541660058501546006860154600787015490600888015492600989015494600a8a015496600b8b015498600c8c01549a600d8d01549c600e0154169c6040519e8f80600f8193019061115891612917565b0361116291612853565b604051608052610240916080515260ff811661117d906129ad565b60ff8116608051602001528060081c60ff16611198906129ad565b8060081c60ff16608051604001526080516060019060101c60ff16906111bd916129b7565b8060805160800152608051016111d2916127c1565b9c60805160a0015260805160c0015260805160e00152608051610100015260805161012001526080516101400152608051610160015260805161018001526080516101a001526080516101c001526080516101e001526080516102000152608051820360805161022001526080519161124a916127c1565b03608051f35b346102285760003660031901126102285760405160408101908082106001600160401b038311176104aa576108459160405260058152640352e302e360dc1b60208201526040519182916020835260208301906127c1565b3461022857600036600319011261022857602060405160008152f35b3461022857602036600319011261022857600060806040516112e581612801565b8281528260208201528260408201528260608201520152600435600052600360205260a0604060002060405161131a81612801565b81549182825260018101546020830190815260028201549060408401918252608060046003850154946060870195865201549401938452604051948552516020850152516040840152516060830152516080820152f35b34610228576000366003190112610228576020604051670de0b6b3a76400008152f35b346102285760206113b96113a7366128ba565b91600052600084526040600020612b92565b604051908152f35b34610228576040366003190112610228576113da612763565b60043560005260008051602061316a83398151915260205260406000209060018060a01b0316600052602052602060ff604060002054166040519015158152f35b34610228576020366003190112610228576004356000526000602052604080600020600c600b82015491015482519182526020820152f35b346102285761146136612720565b906000526005602052604060002080548210156102285760ff916114849161278f565b508054906114e46001820154916003604051916114af836114a88160028501612917565b0384612853565b01549260405195869560018060a01b038116875260a01c1615156020860152604085015260a0606085015260a08401906127c1565b9060808301520390f35b34610228576040611513611501366128ba565b9160005260006020528360002061304d565b82519182526020820152f35b34610228576000366003190112610228576020600a54604051908152f35b34610228576000366003190112610228576007546040516001600160a01b039091168152602090f35b34610228576000366003190112610228576020600954604051908152f35b34610228576000366003190112610228577f00000000000000000000000000000000000000000000000000000000000000006001600160a01b031630036115ef5760206040517f360894a13ba1a3210667c828492db98dca3e2076cc3735a920a3ca505d382bbc8152f35b60405163703e46dd60e11b8152600490fd5b604036600319011261022857611615612779565b60249081356001600160401b0381116102285736602382011215610228576116469036908481600401359101612874565b6001600160a01b03917f00000000000000000000000000000000000000000000000000000000000000008316308114908115611831575b506115ef573360009081527fab71e3f32666744d246edff3f96e4bdafee2e9867098cdd118a979a7464786a860209081526040909120549093907f189ab7a9244df0848122154315af71fe140f3db0fe014031783b0946b8c9d2e39060ff161561181457506040516352d1902d60e01b8152908216938082600481885afa9182916000936117e4575b50506117245750505060405190634c9c8ce360e01b82526004820152fd5b847f360894a13ba1a3210667c828492db98dca3e2076cc3735a920a3ca505d382bbc918281036117cf5750823b156117b9575080546001600160a01b03191684179055604051927fbc7cd75a20ee27fd9adebab32041f755214dbc6bffa90cc0225b39da2e5c2d3b600080a28151156117a157610abe92506130b5565b5050346117aa57005b63b398979f60e01b8152600490fd5b604051634c9c8ce360e01b815260048101869052fd5b60405190632a87526960e21b82526004820152fd5b9080929350813d831161180d575b6117fc8183612853565b810103126102285751908680611706565b503d6117f2565b856044916040519163e2517d3f60e01b8352336004840152820152fd5b9050837f360894a13ba1a3210667c828492db98dca3e2076cc3735a920a3ca505d382bbc541614158561167d565b3461022857602080600319360112610228576004356000526005815260406000208054906001600160401b0382116104aa578290604051926118a6838260051b0185612853565b8084528284018092600052836000206000915b83831061195b5750505050604051918083019381845251809452604083019360408160051b85010192916000955b8287106118f45785850386f35b909192938280600192603f1989820301855287519061194160a0868060a01b03845116835284840151151585840152604084015160408401526060908082860151928501528301906127c1565b9160808091015191015296019201960195929190926118e7565b60048660019260409998995161197081612801565b60ff8654868060a01b038116835260a01c161515838201528486015460408201526040516119a58161067f8160028b01612917565b6060820152600386015460808201528152019201920191909594956118b9565b3461022857602080600319360112610228576004356119e2612b62565b60009080600052600083526040600020805415610522576001015491600260ff8460081c16611a10816129ad565b03611b1657816000526002845260406000203360005284526040600020600381019182549460ff8616611b045760101c60ff1660048110156108495760018103611ad257505054925b83611a7c575b505050600160008051602061318a83398151915255604051908152f35b60ff19166001179055600654611a9e90839033906001600160a01b0316612c4c565b604051908282527f24b5efa61dd1cfc659205a97fb8ed868f3cb8c81922bab2b96423e5de1de2cb7843393a3828080611a5f565b60028103611ae65750506001015492611a59565b90949190600314611af8575b50611a59565b60020154935085611af2565b604051630c8d9eab60e31b8152600490fd5b60405163174b639360e11b8152600490fd5b3461022857604036600319011261022857611b41612763565b336001600160a01b03821603611b5d57610abe90600435612fca565b60405163334bd91960e11b8152600490fd5b3461022857604036600319011261022857610abe600435611b8e612763565b908060005260008051602061316a833981519152602052611bb6600160406000200154612d3a565b612f55565b3461022857611bc936612720565b906000526004602052604060002080548210156102285760a091611bec9161278f565b50805490600181015490600360028201549101549160ff60405194600180881b0381168652861c1615156020850152604084015260608301526080820152f35b34610228576000366003190112610228576020600854604051908152f35b346102285760c0366003190112610228576005600435101561022857602480356001600160401b03811161022857611c86903690600401612736565b91906084356001600160a01b03811681036102285760a4356001600160401b03811161022857611cba903690600401612736565b9390611cc860095442612a5a565b60443511156121ee57611cdd600a5442612a5a565b604435116121b5576101f46064351161218257611dce90611cff600154612adc565b9586600155611d0f368988612874565b602081519101209460405195611d2487612837565b888752611d326004356129ad565b60043560208801526000604088015260006060880152611d53368b8a612874565b608088015260a08701523360c087015260443560e08701524261010087015260006101208701526000610140870152600061016087015260006101808701526706f05b59d3b200006101a08701526706f05b59d3b200006101c08701526064356101e087015260018060a01b03166102008601523691612874565b6102208301528360005260006020526040600020825181556020830151611df4816129ad565b611dfd816129ad565b600182015460ff61ff006040870151611e15816129ad565b611e1e816129ad565b60081b1692169061ffff1916171760018201556060830151600481101561216d57611e4c9060018301612aeb565b60808301518051906001600160401b03821161215857611e7c82611e7360028601546128dd565b60028601612b0c565b602090601f83116001146120e25782600f936102209593611eb39360009261043a5750508160011b916000199060031b1c19161790565b60028201555b60a085015160038201556004810160018060a01b0360c087015116906bffffffffffffffffffffffff60a01b918282541617905560e086015160058301556101008601516006830155610120860151600783015561014086015160088301556101608601516009830155610180860151600a8301556101a0860151600b8301556101c0860151600c8301556101e0860151600d830155600e82019060018060a01b036102008801511690825416179055019201518051916001600160401b0383116120ce5750918160209693611f958796946103c385546128dd565b8790601f831160011461203a57827fe4f9acd03dc3fd5a060e91752a8758a603155d04d4d287d7f1b6027c1b4768eb96959360809593611feb9360009261043a5750508160011b916000199060031b1c19161790565b90555b826040519384926120006004356129ad565b600435845260608a8501528160608501528484013760008282018401526044356040830152601f01601f19168101030190a2604051908152f35b959493929190601f1982169683600052896000209760005b8181106120b4575097600192849260809796957fe4f9acd03dc3fd5a060e91752a8758a603155d04d4d287d7f1b6027c1b4768eb9a9b1061209b575b505050811b019055611fee565b015160001960f88460031b161c191690558a808061208e565b838301518a556001909901988a9850928b01928b01612052565b634e487b7160e01b60009081526041600452fd5b906002840160005260206000209160005b601f19851681106121405750926102209492600192600f9583601f19811610612127575b505050811b016002820155611eb9565b015160001960f88460031b161c191690558a8080612117565b919260206001819286850151815501940192016120f3565b83634e487b7160e01b60005260416004526000fd5b82634e487b7160e01b60005260216004526000fd5b60405162461bcd60e51b815260206004820152600c818401526b08ccaca40e8dede40d0d2ced60a31b6044820152606490fd5b60405162461bcd60e51b815260206004820152601281840152712932b9b7b63aba34b7b7103a37b7903330b960711b6044820152606490fd5b60405162461bcd60e51b815260206004820152601381840152722932b9b7b63aba34b7b7103a37b79039b7b7b760691b6044820152606490fd5b346102285760203660031901126102285760043560005260008051602061316a8339815191526020526020600160406000200154604051908152f35b346102285761227236612720565b9061227b612b62565b80600052602060008152604060002080541561052257600181019060ff825460081c166122a7816129ad565b610a4257683635c9adc5dea0000085106123c0579084600a7fc733c2813826d31c105dbff518b08258e9e7aeb3eb1c7c7f642d77696faf501d94936122fa8360018060a01b036006541630903390612ccd565b826008820155826009820155015561010061ff00198254161790558360011c60036040516123278161281c565b8281528381019283526040810187815260608201936000855287600052600286526040600020336000528652604060002092518355516001830155516002820155019051151560ff80198354169116179055827f52b1ac021ba0f1b080b02f64a0a6d227084e2d74be0eb2e0bafd132f398a40e282604051878152a26040519384523393a3600160008051602061318a83398151915255005b60405162461bcd60e51b815260048101849052601b60248201527f496e73756666696369656e742073656564206c697175696469747900000000006044820152606490fd5b34610228576000366003190112610228576020604051683635c9adc5dea000008152f35b3461022857612437366126f9565b92612443929192612b62565b806000526020936000855260406000209384541561052257600160ff8187015460081c16612470816129ad565b0361051057826000526002865260406000203360005286526040600020948480612661575b612642578415928380612654575b612642577fabff6569b71cce63ff94a874ea69f0f4d278c4516c1d0b43cd99b93f966f192e936125a5916124e46124db868a87612b92565b918210156129c4565b6125006127106124f8600d87015484612a04565b048092612a4d565b98881561261b5760098501612516878254612a5a565b9055612523868254612a4d565b90555b600884016125358a8254612a4d565b905561254084612be0565b60018060a01b03906125578a338460065416612c4c565b80612600575b505085600052600489526040600020876000146125f657600b8401545b6040519261258784612801565b338452158b8401528560408401526060830152426080830152612a67565b84156125ec57600b0154905b6040805195151586526020860191909152840152606083018490523392608090a3600160008051602061318a83398151915255604051908152f35b600c0154906125b1565b600c84015461257a565b816126149260065416906007541690612c4c565b898061255d565b600190600a860161262d888254612a5a565b90550161263b868254612a4d565b9055612526565b604051633999656760e01b8152600490fd5b50826001880154106124a3565b5081865410612495565b346102285760003660031901126102285760206040517f68e79a7bf1e0bc45d0a330c573bc367f9cf464fd326078812f301165fbda4ef18152f35b34610228576020366003190112610228576004359063ffffffff60e01b821680920361022857602091637965db0b60e01b81149081156126e8575b5015158152f35b6301ffc9a760e01b149050836126e1565b60809060031901126102285760043590602435801515810361022857906044359060643590565b6040906003190112610228576004359060243590565b9181601f84011215610228578235916001600160401b038311610228576020838186019501011161022857565b602435906001600160a01b038216820361022857565b600435906001600160a01b038216820361022857565b80548210156127ab5760005260206000209060021b0190600090565b634e487b7160e01b600052603260045260246000fd5b919082519283825260005b8481106127ed575050826000602080949584010152601f8019910116010190565b6020818301810151848301820152016127cc565b60a081019081106001600160401b038211176104aa57604052565b608081019081106001600160401b038211176104aa57604052565b61024081019081106001600160401b038211176104aa57604052565b90601f801991011681019081106001600160401b038211176104aa57604052565b9291926001600160401b0382116104aa576040519161289d601f8201601f191660200184612853565b829481845281830111610228578281602093846000960137010152565b606090600319011261022857600435906024358015158103610228579060443590565b90600182811c9216801561290d575b60208310146128f757565b634e487b7160e01b600052602260045260246000fd5b91607f16916128ec565b805460009392612926826128dd565b9182825260209360019160018116908160001461298e575060011461294d575b5050505050565b90939495506000929192528360002092846000945b83861061297a57505050500101903880808080612946565b805485870183015294019385908201612962565b60ff19168685015250505090151560051b010191503880808080612946565b6005111561084957565b9060048210156108495752565b156129cb57565b60405162461bcd60e51b815260206004820152601160248201527014db1a5c1c1859d948195e18d959591959607a1b6044820152606490fd5b81810292918115918404141715612a1757565b634e487b7160e01b600052601160045260246000fd5b8115612a37570490565b634e487b7160e01b600052601260045260246000fd5b91908203918211612a1757565b91908201809211612a1757565b8054600160401b8110156104aa57612a849160018201815561278f565b9190916104c05780518254602083015160ff60a01b90151560a01b166001600160a01b039092166001600160a81b03199091161717825560039060809060408101516001850155606081015160028501550151910155565b6000198114612a175760010190565b9060048110156108495762ff000082549160101b169062ff00001916179055565b90601f8111612b1a57505050565b6000916000526020600020906020601f850160051c83019410612b58575b601f0160051c01915b828110612b4d57505050565b818155600101612b41565b9092508290612b38565b60008051602061318a8339815191526002815414612b805760029055565b604051633ee5aeb560e01b8152600490fd5b91600a600984015493015492612ba88482612a04565b9215612bcf5791612bc0612bc692612bcc9594612a5a565b90612a2d565b90612a4d565b90565b91612bc0612bc692612bcc95612a5a565b6009810154600a820154612bf48183612a5a565b918215612c4657670de0b6b3a76400009182810290808204841490151715612a175783612c2091612a2d565b600b850155818102918183041490151715612a1757600c91612c4191612a2d565b910155565b50505050565b60405163a9059cbb60e01b60009081526001600160a01b039384166004526024949094529260209060448180855af1600160005114811615612cad575b8360405215612c9757505050565b635274afe760e01b835216600482015260249150fd5b6001811516612cc357813b15153d151616612c89565b833d6000823e3d90fd5b6040516323b872dd60e01b60009081526001600160a01b03938416600452938316602452604494909452909160209060648180855af1600160005114811615612d24575b83604052600060605215612c9757505050565b6001811516612cc357813b15153d151616612d11565b8060005260008051602061316a83398151915260205260406000203360005260205260ff6040600020541615610a545750565b6001600160a01b031660008181527fb7db2dd08fcb62d0c9e08c51941cae53c267786a0b75803fb7960902fc8ef97d602052604081205490919060008051602061316a8339815191529060ff16612df6578280526020526040822081835260205260408220600160ff19825416179055339160008051602061314a8339815191528180a4600190565b505090565b6001600160a01b031660008181527f0b45fb0a7d123af421db170fce034e3ce3a70e5f1150428004face1400c458f260205260408120549091907f68e79a7bf1e0bc45d0a330c573bc367f9cf464fd326078812f301165fbda4ef19060008051602061316a8339815191529060ff16612ea5578184526020526040832082845260205260408320600160ff1982541617905560008051602061314a833981519152339380a4600190565b50505090565b6001600160a01b031660008181527fab71e3f32666744d246edff3f96e4bdafee2e9867098cdd118a979a7464786a860205260408120549091907f189ab7a9244df0848122154315af71fe140f3db0fe014031783b0946b8c9d2e39060008051602061316a8339815191529060ff16612ea5578184526020526040832082845260205260408320600160ff1982541617905560008051602061314a833981519152339380a4600190565b9060009180835260008051602061316a83398151915280602052604084209260018060a01b03169283855260205260ff60408520541615600014612ea5578184526020526040832082845260205260408320600160ff1982541617905560008051602061314a833981519152339380a4600190565b9060009180835260008051602061316a83398151915280602052604084209260018060a01b03169283855260205260ff604085205416600014612ea557818452602052604083208284526020526040832060ff1981541690557ff6391f5c32d9c69d2a47ea670b442974b53935d1edc7fd64eb21e047a839171b339380a4600190565b91612710613093600d61309a9460098701549085600a8901546130708185612a04565b921561309d5791612bc0612bc6926130889594612a5a565b93955b015483612a04565b0490612a4d565b91565b91612bc0612bc6926130ae95612a5a565b939561308b565b9060008091602081519101845af48080613136575b156130eb5750506040513d81523d6000602083013e60203d82010160405290565b1561311257604051639996b31560e01b81526001600160a01b039091166004820152602490fd5b3d15613124576040513d6000823e3d90fd5b60405163d6bda27560e01b8152600490fd5b503d1515806130ca5750813b15156130ca56fe2f8788117e7eff1d82e926ec794901d17c78024a50270940304540a733656f0d02dd7bc7dec4dceedda775e58dd541e08a116c6c53815c0bd028192f7b6268009b779b17422d0df92223018b32b4d1fa46e071723d6817e2486d003becc55f00a26469706673582212208d78a2faf2c0406701a631ac72d80c5aa9e56a09286ab095fae6a57fed03847664736f6c63430008160033","linkReferences":{}},"methodIdentifiers":{"BPS_PRECISION()":"e41de313","DEFAULT_ADMIN_ROLE()":"a217fddf","MIN_LIQUIDITY()":"21b77d63","ORACLE_ROLE()":"07e2cea5","PRICE_PRECISION()":"95082d25","UPGRADER_ROLE()":"f72c0d8b","UPGRADE_INTERFACE_VERSION()":"ad3cb1cc","aiSignals(uint256,uint256)":"733b03ae","buy(uint256,bool,uint256,uint256)":"bdad35e5","claim(uint256)":"379607f5","collateralToken()":"b2016bd4","createMarket(uint8,string,uint256,uint256,address,bytes)":"2534d29b","getAIConsensus(uint256)":"b8a65b92","getAISignals(uint256)":"3f7b54d7","getMarket(uint256)":"eb44fdd3","getMetrics(uint256)":"9a8e4495","getPosition(uint256,address)":"d29f541d","getPrices(uint256)":"91492956","getRoleAdmin(bytes32)":"248a9ca3","grantRole(bytes32,address)":"2f2ff15d","hasRole(bytes32,address)":"91d14854","initialize(address,address,address,uint256)":"cf756fdf","marketCount()":"ec979082","marketMetrics(uint256)":"f591b781","markets(uint256)":"b1283e77","maxDuration()":"6db5c8fd","minDuration()":"56715761","platformFee()":"26232a2e","positions(uint256,address)":"e684d718","proxiableUUID()":"52d1902d","quoteBuy(uint256,bool,uint256)":"717bd21d","quoteSell(uint256,bool,uint256)":"94af8201","renounceRole(bytes32,address)":"36568abe","resolveMarket(uint256,uint8)":"df55406e","revokeRole(bytes32,address)":"d547741f","seedMarket(uint256,uint256)":"23533138","sell(uint256,bool,uint256,uint256)":"0abf1899","submitAISignal(uint256,bool,uint256,string)":"f25367da","supportsInterface(bytes4)":"01ffc9a7","trades(uint256,uint256)":"2a7beacc","treasury()":"61d027b3","upgradeToAndCall(address,bytes)":"4f1ef286"},"id":43}