{"abi":[{"type":"constructor","inputs":[],"stateMutability":"nonpayable"},{"type":"function","name":"BPS_PRECISION","inputs":[],"outputs":[{"name":"","type":"uint256","internalType":"uint256"}],"stateMutability":"view"},{"type":"function","name":"COORDINATOR_ROLE","inputs":[],"outputs":[{"name":"","type":"bytes32","internalType":"bytes32"}],"stateMutability":"view"},{"type":"function","name":"DEFAULT_ADMIN_ROLE","inputs":[],"outputs":[{"name":"","type":"bytes32","internalType":"bytes32"}],"stateMutability":"view"},{"type":"function","name":"MAX_TASK_DURATION","inputs":[],"outputs":[{"name":"","type":"uint256","internalType":"uint256"}],"stateMutability":"view"},{"type":"function","name":"MIN_STAKE","inputs":[],"outputs":[{"name":"","type":"uint256","internalType":"uint256"}],"stateMutability":"view"},{"type":"function","name":"REPUTATION_PRECISION","inputs":[],"outputs":[{"name":"","type":"uint256","internalType":"uint256"}],"stateMutability":"view"},{"type":"function","name":"UPGRADER_ROLE","inputs":[],"outputs":[{"name":"","type":"bytes32","internalType":"bytes32"}],"stateMutability":"view"},{"type":"function","name":"UPGRADE_INTERFACE_VERSION","inputs":[],"outputs":[{"name":"","type":"string","internalType":"string"}],"stateMutability":"view"},{"type":"function","name":"VALIDATOR_ROLE","inputs":[],"outputs":[{"name":"","type":"bytes32","internalType":"bytes32"}],"stateMutability":"view"},{"type":"function","name":"addStake","inputs":[{"name":"amount","type":"uint256","internalType":"uint256"}],"outputs":[],"stateMutability":"nonpayable"},{"type":"function","name":"agentList","inputs":[{"name":"","type":"uint256","internalType":"uint256"}],"outputs":[{"name":"","type":"address","internalType":"address"}],"stateMutability":"view"},{"type":"function","name":"agentTaskHistory","inputs":[{"name":"","type":"address","internalType":"address"},{"name":"","type":"uint256","internalType":"uint256"}],"outputs":[{"name":"","type":"uint256","internalType":"uint256"}],"stateMutability":"view"},{"type":"function","name":"agents","inputs":[{"name":"","type":"address","internalType":"address"}],"outputs":[{"name":"owner","type":"address","internalType":"address"},{"name":"agentType","type":"uint8","internalType":"enum AISwarmCoordinator.AgentType"},{"name":"active","type":"bool","internalType":"bool"},{"name":"stake","type":"uint256","internalType":"uint256"},{"name":"reputation","type":"uint256","internalType":"uint256"},{"name":"tasksCompleted","type":"uint256","internalType":"uint256"},{"name":"tasksFailed","type":"uint256","internalType":"uint256"},{"name":"totalEarnings","type":"uint256","internalType":"uint256"},{"name":"registeredAt","type":"uint256","internalType":"uint256"},{"name":"lastActive","type":"uint256","internalType":"uint256"},{"name":"endpoint","type":"string","internalType":"string"}],"stateMutability":"view"},{"type":"function","name":"agentsByType","inputs":[{"name":"","type":"uint8","internalType":"enum AISwarmCoordinator.AgentType"},{"name":"","type":"uint256","internalType":"uint256"}],"outputs":[{"name":"","type":"address","internalType":"address"}],"stateMutability":"view"},{"type":"function","name":"batchCreateTasks","inputs":[{"name":"types","type":"uint8[]","internalType":"enum AISwarmCoordinator.AgentType[]"},{"name":"priorities","type":"uint8[]","internalType":"enum AISwarmCoordinator.TaskPriority[]"},{"name":"rewards","type":"uint256[]","internalType":"uint256[]"},{"name":"rewardTypes","type":"uint8[]","internalType":"enum AISwarmCoordinator.RewardType[]"},{"name":"deadlines","type":"uint256[]","internalType":"uint256[]"},{"name":"inputDatas","type":"bytes[]","internalType":"bytes[]"}],"outputs":[{"name":"taskIds","type":"uint256[]","internalType":"uint256[]"}],"stateMutability":"nonpayable"},{"type":"function","name":"claimTask","inputs":[{"name":"taskId","type":"uint256","internalType":"uint256"}],"outputs":[],"stateMutability":"nonpayable"},{"type":"function","name":"completeTask","inputs":[{"name":"taskId","type":"uint256","internalType":"uint256"}],"outputs":[],"stateMutability":"nonpayable"},{"type":"function","name":"createTask","inputs":[{"name":"requiredType","type":"uint8","internalType":"enum AISwarmCoordinator.AgentType"},{"name":"priority","type":"uint8","internalType":"enum AISwarmCoordinator.TaskPriority"},{"name":"reward","type":"uint256","internalType":"uint256"},{"name":"rewardType","type":"uint8","internalType":"enum AISwarmCoordinator.RewardType"},{"name":"deadline","type":"uint256","internalType":"uint256"},{"name":"inputData","type":"bytes","internalType":"bytes"}],"outputs":[{"name":"taskId","type":"uint256","internalType":"uint256"}],"stateMutability":"nonpayable"},{"type":"function","name":"deactivateAgent","inputs":[{"name":"reason","type":"string","internalType":"string"}],"outputs":[],"stateMutability":"nonpayable"},{"type":"function","name":"getAgent","inputs":[{"name":"agentAddr","type":"address","internalType":"address"}],"outputs":[{"name":"","type":"tuple","internalType":"struct AISwarmCoordinator.Agent","components":[{"name":"owner","type":"address","internalType":"address"},{"name":"agentType","type":"uint8","internalType":"enum AISwarmCoordinator.AgentType"},{"name":"active","type":"bool","internalType":"bool"},{"name":"stake","type":"uint256","internalType":"uint256"},{"name":"reputation","type":"uint256","internalType":"uint256"},{"name":"tasksCompleted","type":"uint256","internalType":"uint256"},{"name":"tasksFailed","type":"uint256","internalType":"uint256"},{"name":"totalEarnings","type":"uint256","internalType":"uint256"},{"name":"registeredAt","type":"uint256","internalType":"uint256"},{"name":"lastActive","type":"uint256","internalType":"uint256"},{"name":"endpoint","type":"string","internalType":"string"},{"name":"specializations","type":"bytes32[]","internalType":"bytes32[]"}]}],"stateMutability":"view"},{"type":"function","name":"getAgentStats","inputs":[{"name":"agentAddr","type":"address","internalType":"address"}],"outputs":[{"name":"","type":"tuple","internalType":"struct AISwarmCoordinator.AgentStats","components":[{"name":"totalTasks","type":"uint256","internalType":"uint256"},{"name":"successRate","type":"uint256","internalType":"uint256"},{"name":"averageResponseTime","type":"uint256","internalType":"uint256"},{"name":"averageConfidence","type":"uint256","internalType":"uint256"},{"name":"totalProfitGenerated","type":"int256","internalType":"int256"}]}],"stateMutability":"view"},{"type":"function","name":"getAgentsByType","inputs":[{"name":"agentType","type":"uint8","internalType":"enum AISwarmCoordinator.AgentType"}],"outputs":[{"name":"","type":"address[]","internalType":"address[]"}],"stateMutability":"view"},{"type":"function","name":"getAvailableTasks","inputs":[{"name":"agentAddr","type":"address","internalType":"address"},{"name":"limit","type":"uint256","internalType":"uint256"}],"outputs":[{"name":"","type":"uint256[]","internalType":"uint256[]"}],"stateMutability":"view"},{"type":"function","name":"getRoleAdmin","inputs":[{"name":"role","type":"bytes32","internalType":"bytes32"}],"outputs":[{"name":"","type":"bytes32","internalType":"bytes32"}],"stateMutability":"view"},{"type":"function","name":"getSwarmMetrics","inputs":[],"outputs":[{"name":"","type":"tuple","internalType":"struct AISwarmCoordinator.SwarmMetrics","components":[{"name":"totalAgents","type":"uint256","internalType":"uint256"},{"name":"activeAgents","type":"uint256","internalType":"uint256"},{"name":"totalTasks","type":"uint256","internalType":"uint256"},{"name":"completedTasks","type":"uint256","internalType":"uint256"},{"name":"totalRewardsPaid","type":"uint256","internalType":"uint256"},{"name":"averageTaskTime","type":"uint256","internalType":"uint256"},{"name":"averageValidationScore","type":"uint256","internalType":"uint256"}]}],"stateMutability":"view"},{"type":"function","name":"getTask","inputs":[{"name":"taskId","type":"uint256","internalType":"uint256"}],"outputs":[{"name":"","type":"tuple","internalType":"struct AISwarmCoordinator.Task","components":[{"name":"taskId","type":"uint256","internalType":"uint256"},{"name":"taskHash","type":"bytes32","internalType":"bytes32"},{"name":"creator","type":"address","internalType":"address"},{"name":"requiredType","type":"uint8","internalType":"enum AISwarmCoordinator.AgentType"},{"name":"priority","type":"uint8","internalType":"enum AISwarmCoordinator.TaskPriority"},{"name":"status","type":"uint8","internalType":"enum AISwarmCoordinator.TaskStatus"},{"name":"assignedAgent","type":"address","internalType":"address"},{"name":"reward","type":"uint256","internalType":"uint256"},{"name":"rewardType","type":"uint8","internalType":"enum AISwarmCoordinator.RewardType"},{"name":"deadline","type":"uint256","internalType":"uint256"},{"name":"createdAt","type":"uint256","internalType":"uint256"},{"name":"completedAt","type":"uint256","internalType":"uint256"},{"name":"inputData","type":"bytes","internalType":"bytes"},{"name":"outputData","type":"bytes","internalType":"bytes"},{"name":"resultHash","type":"bytes32","internalType":"bytes32"},{"name":"validationScore","type":"uint256","internalType":"uint256"}]}],"stateMutability":"view"},{"type":"function","name":"getTaskResult","inputs":[{"name":"taskId","type":"uint256","internalType":"uint256"}],"outputs":[{"name":"","type":"tuple","internalType":"struct AISwarmCoordinator.TaskResult","components":[{"name":"taskId","type":"uint256","internalType":"uint256"},{"name":"agent","type":"address","internalType":"address"},{"name":"resultHash","type":"bytes32","internalType":"bytes32"},{"name":"resultData","type":"bytes","internalType":"bytes"},{"name":"confidence","type":"uint256","internalType":"uint256"},{"name":"submittedAt","type":"uint256","internalType":"uint256"},{"name":"gasUsed","type":"uint256","internalType":"uint256"},{"name":"validated","type":"bool","internalType":"bool"},{"name":"profitGenerated","type":"int256","internalType":"int256"}]}],"stateMutability":"view"},{"type":"function","name":"grantRole","inputs":[{"name":"role","type":"bytes32","internalType":"bytes32"},{"name":"account","type":"address","internalType":"address"}],"outputs":[],"stateMutability":"nonpayable"},{"type":"function","name":"handleFailedTask","inputs":[{"name":"taskId","type":"uint256","internalType":"uint256"},{"name":"slashStake","type":"bool","internalType":"bool"},{"name":"reason","type":"string","internalType":"string"}],"outputs":[],"stateMutability":"nonpayable"},{"type":"function","name":"hasRole","inputs":[{"name":"role","type":"bytes32","internalType":"bytes32"},{"name":"account","type":"address","internalType":"address"}],"outputs":[{"name":"","type":"bool","internalType":"bool"}],"stateMutability":"view"},{"type":"function","name":"initialize","inputs":[{"name":"_admin","type":"address","internalType":"address"},{"name":"_stakingToken","type":"address","internalType":"address"},{"name":"_rewardToken","type":"address","internalType":"address"},{"name":"_treasury","type":"address","internalType":"address"}],"outputs":[],"stateMutability":"nonpayable"},{"type":"function","name":"minReputationForPriority","inputs":[{"name":"","type":"uint8","internalType":"enum AISwarmCoordinator.TaskPriority"}],"outputs":[{"name":"","type":"uint256","internalType":"uint256"}],"stateMutability":"view"},{"type":"function","name":"proxiableUUID","inputs":[],"outputs":[{"name":"","type":"bytes32","internalType":"bytes32"}],"stateMutability":"view"},{"type":"function","name":"registerAgent","inputs":[{"name":"agentType","type":"uint8","internalType":"enum AISwarmCoordinator.AgentType"},{"name":"endpoint","type":"string","internalType":"string"},{"name":"specializations","type":"bytes32[]","internalType":"bytes32[]"}],"outputs":[],"stateMutability":"nonpayable"},{"type":"function","name":"renounceRole","inputs":[{"name":"role","type":"bytes32","internalType":"bytes32"},{"name":"callerConfirmation","type":"address","internalType":"address"}],"outputs":[],"stateMutability":"nonpayable"},{"type":"function","name":"revokeRole","inputs":[{"name":"role","type":"bytes32","internalType":"bytes32"},{"name":"account","type":"address","internalType":"address"}],"outputs":[],"stateMutability":"nonpayable"},{"type":"function","name":"rewardToken","inputs":[],"outputs":[{"name":"","type":"address","internalType":"contract IERC20"}],"stateMutability":"view"},{"type":"function","name":"stakingToken","inputs":[],"outputs":[{"name":"","type":"address","internalType":"contract IERC20"}],"stateMutability":"view"},{"type":"function","name":"submitResult","inputs":[{"name":"taskId","type":"uint256","internalType":"uint256"},{"name":"resultHash","type":"bytes32","internalType":"bytes32"},{"name":"resultData","type":"bytes","internalType":"bytes"},{"name":"confidence","type":"uint256","internalType":"uint256"},{"name":"profitGenerated","type":"int256","internalType":"int256"}],"outputs":[],"stateMutability":"nonpayable"},{"type":"function","name":"supportsInterface","inputs":[{"name":"interfaceId","type":"bytes4","internalType":"bytes4"}],"outputs":[{"name":"","type":"bool","internalType":"bool"}],"stateMutability":"view"},{"type":"function","name":"swarmMetrics","inputs":[],"outputs":[{"name":"totalAgents","type":"uint256","internalType":"uint256"},{"name":"activeAgents","type":"uint256","internalType":"uint256"},{"name":"totalTasks","type":"uint256","internalType":"uint256"},{"name":"completedTasks","type":"uint256","internalType":"uint256"},{"name":"totalRewardsPaid","type":"uint256","internalType":"uint256"},{"name":"averageTaskTime","type":"uint256","internalType":"uint256"},{"name":"averageValidationScore","type":"uint256","internalType":"uint256"}],"stateMutability":"view"},{"type":"function","name":"taskCount","inputs":[],"outputs":[{"name":"","type":"uint256","internalType":"uint256"}],"stateMutability":"view"},{"type":"function","name":"taskQueues","inputs":[{"name":"","type":"uint8","internalType":"enum AISwarmCoordinator.TaskPriority"},{"name":"","type":"uint256","internalType":"uint256"}],"outputs":[{"name":"","type":"uint256","internalType":"uint256"}],"stateMutability":"view"},{"type":"function","name":"taskResults","inputs":[{"name":"","type":"uint256","internalType":"uint256"}],"outputs":[{"name":"taskId","type":"uint256","internalType":"uint256"},{"name":"agent","type":"address","internalType":"address"},{"name":"resultHash","type":"bytes32","internalType":"bytes32"},{"name":"resultData","type":"bytes","internalType":"bytes"},{"name":"confidence","type":"uint256","internalType":"uint256"},{"name":"submittedAt","type":"uint256","internalType":"uint256"},{"name":"gasUsed","type":"uint256","internalType":"uint256"},{"name":"validated","type":"bool","internalType":"bool"},{"name":"profitGenerated","type":"int256","internalType":"int256"}],"stateMutability":"view"},{"type":"function","name":"tasks","inputs":[{"name":"","type":"uint256","internalType":"uint256"}],"outputs":[{"name":"taskId","type":"uint256","internalType":"uint256"},{"name":"taskHash","type":"bytes32","internalType":"bytes32"},{"name":"creator","type":"address","internalType":"address"},{"name":"requiredType","type":"uint8","internalType":"enum AISwarmCoordinator.AgentType"},{"name":"priority","type":"uint8","internalType":"enum AISwarmCoordinator.TaskPriority"},{"name":"status","type":"uint8","internalType":"enum AISwarmCoordinator.TaskStatus"},{"name":"assignedAgent","type":"address","internalType":"address"},{"name":"reward","type":"uint256","internalType":"uint256"},{"name":"rewardType","type":"uint8","internalType":"enum AISwarmCoordinator.RewardType"},{"name":"deadline","type":"uint256","internalType":"uint256"},{"name":"createdAt","type":"uint256","internalType":"uint256"},{"name":"completedAt","type":"uint256","internalType":"uint256"},{"name":"inputData","type":"bytes","internalType":"bytes"},{"name":"outputData","type":"bytes","internalType":"bytes"},{"name":"resultHash","type":"bytes32","internalType":"bytes32"},{"name":"validationScore","type":"uint256","internalType":"uint256"}],"stateMutability":"view"},{"type":"function","name":"treasury","inputs":[],"outputs":[{"name":"","type":"address","internalType":"address"}],"stateMutability":"view"},{"type":"function","name":"updateEndpoint","inputs":[{"name":"newEndpoint","type":"string","internalType":"string"}],"outputs":[],"stateMutability":"nonpayable"},{"type":"function","name":"upgradeToAndCall","inputs":[{"name":"newImplementation","type":"address","internalType":"address"},{"name":"data","type":"bytes","internalType":"bytes"}],"outputs":[],"stateMutability":"payable"},{"type":"function","name":"validateResult","inputs":[{"name":"taskId","type":"uint256","internalType":"uint256"},{"name":"validationScore","type":"uint256","internalType":"uint256"},{"name":"passed","type":"bool","internalType":"bool"}],"outputs":[],"stateMutability":"nonpayable"},{"type":"function","name":"withdrawStake","inputs":[{"name":"amount","type":"uint256","internalType":"uint256"}],"outputs":[],"stateMutability":"nonpayable"},{"type":"event","name":"AgentDeactivated","inputs":[{"name":"agent","type":"address","indexed":true,"internalType":"address"},{"name":"reason","type":"string","indexed":false,"internalType":"string"}],"anonymous":false},{"type":"event","name":"AgentRegistered","inputs":[{"name":"agent","type":"address","indexed":true,"internalType":"address"},{"name":"agentType","type":"uint8","indexed":false,"internalType":"enum AISwarmCoordinator.AgentType"},{"name":"stake","type":"uint256","indexed":false,"internalType":"uint256"}],"anonymous":false},{"type":"event","name":"Initialized","inputs":[{"name":"version","type":"uint64","indexed":false,"internalType":"uint64"}],"anonymous":false},{"type":"event","name":"ReputationUpdated","inputs":[{"name":"agent","type":"address","indexed":true,"internalType":"address"},{"name":"oldReputation","type":"uint256","indexed":false,"internalType":"uint256"},{"name":"newReputation","type":"uint256","indexed":false,"internalType":"uint256"}],"anonymous":false},{"type":"event","name":"RewardPaid","inputs":[{"name":"agent","type":"address","indexed":true,"internalType":"address"},{"name":"amount","type":"uint256","indexed":false,"internalType":"uint256"},{"name":"taskId","type":"uint256","indexed":false,"internalType":"uint256"}],"anonymous":false},{"type":"event","name":"RoleAdminChanged","inputs":[{"name":"role","type":"bytes32","indexed":true,"internalType":"bytes32"},{"name":"previousAdminRole","type":"bytes32","indexed":true,"internalType":"bytes32"},{"name":"newAdminRole","type":"bytes32","indexed":true,"internalType":"bytes32"}],"anonymous":false},{"type":"event","name":"RoleGranted","inputs":[{"name":"role","type":"bytes32","indexed":true,"internalType":"bytes32"},{"name":"account","type":"address","indexed":true,"internalType":"address"},{"name":"sender","type":"address","indexed":true,"internalType":"address"}],"anonymous":false},{"type":"event","name":"RoleRevoked","inputs":[{"name":"role","type":"bytes32","indexed":true,"internalType":"bytes32"},{"name":"account","type":"address","indexed":true,"internalType":"address"},{"name":"sender","type":"address","indexed":true,"internalType":"address"}],"anonymous":false},{"type":"event","name":"StakeSlashed","inputs":[{"name":"agent","type":"address","indexed":true,"internalType":"address"},{"name":"amount","type":"uint256","indexed":false,"internalType":"uint256"},{"name":"reason","type":"string","indexed":false,"internalType":"string"}],"anonymous":false},{"type":"event","name":"TaskAssigned","inputs":[{"name":"taskId","type":"uint256","indexed":true,"internalType":"uint256"},{"name":"agent","type":"address","indexed":true,"internalType":"address"}],"anonymous":false},{"type":"event","name":"TaskCompleted","inputs":[{"name":"taskId","type":"uint256","indexed":true,"internalType":"uint256"},{"name":"agent","type":"address","indexed":true,"internalType":"address"},{"name":"reward","type":"uint256","indexed":false,"internalType":"uint256"}],"anonymous":false},{"type":"event","name":"TaskCreated","inputs":[{"name":"taskId","type":"uint256","indexed":true,"internalType":"uint256"},{"name":"requiredType","type":"uint8","indexed":false,"internalType":"enum AISwarmCoordinator.AgentType"},{"name":"priority","type":"uint8","indexed":false,"internalType":"enum AISwarmCoordinator.TaskPriority"},{"name":"reward","type":"uint256","indexed":false,"internalType":"uint256"}],"anonymous":false},{"type":"event","name":"TaskSubmitted","inputs":[{"name":"taskId","type":"uint256","indexed":true,"internalType":"uint256"},{"name":"agent","type":"address","indexed":true,"internalType":"address"},{"name":"resultHash","type":"bytes32","indexed":false,"internalType":"bytes32"}],"anonymous":false},{"type":"event","name":"TaskValidated","inputs":[{"name":"taskId","type":"uint256","indexed":true,"internalType":"uint256"},{"name":"validationScore","type":"uint256","indexed":false,"internalType":"uint256"},{"name":"passed","type":"bool","indexed":false,"internalType":"bool"}],"anonymous":false},{"type":"event","name":"Upgraded","inputs":[{"name":"implementation","type":"address","indexed":true,"internalType":"address"}],"anonymous":false},{"type":"error","name":"AccessControlBadConfirmation","inputs":[]},{"type":"error","name":"AccessControlUnauthorizedAccount","inputs":[{"name":"account","type":"address","internalType":"address"},{"name":"neededRole","type":"bytes32","internalType":"bytes32"}]},{"type":"error","name":"AddressEmptyCode","inputs":[{"name":"target","type":"address","internalType":"address"}]},{"type":"error","name":"AgentNotActive","inputs":[]},{"type":"error","name":"AgentNotRegistered","inputs":[]},{"type":"error","name":"AlreadySubmitted","inputs":[]},{"type":"error","name":"DeadlineExceeded","inputs":[]},{"type":"error","name":"ERC1967InvalidImplementation","inputs":[{"name":"implementation","type":"address","internalType":"address"}]},{"type":"error","name":"ERC1967NonPayable","inputs":[]},{"type":"error","name":"FailedCall","inputs":[]},{"type":"error","name":"InsufficientReputation","inputs":[]},{"type":"error","name":"InsufficientStake","inputs":[]},{"type":"error","name":"InvalidInitialization","inputs":[]},{"type":"error","name":"NotInitializing","inputs":[]},{"type":"error","name":"ReentrancyGuardReentrantCall","inputs":[]},{"type":"error","name":"SafeERC20FailedOperation","inputs":[{"name":"token","type":"address","internalType":"address"}]},{"type":"error","name":"TaskNotAssignable","inputs":[]},{"type":"error","name":"TaskNotFound","inputs":[]},{"type":"error","name":"TaskNotSubmittable","inputs":[]},{"type":"error","name":"UUPSUnauthorizedCallContext","inputs":[]},{"type":"error","name":"UUPSUnsupportedProxiableUUID","inputs":[{"name":"slot","type":"bytes32","internalType":"bytes32"}]},{"type":"error","name":"UnauthorizedAgent","inputs":[]}],"bytecode":{"object":"0x60a08060405234620000f5573060805260017f9b779b17422d0df92223018b32b4d1fa46e071723d6817e2486d003becc55f00557ff0c57e16840df040f15088dc2f81fe391c3923bec73e23a9662efc9c229c6a009081549060ff8260401c16620000e657506001600160401b036002600160401b031982821601620000a0575b6040516143999081620000fb82396080518181816123df01526124990152f35b6001600160401b031990911681179091556040519081527fc7f505b2f371ae2175ee4913f4499e1f2633a7b5936321eed1cdaeb6115181d290602090a138808062000080565b63f92ee8a960e01b8152600490fd5b600080fdfe608080604052600436101561001357600080fd5b60003560e01c90816301ffc9a7146134da57508063118d1fd914612fb457806318697b7514612f0b5780631d65e77e14612c5b578063248a9ca314612c1f57806325d5971f14612b365780632f2ff15d14612aea5780632f80c54f14612a8f57806336568abe14612a485780634ccaf1cd146126a75780634f1ef2861461244957806352d1902d146123cc5780635c019d2e146122b85780635c9c36b61461226757806361d027b31461223e578063671d7c09146120e15780636b366cb5146120a65780636b4e89a21461208857806372f702f31461205f57806376ca353e146120085780638a6fd46f14611d425780638d97767214611bd35780638dd3349514611a2c57806391d14854146119d25780639379d43b1461183b57806399fee734146116cd578063a04951da14611612578063a0744ab114611554578063a217fddf14611538578063aa3e327314611475578063ad3cb1cc1461141d578063b5695b381461121b578063b6cb58a5146111fd578063bae2e378146111e0578063bca38dd014611196578063c49baebe1461115b578063cb1c2b5c14611137578063d547741f146110e9578063e1e2955814610edd578063e41de31314610ec0578063e627a41014610e8c578063eb4f16b514610e09578063f0c506ea14610daf578063f72c0d8b14610d74578063f7c618c114610d4b578063f8c8765e14610b5c578063fb3551ff146108ee578063fc2d718e14610364578063fd66091e146102885763fedf64841461024557600080fd5b346102835760203660031901126102835760043560048110156102835761026b81613597565b60005260126020526020604060002054604051908152f35b600080fd5b3461028357602036600319011261028357610321602061036060086001600160a01b03806102b4613604565b16600052600084526040600020805460018201546002830154600384015460048501549160058601549360ff60068801549661030660078a0154996102ff604051809e8193016137cd565b038c6136d7565b6040519d8e9d8e6101609c8416815201838360a01c1661358a565b60a81c16151560408c015260608b015260808a015260a089015260c088015260e0870152610100860152610120850152806101408501528301906135ae565b0390f35b346102835760c03660031901126102835760076004351015610283576004602435101561028357600460643510156102835760a4356001600160401b038111610283576103b590369060040161352d565b6103bd613cd1565b4260843511156108b65762093a8042018042116108a05760843511610868576104886103ea600454613913565b92836004556103fa3684836136f8565b60208151910120926040519361040f8561364e565b858552602085015233604085015261042c60043560608601613863565b610437602435613597565b6024356080850152600060a0850152600060c085015260443560e0850152610460606435613597565b60643561010085015260843561012085015242610140850152600061016085015236916136f8565b61018082015260405161049a816136bc565b600081526101a082015260006101c082015260006101e0820152816000526003602052604060002091815183556020820151600184015560018060a01b036040830151166001600160601b0360a01b60028501541617600284015560608201516007811015610852576105109060028501613886565b608082015161051e81613597565b61052781613597565b600284015460a084015160098110156108525760ff60b01b9060b01b169160ff60a81b9060a81b169061ffff60a81b1916171760028401556003830160018060a01b0360c0840151166001600160601b0360a01b82541617905560e082015160048401556005830161010083015161059e81613597565b6105a781613597565b60ff801983541691161790556101208201516006840155610140820151600784015561016082015160088401556101808201519283516001600160401b0381116107c557610605816105fc6009850154613793565b600985016138aa565b602094601f82116001146107e6576106399293949582916000926107db575b50508160011b916000199060031b1c19161790565b60098201555b6101a08301519283516001600160401b0381116107c5576020946106738261066a600a870154613793565b600a87016138aa565b8590601f831160011461075157826101e093600c95936106a9936000926107465750508160011b916000199060031b1c19161790565b600a8501555b6101c0810151600b85015501519101556106ca602435613597565b602435600052600682526106e28160406000206139e0565b6106ed600d54613913565b600d55807f1c55fa1bb40ebda7d9a4520b60e50588b6f3e84a0ca53a55626c08d4ec34ed6460606040516107238160043561358a565b61072e602435613597565b602435868201526044356040820152a2604051908152f35b015190508980610624565b90600a8501600052866000209160005b601f19851681106107ae575092600c94926001926101e09583601f19811610610795575b505050811b01600a8501556106af565b015160001960f88460031b161c19169055888080610785565b919288600181928685015181550194019201610761565b634e487b7160e01b600052604160045260246000fd5b015190508680610624565b601f198216956009840160005260206000209160005b88811061083a57508360019596979810610821575b505050811b01600982015561063f565b015160001960f88460031b161c19169055858080610811565b919260206001819286850151815501940192016107fc565b634e487b7160e01b600052602160045260246000fd5b60405162461bcd60e51b815260206004820152601060248201526f2232b0b23634b732903a37b7903330b960811b6044820152606490fd5b634e487b7160e01b600052601160045260246000fd5b60405162461bcd60e51b815260206004820152601060248201526f496e76616c696420646561646c696e6560801b6044820152606490fd5b3461028357602036600319011261028357610907613604565b606061016060405161091881613632565b60008152600060208201526000604082015260008382015260006080820152600060a0820152600060c0820152600060e08201526000610100820152600061012082015282610140820152015260018060a01b0316600052600060205260406000206040519061098782613632565b80546001600160a01b038116835260ff906109ab60a082901c831660208601613863565b60a81c16151560408301526001810154606083015260028101546080830152600381015460a0830152600481015460c0830152600581015460e083015260068101546101008301526007810154610120830152604051610a1981610a1281600886016137cd565b03826136d7565b61014083015260405180826009602081849601549485815201910160005260206000209260005b818110610b43575050610a55925003826136d7565b61016082015260405180916020825260018060a01b038151166020830152610a856020820151604084019061358a565b60408101511515606083015260608101516080830152608081015160a083015260a081015160c083015260c081015160e083015260e081015161010083015261010081015161012083015261012081015161014083015261014081015190610160610afd6101809384838701526101a08601906135ae565b91015191601f1984830301908401526020808351928381520192019060005b818110610b2a575050500390f35b8251845285945060209384019390920191600101610b1c565b8454835260019485019486945060209093019201610a40565b3461028357608036600319011261028357610b75613604565b610b7d6135ee565b6001600160a01b03919060443583811691908290036102835760643591848316809303610283577ff0c57e16840df040f15088dc2f81fe391c3923bec73e23a9662efc9c229c6a009485549460ff8660401c1615956001600160401b03811680159081610d43575b6001149081610d39575b159081610d30575b50610d1e5767ffffffffffffffff198116600117885586610cff575b5060ff875460401c1615610ced5780610c2e610c4892613d60565b50610c3881613dee565b50610c4281613e9e565b50613f48565b506001600160601b0360a01b9216826008541617600855816009541617600955600a541617600a5560008052601260205260006040812055600160005261012c60406000205560026000526102586040600020556003600052610320604060002055610cb057005b68ff00000000000000001981541690557fc7f505b2f371ae2175ee4913f4499e1f2633a7b5936321eed1cdaeb6115181d2602060405160018152a1005b604051631afcd79f60e31b8152600490fd5b68ffffffffffffffffff19166801000000000000000117875587610c13565b60405163f92ee8a960e01b8152600490fd5b90501589610bf7565b303b159150610bef565b889150610be5565b34610283576000366003190112610283576009546040516001600160a01b039091168152602090f35b346102835760003660031901126102835760206040517f189ab7a9244df0848122154315af71fe140f3db0fe014031783b0946b8c9d2e38152f35b346102835760403660031901126102835760043560048110156102835760243590610dd981613597565b60005260066020526040600020805482101561028357602091610dfb9161361a565b90546040519160031b1c8152f35b3461028357602036600319011261028357600435610e25613bb3565b336000526000602052604060002060018060a01b038082541615610e7a57610e6491610e5b846001936008541630903390613be3565b019182546139d3565b9055600160008051602061434483398151915255005b6040516383bcfb4760e01b8152600490fd5b3461028357604036600319011261028357610360610eb4610eab613604565b60243590613a15565b60405191829182613757565b346102835760003660031901126102835760206040516127108152f35b346102835760208060031936011261028357600435610efa613bb3565b610f02613cd1565b80600052600382526040600020908154156110d757600282019081549060ff8260b01c166009811015610852576004036110c5576003840193600c60018060a01b03918287541660005260008852604060002095610f5f826140ea565b60ff60b01b19909616600560b01b179055426008820155600386018054610f8590613913565b905560058601610f968682546139d3565b90558287541660005260078852610fb18460406000206139e0565b01549460028501958654600a820291808304600a14901517156108a057836040977fd6f2c8500df5b44f11e9e48b91ff9f1b9d81bc496d55570c2b1b75bf65243f51996110036103e8809604856139d3565b948086116110af575b50916000805160206143048339815191529391858b945554169382519182528b820152a261104884836009541684600a54168585541691613be3565b611053600e54613913565b600e5561106284600f546139d3565b600f5554169485827f843af93d40addceac6932508439844b897d4df9e971db326d557e3cdaa9f3ebf838751878152a38351928352820152a2600160008051602061434483398151915255005b945060008051602061430483398151915261100c565b604051636ea5a28360e01b8152600490fd5b60405163c325ae3360e01b8152600490fd5b34610283576040366003190112610283576111356004356111086135ee565b9080600052600080516020614324833981519152602052611130600160406000200154613d2d565b614067565b005b3461028357600036600319011261028357602060405168056bc75e2d631000008152f35b346102835760003660031901126102835760206040517f21702c8af46127c7fa207f89d0b0a8441bb32959a0ac7df790e9ab1a25c989268152f35b34610283576040366003190112610283576111af613604565b6001600160a01b031660009081526007602052604090208054602435919082101561028357602091610dfb9161361a565b346102835760003660031901126102835760206040516103e88152f35b34610283576000366003190112610283576020600454604051908152f35b346102835760208060031936011261028357611235613604565b60006080604051611245816136a1565b8281528285820152826040820152826060820152015260018060a01b03166000526000815260406000206007906007835260406000209060039261129260046003840154930154836139d3565b91821561141457612710908181029181830414901517156108a057826112b7916139b3565b935b600095600080946000978754985b8981108061140a575b1561137d576112df818a61361a565b905490871b1c6000526005855260406000209a600894858d015491600083820193841291129080158216911516176108a0576004611320929d0154906139d3565b9361132b828b61361a565b905490881b1c600052868652876040600020918201549101549081811161135d575b505061135890613913565b6112c7565b9861136f61137592611358949b613950565b906139d3565b97908c61134d565b5060a0928a9185898c8015159481866000146114005761139c916139b3565b945b156113f6576113ac916139b3565b915b60806040516113bc816136a1565b8781528381019283526040810194855260608101958652019485526040519586525190850152516040840152516060830152516080820152f35b50506000916113ae565b505060009461139e565b50606481106112d0565b506000936112b9565b346102835760003660031901126102835760405160408101908082106001600160401b038311176107c5576103609160405260058152640352e302e360dc1b60208201526040519182916020835260208301906135ae565b3461028357600036600319011261028357600060c060405161149681613686565b8281528260208201528260408201528260608201528260808201528260a0820152015260e06040516114c781613686565b600b5490818152600c5460208201908152600d5460408301908152600e5460608401908152600f5491608085019283526010549360a0860194855260c060115496019586526040519687525160208701525160408601525160608501525160808401525160a08301525160c0820152f35b3461028357600036600319011261028357602060405160008152f35b34610283576020806003193601126102835760043560078110156102835761157b9061373e565b60405190818382549182815201908192600052846000209060005b868282106115f55786866115ac828803836136d7565b604051928392818401908285525180915260408401929160005b8281106115d557505050500390f35b83516001600160a01b0316855286955093810193928101926001016115c6565b83546001600160a01b031685529093019260019283019201611596565b34610283576020366003190112610283576004356000526005602052604060002080549060018060a01b0360018201541690600281015492604051916116668361165f81600385016137cd565b03846136d7565b60048101549260058201546116ac600684015492600860ff60078701541695015495604051998a99610120928b5260208b015260408a01528060608a01528801906135ae565b94608087015260a086015260c0850152151560e08401526101008301520390f35b34610283576060366003190112610283576004356044356024358115158203610283573360009081527fb323bca1072ad6c43c8a5019bad43672f13be3697b760574a9a2f43b558a3aa560209081526040909120549091907f21702c8af46127c7fa207f89d0b0a8441bb32959a0ac7df790e9ab1a25c989269060ff161561181d575083600052600382526040600020918254156110d757600283019060ff825460b01c166009811015610852576003036110c5577f1189da6e825199679077cd938d4dbe628612de7eaa0e25cd81f4d2c12a74d6fb9483600c604096896000526005855260078860002001600160ff19825416179055015580611811575b156117f157815460ff60b01b1916600160b21b179091558251918252600190820152a2005b815460ff60b01b1916600360b11b179091558251918252600090820152a2005b506101f48310156117cc565b6044906040519063e2517d3f60e01b82523360048301526024820152fd5b34610283576060366003190112610283576024358015158103610283576044356001600160401b0381116102835761187790369060040161352d565b90611880613cd1565b60043560005260036020526040600020918254156110d757600383019060018060a01b03918281541660005260006020526040600020600481016118c48154613913565b9055600281018054979060328911156119b557603119890198808a116108a05760406000805160206143048339815191529160029b80945b55888654169382519182526020820152a2806119a8575b61192e575b858701805460ff60b01b1916600360b11b179055005b7fc32d81504c00ce92eaeed0852b187e372b250d24935ca5a510426adbd42cc25793600161199b920192835493611969600a86048096613950565b905561197f84836008541684600a541690613c70565b541694604051938493845260406020850152604084019161392f565b0390a28280808080611918565b5060018101541515611913565b600080516020614304833981519152604060029a600080946118fc565b34610283576040366003190112610283576119eb6135ee565b60043560005260008051602061432483398151915260205260406000209060018060a01b0316600052602052602060ff604060002054166040519015158152f35b3461028357602036600319011261028357600435611a48613bb3565b80600052600360205260406000208054156110d757600281019081549060ff8260b01c16600981101561085257611bc15760068101544211611baf57336000526000602052604060002092835460018060a01b03811615610e7a5760ff8160a81c1615611b9d5760ff9060a01c1660ff8460a01c16906007821015610852576007811015610852578114159081611b91575b50611b8057600284015460ff8460a81c16611af481613597565b600052601260205260406000205411611b6e57600392600160b01b9060ff60b01b191617905501336001600160601b0360a01b82541617905560074291015533907f52476d55ecef5cf13caa64038f297fe6bbf865d9584a98b8722a15a6d5db128f600080a3600160008051602061434483398151915255005b604051631899c49760e31b8152600490fd5b604051624b0ebd60e41b8152600490fd5b60069150141586611ada565b604051632437e77160e11b8152600490fd5b60405163559895a360e01b8152600490fd5b604051637c275c5960e01b8152600490fd5b346102835760203660031901126102835760043560005260036020526040600020805490600181015490600281015492600160a01b6001900360038301541690600483015490600584015460ff16906006850154600786015460088701549160405194858060098b0190611c46916137cd565b03611c5190876136d7565b6040519687611c6381600a8d016137cd565b03611c6e90896136d7565b600b8a015499600c0154986040519c8d9c8d610200998152602001528c600160a01b600190038216906040015260608d018160a01c60ff1690611cb09161358a565b8060a81c60ff16611cc090613597565b8c8160a81c60ff16906080015260a08d019060b01c60ff1690611ce2916135a1565b60c08c015260e08b0152611cf581613597565b6101008a0152610120890152610140880152610160870152806101808701528501611d1f916135ae565b8481036101a0860152611d31916135ae565b916101c08401526101e08301520390f35b346102835760c0366003190112610283576004356001600160401b03811161028357611d7290369060040161355a565b6024356001600160401b03811161028357611d9190369060040161355a565b92906044356001600160401b03811161028357611db290369060040161355a565b90916064356001600160401b03811161028357611dd390369060040161355a565b966084356001600160401b03811161028357611df390369060040161355a565b90946001600160401b0360a4351161028357611e143660a43560040161355a565b979093611e1f613cd1565b808b03611fd157611e2f8b61395d565b9a60005b818110611e4857604051806103608f82613757565b611e5381838e61398f565b3590600782101561028357611e6981858c61398f565b35916004831015610283578f90611e8d83611e85818b8b61398f565b35938d61398f565b35906004821015610283578e92611ea68f8c879161398f565b3593851015611fbb57601e198c3603018560051b8d01351215610283578460051b8c01358c016001600160401b038135116102835780353603602082011361028357602094611f0f94611f4b93604051998a978897637e16b8c760e11b8952600489019061358a565b611f1881613597565b60248701526044860152611f2b81613597565b6064850152608484015260c060a484015260c4830190858135910161392f565b03816000305af18015611faf578e92600091611f76575b50611f6f8260019461399f565b5201611e33565b9250506020823d602011611fa7575b81611f92602093836136d7565b810103126102835790518d9190611f6f611f62565b3d9150611f85565b6040513d6000823e3d90fd5b634e487b7160e01b600052603260045260246000fd5b60405162461bcd60e51b815260206004820152600f60248201526e098cadccee8d040dad2e6dac2e8c6d608b1b6044820152606490fd5b34610283576040366003190112610283576004356007811015610283576120316024359161373e565b8054821015610283576020916120469161361a565b905460405160039290921b1c6001600160a01b03168152f35b34610283576000366003190112610283576008546040516001600160a01b039091168152602090f35b3461028357600036600319011261028357602060405162093a808152f35b346102835760003660031901126102835760206040517f2e8b98eef02e8df3bd27d1270ded3bea3d14db99c5234c7b14001a7fff957bcc8152f35b3461028357602080600319360112610283576040516120ff8161366a565b600081526000828201526000604082015260608082015260006080820152600060a0820152600060c0820152600060e082015260006101008092015260043560005260058252604060002090604051916121588361366a565b8054835260018060a01b03918260018301541690858501918252600283015492604086019384526040519461219b8661219481600386016137cd565b03876136d7565b606087019586526004820154956080880196875260058301549560a0890196875260068401549260c08a01938452600860ff6007870154169560e08c019615158752015496868b019788526040519b8c9b818d5251908c0152511660408a0152516060890152519461221b610120968760808b01526101408a01906135ae565b965160a08901525160c08801525160e08701525115159085015251908301520390f35b3461028357600036600319011261028357600a546040516001600160a01b039091168152602090f35b346102835760003660031901126102835760e0600b54600c54600d54600e54600f54906010549260115494604051968752602087015260408601526060850152608084015260a083015260c0820152f35b3461028357602080600319360112610283576001600160401b03600435818111610283576122ea90369060040161352d565b90336000526000602052604060002060018060a01b0381541615610e7a576008019282116107c557612326826123208554613793565b856138aa565b600093601f831160011461236757506123589293829160009261235c5750508160011b916000199060031b1c19161790565b9055005b013590508480610624565b90601f19831694846000526020600020926000905b8782106123b457505083600195961061239a575b505050811b019055005b0135600019600384901b60f8161c19169055838080612390565b8060018496829495870135815501950192019061237c565b34610283576000366003190112610283577f00000000000000000000000000000000000000000000000000000000000000006001600160a01b031630036124375760206040517f360894a13ba1a3210667c828492db98dca3e2076cc3735a920a3ca505d382bbc8152f35b60405163703e46dd60e11b8152600490fd5b60403660031901126102835761245d613604565b60249081356001600160401b03811161028357366023820112156102835761248e90369084816004013591016136f8565b6001600160a01b03917f00000000000000000000000000000000000000000000000000000000000000008316308114908115612679575b50612437573360009081527fab71e3f32666744d246edff3f96e4bdafee2e9867098cdd118a979a7464786a860209081526040909120549093907f189ab7a9244df0848122154315af71fe140f3db0fe014031783b0946b8c9d2e39060ff161561265c57506040516352d1902d60e01b8152908216938082600481885afa91829160009361262c575b505061256c5750505060405190634c9c8ce360e01b82526004820152fd5b847f360894a13ba1a3210667c828492db98dca3e2076cc3735a920a3ca505d382bbc918281036126175750823b15612601575080546001600160a01b03191684179055604051927fbc7cd75a20ee27fd9adebab32041f755214dbc6bffa90cc0225b39da2e5c2d3b600080a28151156125e957611135925061424f565b5050346125f257005b63b398979f60e01b8152600490fd5b604051634c9c8ce360e01b815260048101869052fd5b60405190632a87526960e21b82526004820152fd5b9080929350813d8311612655575b61264481836136d7565b81010312610283575190868061254e565b503d61263a565b856044916040519163e2517d3f60e01b8352336004840152820152fd5b9050837f360894a13ba1a3210667c828492db98dca3e2076cc3735a920a3ca505d382bbc54161415856124c5565b346102835760a0366003190112610283576044356001600160401b038111610283576126d790369060040161352d565b6126df613bb3565b600435600052600360205260406000208054156110d75760038101546001600160a01b03163303611b805760028101805460ff8160b01c1660098110156108525760018114159081612a3c575b506110c55760068301544211611baf5760ff60b01b1916600360b01b179055602435600b8201556001600160401b0382116107c55761277b82612772600a840154613793565b600a84016138aa565b600082601f81116001146129cf57806127ad91600a936000916129c4575b508160011b916000199060031b1c19161790565b9101555b604051906127be8261366a565b60043582526127df60208301933385526040840192602435845236916136f8565b906060830191825260643560808401524260a0840152600060c0840152600060e0840152608435610100840152600435600052600560205260406000209383518555600185019060018060a01b039051166001600160601b0360a01b825416179055516002840155518051906001600160401b0382116107c5576128738261286a6003870154613793565b600387016138aa565b602090601f831160011461294e578261010093600895936128aa936000926129435750508160011b916000199060031b1c19161790565b60038501555b6080810151600485015560a0810151600585015560c081015160068501556007840160e0820151151560ff80198354169116179055015191015533600052600060205242600760406000200155604051602435815233907f426c8a62b17e201c4e6c6b4364193ae08f72edc8f5e2aa0b9aa3848f5bb5d954602060043592a3600160008051602061434483398151915255005b015190508780610624565b906003850160005260206000209160005b601f19851681106129ac575092600894926001926101009583601f19811610612993575b505050811b0160038501556128b0565b015160001960f88460031b161c19169055868080612983565b9192602060018192868501518155019401920161295f565b905086013587612799565b50600a820160005260206000209060005b601f1985168110612a24575083601f19811610612a0a575b5050600a600183811b019101556127b1565b840135600019600385901b60f8161c1916905583806129f8565b909160206001819285890135815501930191016129e0565b6002915014158661272c565b3461028357604036600319011261028357612a616135ee565b336001600160a01b03821603612a7d5761113590600435614067565b60405163334bd91960e11b8152600490fd5b34610283576020366003190112610283576004356001548110156102835760016000527fb10e2d527612073b26eecdfd717e6a320cf44b4afac2b0732d9fcbe2b7fa0cf601546040516001600160a01b039091168152602090f35b3461028357604036600319011261028357611135600435612b096135ee565b9080600052600080516020614324833981519152602052612b31600160406000200154613d2d565b613ff2565b3461028357602036600319011261028357600435612b52613bb3565b33600052600060205260406000209060018060a01b03918281541615610e7a576001018054929068056bc75e2d63100000841115612c185768056bc75e2d630fffff1984018481116108a0575b8311612bd357612bb283612bbf95613950565b9055339060085416613c70565b600160008051602061434483398151915255005b60405162461bcd60e51b815260206004820152601f60248201527f496e73756666696369656e7420776974686472617761626c65207374616b65006044820152606490fd5b6000612b9f565b34610283576020366003190112610283576004356000526000805160206143248339815191526020526020600160406000200154604051908152f35b346102835760203660031901126102835760006101e0604051612c7d8161364e565b8281528260208201528260408201528260608201528260808201528260a08201528260c08201528260e082015282610100820152826101208201528261014082015282610160820152606061018082015260606101a0820152826101c082015201526004356000526003602052604060002060405190612cfc8261364e565b805482526001810154602083015260028101546001600160a01b038116604084015290612d3360a083901c60ff1660608501613863565b60ff8260a81c16612d4381613597565b6080840152600960ff8360b01c1610156108525760ff600c9260b01c1660a084015260018060a01b0360038201541660c0840152600481015460e084015260ff600582015416612d9281613597565b610100840152600681015461012084015260078101546101408401526008810154610160840152604051612dcd81610a1281600986016137cd565b610180840152604051612de781610a1281600a86016137cd565b6101a0840152600b8101546101c084015201546101e0820152604051809160208252805160208301526020810151604083015260018060a01b036040820151166060830152612e3e6060820151608084019061358a565b6080810151612e4c81613597565b60a0830152612e6360a082015160c08401906135a1565b60018060a01b0360c08201511660e083015260e0810151610100830152610100810151612e8f81613597565b6101208301526101208101516101408301526101408101516101608301526101608101516101808301526101808101516101e0612ef6612ede61020093846101a08801526102208701906135ae565b6101a0850151868203601f19016101c08801526135ae565b926101c0810151828601520151908301520390f35b34610283576020366003190112610283576004356001600160401b03811161028357612f3b90369060040161352d565b9033600052600060205260406000209081549060018060a01b03821615610e7a577faa316d1906ea96acf2f376daa6bc81e8d6f40e521e146f051975841f43e9db6092612faf9260ff60a81b19169055612f96600c54613922565b600c55604051918291602083523395602084019161392f565b0390a2005b346102835760603660031901126102835760076004351015610283576024356001600160401b03811161028357612fef90369060040161352d565b906044356001600160401b0381116102835761300f90369060040161355a565b9091613019613bb3565b336000908152602081905260409020546001600160a01b03166134a0576008546040516323b872dd60e01b6000908152336004523060245268056bc75e2d6310000060445290916001600160a01b03169060209060648180855af1600160005114811615613480575b8260405260006060521561346b5750506130fd90604051946130a386613632565b3386526130b560043560208801613863565b6001604087015268056bc75e2d6310000060608701526101f46080870152600060a0870152600060c0870152600060e0870152426101008701524261012087015236916136f8565b61014084015261310c8161386f565b9161311a60405193846136d7565b8183526020830190368360051b8201116102835780915b8360051b8201831061345b578585610160820152336000526000602052604060002060018060a01b038251166001600160601b0360a01b82541617815560208201516007811015610852576131869082613886565b6040820151815460ff60a81b191690151560a81b60ff60a81b16178155606082015160018201556080820151600282015560a0820151600382015560c0820151600482015560e08201516005820155610100820151600682015561012082015160078201556101408201518051906001600160401b0382116107c55761321c826132136008860154613793565b600886016138aa565b602090601f83116001146133e557826009936101609593613253936000926129435750508160011b916000199060031b1c19161790565b60088201555b01910151908151906001600160401b0382116107c557600160401b928383116107c55781548383558084106133bc575b5060200190600052602060002060005b8381106133a85784600154818110156107c5576001810180600155811015611fbb5760016000527fb10e2d527612073b26eecdfd717e6a320cf44b4afac2b0732d9fcbe2b7fa0cf60180546001600160a01b031916331790556132fd60043561373e565b908154908110156107c5576133179160018201815561361a565b81546001600160a01b0360039290921b91821b19163390911b179055600b5461333f90613913565b600b5561334d600c54613913565b600c5560405161335f8160043561358a565b68056bc75e2d6310000060208201527f4d9c920e29bb90e0c07c3a776d26ff7bea45d9387eb4a05f2ed5da5afd5005b660403392a2600160008051602061434483398151915255005b600190602084519401938184015501613299565b8260005283602060002091820191015b8181106133d95750613289565b600081556001016133cc565b906008840160005260206000209160005b601f1985168110613443575092610160949260019260099583601f1981161061342a575b505050811b016008820155613259565b015160001960f88460031b161c1916905586808061341a565b919260206001819286850151815501940192016133f6565b8235815260209283019201613131565b635274afe760e01b8252600482015260249150fd5b600181151661349657813b15153d151616613082565b823d6000823e3d90fd5b60405162461bcd60e51b8152602060048201526012602482015271105b1c9958591e481c9959da5cdd195c995960721b6044820152606490fd5b34610283576020366003190112610283576004359063ffffffff60e01b821680920361028357602091637965db0b60e01b811490811561351c575b5015158152f35b6301ffc9a760e01b14905083613515565b9181601f84011215610283578235916001600160401b038311610283576020838186019501011161028357565b9181601f84011215610283578235916001600160401b038311610283576020808501948460051b01011161028357565b9060078210156108525752565b6004111561085257565b9060098210156108525752565b919082519283825260005b8481106135da575050826000602080949584010152601f8019910116010190565b6020818301810151848301820152016135b9565b602435906001600160a01b038216820361028357565b600435906001600160a01b038216820361028357565b8054821015611fbb5760005260206000200190600090565b61018081019081106001600160401b038211176107c557604052565b61020081019081106001600160401b038211176107c557604052565b61012081019081106001600160401b038211176107c557604052565b60e081019081106001600160401b038211176107c557604052565b60a081019081106001600160401b038211176107c557604052565b602081019081106001600160401b038211176107c557604052565b90601f801991011681019081106001600160401b038211176107c557604052565b9291926001600160401b0382116107c55760405191613721601f8201601f1916602001846136d7565b829481845281830111610283578281602093846000960137010152565b6007811015610852576000526002602052604060002090565b602090602060408183019282815285518094520193019160005b82811061377f575050505090565b835185529381019392810192600101613771565b90600182811c921680156137c3575b60208310146137ad57565b634e487b7160e01b600052602260045260246000fd5b91607f16916137a2565b8054600093926137dc82613793565b918282526020936001916001811690816000146138445750600114613803575b5050505050565b90939495506000929192528360002092846000945b838610613830575050505001019038808080806137fc565b805485870183015294019385908201613818565b60ff19168685015250505090151560051b0101915038808080806137fc565b60078210156108525752565b6001600160401b0381116107c55760051b60200190565b90600781101561085257815460ff60a01b191660a09190911b60ff60a01b16179055565b90601f81116138b857505050565b6000916000526020600020906020601f850160051c830194106138f6575b601f0160051c01915b8281106138eb57505050565b8181556001016138df565b90925082906138d6565b818102929181159184041417156108a057565b60001981146108a05760010190565b80156108a0576000190190565b908060209392818452848401376000828201840152601f01601f1916010190565b919082039182116108a057565b906139678261386f565b61397460405191826136d7565b8281528092613985601f199161386f565b0190602036910137565b9190811015611fbb5760051b0190565b8051821015611fbb5760209160051b010190565b81156139bd570490565b634e487b7160e01b600052601260045260246000fd5b919082018092116108a057565b8054600160401b8110156107c5576139fd9160018201815561361a565b819291549060031b91821b91600019901b1916179055565b60018060a01b03806000921682526020908260205260408084209182541615613b9857839060035b613a4681613597565b613a4f81613597565b80865260068552818620805490875b828110613b51575b5050508683148015613b49575b613a8557613a8090613922565b613a3d565b50909192939450613a958261395d565b92859160035b613aa481613597565b613aad81613597565b80885260068752818820805490895b828110613afa575b5050508484148015613af2575b613ae757613ae0600691613922565b9050613a9b565b505050505091505090565b508015613ad1565b613b04818361361a565b90549060031b1c613b158782614182565b613b23575b50600101613abc565b613b36613b2f89613913565b988b61399f565b52878714613b445738613b1a565b613ac4565b508015613a73565b613b6e87613b6283859d979d61361a565b90549060031b1c614182565b613b7e575b600101989298613a5e565b94613b8890613913565b94838603613b7357989298613a66565b505050905060405190613baa826136bc565b80825236813790565b6000805160206143448339815191526002815414613bd15760029055565b604051633ee5aeb560e01b8152600490fd5b6040516323b872dd60e01b60009081526001600160a01b03938416600452938316602452604494909452909160209060648180855af1600160005114811615613c50575b83604052600060605215613c3a57505050565b635274afe760e01b835216600482015260249150fd5b6001811516613c6657813b15153d151616613c27565b833d6000823e3d90fd5b60405163a9059cbb60e01b60009081526001600160a01b039384166004526024949094529260209060448180855af1600160005114811615613cbb575b8360405215613c3a57505050565b6001811516613c6657813b15153d151616613cad565b3360009081527fbb47a66bddbe3e5c365efb05c6ff2b74ffcb371e5b96b1c6428d00555817f9e060205260409020547f2e8b98eef02e8df3bd27d1270ded3bea3d14db99c5234c7b14001a7fff957bcc9060ff161561181d5750565b8060005260008051602061432483398151915260205260406000203360005260205260ff604060002054161561181d5750565b6001600160a01b031660008181527fb7db2dd08fcb62d0c9e08c51941cae53c267786a0b75803fb7960902fc8ef97d60205260408120549091906000805160206143248339815191529060ff16613de9578280526020526040822081835260205260408220600160ff1982541617905533916000805160206142e48339815191528180a4600190565b505090565b6001600160a01b031660008181527fbb47a66bddbe3e5c365efb05c6ff2b74ffcb371e5b96b1c6428d00555817f9e060205260408120549091907f2e8b98eef02e8df3bd27d1270ded3bea3d14db99c5234c7b14001a7fff957bcc906000805160206143248339815191529060ff16613e98578184526020526040832082845260205260408320600160ff198254161790556000805160206142e4833981519152339380a4600190565b50505090565b6001600160a01b031660008181527fb323bca1072ad6c43c8a5019bad43672f13be3697b760574a9a2f43b558a3aa560205260408120549091907f21702c8af46127c7fa207f89d0b0a8441bb32959a0ac7df790e9ab1a25c98926906000805160206143248339815191529060ff16613e98578184526020526040832082845260205260408320600160ff198254161790556000805160206142e4833981519152339380a4600190565b6001600160a01b031660008181527fab71e3f32666744d246edff3f96e4bdafee2e9867098cdd118a979a7464786a860205260408120549091907f189ab7a9244df0848122154315af71fe140f3db0fe014031783b0946b8c9d2e3906000805160206143248339815191529060ff16613e98578184526020526040832082845260205260408320600160ff198254161790556000805160206142e4833981519152339380a4600190565b9060009180835260008051602061432483398151915280602052604084209260018060a01b03169283855260205260ff60408520541615600014613e98578184526020526040832082845260205260408320600160ff198254161790556000805160206142e4833981519152339380a4600190565b9060009180835260008051602061432483398151915280602052604084209260018060a01b03169283855260205260ff604085205416600014613e9857818452602052604083208284526020526040832060ff1981541690557ff6391f5c32d9c69d2a47ea670b442974b53935d1edc7fd64eb21e047a839171b339380a4600190565b60ff6005820154166140fb81613597565b8061410857506004015490565b61411181613597565b60028103614135575061413181600c60046103e894015491015490613900565b0490565b80614141600192613597565b1461414d576004015490565b805460005260056020526008604060002001549060008213614170575050600090565b61271091600461413192015490613900565b9060009182526003602052604082209160028301549160ff8360b01c16600981101561422c57159384614240575b50836141ed575b836141c25750505090565b60020154925060409160a81c60ff166141da81613597565b8152601260205220541115388080613e98565b925060ff8260a01c1660ff845460a01c16600781101561422c57600782101561422c578114908115614221575b50926141b7565b60069150143861421a565b634e487b7160e01b83526021600452602483fd5b600601544211159350386141b0565b9060008091602081519101845af480806142d0575b156142855750506040513d81523d6000602083013e60203d82010160405290565b156142ac57604051639996b31560e01b81526001600160a01b039091166004820152602490fd5b3d156142be576040513d6000823e3d90fd5b60405163d6bda27560e01b8152600490fd5b503d1515806142645750813b151561426456fe2f8788117e7eff1d82e926ec794901d17c78024a50270940304540a733656f0d5b88a2e3fc1a53234357ab78c104df11c33ccfa79886793654565ad70b8afb6e02dd7bc7dec4dceedda775e58dd541e08a116c6c53815c0bd028192f7b6268009b779b17422d0df92223018b32b4d1fa46e071723d6817e2486d003becc55f00a26469706673582212208f8e37aefef4d0a58a35d5e3b9302227b9eef9f15a8cc4dd037dd7e2ac89c07b64736f6c63430008160033","linkReferences":{}},"methodIdentifiers":{"BPS_PRECISION()":"e41de313","COORDINATOR_ROLE()":"6b366cb5","DEFAULT_ADMIN_ROLE()":"a217fddf","MAX_TASK_DURATION()":"6b4e89a2","MIN_STAKE()":"cb1c2b5c","REPUTATION_PRECISION()":"bae2e378","UPGRADER_ROLE()":"f72c0d8b","UPGRADE_INTERFACE_VERSION()":"ad3cb1cc","VALIDATOR_ROLE()":"c49baebe","addStake(uint256)":"eb4f16b5","agentList(uint256)":"2f80c54f","agentTaskHistory(address,uint256)":"bca38dd0","agents(address)":"fd66091e","agentsByType(uint8,uint256)":"76ca353e","batchCreateTasks(uint8[],uint8[],uint256[],uint8[],uint256[],bytes[])":"8a6fd46f","claimTask(uint256)":"8dd33495","completeTask(uint256)":"e1e29558","createTask(uint8,uint8,uint256,uint8,uint256,bytes)":"fc2d718e","deactivateAgent(string)":"18697b75","getAgent(address)":"fb3551ff","getAgentStats(address)":"b5695b38","getAgentsByType(uint8)":"a0744ab1","getAvailableTasks(address,uint256)":"e627a410","getRoleAdmin(bytes32)":"248a9ca3","getSwarmMetrics()":"aa3e3273","getTask(uint256)":"1d65e77e","getTaskResult(uint256)":"671d7c09","grantRole(bytes32,address)":"2f2ff15d","handleFailedTask(uint256,bool,string)":"9379d43b","hasRole(bytes32,address)":"91d14854","initialize(address,address,address,address)":"f8c8765e","minReputationForPriority(uint8)":"fedf6484","proxiableUUID()":"52d1902d","registerAgent(uint8,string,bytes32[])":"118d1fd9","renounceRole(bytes32,address)":"36568abe","revokeRole(bytes32,address)":"d547741f","rewardToken()":"f7c618c1","stakingToken()":"72f702f3","submitResult(uint256,bytes32,bytes,uint256,int256)":"4ccaf1cd","supportsInterface(bytes4)":"01ffc9a7","swarmMetrics()":"5c9c36b6","taskCount()":"b6cb58a5","taskQueues(uint8,uint256)":"f0c506ea","taskResults(uint256)":"a04951da","tasks(uint256)":"8d977672","treasury()":"61d027b3","updateEndpoint(string)":"5c019d2e","upgradeToAndCall(address,bytes)":"4f1ef286","validateResult(uint256,uint256,bool)":"99fee734","withdrawStake(uint256)":"25d5971f"},"id":41}