{
  "_format": "hh-sol-artifact-1",
  "contractName": "MarriageLicense",
  "sourceName": "contracts/MarriageLicense.sol",
  "abi": [
    {
      "inputs": [
        {
          "internalType": "address",
          "name": "_botToken",
          "type": "address"
        },
        {
          "internalType": "address",
          "name": "_compilerVerifier",
          "type": "address"
        },
        {
          "internalType": "address",
          "name": "_checkerVerifier",
          "type": "address"
        },
        {
          "internalType": "uint256",
          "name": "_marriageFee",
          "type": "uint256"
        }
      ],
      "stateMutability": "nonpayable",
      "type": "constructor"
    },
    {
      "inputs": [],
      "name": "ECDSAInvalidSignature",
      "type": "error"
    },
    {
      "inputs": [
        {
          "internalType": "uint256",
          "name": "length",
          "type": "uint256"
        }
      ],
      "name": "ECDSAInvalidSignatureLength",
      "type": "error"
    },
    {
      "inputs": [
        {
          "internalType": "bytes32",
          "name": "s",
          "type": "bytes32"
        }
      ],
      "name": "ECDSAInvalidSignatureS",
      "type": "error"
    },
    {
      "inputs": [
        {
          "internalType": "address",
          "name": "sender",
          "type": "address"
        },
        {
          "internalType": "uint256",
          "name": "tokenId",
          "type": "uint256"
        },
        {
          "internalType": "address",
          "name": "owner",
          "type": "address"
        }
      ],
      "name": "ERC721IncorrectOwner",
      "type": "error"
    },
    {
      "inputs": [
        {
          "internalType": "address",
          "name": "operator",
          "type": "address"
        },
        {
          "internalType": "uint256",
          "name": "tokenId",
          "type": "uint256"
        }
      ],
      "name": "ERC721InsufficientApproval",
      "type": "error"
    },
    {
      "inputs": [
        {
          "internalType": "address",
          "name": "approver",
          "type": "address"
        }
      ],
      "name": "ERC721InvalidApprover",
      "type": "error"
    },
    {
      "inputs": [
        {
          "internalType": "address",
          "name": "operator",
          "type": "address"
        }
      ],
      "name": "ERC721InvalidOperator",
      "type": "error"
    },
    {
      "inputs": [
        {
          "internalType": "address",
          "name": "owner",
          "type": "address"
        }
      ],
      "name": "ERC721InvalidOwner",
      "type": "error"
    },
    {
      "inputs": [
        {
          "internalType": "address",
          "name": "receiver",
          "type": "address"
        }
      ],
      "name": "ERC721InvalidReceiver",
      "type": "error"
    },
    {
      "inputs": [
        {
          "internalType": "address",
          "name": "sender",
          "type": "address"
        }
      ],
      "name": "ERC721InvalidSender",
      "type": "error"
    },
    {
      "inputs": [
        {
          "internalType": "uint256",
          "name": "tokenId",
          "type": "uint256"
        }
      ],
      "name": "ERC721NonexistentToken",
      "type": "error"
    },
    {
      "inputs": [
        {
          "internalType": "address",
          "name": "owner",
          "type": "address"
        }
      ],
      "name": "OwnableInvalidOwner",
      "type": "error"
    },
    {
      "inputs": [
        {
          "internalType": "address",
          "name": "account",
          "type": "address"
        }
      ],
      "name": "OwnableUnauthorizedAccount",
      "type": "error"
    },
    {
      "inputs": [],
      "name": "ReentrancyGuardReentrantCall",
      "type": "error"
    },
    {
      "inputs": [
        {
          "internalType": "address",
          "name": "token",
          "type": "address"
        }
      ],
      "name": "SafeERC20FailedOperation",
      "type": "error"
    },
    {
      "anonymous": false,
      "inputs": [
        {
          "indexed": true,
          "internalType": "address",
          "name": "owner",
          "type": "address"
        },
        {
          "indexed": true,
          "internalType": "address",
          "name": "approved",
          "type": "address"
        },
        {
          "indexed": true,
          "internalType": "uint256",
          "name": "tokenId",
          "type": "uint256"
        }
      ],
      "name": "Approval",
      "type": "event"
    },
    {
      "anonymous": false,
      "inputs": [
        {
          "indexed": true,
          "internalType": "address",
          "name": "owner",
          "type": "address"
        },
        {
          "indexed": true,
          "internalType": "address",
          "name": "operator",
          "type": "address"
        },
        {
          "indexed": false,
          "internalType": "bool",
          "name": "approved",
          "type": "bool"
        }
      ],
      "name": "ApprovalForAll",
      "type": "event"
    },
    {
      "anonymous": false,
      "inputs": [
        {
          "indexed": false,
          "internalType": "uint256",
          "name": "_fromTokenId",
          "type": "uint256"
        },
        {
          "indexed": false,
          "internalType": "uint256",
          "name": "_toTokenId",
          "type": "uint256"
        }
      ],
      "name": "BatchMetadataUpdate",
      "type": "event"
    },
    {
      "anonymous": false,
      "inputs": [
        {
          "indexed": true,
          "internalType": "uint256",
          "name": "childId",
          "type": "uint256"
        },
        {
          "indexed": true,
          "internalType": "address",
          "name": "owner",
          "type": "address"
        },
        {
          "indexed": false,
          "internalType": "bytes32",
          "name": "artifactCID",
          "type": "bytes32"
        },
        {
          "indexed": false,
          "internalType": "uint256",
          "name": "parentA",
          "type": "uint256"
        },
        {
          "indexed": false,
          "internalType": "uint256",
          "name": "parentB",
          "type": "uint256"
        }
      ],
      "name": "ChildCreated",
      "type": "event"
    },
    {
      "anonymous": false,
      "inputs": [
        {
          "indexed": true,
          "internalType": "uint256",
          "name": "childId",
          "type": "uint256"
        },
        {
          "indexed": false,
          "internalType": "string",
          "name": "reason",
          "type": "string"
        }
      ],
      "name": "ChildQuarantined",
      "type": "event"
    },
    {
      "anonymous": false,
      "inputs": [
        {
          "indexed": true,
          "internalType": "uint256",
          "name": "childId",
          "type": "uint256"
        }
      ],
      "name": "ChildRevoked",
      "type": "event"
    },
    {
      "anonymous": false,
      "inputs": [
        {
          "indexed": true,
          "internalType": "uint256",
          "name": "childId",
          "type": "uint256"
        },
        {
          "indexed": false,
          "internalType": "bytes32",
          "name": "datasetCID",
          "type": "bytes32"
        },
        {
          "indexed": false,
          "internalType": "bytes32",
          "name": "modelCID",
          "type": "bytes32"
        }
      ],
      "name": "ChildTrained",
      "type": "event"
    },
    {
      "anonymous": false,
      "inputs": [
        {
          "indexed": false,
          "internalType": "uint256",
          "name": "newFee",
          "type": "uint256"
        }
      ],
      "name": "FeeUpdated",
      "type": "event"
    },
    {
      "anonymous": false,
      "inputs": [
        {
          "indexed": false,
          "internalType": "uint256",
          "name": "_tokenId",
          "type": "uint256"
        }
      ],
      "name": "MetadataUpdate",
      "type": "event"
    },
    {
      "anonymous": false,
      "inputs": [],
      "name": "MultisigUpdateCancelled",
      "type": "event"
    },
    {
      "anonymous": false,
      "inputs": [
        {
          "indexed": false,
          "internalType": "address",
          "name": "multisig",
          "type": "address"
        },
        {
          "indexed": false,
          "internalType": "uint256",
          "name": "executeAfter",
          "type": "uint256"
        }
      ],
      "name": "MultisigUpdateScheduled",
      "type": "event"
    },
    {
      "anonymous": false,
      "inputs": [
        {
          "indexed": true,
          "internalType": "address",
          "name": "previousOwner",
          "type": "address"
        },
        {
          "indexed": true,
          "internalType": "address",
          "name": "newOwner",
          "type": "address"
        }
      ],
      "name": "OwnershipTransferred",
      "type": "event"
    },
    {
      "anonymous": false,
      "inputs": [
        {
          "indexed": true,
          "internalType": "uint256",
          "name": "childId",
          "type": "uint256"
        }
      ],
      "name": "QuarantineCancelled",
      "type": "event"
    },
    {
      "anonymous": false,
      "inputs": [
        {
          "indexed": true,
          "internalType": "uint256",
          "name": "childId",
          "type": "uint256"
        },
        {
          "indexed": false,
          "internalType": "string",
          "name": "reason",
          "type": "string"
        },
        {
          "indexed": false,
          "internalType": "uint256",
          "name": "executeAfter",
          "type": "uint256"
        }
      ],
      "name": "QuarantineScheduled",
      "type": "event"
    },
    {
      "anonymous": false,
      "inputs": [
        {
          "indexed": true,
          "internalType": "uint256",
          "name": "childId",
          "type": "uint256"
        }
      ],
      "name": "RevocationCancelled",
      "type": "event"
    },
    {
      "anonymous": false,
      "inputs": [
        {
          "indexed": true,
          "internalType": "uint256",
          "name": "childId",
          "type": "uint256"
        },
        {
          "indexed": false,
          "internalType": "string",
          "name": "reason",
          "type": "string"
        },
        {
          "indexed": false,
          "internalType": "uint256",
          "name": "executeAfter",
          "type": "uint256"
        }
      ],
      "name": "RevocationScheduled",
      "type": "event"
    },
    {
      "anonymous": false,
      "inputs": [
        {
          "indexed": true,
          "internalType": "address",
          "name": "from",
          "type": "address"
        },
        {
          "indexed": true,
          "internalType": "address",
          "name": "to",
          "type": "address"
        },
        {
          "indexed": true,
          "internalType": "uint256",
          "name": "tokenId",
          "type": "uint256"
        }
      ],
      "name": "Transfer",
      "type": "event"
    },
    {
      "anonymous": false,
      "inputs": [],
      "name": "VerifierUpdateCancelled",
      "type": "event"
    },
    {
      "anonymous": false,
      "inputs": [
        {
          "indexed": false,
          "internalType": "address",
          "name": "compiler",
          "type": "address"
        },
        {
          "indexed": false,
          "internalType": "address",
          "name": "checker",
          "type": "address"
        },
        {
          "indexed": false,
          "internalType": "uint256",
          "name": "executeAfter",
          "type": "uint256"
        }
      ],
      "name": "VerifierUpdateScheduled",
      "type": "event"
    },
    {
      "anonymous": false,
      "inputs": [
        {
          "indexed": false,
          "internalType": "address",
          "name": "compiler",
          "type": "address"
        },
        {
          "indexed": false,
          "internalType": "address",
          "name": "checker",
          "type": "address"
        }
      ],
      "name": "VerifiersUpdated",
      "type": "event"
    },
    {
      "inputs": [],
      "name": "ADMIN_ACTION_DELAY",
      "outputs": [
        {
          "internalType": "uint256",
          "name": "",
          "type": "uint256"
        }
      ],
      "stateMutability": "view",
      "type": "function"
    },
    {
      "inputs": [
        {
          "internalType": "address",
          "name": "to",
          "type": "address"
        },
        {
          "internalType": "uint256",
          "name": "tokenId",
          "type": "uint256"
        }
      ],
      "name": "approve",
      "outputs": [],
      "stateMutability": "nonpayable",
      "type": "function"
    },
    {
      "inputs": [
        {
          "internalType": "address",
          "name": "owner",
          "type": "address"
        }
      ],
      "name": "balanceOf",
      "outputs": [
        {
          "internalType": "uint256",
          "name": "",
          "type": "uint256"
        }
      ],
      "stateMutability": "view",
      "type": "function"
    },
    {
      "inputs": [],
      "name": "botToken",
      "outputs": [
        {
          "internalType": "contract IERC20",
          "name": "",
          "type": "address"
        }
      ],
      "stateMutability": "view",
      "type": "function"
    },
    {
      "inputs": [],
      "name": "cancelMultisigUpdate",
      "outputs": [],
      "stateMutability": "nonpayable",
      "type": "function"
    },
    {
      "inputs": [
        {
          "internalType": "uint256",
          "name": "childId",
          "type": "uint256"
        }
      ],
      "name": "cancelQuarantineChild",
      "outputs": [],
      "stateMutability": "nonpayable",
      "type": "function"
    },
    {
      "inputs": [
        {
          "internalType": "uint256",
          "name": "childId",
          "type": "uint256"
        }
      ],
      "name": "cancelRevokeChild",
      "outputs": [],
      "stateMutability": "nonpayable",
      "type": "function"
    },
    {
      "inputs": [],
      "name": "cancelVerifierUpdate",
      "outputs": [],
      "stateMutability": "nonpayable",
      "type": "function"
    },
    {
      "inputs": [],
      "name": "checkerVerifier",
      "outputs": [
        {
          "internalType": "address",
          "name": "",
          "type": "address"
        }
      ],
      "stateMutability": "view",
      "type": "function"
    },
    {
      "inputs": [
        {
          "internalType": "uint256",
          "name": "",
          "type": "uint256"
        }
      ],
      "name": "children",
      "outputs": [
        {
          "internalType": "address",
          "name": "owner",
          "type": "address"
        },
        {
          "internalType": "bytes32",
          "name": "artifactCID",
          "type": "bytes32"
        },
        {
          "internalType": "bytes32",
          "name": "datasetCID",
          "type": "bytes32"
        },
        {
          "internalType": "bytes32",
          "name": "modelCID",
          "type": "bytes32"
        },
        {
          "internalType": "uint256",
          "name": "parentA",
          "type": "uint256"
        },
        {
          "internalType": "uint256",
          "name": "parentB",
          "type": "uint256"
        },
        {
          "internalType": "uint256",
          "name": "createdAt",
          "type": "uint256"
        },
        {
          "internalType": "uint256",
          "name": "trainedAt",
          "type": "uint256"
        },
        {
          "internalType": "bool",
          "name": "isQuarantined",
          "type": "bool"
        },
        {
          "internalType": "bool",
          "name": "isActive",
          "type": "bool"
        }
      ],
      "stateMutability": "view",
      "type": "function"
    },
    {
      "inputs": [],
      "name": "compilerVerifier",
      "outputs": [
        {
          "internalType": "address",
          "name": "",
          "type": "address"
        }
      ],
      "stateMutability": "view",
      "type": "function"
    },
    {
      "inputs": [
        {
          "internalType": "bytes32",
          "name": "artifactCID",
          "type": "bytes32"
        },
        {
          "internalType": "bytes",
          "name": "compilerSig",
          "type": "bytes"
        },
        {
          "internalType": "bytes",
          "name": "checkerSig",
          "type": "bytes"
        },
        {
          "internalType": "uint256",
          "name": "parentA",
          "type": "uint256"
        },
        {
          "internalType": "uint256",
          "name": "parentB",
          "type": "uint256"
        }
      ],
      "name": "createChild",
      "outputs": [
        {
          "internalType": "uint256",
          "name": "childId",
          "type": "uint256"
        }
      ],
      "stateMutability": "nonpayable",
      "type": "function"
    },
    {
      "inputs": [],
      "name": "executeMultisigUpdate",
      "outputs": [],
      "stateMutability": "nonpayable",
      "type": "function"
    },
    {
      "inputs": [
        {
          "internalType": "uint256",
          "name": "childId",
          "type": "uint256"
        }
      ],
      "name": "executeQuarantineChild",
      "outputs": [],
      "stateMutability": "nonpayable",
      "type": "function"
    },
    {
      "inputs": [
        {
          "internalType": "uint256",
          "name": "childId",
          "type": "uint256"
        }
      ],
      "name": "executeRevokeChild",
      "outputs": [],
      "stateMutability": "nonpayable",
      "type": "function"
    },
    {
      "inputs": [],
      "name": "executeVerifierUpdate",
      "outputs": [],
      "stateMutability": "nonpayable",
      "type": "function"
    },
    {
      "inputs": [
        {
          "internalType": "uint256",
          "name": "tokenId",
          "type": "uint256"
        }
      ],
      "name": "getApproved",
      "outputs": [
        {
          "internalType": "address",
          "name": "",
          "type": "address"
        }
      ],
      "stateMutability": "view",
      "type": "function"
    },
    {
      "inputs": [
        {
          "internalType": "uint256",
          "name": "childId",
          "type": "uint256"
        }
      ],
      "name": "getChild",
      "outputs": [
        {
          "components": [
            {
              "internalType": "address",
              "name": "owner",
              "type": "address"
            },
            {
              "internalType": "bytes32",
              "name": "artifactCID",
              "type": "bytes32"
            },
            {
              "internalType": "bytes32",
              "name": "datasetCID",
              "type": "bytes32"
            },
            {
              "internalType": "bytes32",
              "name": "modelCID",
              "type": "bytes32"
            },
            {
              "internalType": "uint256",
              "name": "parentA",
              "type": "uint256"
            },
            {
              "internalType": "uint256",
              "name": "parentB",
              "type": "uint256"
            },
            {
              "internalType": "uint256",
              "name": "createdAt",
              "type": "uint256"
            },
            {
              "internalType": "uint256",
              "name": "trainedAt",
              "type": "uint256"
            },
            {
              "internalType": "bool",
              "name": "isQuarantined",
              "type": "bool"
            },
            {
              "internalType": "bool",
              "name": "isActive",
              "type": "bool"
            }
          ],
          "internalType": "struct MarriageLicense.Child",
          "name": "",
          "type": "tuple"
        }
      ],
      "stateMutability": "view",
      "type": "function"
    },
    {
      "inputs": [
        {
          "internalType": "uint256",
          "name": "childId",
          "type": "uint256"
        },
        {
          "internalType": "uint256",
          "name": "depth",
          "type": "uint256"
        }
      ],
      "name": "getLineage",
      "outputs": [
        {
          "internalType": "uint256[]",
          "name": "",
          "type": "uint256[]"
        }
      ],
      "stateMutability": "view",
      "type": "function"
    },
    {
      "inputs": [
        {
          "internalType": "address",
          "name": "owner",
          "type": "address"
        },
        {
          "internalType": "address",
          "name": "operator",
          "type": "address"
        }
      ],
      "name": "isApprovedForAll",
      "outputs": [
        {
          "internalType": "bool",
          "name": "",
          "type": "bool"
        }
      ],
      "stateMutability": "view",
      "type": "function"
    },
    {
      "inputs": [],
      "name": "marriageFee",
      "outputs": [
        {
          "internalType": "uint256",
          "name": "",
          "type": "uint256"
        }
      ],
      "stateMutability": "view",
      "type": "function"
    },
    {
      "inputs": [],
      "name": "multisig",
      "outputs": [
        {
          "internalType": "address",
          "name": "",
          "type": "address"
        }
      ],
      "stateMutability": "view",
      "type": "function"
    },
    {
      "inputs": [],
      "name": "name",
      "outputs": [
        {
          "internalType": "string",
          "name": "",
          "type": "string"
        }
      ],
      "stateMutability": "view",
      "type": "function"
    },
    {
      "inputs": [],
      "name": "nextChildId",
      "outputs": [
        {
          "internalType": "uint256",
          "name": "",
          "type": "uint256"
        }
      ],
      "stateMutability": "view",
      "type": "function"
    },
    {
      "inputs": [],
      "name": "owner",
      "outputs": [
        {
          "internalType": "address",
          "name": "",
          "type": "address"
        }
      ],
      "stateMutability": "view",
      "type": "function"
    },
    {
      "inputs": [
        {
          "internalType": "uint256",
          "name": "tokenId",
          "type": "uint256"
        }
      ],
      "name": "ownerOf",
      "outputs": [
        {
          "internalType": "address",
          "name": "",
          "type": "address"
        }
      ],
      "stateMutability": "view",
      "type": "function"
    },
    {
      "inputs": [],
      "name": "pendingMultisigUpdate",
      "outputs": [
        {
          "internalType": "address",
          "name": "multisig",
          "type": "address"
        },
        {
          "internalType": "uint256",
          "name": "executeAfter",
          "type": "uint256"
        }
      ],
      "stateMutability": "view",
      "type": "function"
    },
    {
      "inputs": [],
      "name": "pendingVerifierUpdate",
      "outputs": [
        {
          "internalType": "address",
          "name": "compilerVerifier",
          "type": "address"
        },
        {
          "internalType": "address",
          "name": "checkerVerifier",
          "type": "address"
        },
        {
          "internalType": "uint256",
          "name": "executeAfter",
          "type": "uint256"
        }
      ],
      "stateMutability": "view",
      "type": "function"
    },
    {
      "inputs": [],
      "name": "renounceOwnership",
      "outputs": [],
      "stateMutability": "nonpayable",
      "type": "function"
    },
    {
      "inputs": [
        {
          "internalType": "address",
          "name": "from",
          "type": "address"
        },
        {
          "internalType": "address",
          "name": "to",
          "type": "address"
        },
        {
          "internalType": "uint256",
          "name": "tokenId",
          "type": "uint256"
        }
      ],
      "name": "safeTransferFrom",
      "outputs": [],
      "stateMutability": "nonpayable",
      "type": "function"
    },
    {
      "inputs": [
        {
          "internalType": "address",
          "name": "from",
          "type": "address"
        },
        {
          "internalType": "address",
          "name": "to",
          "type": "address"
        },
        {
          "internalType": "uint256",
          "name": "tokenId",
          "type": "uint256"
        },
        {
          "internalType": "bytes",
          "name": "data",
          "type": "bytes"
        }
      ],
      "name": "safeTransferFrom",
      "outputs": [],
      "stateMutability": "nonpayable",
      "type": "function"
    },
    {
      "inputs": [
        {
          "internalType": "address",
          "name": "_multisig",
          "type": "address"
        }
      ],
      "name": "scheduleMultisigUpdate",
      "outputs": [],
      "stateMutability": "nonpayable",
      "type": "function"
    },
    {
      "inputs": [
        {
          "internalType": "uint256",
          "name": "childId",
          "type": "uint256"
        },
        {
          "internalType": "string",
          "name": "reason",
          "type": "string"
        }
      ],
      "name": "scheduleQuarantineChild",
      "outputs": [],
      "stateMutability": "nonpayable",
      "type": "function"
    },
    {
      "inputs": [
        {
          "internalType": "uint256",
          "name": "childId",
          "type": "uint256"
        },
        {
          "internalType": "string",
          "name": "reason",
          "type": "string"
        }
      ],
      "name": "scheduleRevokeChild",
      "outputs": [],
      "stateMutability": "nonpayable",
      "type": "function"
    },
    {
      "inputs": [
        {
          "internalType": "address",
          "name": "_compilerVerifier",
          "type": "address"
        },
        {
          "internalType": "address",
          "name": "_checkerVerifier",
          "type": "address"
        }
      ],
      "name": "scheduleVerifierUpdate",
      "outputs": [],
      "stateMutability": "nonpayable",
      "type": "function"
    },
    {
      "inputs": [
        {
          "internalType": "uint256",
          "name": "",
          "type": "uint256"
        }
      ],
      "name": "scheduledQuarantines",
      "outputs": [
        {
          "internalType": "uint256",
          "name": "executeAfter",
          "type": "uint256"
        },
        {
          "internalType": "string",
          "name": "reason",
          "type": "string"
        }
      ],
      "stateMutability": "view",
      "type": "function"
    },
    {
      "inputs": [
        {
          "internalType": "uint256",
          "name": "",
          "type": "uint256"
        }
      ],
      "name": "scheduledRevocations",
      "outputs": [
        {
          "internalType": "uint256",
          "name": "executeAfter",
          "type": "uint256"
        },
        {
          "internalType": "string",
          "name": "reason",
          "type": "string"
        }
      ],
      "stateMutability": "view",
      "type": "function"
    },
    {
      "inputs": [
        {
          "internalType": "address",
          "name": "operator",
          "type": "address"
        },
        {
          "internalType": "bool",
          "name": "approved",
          "type": "bool"
        }
      ],
      "name": "setApprovalForAll",
      "outputs": [],
      "stateMutability": "nonpayable",
      "type": "function"
    },
    {
      "inputs": [
        {
          "internalType": "uint256",
          "name": "_newFee",
          "type": "uint256"
        }
      ],
      "name": "setMarriageFee",
      "outputs": [],
      "stateMutability": "nonpayable",
      "type": "function"
    },
    {
      "inputs": [
        {
          "internalType": "bytes4",
          "name": "interfaceId",
          "type": "bytes4"
        }
      ],
      "name": "supportsInterface",
      "outputs": [
        {
          "internalType": "bool",
          "name": "",
          "type": "bool"
        }
      ],
      "stateMutability": "view",
      "type": "function"
    },
    {
      "inputs": [],
      "name": "symbol",
      "outputs": [
        {
          "internalType": "string",
          "name": "",
          "type": "string"
        }
      ],
      "stateMutability": "view",
      "type": "function"
    },
    {
      "inputs": [
        {
          "internalType": "uint256",
          "name": "tokenId",
          "type": "uint256"
        }
      ],
      "name": "tokenURI",
      "outputs": [
        {
          "internalType": "string",
          "name": "",
          "type": "string"
        }
      ],
      "stateMutability": "view",
      "type": "function"
    },
    {
      "inputs": [
        {
          "internalType": "uint256",
          "name": "childId",
          "type": "uint256"
        },
        {
          "internalType": "bytes32",
          "name": "datasetCID",
          "type": "bytes32"
        },
        {
          "internalType": "bytes32",
          "name": "modelCID",
          "type": "bytes32"
        },
        {
          "internalType": "bytes",
          "name": "checkerSig",
          "type": "bytes"
        }
      ],
      "name": "trainChild",
      "outputs": [],
      "stateMutability": "nonpayable",
      "type": "function"
    },
    {
      "inputs": [
        {
          "internalType": "address",
          "name": "from",
          "type": "address"
        },
        {
          "internalType": "address",
          "name": "to",
          "type": "address"
        },
        {
          "internalType": "uint256",
          "name": "tokenId",
          "type": "uint256"
        }
      ],
      "name": "transferFrom",
      "outputs": [],
      "stateMutability": "nonpayable",
      "type": "function"
    },
    {
      "inputs": [
        {
          "internalType": "address",
          "name": "newOwner",
          "type": "address"
        }
      ],
      "name": "transferOwnership",
      "outputs": [],
      "stateMutability": "nonpayable",
      "type": "function"
    },
    {
      "inputs": [
        {
          "internalType": "bytes32",
          "name": "",
          "type": "bytes32"
        }
      ],
      "name": "usedManifests",
      "outputs": [
        {
          "internalType": "bool",
          "name": "",
          "type": "bool"
        }
      ],
      "stateMutability": "view",
      "type": "function"
    },
    {
      "inputs": [
        {
          "internalType": "address",
          "name": "to",
          "type": "address"
        },
        {
          "internalType": "uint256",
          "name": "amount",
          "type": "uint256"
        }
      ],
      "name": "withdrawFees",
      "outputs": [],
      "stateMutability": "nonpayable",
      "type": "function"
    }
  ],
  "bytecode": "0x60a060405234801561000f575f80fd5b50604051613d08380380613d0883398101604081905261002e9161026e565b336040518060400160405280600e81526020016d109bdd18da185a5b881059d95b9d60921b815250604051806040016040528060058152602001641051d1539560da1b815250815f9081610082919061034e565b50600161008f828261034e565b50505060016100a86100a56101de60201b60201c565b90565b556001600160a01b0381166100d757604051631e4fbdf760e01b81525f60048201526024015b60405180910390fd5b6100e081610202565b506001600160a01b0384166101375760405162461bcd60e51b815260206004820152601560248201527f496e76616c696420746f6b656e2061646472657373000000000000000000000060448201526064016100ce565b6001600160a01b03831661018d5760405162461bcd60e51b815260206004820152601860248201527f496e76616c696420636f6d70696c65722061646472657373000000000000000060448201526064016100ce565b6001600160a01b03938416608052600880549385166001600160a01b0319948516179055600980549290941691831691909117909255600a91909155600c8054909116331790556001600b55610408565b7f9b779b17422d0df92223018b32b4d1fa46e071723d6817e2486d003becc55f0090565b600780546001600160a01b038381166001600160a01b0319831681179093556040519116919082907f8be0079c531659141344cd1fd0a4f28419497f9722a3daafe3b4186f6b6457e0905f90a35050565b80516001600160a01b0381168114610269575f80fd5b919050565b5f805f8060808587031215610281575f80fd5b61028a85610253565b935061029860208601610253565b92506102a660408601610253565b6060959095015193969295505050565b634e487b7160e01b5f52604160045260245ffd5b600181811c908216806102de57607f821691505b6020821081036102fc57634e487b7160e01b5f52602260045260245ffd5b50919050565b601f82111561034957805f5260205f20601f840160051c810160208510156103275750805b601f840160051c820191505b81811015610346575f8155600101610333565b50505b505050565b81516001600160401b03811115610367576103676102b6565b61037b8161037584546102ca565b84610302565b6020601f8211600181146103ad575f83156103965750848201515b5f19600385901b1c1916600184901b178455610346565b5f84815260208120601f198516915b828110156103dc57878501518255602094850194600190920191016103bc565b50848210156103f957868401515f19600387901b60f8161c191681555b50505050600190811b01905550565b6080516138da61042e5f395f81816107ea01528181611a210152611f0301526138da5ff3fe608060405234801561000f575f80fd5b506004361061028b575f3560e01c8063728aeed611610161578063ad3b1b47116100ca578063c909ea4211610084578063c909ea4214610686578063cdb9c6e114610789578063db8e1b2c1461079c578063e985e9c5146107d2578063e9949b97146107e5578063f2fde38b1461080c575f80fd5b8063ad3b1b471461061a578063ad5698371461062d578063b47ce9721461064f578063b793742c14610657578063b88d4fde14610660578063c87b56dd14610673575f80fd5b806395d89b411161011b57806395d89b41146105bd57806399ed87d0146105c5578063a1616bcd146105d8578063a1dea091146105eb578063a22cb465146105f4578063a4fc48dd14610607575f80fd5b8063728aeed61461054d5780637419a091146105605780638be6de67146105735780638c99fb1b146105865780638da5cb5b146105995780638dd3c870146105aa575f80fd5b8063326eacfe11610203578063598a3768116101bd578063598a37681461043e5780636352211e1461045157806367e3bfcf146104645780637002ce421461046c57806370a0823114610532578063715018a614610545575f80fd5b8063326eacfe146103805780633e708086146103a057806342842e0e146103e45780634783c35b146103f757806348cbf62f1461040a5780635495fc3b1461042b575f80fd5b8063142474c611610254578063142474c61461031f57806318a66ee2146103325780631e7877501461034557806323b872dd1461035d5780632883a353146103705780632969c01f14610378575f80fd5b8062858eda1461028f57806301ffc9a7146102a457806306fdde03146102cc578063081812fc146102e1578063095ea7b31461030c575b5f80fd5b6102a261029d3660046130fa565b61081f565b005b6102b76102b2366004613140565b610924565b60405190151581526020015b60405180910390f35b6102d4610934565b6040516102c39190613189565b6102f46102ef36600461319b565b6109c3565b6040516001600160a01b0390911681526020016102c3565b6102a261031a3660046131b2565b6109ea565b6102a261032d36600461319b565b6109f9565b6009546102f4906001600160a01b031681565b61034f6203f48081565b6040519081526020016102c3565b6102a261036b3660046131da565b610b8a565b6102a2610c13565b6102a2610cb7565b61039361038e366004613214565b610de9565b6040516102c39190613234565b600f546010546011546103be926001600160a01b0390811692169083565b604080516001600160a01b039485168152939092166020840152908201526060016102c3565b6102a26103f23660046131da565b610fce565b600c546102f4906001600160a01b031681565b61041d61041836600461319b565b610fed565b6040516102c3929190613276565b6008546102f4906001600160a01b031681565b6102a261044c36600461319b565b61108f565b6102f461045f36600461319b565b6112c3565b6102a26112cd565b6104da61047a36600461319b565b600d6020525f90815260409020805460018201546002830154600384015460048501546005860154600687015460078801546008909801546001600160a01b03909716979596949593949293919290919060ff808216916101009004168a565b604080516001600160a01b03909b168b5260208b0199909952978901969096526060880194909452608087019290925260a086015260c085015260e084015215156101008301521515610120820152610140016102c3565b61034f61054036600461328e565b611397565b6102a26113dc565b6102a261055b3660046132a7565b6113ef565b6102a261056e36600461319b565b611575565b6102a261058136600461319b565b6115b2565b6102a261059436600461319b565b611695565b6007546001600160a01b03166102f4565b61034f6105b83660046133bd565b611778565b6102d4611c14565b6102a26105d33660046132a7565b611c23565b61041d6105e636600461319b565b611d9a565b61034f600a5481565b6102a261060236600461343b565b611dbb565b6102a261061536600461328e565b611dc6565b6102a26106283660046131b2565b611ea4565b6102b761063b36600461319b565b600e6020525f908152604090205460ff1681565b6102a2611f2a565b61034f600b5481565b6102a261066e366004613474565b611fc2565b6102d461068136600461319b565b611fda565b61077c61069436600461319b565b60408051610140810182525f80825260208201819052918101829052606081018290526080810182905260a0810182905260c0810182905260e081018290526101008101829052610120810191909152505f908152600d602090815260409182902082516101408101845281546001600160a01b031681526001820154928101929092526002810154928201929092526003820154606082015260048201546080820152600582015460a0820152600682015460c0820152600782015460e082015260089091015460ff80821615156101008085019190915290910416151561012082015290565b6040516102c391906134d8565b6102a2610797366004613562565b611fe5565b6012546013546107b3916001600160a01b03169082565b604080516001600160a01b0390931683526020830191909152016102c3565b6102b76107e03660046130fa565b612257565b6102f47f000000000000000000000000000000000000000000000000000000000000000081565b6102a261081a36600461328e565b612284565b6108276122c1565b6001600160a01b0382166108825760405162461bcd60e51b815260206004820152601860248201527f496e76616c696420636f6d70696c65722061646472657373000000000000000060448201526064015b60405180910390fd5b5f6108906203f480426135b4565b60408051606080820183526001600160a01b038781168084529087166020808501829052938501869052600f80546001600160a01b03199081168417909155601080549091168217905560118690558451918252928101929092529181018390529192507f10e90b32deb54f77294d0b636155b424db9cc687bce918bcc8c27a4c64767649910160405180910390a1505050565b5f61092e826122ee565b92915050565b60605f8054610942906135c7565b80601f016020809104026020016040519081016040528092919081815260200182805461096e906135c7565b80156109b95780601f10610990576101008083540402835291602001916109b9565b820191905f5260205f20905b81548152906001019060200180831161099c57829003601f168201915b5050505050905090565b5f6109cd82612312565b505f828152600460205260409020546001600160a01b031661092e565b6109f582823361234a565b5050565b600c546001600160a01b0316331480610a1c57506007546001600160a01b031633145b610a385760405162461bcd60e51b8152600401610879906135ff565b5f818152601560209081526040808320600d90925290912080546001600160a01b0316610a775760405162461bcd60e51b815260040161087990613627565b6008810154610100900460ff16610ac25760405162461bcd60e51b815260206004820152600f60248201526e105b1c9958591e481c995d9bdad959608a1b6044820152606401610879565b81545f03610b0d5760405162461bcd60e51b815260206004820152601860248201527714995d9bd8d85d1a5bdb881b9bdd081cd8da19591d5b195960421b6044820152606401610879565b8154421015610b2e5760405162461bcd60e51b815260040161087990613655565b5f83815260156020526040812081815590610b4c6001830182613095565b505060088101805461ff001916905560405183907fb753b54398b6e1ee43e4b6cfda807431aa752e49edcf0f8df4a9689b915a8416905f90a2505050565b6001600160a01b038216610bb357604051633250574960e11b81525f6004820152602401610879565b5f610bbf838333612357565b9050836001600160a01b0316816001600160a01b031614610c0d576040516364283d7b60e01b81526001600160a01b0380861660048301526024820184905282166044820152606401610879565b50505050565b610c1b6122c1565b6011545f03610c6c5760405162461bcd60e51b815260206004820152601d60248201527f566572696669657220757064617465206e6f74207363686564756c65640000006044820152606401610879565b600f80546001600160a01b03199081169091556010805490911690555f60118190556040517f12f9ec8bf2b8c105f971aeb6e55587f0fdba0b38eaeeac58d9aadb0a1a67ef689190a1565b610cbf6122c1565b60408051606081018252600f546001600160a01b039081168252601054166020820152601154918101829052905f03610d3a5760405162461bcd60e51b815260206004820152601d60248201527f566572696669657220757064617465206e6f74207363686564756c65640000006044820152606401610879565b8060400151421015610d5e5760405162461bcd60e51b815260040161087990613655565b8051600880546001600160a01b039283166001600160a01b0319918216811790925560208085015160098054919095169083168117909455600f805483169055601080549092169091555f60115560408051928352908201929092527fc5edcbf40c78530ba47afc971d8e74721d902390e19d7360b3c80637f69c1ad091015b60405180910390a150565b60605f610df783600261367f565b67ffffffffffffffff811115610e0f57610e0f61331e565b604051908082528060200260200182016040528015610e38578160200160208202803683370190505b505f858152600d6020526040812060048101546005909101549293509091825b8681108015610e6f575082151580610e6f57508115155b15610f32578215801590610e835750845184105b15610eca57828585610e9481613696565b965081518110610ea657610ea66136ae565b602002602001018181525050600d5f8481526020019081526020015f206004015492505b8115801590610ed95750845184105b15610f2057818585610eea81613696565b965081518110610efc57610efc6136ae565b602002602001018181525050600d5f8381526020019081526020015f206005015491505b80610f2a81613696565b915050610e58565b505f8367ffffffffffffffff811115610f4d57610f4d61331e565b604051908082528060200260200182016040528015610f76578160200160208202803683370190505b5090505f5b84811015610fc257858181518110610f9557610f956136ae565b6020026020010151828281518110610faf57610faf6136ae565b6020908102919091010152600101610f7b565b50979650505050505050565b610fe883838360405180602001604052805f815250611fc2565b505050565b60156020525f90815260409020805460018201805491929161100e906135c7565b80601f016020809104026020016040519081016040528092919081815260200182805461103a906135c7565b80156110855780601f1061105c57610100808354040283529160200191611085565b820191905f5260205f20905b81548152906001019060200180831161106857829003601f168201915b5050505050905082565b600c546001600160a01b03163314806110b257506007546001600160a01b031633145b6110ce5760405162461bcd60e51b8152600401610879906135ff565b5f818152601460209081526040808320600d90925290912080546001600160a01b031661110d5760405162461bcd60e51b815260040161087990613627565b600881015460ff16156111585760405162461bcd60e51b8152602060048201526013602482015272105b1c9958591e481c5d585c985b9d1a5b9959606a1b6044820152606401610879565b81545f036111a35760405162461bcd60e51b8152602060048201526018602482015277145d585c985b9d1a5b99481b9bdd081cd8da19591d5b195960421b6044820152606401610879565b81544210156111c45760405162461bcd60e51b815260040161087990613655565b5f8260010180546111d4906135c7565b80601f0160208091040260200160405190810160405280929190818152602001828054611200906135c7565b801561124b5780601f106112225761010080835404028352916020019161124b565b820191905f5260205f20905b81548152906001019060200180831161122e57829003601f168201915b5050505f878152601460205260408120818155939450915061127290506001830182613095565b505060088201805460ff1916600117905560405184907fdd34610dd42050c5cf6e1aada475803cfd836b619c2f10914a39ddd47bc9b66d906112b5908490613189565b60405180910390a250505050565b5f61092e82612312565b6112d56122c1565b604080518082019091526012546001600160a01b03168152601354602082018190525f036113455760405162461bcd60e51b815260206004820152601d60248201527f4d756c746973696720757064617465206e6f74207363686564756c65640000006044820152606401610879565b80602001514210156113695760405162461bcd60e51b815260040161087990613655565b51600c80546001600160a01b039092166001600160a01b03199283161790556012805490911690555f601355565b5f6001600160a01b0382166113c1576040516322718ad960e21b81525f6004820152602401610879565b506001600160a01b03165f9081526003602052604090205490565b6113e46122c1565b6113ed5f612449565b565b600c546001600160a01b031633148061141257506007546001600160a01b031633145b61142e5760405162461bcd60e51b8152600401610879906135ff565b5f838152600d6020526040902080546001600160a01b03166114625760405162461bcd60e51b815260040161087990613627565b6008810154610100900460ff166114ad5760405162461bcd60e51b815260206004820152600f60248201526e105b1c9958591e481c995d9bdad959608a1b6044820152606401610879565b5f6114bb6203f480426135b4565b9050604051806040016040528082815260200185858080601f0160208091040260200160405190810160405280939291908181526020018383808284375f9201829052509390945250508781526015602090815260409091208351815590830151909150600182019061152e9082613706565b50905050847f87ef58f49bffe148399359517aab167716e9238fc595eaaed736e820956a1845858584604051611566939291906137c1565b60405180910390a25050505050565b61157d6122c1565b600a8190556040518181527f8c4d35e54a3f2ef1134138fd8ea3daee6a3c89e10d2665996babdf70261e2c7690602001610dde565b600c546001600160a01b03163314806115d557506007546001600160a01b031633145b6115f15760405162461bcd60e51b8152600401610879906135ff565b5f8181526015602052604081205490036116485760405162461bcd60e51b815260206004820152601860248201527714995d9bd8d85d1a5bdb881b9bdd081cd8da19591d5b195960421b6044820152606401610879565b5f818152601560205260408120818155906116666001830182613095565b505060405181907f2c8bae060dcf0b2af9af8f4e4d734dc0e9c984612ce098ea8f2bb4e52a9a6eb5905f90a250565b600c546001600160a01b03163314806116b857506007546001600160a01b031633145b6116d45760405162461bcd60e51b8152600401610879906135ff565b5f81815260146020526040812054900361172b5760405162461bcd60e51b8152602060048201526018602482015277145d585c985b9d1a5b99481b9bdd081cd8da19591d5b195960421b6044820152606401610879565b5f818152601460205260408120818155906117496001830182613095565b505060405181907f647232892ff649ba2ce68413a922bfa9cbd43d2e9562bdd97dc3abd1b80955dc905f90a250565b5f61178161249a565b5f868152600e602052604090205460ff16156117d75760405162461bcd60e51b815260206004820152601560248201527413585b9a59995cdd08185b1c9958591e481d5cd959605a1b6044820152606401610879565b6117e486848433896124b5565b6118305760405162461bcd60e51b815260206004820152601a60248201527f496e76616c696420636f6d70696c6572207369676e61747572650000000000006044820152606401610879565b6009546001600160a01b0316156118965761184e86848433886124e2565b6118965760405162461bcd60e51b8152602060048201526019602482015278496e76616c696420636865636b6572207369676e617475726560381b6044820152606401610879565b821561194f575f838152600d6020526040902060080154610100900460ff166118f75760405162461bcd60e51b8152602060048201526013602482015272506172656e742041206e6f742061637469766560681b6044820152606401610879565b5f838152600d602052604090206008015460ff161561194f5760405162461bcd60e51b815260206004820152601460248201527314185c995b9d0810481c5d585c985b9d1a5b995960621b6044820152606401610879565b8115611a08575f828152600d6020526040902060080154610100900460ff166119b05760405162461bcd60e51b8152602060048201526013602482015272506172656e742042206e6f742061637469766560681b6044820152606401610879565b5f828152600d602052604090206008015460ff1615611a085760405162461bcd60e51b815260206004820152601460248201527314185c995b9d0810881c5d585c985b9d1a5b995960621b6044820152606401610879565b600a5415611a4b57600a54611a4b906001600160a01b037f0000000000000000000000000000000000000000000000000000000000000000169033903090612505565b600b8054905f611a5a83613696565b9190505590506001600e5f8881526020019081526020015f205f6101000a81548160ff021916908315150217905550604051806101400160405280336001600160a01b031681526020018781526020015f801b81526020015f801b81526020018481526020018381526020014281526020015f81526020015f1515815260200160011515815250600d5f8381526020019081526020015f205f820151815f015f6101000a8154816001600160a01b0302191690836001600160a01b031602179055506020820151816001015560408201518160020155606082015181600301556080820151816004015560a0820151816005015560c0820151816006015560e08201518160070155610100820151816008015f6101000a81548160ff0219169083151502179055506101208201518160080160016101000a81548160ff021916908315150217905550905050611bb0338261253b565b6040805187815260208101859052908101839052339082907ff9981236b569a6f5ec5462c12738687c2820178455fbdecd287a97e29ceb48879060600160405180910390a3611c0b60015f8051602061388583398151915255565b95945050505050565b606060018054610942906135c7565b600c546001600160a01b0316331480611c4657506007546001600160a01b031633145b611c625760405162461bcd60e51b8152600401610879906135ff565b5f838152600d6020526040902080546001600160a01b0316611c965760405162461bcd60e51b815260040161087990613627565b600881015460ff1615611ce15760405162461bcd60e51b8152602060048201526013602482015272105b1c9958591e481c5d585c985b9d1a5b9959606a1b6044820152606401610879565b5f611cef6203f480426135b4565b9050604051806040016040528082815260200185858080601f0160208091040260200160405190810160405280939291908181526020018383808284375f92018290525093909452505087815260146020908152604090912083518155908301519091506001820190611d629082613706565b50905050847f22109b6cab824b5054d757ec2981209f6f93c55b51a0cb214606f4fa3f2b2579858584604051611566939291906137c1565b60146020525f90815260409020805460018201805491929161100e906135c7565b6109f5338383612554565b611dce6122c1565b6001600160a01b038116611e245760405162461bcd60e51b815260206004820152601860248201527f496e76616c6964206d756c7469736967206164647265737300000000000000006044820152606401610879565b5f611e326203f480426135b4565b6040805180820182526001600160a01b0385168082526020918201849052601280546001600160a01b03191682179055601384905582519081529081018390529192507f1c350ba82f86c2932351af4d62bc83b5498edb547fa85ec7cb545a4b5ed2a23f910160405180910390a15050565b611eac6122c1565b6001600160a01b038216611ef65760405162461bcd60e51b8152602060048201526011602482015270125b9d985b1a59081c9958da5c1a595b9d607a1b6044820152606401610879565b6109f56001600160a01b037f000000000000000000000000000000000000000000000000000000000000000016838361261b565b611f326122c1565b6013545f03611f835760405162461bcd60e51b815260206004820152601d60248201527f4d756c746973696720757064617465206e6f74207363686564756c65640000006044820152606401610879565b601280546001600160a01b03191690555f60138190556040517fdf05a290f90f9f2ed30007cceb2b8ef1191581cc4db368a88991dd1148609cb99190a1565b611fcd848484610b8a565b610c0d3385858585612650565b606061092e82612778565b611fed61249a565b5f848152600d6020526040902080546001600160a01b03166120215760405162461bcd60e51b815260040161087990613627565b6008810154610100900460ff1661206d5760405162461bcd60e51b815260206004820152601060248201526f4368696c64206e6f742061637469766560801b6044820152606401610879565b600881015460ff16156120b65760405162461bcd60e51b815260206004820152601160248201527010da1a5b19081c5d585c985b9d1a5b9959607a1b6044820152606401610879565b336120c0866112c3565b6001600160a01b0316146121085760405162461bcd60e51b815260206004820152600f60248201526e2737ba1031b434b6321037bbb732b960891b6044820152606401610879565b60078101541561214c5760405162461bcd60e51b815260206004820152600f60248201526e105b1c9958591e481d1c985a5b9959608a1b6044820152606401610879565b6009546001600160a01b0316156121f157604080516020808201889052818301879052606080830187905283518084039091018152608090920190925280519101206009546121a790829085906001600160a01b03166127f9565b6121ef5760405162461bcd60e51b8152602060048201526019602482015278496e76616c696420636865636b6572207369676e617475726560381b6044820152606401610879565b505b6002810184905560038101839055426007820155604080518581526020810185905286917f74f332d00b36937ea211eb77230994ce9f58024067b91d10ce5a4bcf73069b6a910160405180910390a250610c0d60015f8051602061388583398151915255565b6001600160a01b039182165f90815260056020908152604080832093909416825291909152205460ff1690565b61228c6122c1565b6001600160a01b0381166122b557604051631e4fbdf760e01b81525f6004820152602401610879565b6122be81612449565b50565b6007546001600160a01b031633146113ed5760405163118cdaa760e01b8152336004820152602401610879565b5f6001600160e01b03198216632483248360e11b148061092e575061092e8261284c565b5f818152600260205260408120546001600160a01b03168061092e57604051637e27328960e01b815260048101849052602401610879565b610fe8838383600161289b565b5f828152600260205260408120546001600160a01b03908116908316156123835761238381848661299f565b6001600160a01b038116156123bd5761239e5f855f8061289b565b6001600160a01b0381165f90815260036020526040902080545f190190555b6001600160a01b038516156123eb576001600160a01b0385165f908152600360205260409020805460010190555b5f8481526002602052604080822080546001600160a01b0319166001600160a01b0389811691821790925591518793918516917fddf252ad1be2c89b69c2b068fc378daa952ba7f163c4a11628f55a4df523b3ef91a4949350505050565b600780546001600160a01b038381166001600160a01b0319831681179093556040519116919082907f8be0079c531659141344cd1fd0a4f28419497f9722a3daafe3b4186f6b6457e0905f90a35050565b6124a2612a03565b60025f8051602061388583398151915255565b5f6124d86124c587878787612a32565b60085484906001600160a01b03166127f9565b9695505050505050565b5f6124d86124f287878787612a32565b60095484906001600160a01b03166127f9565b612513848484846001612a85565b610c0d57604051635274afe760e01b81526001600160a01b0385166004820152602401610879565b6109f5828260405180602001604052805f815250612af2565b6001600160a01b03831661257d5760405163a9fbf51f60e01b81525f6004820152602401610879565b6001600160a01b0382166125af57604051630b61174360e31b81526001600160a01b0383166004820152602401610879565b6001600160a01b038381165f81815260056020908152604080832094871680845294825291829020805460ff191686151590811790915591519182527f17307eab39ab6107e8899845ad3d59bd9653f200f220920489ca2b5937696c31910160405180910390a3505050565b6126288383836001612b09565b610fe857604051635274afe760e01b81526001600160a01b0384166004820152602401610879565b6001600160a01b0383163b1561277157604051630a85bd0160e11b81526001600160a01b0384169063150b7a02906126929088908890879087906004016137f8565b6020604051808303815f875af19250505080156126cc575060408051601f3d908101601f191682019092526126c99181019061382a565b60015b612733573d8080156126f9576040519150601f19603f3d011682016040523d82523d5f602084013e6126fe565b606091505b5080515f0361272b57604051633250574960e11b81526001600160a01b0385166004820152602401610879565b805160208201fd5b6001600160e01b03198116630a85bd0160e11b1461276f57604051633250574960e11b81526001600160a01b0385166004820152602401610879565b505b5050505050565b606061278382612312565b505f61279960408051602081019091525f815290565b90505f6127a584612b6b565b905081515f036127b6579392505050565b8051156127e85781816040516020016127d092919061385c565b60405160208183030381529060405292505050919050565b6127f184612c0a565b949350505050565b7f19457468657265756d205369676e6564204d6573736167653a0a3332000000005f908152601c849052603c81205f6128328286612c7b565b6001600160a01b0390811690851614925050509392505050565b5f6001600160e01b031982166380ac58cd60e01b148061287c57506001600160e01b03198216635b5e139f60e01b145b8061092e57506301ffc9a760e01b6001600160e01b031983161461092e565b80806128af57506001600160a01b03821615155b15612970575f6128be84612312565b90506001600160a01b038316158015906128ea5750826001600160a01b0316816001600160a01b031614155b80156128fd57506128fb8184612257565b155b156129265760405163a9fbf51f60e01b81526001600160a01b0384166004820152602401610879565b811561296e5783856001600160a01b0316826001600160a01b03167f8c5be1e5ebec7d5bd14f71427d1e84f3dd0314c0f7b2291e5b200ac8c7c3b92560405160405180910390a45b505b50505f90815260046020526040902080546001600160a01b0319166001600160a01b0392909216919091179055565b6129aa838383612ca3565b610fe8576001600160a01b0383166129d857604051637e27328960e01b815260048101829052602401610879565b60405163177e802f60e01b81526001600160a01b038316600482015260248101829052604401610879565b5f80516020613885833981519152546002036113ed57604051633ee5aeb560e01b815260040160405180910390fd5b604080516020808201969096528082019490945260608401929092526001600160a01b031660808301524660a08301523060c0808401919091528151808403909101815260e09092019052805191012090565b6040516323b872dd60e01b5f8181526001600160a01b038781166004528616602452604485905291602083606481808c5af1925060015f51148316612ae1578383151615612ad5573d5f823e3d81fd5b5f883b113d1516831692505b604052505f60605295945050505050565b612afc8383612d04565b610fe8335f858585612650565b60405163a9059cbb60e01b5f8181526001600160a01b038616600452602485905291602083604481808b5af1925060015f51148316612b5f578383151615612b53573d5f823e3d81fd5b5f873b113d1516831692505b60405250949350505050565b5f818152600660205260409020805460609190612b87906135c7565b80601f0160208091040260200160405190810160405280929190818152602001828054612bb3906135c7565b8015612bfe5780601f10612bd557610100808354040283529160200191612bfe565b820191905f5260205f20905b815481529060010190602001808311612be157829003601f168201915b50505050509050919050565b6060612c1582612312565b505f612c2b60408051602081019091525f815290565b90505f815111612c495760405180602001604052805f815250612c74565b80612c5384612d65565b604051602001612c6492919061385c565b6040516020818303038152906040525b9392505050565b5f805f80612c898686612df5565b925092509250612c998282612e3e565b5090949350505050565b5f6001600160a01b038316158015906127f15750826001600160a01b0316846001600160a01b03161480612cdc5750612cdc8484612257565b806127f15750505f908152600460205260409020546001600160a01b03908116911614919050565b6001600160a01b038216612d2d57604051633250574960e11b81525f6004820152602401610879565b5f612d3983835f612357565b90506001600160a01b03811615610fe8576040516339e3563760e11b81525f6004820152602401610879565b60605f612d7183612ef6565b60010190505f8167ffffffffffffffff811115612d9057612d9061331e565b6040519080825280601f01601f191660200182016040528015612dba576020820181803683370190505b5090508181016020015b5f19016f181899199a1a9b1b9c1cb0b131b232b360811b600a86061a8153600a8504945084612dc457509392505050565b5f805f8351604103612e2c576020840151604085015160608601515f1a612e1e88828585612fcd565b955095509550505050612e37565b505081515f91506002905b9250925092565b5f826003811115612e5157612e51613870565b03612e5a575050565b6001826003811115612e6e57612e6e613870565b03612e8c5760405163f645eedf60e01b815260040160405180910390fd5b6002826003811115612ea057612ea0613870565b03612ec15760405163fce698f760e01b815260048101829052602401610879565b6003826003811115612ed557612ed5613870565b036109f5576040516335e2f38360e21b815260048101829052602401610879565b5f8072184f03e93ff9f4daa797ed6e38ed64bf6a1f0160401b8310612f345772184f03e93ff9f4daa797ed6e38ed64bf6a1f0160401b830492506040015b6d04ee2d6d415b85acef81000000008310612f60576d04ee2d6d415b85acef8100000000830492506020015b662386f26fc100008310612f7e57662386f26fc10000830492506010015b6305f5e1008310612f96576305f5e100830492506008015b6127108310612faa57612710830492506004015b60648310612fbc576064830492506002015b600a831061092e5760010192915050565b5f80807f7fffffffffffffffffffffffffffffff5d576e7357a4501ddfe92f46681b20a084111561300657505f9150600390508261308b565b604080515f808252602082018084528a905260ff891692820192909252606081018790526080810186905260019060a0016020604051602081039080840390855afa158015613057573d5f803e3d5ffd5b5050604051601f1901519150506001600160a01b03811661308257505f92506001915082905061308b565b92505f91508190505b9450945094915050565b5080546130a1906135c7565b5f825580601f106130b0575050565b601f0160209004905f5260205f20908101906122be91905b808211156130db575f81556001016130c8565b5090565b80356001600160a01b03811681146130f5575f80fd5b919050565b5f806040838503121561310b575f80fd5b613114836130df565b9150613122602084016130df565b90509250929050565b6001600160e01b0319811681146122be575f80fd5b5f60208284031215613150575f80fd5b8135612c748161312b565b5f81518084528060208401602086015e5f602082860101526020601f19601f83011685010191505092915050565b602081525f612c74602083018461315b565b5f602082840312156131ab575f80fd5b5035919050565b5f80604083850312156131c3575f80fd5b6131cc836130df565b946020939093013593505050565b5f805f606084860312156131ec575f80fd5b6131f5846130df565b9250613203602085016130df565b929592945050506040919091013590565b5f8060408385031215613225575f80fd5b50508035926020909101359150565b602080825282518282018190525f918401906040840190835b8181101561326b57835183526020938401939092019160010161324d565b509095945050505050565b828152604060208201525f6127f1604083018461315b565b5f6020828403121561329e575f80fd5b612c74826130df565b5f805f604084860312156132b9575f80fd5b83359250602084013567ffffffffffffffff8111156132d6575f80fd5b8401601f810186136132e6575f80fd5b803567ffffffffffffffff8111156132fc575f80fd5b86602082840101111561330d575f80fd5b939660209190910195509293505050565b634e487b7160e01b5f52604160045260245ffd5b5f82601f830112613341575f80fd5b813567ffffffffffffffff81111561335b5761335b61331e565b604051601f8201601f19908116603f0116810167ffffffffffffffff8111828210171561338a5761338a61331e565b6040528181528382016020018510156133a1575f80fd5b816020850160208301375f918101602001919091529392505050565b5f805f805f60a086880312156133d1575f80fd5b85359450602086013567ffffffffffffffff8111156133ee575f80fd5b6133fa88828901613332565b945050604086013567ffffffffffffffff811115613416575f80fd5b61342288828901613332565b9598949750949560608101359550608001359392505050565b5f806040838503121561344c575f80fd5b613455836130df565b915060208301358015158114613469575f80fd5b809150509250929050565b5f805f8060808587031215613487575f80fd5b613490856130df565b935061349e602086016130df565b925060408501359150606085013567ffffffffffffffff8111156134c0575f80fd5b6134cc87828801613332565b91505092959194509250565b81516001600160a01b0316815261014081016020830151602083015260408301516040830152606083015160608301526080830151608083015260a083015160a083015260c083015160c083015260e083015160e083015261010083015161354561010084018215159052565b5061012083015161355b61012084018215159052565b5092915050565b5f805f8060808587031215613575575f80fd5b843593506020850135925060408501359150606085013567ffffffffffffffff8111156134c0575f80fd5b634e487b7160e01b5f52601160045260245ffd5b8082018082111561092e5761092e6135a0565b600181811c908216806135db57607f821691505b6020821081036135f957634e487b7160e01b5f52602260045260245ffd5b50919050565b6020808252600e908201526d139bdd08185d5d1a1bdc9a5e995960921b604082015260600190565b60208082526014908201527310da1a5b1908191bd95cc81b9bdd08195e1a5cdd60621b604082015260600190565b60208082526010908201526f416374696f6e206e6f7420726561647960801b604082015260600190565b808202811582820484141761092e5761092e6135a0565b5f600182016136a7576136a76135a0565b5060010190565b634e487b7160e01b5f52603260045260245ffd5b601f821115610fe857805f5260205f20601f840160051c810160208510156136e75750805b601f840160051c820191505b81811015612771575f81556001016136f3565b815167ffffffffffffffff8111156137205761372061331e565b6137348161372e84546135c7565b846136c2565b6020601f821160018114613766575f831561374f5750848201515b5f19600385901b1c1916600184901b178455612771565b5f84815260208120601f198516915b828110156137955787850151825560209485019460019092019101613775565b50848210156137b257868401515f19600387901b60f8161c191681555b50505050600190811b01905550565b60408152826040820152828460608301375f606084830101525f6060601f19601f8601168301019050826020830152949350505050565b6001600160a01b03858116825284166020820152604081018390526080606082018190525f906124d89083018461315b565b5f6020828403121561383a575f80fd5b8151612c748161312b565b5f81518060208401855e5f93019283525090919050565b5f6127f161386a8386613845565b84613845565b634e487b7160e01b5f52602160045260245ffdfe9b779b17422d0df92223018b32b4d1fa46e071723d6817e2486d003becc55f00a2646970667358221220f31f45c41a9d8b955bc3e3465a93ece773233bcbc2b4554981e9c21d4c3cc1be64736f6c634300081a0033",
  "linkReferences": {},
  "deployedLinkReferences": {}
}