{
  "_format": "hh-sol-artifact-1",
  "contractName": "MockERC20",
  "sourceName": "contracts/MockERC20.sol",
  "abi": [
    {
      "inputs": [
        {
          "internalType": "uint256",
          "name": "initialSupply",
          "type": "uint256"
        }
      ],
      "stateMutability": "nonpayable",
      "type": "constructor"
    },
    {
      "anonymous": false,
      "inputs": [
        {
          "indexed": true,
          "internalType": "address",
          "name": "owner",
          "type": "address"
        },
        {
          "indexed": true,
          "internalType": "address",
          "name": "spender",
          "type": "address"
        },
        {
          "indexed": false,
          "internalType": "uint256",
          "name": "value",
          "type": "uint256"
        }
      ],
      "name": "Approval",
      "type": "event"
    },
    {
      "anonymous": false,
      "inputs": [
        {
          "indexed": true,
          "internalType": "address",
          "name": "from",
          "type": "address"
        },
        {
          "indexed": true,
          "internalType": "address",
          "name": "to",
          "type": "address"
        },
        {
          "indexed": false,
          "internalType": "uint256",
          "name": "value",
          "type": "uint256"
        }
      ],
      "name": "Transfer",
      "type": "event"
    },
    {
      "inputs": [
        {
          "internalType": "address",
          "name": "",
          "type": "address"
        },
        {
          "internalType": "address",
          "name": "",
          "type": "address"
        }
      ],
      "name": "allowance",
      "outputs": [
        {
          "internalType": "uint256",
          "name": "",
          "type": "uint256"
        }
      ],
      "stateMutability": "view",
      "type": "function"
    },
    {
      "inputs": [
        {
          "internalType": "address",
          "name": "spender",
          "type": "address"
        },
        {
          "internalType": "uint256",
          "name": "value",
          "type": "uint256"
        }
      ],
      "name": "approve",
      "outputs": [
        {
          "internalType": "bool",
          "name": "",
          "type": "bool"
        }
      ],
      "stateMutability": "nonpayable",
      "type": "function"
    },
    {
      "inputs": [
        {
          "internalType": "address",
          "name": "",
          "type": "address"
        }
      ],
      "name": "balanceOf",
      "outputs": [
        {
          "internalType": "uint256",
          "name": "",
          "type": "uint256"
        }
      ],
      "stateMutability": "view",
      "type": "function"
    },
    {
      "inputs": [
        {
          "internalType": "uint256",
          "name": "amount",
          "type": "uint256"
        }
      ],
      "name": "burn",
      "outputs": [],
      "stateMutability": "nonpayable",
      "type": "function"
    },
    {
      "inputs": [],
      "name": "decimals",
      "outputs": [
        {
          "internalType": "uint8",
          "name": "",
          "type": "uint8"
        }
      ],
      "stateMutability": "view",
      "type": "function"
    },
    {
      "inputs": [
        {
          "internalType": "address",
          "name": "to",
          "type": "address"
        },
        {
          "internalType": "uint256",
          "name": "amount",
          "type": "uint256"
        }
      ],
      "name": "mint",
      "outputs": [],
      "stateMutability": "nonpayable",
      "type": "function"
    },
    {
      "inputs": [],
      "name": "name",
      "outputs": [
        {
          "internalType": "string",
          "name": "",
          "type": "string"
        }
      ],
      "stateMutability": "view",
      "type": "function"
    },
    {
      "inputs": [],
      "name": "symbol",
      "outputs": [
        {
          "internalType": "string",
          "name": "",
          "type": "string"
        }
      ],
      "stateMutability": "view",
      "type": "function"
    },
    {
      "inputs": [],
      "name": "totalSupply",
      "outputs": [
        {
          "internalType": "uint256",
          "name": "",
          "type": "uint256"
        }
      ],
      "stateMutability": "view",
      "type": "function"
    },
    {
      "inputs": [
        {
          "internalType": "address",
          "name": "to",
          "type": "address"
        },
        {
          "internalType": "uint256",
          "name": "value",
          "type": "uint256"
        }
      ],
      "name": "transfer",
      "outputs": [
        {
          "internalType": "bool",
          "name": "",
          "type": "bool"
        }
      ],
      "stateMutability": "nonpayable",
      "type": "function"
    },
    {
      "inputs": [
        {
          "internalType": "address",
          "name": "from",
          "type": "address"
        },
        {
          "internalType": "address",
          "name": "to",
          "type": "address"
        },
        {
          "internalType": "uint256",
          "name": "value",
          "type": "uint256"
        }
      ],
      "name": "transferFrom",
      "outputs": [
        {
          "internalType": "bool",
          "name": "",
          "type": "bool"
        }
      ],
      "stateMutability": "nonpayable",
      "type": "function"
    }
  ],
  "bytecode": "0x60c0604052600a60809081526926b7b1b5902a37b5b2b760b11b60a0526000906200002b908262000176565b506040805180820190915260048152634d4f434b60e01b602082015260019062000056908262000176565b506002805460ff191660121790553480156200007157600080fd5b5060405162000c9138038062000c91833981016040819052620000949162000242565b600254620000a79060ff16600a62000371565b620000b3908262000386565b60038190553360009081526004602052604090205550620003a0565b634e487b7160e01b600052604160045260246000fd5b600181811c90821680620000fa57607f821691505b6020821081036200011b57634e487b7160e01b600052602260045260246000fd5b50919050565b601f82111562000171576000816000526020600020601f850160051c810160208610156200014c5750805b601f850160051c820191505b818110156200016d5782815560010162000158565b5050505b505050565b81516001600160401b03811115620001925762000192620000cf565b620001aa81620001a38454620000e5565b8462000121565b602080601f831160018114620001e25760008415620001c95750858301515b600019600386901b1c1916600185901b1785556200016d565b600085815260208120601f198616915b828110156200021357888601518255948401946001909101908401620001f2565b5085821015620002325787850151600019600388901b60f8161c191681555b5050505050600190811b01905550565b6000602082840312156200025557600080fd5b5051919050565b634e487b7160e01b600052601160045260246000fd5b600181815b80851115620002b35781600019048211156200029757620002976200025c565b80851615620002a557918102915b93841c939080029062000277565b509250929050565b600082620002cc575060016200036b565b81620002db575060006200036b565b8160018114620002f45760028114620002ff576200031f565b60019150506200036b565b60ff8411156200031357620003136200025c565b50506001821b6200036b565b5060208310610133831016604e8410600b841016171562000344575081810a6200036b565b62000350838362000272565b80600019048211156200036757620003676200025c565b0290505b92915050565b60006200037f8383620002bb565b9392505050565b80820281158282048414176200036b576200036b6200025c565b6108e180620003b06000396000f3fe608060405234801561001057600080fd5b50600436106100a95760003560e01c806340c10f191161007157806340c10f191461013857806342966c681461014d57806370a082311461016057806395d89b4114610180578063a9059cbb14610188578063dd62ed3e1461019b57600080fd5b806306fdde03146100ae578063095ea7b3146100cc57806318160ddd146100ef57806323b872dd14610106578063313ce56714610119575b600080fd5b6100b66101c6565b6040516100c3919061067f565b60405180910390f35b6100df6100da3660046106ea565b610254565b60405190151581526020016100c3565b6100f860035481565b6040519081526020016100c3565b6100df610114366004610714565b6102c1565b6002546101269060ff1681565b60405160ff90911681526020016100c3565b61014b6101463660046106ea565b61046b565b005b61014b61015b366004610750565b61050a565b6100f861016e366004610769565b60046020526000908152604090205481565b6100b661059f565b6100df6101963660046106ea565b6105ac565b6100f86101a936600461078b565b600560209081526000928352604080842090915290825290205481565b600080546101d3906107be565b80601f01602080910402602001604051908101604052809291908181526020018280546101ff906107be565b801561024c5780601f106102215761010080835404028352916020019161024c565b820191906000526020600020905b81548152906001019060200180831161022f57829003601f168201915b505050505081565b3360008181526005602090815260408083206001600160a01b038716808552925280832085905551919290917f8c5be1e5ebec7d5bd14f71427d1e84f3dd0314c0f7b2291e5b200ac8c7c3b925906102af9086815260200190565b60405180910390a35060015b92915050565b60006001600160a01b0383166102f25760405162461bcd60e51b81526004016102e9906107f8565b60405180910390fd5b6001600160a01b03841660009081526004602052604090205482111561032a5760405162461bcd60e51b81526004016102e990610821565b6001600160a01b03841660009081526005602090815260408083203384529091529020548211156103925760405162461bcd60e51b8152602060048201526012602482015271105b1b1bddd85b98d948195e18d95959195960721b60448201526064016102e9565b6001600160a01b038416600090815260046020526040812080548492906103ba908490610865565b90915550506001600160a01b038316600090815260046020526040812080548492906103e7908490610878565b90915550506001600160a01b03841660009081526005602090815260408083203384529091528120805484929061041f908490610865565b92505081905550826001600160a01b0316846001600160a01b031660008051602061088c8339815191528460405161045991815260200190565b60405180910390a35060019392505050565b6001600160a01b0382166104915760405162461bcd60e51b81526004016102e9906107f8565b6001600160a01b038216600090815260046020526040812080548392906104b9908490610878565b9250508190555080600360008282546104d29190610878565b90915550506040518181526001600160a01b0383169060009060008051602061088c8339815191529060200160405180910390a35050565b336000908152600460205260409020548111156105395760405162461bcd60e51b81526004016102e990610821565b3360009081526004602052604081208054839290610558908490610865565b9250508190555080600360008282546105719190610865565b9091555050604051818152600090339060008051602061088c8339815191529060200160405180910390a350565b600180546101d3906107be565b60006001600160a01b0383166105d45760405162461bcd60e51b81526004016102e9906107f8565b336000908152600460205260409020548211156106035760405162461bcd60e51b81526004016102e990610821565b3360009081526004602052604081208054849290610622908490610865565b90915550506001600160a01b0383166000908152600460205260408120805484929061064f908490610878565b90915550506040518281526001600160a01b03841690339060008051602061088c833981519152906020016102af565b60006020808352835180602085015260005b818110156106ad57858101830151858201604001528201610691565b506000604082860101526040601f19601f8301168501019250505092915050565b80356001600160a01b03811681146106e557600080fd5b919050565b600080604083850312156106fd57600080fd5b610706836106ce565b946020939093013593505050565b60008060006060848603121561072957600080fd5b610732846106ce565b9250610740602085016106ce565b9150604084013590509250925092565b60006020828403121561076257600080fd5b5035919050565b60006020828403121561077b57600080fd5b610784826106ce565b9392505050565b6000806040838503121561079e57600080fd5b6107a7836106ce565b91506107b5602084016106ce565b90509250929050565b600181811c908216806107d257607f821691505b6020821081036107f257634e487b7160e01b600052602260045260246000fd5b50919050565b6020808252600f908201526e496e76616c6964206164647265737360881b604082015260600190565b602080825260149082015273496e73756666696369656e742062616c616e636560601b604082015260600190565b634e487b7160e01b600052601160045260246000fd5b818103818111156102bb576102bb61084f565b808201808211156102bb576102bb61084f56feddf252ad1be2c89b69c2b068fc378daa952ba7f163c4a11628f55a4df523b3efa2646970667358221220685f5d60ed670777138ad51c5a4b3f9fe2efd6e5ff4258cc8bb1ff56b872974964736f6c63430008180033",
  "linkReferences": {},
  "deployedLinkReferences": {}
}