{"abi":[{"type":"constructor","inputs":[],"stateMutability":"nonpayable"},{"type":"function","name":"MAX_DEVIATION_BPS","inputs":[],"outputs":[{"name":"","type":"uint256","internalType":"uint256"}],"stateMutability":"view"},{"type":"function","name":"MAX_STALENESS","inputs":[],"outputs":[{"name":"","type":"uint256","internalType":"uint256"}],"stateMutability":"view"},{"type":"function","name":"PRICE_PRECISION","inputs":[],"outputs":[{"name":"","type":"uint256","internalType":"uint256"}],"stateMutability":"view"},{"type":"function","name":"baseCurrency","inputs":[],"outputs":[{"name":"","type":"address","internalType":"address"}],"stateMutability":"view"},{"type":"function","name":"baseCurrencyUnit","inputs":[],"outputs":[{"name":"","type":"uint256","internalType":"uint256"}],"stateMutability":"view"},{"type":"function","name":"configureTWAP","inputs":[{"name":"asset","type":"address","internalType":"address"},{"name":"enabled","type":"bool","internalType":"bool"},{"name":"window","type":"uint256","internalType":"uint256"}],"outputs":[],"stateMutability":"nonpayable"},{"type":"function","name":"feeds","inputs":[{"name":"","type":"address","internalType":"address"}],"outputs":[{"name":"primaryFeed","type":"address","internalType":"address"},{"name":"secondaryFeed","type":"address","internalType":"address"},{"name":"manualPrice","type":"uint256","internalType":"uint256"},{"name":"manualPriceTimestamp","type":"uint40","internalType":"uint40"},{"name":"decimals","type":"uint8","internalType":"uint8"},{"name":"useTWAP","type":"bool","internalType":"bool"},{"name":"twapWindow","type":"uint256","internalType":"uint256"}],"stateMutability":"view"},{"type":"function","name":"getAssetPrice","inputs":[{"name":"asset","type":"address","internalType":"address"}],"outputs":[{"name":"","type":"uint256","internalType":"uint256"}],"stateMutability":"view"},{"type":"function","name":"getAssetPrices","inputs":[{"name":"assets","type":"address[]","internalType":"address[]"}],"outputs":[{"name":"prices","type":"uint256[]","internalType":"uint256[]"}],"stateMutability":"view"},{"type":"function","name":"getPriceData","inputs":[{"name":"asset","type":"address","internalType":"address"}],"outputs":[{"name":"","type":"tuple","internalType":"struct OracleRouter.PriceData","components":[{"name":"price","type":"uint256","internalType":"uint256"},{"name":"timestamp","type":"uint40","internalType":"uint40"},{"name":"source","type":"uint8","internalType":"uint8"}]}],"stateMutability":"view"},{"type":"function","name":"getTWAP","inputs":[{"name":"asset","type":"address","internalType":"address"},{"name":"window","type":"uint8","internalType":"uint8"}],"outputs":[{"name":"","type":"uint256","internalType":"uint256"}],"stateMutability":"view"},{"type":"function","name":"latestPrices","inputs":[{"name":"","type":"address","internalType":"address"}],"outputs":[{"name":"price","type":"uint256","internalType":"uint256"},{"name":"timestamp","type":"uint40","internalType":"uint40"},{"name":"source","type":"uint8","internalType":"uint8"}],"stateMutability":"view"},{"type":"function","name":"owner","inputs":[],"outputs":[{"name":"","type":"address","internalType":"address"}],"stateMutability":"view"},{"type":"function","name":"paused","inputs":[],"outputs":[{"name":"","type":"bool","internalType":"bool"}],"stateMutability":"view"},{"type":"function","name":"priceHistory","inputs":[{"name":"","type":"address","internalType":"address"},{"name":"","type":"uint256","internalType":"uint256"}],"outputs":[{"name":"","type":"uint256","internalType":"uint256"}],"stateMutability":"view"},{"type":"function","name":"priceHistoryIndex","inputs":[{"name":"","type":"address","internalType":"address"}],"outputs":[{"name":"","type":"uint8","internalType":"uint8"}],"stateMutability":"view"},{"type":"function","name":"renounceOwnership","inputs":[],"outputs":[],"stateMutability":"nonpayable"},{"type":"function","name":"setManualPrice","inputs":[{"name":"asset","type":"address","internalType":"address"},{"name":"price","type":"uint256","internalType":"uint256"}],"outputs":[],"stateMutability":"nonpayable"},{"type":"function","name":"setPaused","inputs":[{"name":"_paused","type":"bool","internalType":"bool"}],"outputs":[],"stateMutability":"nonpayable"},{"type":"function","name":"setPriceFeed","inputs":[{"name":"asset","type":"address","internalType":"address"},{"name":"primaryFeed","type":"address","internalType":"address"},{"name":"secondaryFeed","type":"address","internalType":"address"},{"name":"decimals","type":"uint8","internalType":"uint8"}],"outputs":[],"stateMutability":"nonpayable"},{"type":"function","name":"transferOwnership","inputs":[{"name":"newOwner","type":"address","internalType":"address"}],"outputs":[],"stateMutability":"nonpayable"},{"type":"function","name":"updatePrice","inputs":[{"name":"asset","type":"address","internalType":"address"}],"outputs":[],"stateMutability":"nonpayable"},{"type":"event","name":"CircuitBreakerTriggered","inputs":[{"name":"asset","type":"address","indexed":true,"internalType":"address"},{"name":"deviation","type":"uint256","indexed":false,"internalType":"uint256"}],"anonymous":false},{"type":"event","name":"ManualPriceSet","inputs":[{"name":"asset","type":"address","indexed":true,"internalType":"address"},{"name":"price","type":"uint256","indexed":false,"internalType":"uint256"},{"name":"timestamp","type":"uint40","indexed":false,"internalType":"uint40"}],"anonymous":false},{"type":"event","name":"OwnershipTransferred","inputs":[{"name":"previousOwner","type":"address","indexed":true,"internalType":"address"},{"name":"newOwner","type":"address","indexed":true,"internalType":"address"}],"anonymous":false},{"type":"event","name":"PriceFeedSet","inputs":[{"name":"asset","type":"address","indexed":true,"internalType":"address"},{"name":"primaryFeed","type":"address","indexed":false,"internalType":"address"},{"name":"secondaryFeed","type":"address","indexed":false,"internalType":"address"},{"name":"decimals","type":"uint8","indexed":false,"internalType":"uint8"}],"anonymous":false},{"type":"event","name":"PriceUpdated","inputs":[{"name":"asset","type":"address","indexed":true,"internalType":"address"},{"name":"price","type":"uint256","indexed":false,"internalType":"uint256"},{"name":"timestamp","type":"uint40","indexed":false,"internalType":"uint40"},{"name":"source","type":"uint8","indexed":false,"internalType":"uint8"}],"anonymous":false},{"type":"event","name":"TWAPConfigured","inputs":[{"name":"asset","type":"address","indexed":true,"internalType":"address"},{"name":"enabled","type":"bool","indexed":false,"internalType":"bool"},{"name":"window","type":"uint256","indexed":false,"internalType":"uint256"}],"anonymous":false},{"type":"error","name":"OwnableInvalidOwner","inputs":[{"name":"owner","type":"address","internalType":"address"}]},{"type":"error","name":"OwnableUnauthorizedAccount","inputs":[{"name":"account","type":"address","internalType":"address"}]}],"bytecode":{"object":"0x6080806040523461008057331561006b575f8054336001600160a01b03198216811783556040519290916001600160a01b0316907f8be0079c531659141344cd1fd0a4f28419497f9722a3daafe3b4186f6b6457e09080a36305f5e10060065561121890816100858239f35b631e4fbdf760e01b81525f6004820152602490fd5b5f80fdfe60406080815260049081361015610014575f80fd5b5f91823560e01c908163053c81b514610ade57816316c38b3c14610aa757816325c6840314610a8a5781632fba4aa914610a005781633d4ab5e5146109595781634a606d7b1461091e5781635c975abb146108fa57816361f401e2146108a5578163715018a61461084b57816372279ba1146107bd5781638da5cb5b1461079557816392a85fde1461076c57816395082d251461074d57816396e85ced146105d35781639d079793146103e5578163a9074c96146103ad578163a95121b514610279578163b3596f071461023d578163b4bbec53146101db578163caca95a4146101be578163f2fde38b14610133575063f3bddde114610112575f80fd5b3461012f578160031936011261012f576020906006549051908152f35b5080fd5b9050346101ba5760203660031901126101ba5761014e610c33565b90610157610c70565b6001600160a01b039182169283156101a457505082546001600160a01b0319811683178455167f8be0079c531659141344cd1fd0a4f28419497f9722a3daafe3b4186f6b6457e08380a380f35b51631e4fbdf760e01b8152908101849052602490fd5b8280fd5b50503461012f578160031936011261012f5760209051610e108152f35b50503461012f57602036600319011261012f579081906001600160a01b03610201610c33565b168152600260209081529190208054600190910154925190815264ffffffffff83169181019190915260289190911c60ff166040820152606090f35b50503461012f57602036600319011261012f5760209061027261025e610c33565b61026d60ff6007541615610ced565b610d69565b9051908152f35b919050346101ba57806003193601126101ba57610294610c33565b602435926102a0610c70565b831561036a5750907fe2b8b196afec9182d8ebcd026fa94640ea2ac1615a53a200dbcf4b6300a13e539160018060a01b031692838552600160205281852081600282015561035c8660ff8764ffffffffff600381421696019064ffffffffff199187838254161790556001895161031681610c9b565b8981528a60208201978a895281830196600288528152600260205220905181550194511690845416178355511660ff60281b82549160281b169060ff60281b1916179055565b82519182526020820152a280f35b606490602084519162461bcd60e51b8352820152601860248201527f4f7261636c65526f757465723a207a65726f20707269636500000000000000006044820152fd5b50503461012f578060031936011261012f576103c7610c33565b6024359260ff841684036103e257506020926102729161108f565b80fd5b919050346101ba5760803660031901126101ba57610401610c33565b6024356001600160a01b0381811693918490036105cf57604435908082168092036105cb576064359360ff85168095036105c757819061043f610c70565b1695861561058457835160e0810181811067ffffffffffffffff82111761057157918961055c878b61053b60ff8c849a987ff2aa9dcf6904a11c1c1de2c1920ee2669d5e32a0b3bacac2eab5bd0a0f1234e29f9d9a60609f9d9b528d8152602081018b81528682019189835260608c908201988b8a52608083019586528b60a0840199818b5260c085019d8e5281526001602052209c8d9251166bffffffffffffffffffffffff60a01b80935416178d5560018d01925116908254161790555160028a015564ffffffffff60038a0195511664ffffffffff198654161785555116839060ff60281b82549160281b169060ff60281b1916179055565b51815466ff000000000000191690151560301b66ff00000000000016179055565b5191015581519384526020840152820152a280f35b634e487b7160e01b8a526041835260248afd5b606490602085519162461bcd60e51b8352820152601860248201527f4f7261636c65526f757465723a207a65726f20617373657400000000000000006044820152fd5b8780fd5b8680fd5b8580fd5b919050346101ba57602080600319360112610749576105f0610c33565b9060ff610601816007541615610ced565b61060a83610d69565b9160018060a01b03841695868852808252600183878a2054166003845261063381898c20610c4d565b81549060031b9088821b915f19901b191617905501908382116107365787895282528280878a209216601890061660ff198254161790558164ffffffffff8042169561067e90611028565b90875161068a81610c9b565b86815284810194888652848a8301941684528a8c5260029052888b209051815560010193511664ffffffffff1984541617835551166106de90829060ff60281b82549160281b169060ff60281b1916179055565b5460281c16925192839261070f928491604091949364ffffffffff60ff926060860197865216602085015216910152565b037fffede929d803cfc7cddfddfb6eee6b49a369720df9426e119e70d095062f393091a280f35b634e487b7160e01b895260119052602488fd5b8380fd5b50503461012f578160031936011261012f57602090516305f5e1008152f35b50503461012f578160031936011261012f5760055490516001600160a01b039091168152602090f35b50503461012f578160031936011261012f57905490516001600160a01b039091168152602090f35b50503461012f57602036600319011261012f57806060926107dc610c33565b818380516107e981610c9b565b828152826020820152015260018060a01b031681526002602052209060ff815161081281610c9b565b600184549485835201549060208101838564ffffffffff938486168452019360281c168352845195865251166020850152511690820152f35b83346103e257806003193601126103e257610864610c70565b80546001600160a01b03198116825581906001600160a01b03167f8be0079c531659141344cd1fd0a4f28419497f9722a3daafe3b4186f6b6457e08280a380f35b50503461012f578060031936011261012f576108bf610c33565b6001600160a01b0316825260036020528082206024359260188410156103e257506020926108ec91610c4d565b90549060031b1c9051908152f35b50503461012f578160031936011261012f5760209060ff6007541690519015158152f35b9050346101ba5760203660031901126101ba5760209260ff918391906001600160a01b0361094a610c33565b16825285522054169051908152f35b919050346101ba5760603660031901126101ba57610975610c33565b9060243592831515908185036105cf577fb60a8cd9403ca0d0c941a27d7430d50b58982a62cbc436c3ac13cadc5a052ae3936044359182916109b5610c70565b6001600160a01b0316808952600160205285892060038101805466ff000000000000191699151560301b66ff000000000000169990991790985596015582519182526020820152a280f35b83833461012f57602036600319011261012f5760e0926001600160a01b039260ff9190839085610a2e610c33565b168152600160205220908482541694600183015416936002830154916003840154930154948151968752602087015285015264ffffffffff81166060850152818160281c16608085015260301c16151560a083015260c0820152f35b50503461012f578160031936011261012f57602090516101f48152f35b83903461012f57602036600319011261012f573580151580910361012f57610acd610c70565b60ff80196007541691161760075580f35b905082346103e25760208060031936011261012f5782359167ffffffffffffffff80841161012f573660238501121561012f578385013590811161012f57602490600595368383891b8801011161074957610b4460ff6007999897959699541615610ced565b610b4d82610d30565b93610b5a88519586610ccb565b828552610b6683610d30565b858a019790601f1901368937865b848110610bbc5750505050505083519485948186019282875251809352850193925b828110610ba557505050500390f35b835185528695509381019392810192600101610b96565b989997989597969580821b8381018701356001600160a01b0381168103610c2f57610be690610d69565b908a51831015610c1d578a018901525f198114610c0b57600101999897959699610b74565b634e487b7160e01b8752601184528587fd5b634e487b7160e01b8952603286528789fd5b8880fd5b600435906001600160a01b0382168203610c4957565b5f80fd5b6018821015610c5c5701905f90565b634e487b7160e01b5f52603260045260245ffd5b5f546001600160a01b03163303610c8357565b60405163118cdaa760e01b8152336004820152602490fd5b6060810190811067ffffffffffffffff821117610cb757604052565b634e487b7160e01b5f52604160045260245ffd5b90601f8019910116810190811067ffffffffffffffff821117610cb757604052565b15610cf457565b60405162461bcd60e51b815260206004820152601460248201527313dc9858db19549bdd5d195c8e881c185d5cd95960621b6044820152606490fd5b67ffffffffffffffff8111610cb75760051b60200190565b91908203918211610d5557565b634e487b7160e01b5f52601160045260245ffd5b60018060a01b038091165f52600160205260405f2090600260205260405f208054908115159081610ea1575b50610e9b57508082541680610e67575b5060018201541680610e32575b506002810154908115159081610e11575b5015610dcc5790565b60405162461bcd60e51b815260206004820152601c60248201527f4f7261636c65526f757465723a206e6f2076616c6964207072696365000000006044820152606490fd5b610e10915064ffffffffff6003610e2b9201541642610d48565b105f610dc3565b610e3b90610ed9565b9080610e5e575b15610db25760ff6003610e5b93015460281c1690610fc9565b90565b50801515610e42565b610e7090610ed9565b9080610e92575b15610da557905060ff6003610e5b93015460281c1690610fc9565b50801515610e77565b91505090565b610e10915064ffffffffff6001610ebb9201541642610d48565b105f610d95565b519069ffffffffffffffffffff82168203610c4957565b604051633fabe5a360e21b81529060a090829060049082906001600160a01b03165afa805f928392610f44575b50610f14575b50505f905f90565b5f82139081610f2e575b50610f295780610f0c565b600191565b610e109150610f3d9042610d48565b105f610f1e565b9290915060a0833d8211610f92575b81610f6060a09383610ccb565b810103126103e25750610f7282610ec2565b506020820151610f89608060608501519401610ec2565b5091905f610f06565b3d9150610f53565b60ff16604d8111610d5557600a0a90565b8115610fb5570490565b634e487b7160e01b5f52601260045260245ffd5b9060ff16600881146110245760088110610ffc57600719019060ff8211610d5557610ff6610e5b92610f9a565b90610fab565b60080360ff8111610d555761101090610f9a565b90818102918183041490151715610d555790565b5090565b6001600160a01b039081165f9081526001602052604090208054821680611075575b5060010154168061105c575b50600290565b61106590610ed9565b50611070575f611056565b600190565b61107e90610ed9565b50611089575f61104a565b50505f90565b60ff9291831690811515806111d7575b15611192576001600160a01b0381165f8181526004602081815260408084205492976018938a1684018a811198959796919593949293908b16885b8c8a168381101561117b578b6111685782038d8111611168578d165f19018d811161116857611117868f875f52600393848c521606885f20610c4d565b9054911b1c801561115157810180911161113e57988c16808d1461113e57600101986110da565b60118c634e487b7160e01b5f525260245ffd5b50505050505050509450915050610e5b9150610d69565b60118d634e487b7160e01b5f525260245ffd5b50985050975050505050945050610e5b9250610fab565b60405162461bcd60e51b815260206004820152601c60248201527f4f7261636c65526f757465723a20696e76616c69642077696e646f77000000006044820152606490fd5b50601882111561109f56fea2646970667358221220b640c6657712d9b5f2c4a6eb3fe30b85ca5935b6ef531b0a5b142cf773f9d29a64736f6c63430008140033","linkReferences":{}},"methodIdentifiers":{"MAX_DEVIATION_BPS()":"25c68403","MAX_STALENESS()":"caca95a4","PRICE_PRECISION()":"95082d25","baseCurrency()":"92a85fde","baseCurrencyUnit()":"f3bddde1","configureTWAP(address,bool,uint256)":"3d4ab5e5","feeds(address)":"2fba4aa9","getAssetPrice(address)":"b3596f07","getAssetPrices(address[])":"053c81b5","getPriceData(address)":"72279ba1","getTWAP(address,uint8)":"a9074c96","latestPrices(address)":"b4bbec53","owner()":"8da5cb5b","paused()":"5c975abb","priceHistory(address,uint256)":"61f401e2","priceHistoryIndex(address)":"4a606d7b","renounceOwnership()":"715018a6","setManualPrice(address,uint256)":"a95121b5","setPaused(bool)":"16c38b3c","setPriceFeed(address,address,address,uint8)":"9d079793","transferOwnership(address)":"f2fde38b","updatePrice(address)":"96e85ced"},"id":31}