{
  "_format": "hh-sol-artifact-1",
  "contractName": "WrappedX3",
  "sourceName": "contracts/WrappedX3.sol",
  "abi": [
    {
      "inputs": [
        {
          "internalType": "address",
          "name": "_treasury",
          "type": "address"
        },
        {
          "internalType": "address",
          "name": "_adapter",
          "type": "address"
        },
        {
          "internalType": "uint256",
          "name": "_chainId",
          "type": "uint256"
        }
      ],
      "stateMutability": "nonpayable",
      "type": "constructor"
    },
    {
      "anonymous": false,
      "inputs": [
        {
          "indexed": true,
          "internalType": "address",
          "name": "newAdapter",
          "type": "address"
        }
      ],
      "name": "AdapterChanged",
      "type": "event"
    },
    {
      "anonymous": false,
      "inputs": [
        {
          "indexed": true,
          "internalType": "address",
          "name": "owner",
          "type": "address"
        },
        {
          "indexed": true,
          "internalType": "address",
          "name": "spender",
          "type": "address"
        },
        {
          "indexed": false,
          "internalType": "uint256",
          "name": "value",
          "type": "uint256"
        }
      ],
      "name": "Approval",
      "type": "event"
    },
    {
      "anonymous": false,
      "inputs": [
        {
          "indexed": true,
          "internalType": "address",
          "name": "user",
          "type": "address"
        },
        {
          "indexed": false,
          "internalType": "bool",
          "name": "exempt",
          "type": "bool"
        }
      ],
      "name": "FeeExempt",
      "type": "event"
    },
    {
      "anonymous": false,
      "inputs": [
        {
          "indexed": false,
          "internalType": "uint256",
          "name": "newBps",
          "type": "uint256"
        }
      ],
      "name": "FeeUpdated",
      "type": "event"
    },
    {
      "anonymous": false,
      "inputs": [
        {
          "indexed": true,
          "internalType": "address",
          "name": "previousOwner",
          "type": "address"
        },
        {
          "indexed": true,
          "internalType": "address",
          "name": "newOwner",
          "type": "address"
        }
      ],
      "name": "OwnershipTransferred",
      "type": "event"
    },
    {
      "anonymous": false,
      "inputs": [
        {
          "indexed": true,
          "internalType": "address",
          "name": "from",
          "type": "address"
        },
        {
          "indexed": true,
          "internalType": "address",
          "name": "to",
          "type": "address"
        },
        {
          "indexed": false,
          "internalType": "uint256",
          "name": "value",
          "type": "uint256"
        }
      ],
      "name": "Transfer",
      "type": "event"
    },
    {
      "anonymous": false,
      "inputs": [
        {
          "indexed": true,
          "internalType": "address",
          "name": "newTreasury",
          "type": "address"
        }
      ],
      "name": "TreasuryChanged",
      "type": "event"
    },
    {
      "inputs": [],
      "name": "adapter",
      "outputs": [
        {
          "internalType": "address",
          "name": "",
          "type": "address"
        }
      ],
      "stateMutability": "view",
      "type": "function"
    },
    {
      "inputs": [
        {
          "internalType": "address",
          "name": "owner",
          "type": "address"
        },
        {
          "internalType": "address",
          "name": "spender",
          "type": "address"
        }
      ],
      "name": "allowance",
      "outputs": [
        {
          "internalType": "uint256",
          "name": "",
          "type": "uint256"
        }
      ],
      "stateMutability": "view",
      "type": "function"
    },
    {
      "inputs": [
        {
          "internalType": "address",
          "name": "spender",
          "type": "address"
        },
        {
          "internalType": "uint256",
          "name": "amount",
          "type": "uint256"
        }
      ],
      "name": "approve",
      "outputs": [
        {
          "internalType": "bool",
          "name": "",
          "type": "bool"
        }
      ],
      "stateMutability": "nonpayable",
      "type": "function"
    },
    {
      "inputs": [
        {
          "internalType": "address",
          "name": "account",
          "type": "address"
        }
      ],
      "name": "balanceOf",
      "outputs": [
        {
          "internalType": "uint256",
          "name": "",
          "type": "uint256"
        }
      ],
      "stateMutability": "view",
      "type": "function"
    },
    {
      "inputs": [
        {
          "internalType": "address",
          "name": "from",
          "type": "address"
        },
        {
          "internalType": "uint256",
          "name": "amount",
          "type": "uint256"
        }
      ],
      "name": "burn",
      "outputs": [],
      "stateMutability": "nonpayable",
      "type": "function"
    },
    {
      "inputs": [],
      "name": "chainId",
      "outputs": [
        {
          "internalType": "uint256",
          "name": "",
          "type": "uint256"
        }
      ],
      "stateMutability": "view",
      "type": "function"
    },
    {
      "inputs": [],
      "name": "decimals",
      "outputs": [
        {
          "internalType": "uint8",
          "name": "",
          "type": "uint8"
        }
      ],
      "stateMutability": "view",
      "type": "function"
    },
    {
      "inputs": [
        {
          "internalType": "address",
          "name": "spender",
          "type": "address"
        },
        {
          "internalType": "uint256",
          "name": "subtractedValue",
          "type": "uint256"
        }
      ],
      "name": "decreaseAllowance",
      "outputs": [
        {
          "internalType": "bool",
          "name": "",
          "type": "bool"
        }
      ],
      "stateMutability": "nonpayable",
      "type": "function"
    },
    {
      "inputs": [
        {
          "internalType": "address",
          "name": "",
          "type": "address"
        }
      ],
      "name": "feeExempt",
      "outputs": [
        {
          "internalType": "bool",
          "name": "",
          "type": "bool"
        }
      ],
      "stateMutability": "view",
      "type": "function"
    },
    {
      "inputs": [
        {
          "internalType": "address",
          "name": "spender",
          "type": "address"
        },
        {
          "internalType": "uint256",
          "name": "addedValue",
          "type": "uint256"
        }
      ],
      "name": "increaseAllowance",
      "outputs": [
        {
          "internalType": "bool",
          "name": "",
          "type": "bool"
        }
      ],
      "stateMutability": "nonpayable",
      "type": "function"
    },
    {
      "inputs": [
        {
          "internalType": "address",
          "name": "to",
          "type": "address"
        },
        {
          "internalType": "uint256",
          "name": "amount",
          "type": "uint256"
        }
      ],
      "name": "mint",
      "outputs": [],
      "stateMutability": "nonpayable",
      "type": "function"
    },
    {
      "inputs": [],
      "name": "name",
      "outputs": [
        {
          "internalType": "string",
          "name": "",
          "type": "string"
        }
      ],
      "stateMutability": "view",
      "type": "function"
    },
    {
      "inputs": [],
      "name": "owner",
      "outputs": [
        {
          "internalType": "address",
          "name": "",
          "type": "address"
        }
      ],
      "stateMutability": "view",
      "type": "function"
    },
    {
      "inputs": [],
      "name": "renounceOwnership",
      "outputs": [],
      "stateMutability": "nonpayable",
      "type": "function"
    },
    {
      "inputs": [
        {
          "internalType": "address",
          "name": "_adapter",
          "type": "address"
        }
      ],
      "name": "setAdapter",
      "outputs": [],
      "stateMutability": "nonpayable",
      "type": "function"
    },
    {
      "inputs": [
        {
          "internalType": "uint256",
          "name": "bps",
          "type": "uint256"
        }
      ],
      "name": "setFee",
      "outputs": [],
      "stateMutability": "nonpayable",
      "type": "function"
    },
    {
      "inputs": [
        {
          "internalType": "address",
          "name": "user",
          "type": "address"
        },
        {
          "internalType": "bool",
          "name": "exempt",
          "type": "bool"
        }
      ],
      "name": "setFeeExempt",
      "outputs": [],
      "stateMutability": "nonpayable",
      "type": "function"
    },
    {
      "inputs": [
        {
          "internalType": "address",
          "name": "_treasury",
          "type": "address"
        }
      ],
      "name": "setTreasury",
      "outputs": [],
      "stateMutability": "nonpayable",
      "type": "function"
    },
    {
      "inputs": [],
      "name": "symbol",
      "outputs": [
        {
          "internalType": "string",
          "name": "",
          "type": "string"
        }
      ],
      "stateMutability": "view",
      "type": "function"
    },
    {
      "inputs": [],
      "name": "totalSupply",
      "outputs": [
        {
          "internalType": "uint256",
          "name": "",
          "type": "uint256"
        }
      ],
      "stateMutability": "view",
      "type": "function"
    },
    {
      "inputs": [
        {
          "internalType": "address",
          "name": "to",
          "type": "address"
        },
        {
          "internalType": "uint256",
          "name": "amount",
          "type": "uint256"
        }
      ],
      "name": "transfer",
      "outputs": [
        {
          "internalType": "bool",
          "name": "",
          "type": "bool"
        }
      ],
      "stateMutability": "nonpayable",
      "type": "function"
    },
    {
      "inputs": [
        {
          "internalType": "address",
          "name": "from",
          "type": "address"
        },
        {
          "internalType": "address",
          "name": "to",
          "type": "address"
        },
        {
          "internalType": "uint256",
          "name": "amount",
          "type": "uint256"
        }
      ],
      "name": "transferFrom",
      "outputs": [
        {
          "internalType": "bool",
          "name": "",
          "type": "bool"
        }
      ],
      "stateMutability": "nonpayable",
      "type": "function"
    },
    {
      "inputs": [
        {
          "internalType": "address",
          "name": "newOwner",
          "type": "address"
        }
      ],
      "name": "transferOwnership",
      "outputs": [],
      "stateMutability": "nonpayable",
      "type": "function"
    },
    {
      "inputs": [],
      "name": "treasury",
      "outputs": [
        {
          "internalType": "address",
          "name": "",
          "type": "address"
        }
      ],
      "stateMutability": "view",
      "type": "function"
    },
    {
      "inputs": [],
      "name": "treasuryFeeBps",
      "outputs": [
        {
          "internalType": "uint256",
          "name": "",
          "type": "uint256"
        }
      ],
      "stateMutability": "view",
      "type": "function"
    }
  ],
  "bytecode": "0x60806040523480156200001157600080fd5b506040516200138b3803806200138b833981016040819052620000349162000161565b6040518060400160405280600a8152602001695772617070656420583360b01b8152506040518060400160405280600381526020016277583360e81b815250816003908162000084919062000249565b50600462000093828262000249565b505050620000b0620000aa620000ee60201b60201c565b620000f2565b600680546001600160a01b039485166001600160a01b0319918216179091556007805493909416921691909117909155600955603260085562000315565b3390565b600580546001600160a01b038381166001600160a01b0319831681179093556040519116919082907f8be0079c531659141344cd1fd0a4f28419497f9722a3daafe3b4186f6b6457e090600090a35050565b80516001600160a01b03811681146200015c57600080fd5b919050565b6000806000606084860312156200017757600080fd5b620001828462000144565b9250620001926020850162000144565b9150604084015190509250925092565b634e487b7160e01b600052604160045260246000fd5b600181811c90821680620001cd57607f821691505b602082108103620001ee57634e487b7160e01b600052602260045260246000fd5b50919050565b601f82111562000244576000816000526020600020601f850160051c810160208610156200021f5750805b601f850160051c820191505b8181101562000240578281556001016200022b565b5050505b505050565b81516001600160401b03811115620002655762000265620001a2565b6200027d81620002768454620001b8565b84620001f4565b602080601f831160018114620002b557600084156200029c5750858301515b600019600386901b1c1916600185901b17855562000240565b600085815260208120601f198616915b82811015620002e657888601518255948401946001909101908401620002c5565b5085821015620003055787850151600019600388901b60f8161c191681555b5050505050600190811b01905550565b61106680620003256000396000f3fe608060405234801561001057600080fd5b50600436106101735760003560e01c8063715018a6116100de578063a457c2d711610097578063dd62ed3e11610071578063dd62ed3e14610337578063e80cfa5e1461034a578063f0f4426014610353578063f2fde38b1461036657600080fd5b8063a457c2d7146102fe578063a9059cbb14610311578063ab1da79c1461032457600080fd5b8063715018a6146102ae5780638da5cb5b146102b65780638ebfc796146102c757806395d89b41146102da5780639a8a0592146102e25780639dc29fac146102eb57600080fd5b806339509351116101305780633950935114610214578063398daa851461022757806340c10f191461024a57806361d027b31461025f57806369fe0e2d1461027257806370a082311461028557600080fd5b806303eadcfc1461017857806306fdde03146101a8578063095ea7b3146101bd57806318160ddd146101e057806323b872dd146101f2578063313ce56714610205575b600080fd5b60075461018b906001600160a01b031681565b6040516001600160a01b0390911681526020015b60405180910390f35b6101b0610379565b60405161019f9190610e06565b6101d06101cb366004610e71565b61040b565b604051901515815260200161019f565b6002545b60405190815260200161019f565b6101d0610200366004610e9b565b610425565b6040516012815260200161019f565b6101d0610222366004610e71565b610449565b6101d0610235366004610ed7565b600a6020526000908152604090205460ff1681565b61025d610258366004610e71565b61046b565b005b60065461018b906001600160a01b031681565b61025d610280366004610ef9565b610532565b6101e4610293366004610ed7565b6001600160a01b031660009081526020819052604090205490565b61025d610575565b6005546001600160a01b031661018b565b61025d6102d5366004610f12565b610589565b6101b06105f0565b6101e460095481565b61025d6102f9366004610e71565b6105ff565b6101d061030c366004610e71565b610656565b6101d061031f366004610e71565b6106d1565b61025d610332366004610ed7565b6106df565b6101e4610345366004610f4e565b610731565b6101e460085481565b61025d610361366004610ed7565b61075c565b61025d610374366004610ed7565b6107ae565b60606003805461038890610f81565b80601f01602080910402602001604051908101604052809291908181526020018280546103b490610f81565b80156104015780601f106103d657610100808354040283529160200191610401565b820191906000526020600020905b8154815290600101906020018083116103e457829003601f168201915b5050505050905090565b600033610419818585610827565b60019150505b92915050565b60003361043385828561094b565b61043e8585856109c5565b506001949350505050565b60003361041981858561045c8383610731565b6104669190610fd1565b610827565b6007546001600160a01b031633146104b95760405162461bcd60e51b815260206004820152600c60248201526b27b7363c9030b230b83a32b960a11b60448201526064015b60405180910390fd5b6001600160a01b0382166000908152600a602052604081205460ff166104f957612710600854836104ea9190610fe4565b6104f49190610ffb565b6104fc565b60005b9050801561051a5760065461051a906001600160a01b031682610b69565b61052d83610528838561101d565b610b69565b505050565b61053a610c28565b60088190556040518181527f8c4d35e54a3f2ef1134138fd8ea3daee6a3c89e10d2665996babdf70261e2c769060200160405180910390a150565b61057d610c28565b6105876000610c82565b565b610591610c28565b6001600160a01b0382166000818152600a6020908152604091829020805460ff191685151590811790915591519182527f3c2ffbcbb112b509bd5950ceeacf73a964be7e4386c19a4325729127d884052f910160405180910390a25050565b60606004805461038890610f81565b6007546001600160a01b031633146106485760405162461bcd60e51b815260206004820152600c60248201526b27b7363c9030b230b83a32b960a11b60448201526064016104b0565b6106528282610cd4565b5050565b600033816106648286610731565b9050838110156106c45760405162461bcd60e51b815260206004820152602560248201527f45524332303a2064656372656173656420616c6c6f77616e63652062656c6f77604482015264207a65726f60d81b60648201526084016104b0565b61043e8286868403610827565b6000336104198185856109c5565b6106e7610c28565b600780546001600160a01b0319166001600160a01b0383169081179091556040517fa3b58806382f53f51f4e331febaba873954108bfd909dfe4ce75930767fd0a3a90600090a250565b6001600160a01b03918216600090815260016020908152604080832093909416825291909152205490565b610764610c28565b600680546001600160a01b0319166001600160a01b0383169081179091556040517fc714d22a2f08b695f81e7c707058db484aa5b4d6b4c9fd64beb10fe85832f60890600090a250565b6107b6610c28565b6001600160a01b03811661081b5760405162461bcd60e51b815260206004820152602660248201527f4f776e61626c653a206e6577206f776e657220697320746865207a65726f206160448201526564647265737360d01b60648201526084016104b0565b61082481610c82565b50565b6001600160a01b0383166108895760405162461bcd60e51b8152602060048201526024808201527f45524332303a20617070726f76652066726f6d20746865207a65726f206164646044820152637265737360e01b60648201526084016104b0565b6001600160a01b0382166108ea5760405162461bcd60e51b815260206004820152602260248201527f45524332303a20617070726f766520746f20746865207a65726f206164647265604482015261737360f01b60648201526084016104b0565b6001600160a01b0383811660008181526001602090815260408083209487168084529482529182902085905590518481527f8c5be1e5ebec7d5bd14f71427d1e84f3dd0314c0f7b2291e5b200ac8c7c3b925910160405180910390a3505050565b60006109578484610731565b905060001981146109bf57818110156109b25760405162461bcd60e51b815260206004820152601d60248201527f45524332303a20696e73756666696369656e7420616c6c6f77616e636500000060448201526064016104b0565b6109bf8484848403610827565b50505050565b6001600160a01b038316610a295760405162461bcd60e51b815260206004820152602560248201527f45524332303a207472616e736665722066726f6d20746865207a65726f206164604482015264647265737360d81b60648201526084016104b0565b6001600160a01b038216610a8b5760405162461bcd60e51b815260206004820152602360248201527f45524332303a207472616e7366657220746f20746865207a65726f206164647260448201526265737360e81b60648201526084016104b0565b6001600160a01b03831660009081526020819052604090205481811015610b035760405162461bcd60e51b815260206004820152602660248201527f45524332303a207472616e7366657220616d6f756e7420657863656564732062604482015265616c616e636560d01b60648201526084016104b0565b6001600160a01b03848116600081815260208181526040808320878703905593871680835291849020805487019055925185815290927fddf252ad1be2c89b69c2b068fc378daa952ba7f163c4a11628f55a4df523b3ef910160405180910390a36109bf565b6001600160a01b038216610bbf5760405162461bcd60e51b815260206004820152601f60248201527f45524332303a206d696e7420746f20746865207a65726f20616464726573730060448201526064016104b0565b8060026000828254610bd19190610fd1565b90915550506001600160a01b038216600081815260208181526040808320805486019055518481527fddf252ad1be2c89b69c2b068fc378daa952ba7f163c4a11628f55a4df523b3ef910160405180910390a35050565b6005546001600160a01b031633146105875760405162461bcd60e51b815260206004820181905260248201527f4f776e61626c653a2063616c6c6572206973206e6f7420746865206f776e657260448201526064016104b0565b600580546001600160a01b038381166001600160a01b0319831681179093556040519116919082907f8be0079c531659141344cd1fd0a4f28419497f9722a3daafe3b4186f6b6457e090600090a35050565b6001600160a01b038216610d345760405162461bcd60e51b815260206004820152602160248201527f45524332303a206275726e2066726f6d20746865207a65726f206164647265736044820152607360f81b60648201526084016104b0565b6001600160a01b03821660009081526020819052604090205481811015610da85760405162461bcd60e51b815260206004820152602260248201527f45524332303a206275726e20616d6f756e7420657863656564732062616c616e604482015261636560f01b60648201526084016104b0565b6001600160a01b0383166000818152602081815260408083208686039055600280548790039055518581529192917fddf252ad1be2c89b69c2b068fc378daa952ba7f163c4a11628f55a4df523b3ef910160405180910390a3505050565b60006020808352835180602085015260005b81811015610e3457858101830151858201604001528201610e18565b506000604082860101526040601f19601f8301168501019250505092915050565b80356001600160a01b0381168114610e6c57600080fd5b919050565b60008060408385031215610e8457600080fd5b610e8d83610e55565b946020939093013593505050565b600080600060608486031215610eb057600080fd5b610eb984610e55565b9250610ec760208501610e55565b9150604084013590509250925092565b600060208284031215610ee957600080fd5b610ef282610e55565b9392505050565b600060208284031215610f0b57600080fd5b5035919050565b60008060408385031215610f2557600080fd5b610f2e83610e55565b915060208301358015158114610f4357600080fd5b809150509250929050565b60008060408385031215610f6157600080fd5b610f6a83610e55565b9150610f7860208401610e55565b90509250929050565b600181811c90821680610f9557607f821691505b602082108103610fb557634e487b7160e01b600052602260045260246000fd5b50919050565b634e487b7160e01b600052601160045260246000fd5b8082018082111561041f5761041f610fbb565b808202811582820484141761041f5761041f610fbb565b60008261101857634e487b7160e01b600052601260045260246000fd5b500490565b8181038181111561041f5761041f610fbb56fea264697066735822122003ea9790c8c6983ab7a2af7b110d0c2321df9770892f3f1e90433c16d528a1d764736f6c63430008180033",
  "linkReferences": {},
  "deployedLinkReferences": {}
}