{"src/Counter.sol":{"Counter":{"abi":[{"type":"constructor","inputs":[],"stateMutability":"nonpayable"},{"type":"function","name":"decrement","inputs":[],"outputs":[{"name":"","type":"uint256","internalType":"uint256"}],"stateMutability":"nonpayable"},{"type":"function","name":"getCount","inputs":[],"outputs":[{"name":"","type":"uint256","internalType":"uint256"}],"stateMutability":"view"},{"type":"function","name":"increment","inputs":[],"outputs":[{"name":"","type":"uint256","internalType":"uint256"}],"stateMutability":"nonpayable"},{"type":"function","name":"owner","inputs":[],"outputs":[{"name":"","type":"address","internalType":"address"}],"stateMutability":"view"},{"type":"function","name":"reset","inputs":[],"outputs":[],"stateMutability":"nonpayable"},{"type":"event","name":"CounterDecremented","inputs":[{"name":"newCount","type":"uint256","indexed":false,"internalType":"uint256"},{"name":"sender","type":"address","indexed":true,"internalType":"address"}],"anonymous":false},{"type":"event","name":"CounterIncremented","inputs":[{"name":"newCount","type":"uint256","indexed":false,"internalType":"uint256"},{"name":"sender","type":"address","indexed":true,"internalType":"address"}],"anonymous":false}],"userdoc":{},"devdoc":{},"evm":{"bytecode":{"object":"608060405234801561001057600080fd5b50600180546001600160a01b031916331790556000805561026d806100366000396000f3fe608060405234801561001057600080fd5b50600436106100575760003560e01c80632baeceb71461005c5780638da5cb5b14610077578063a87d942c146100a2578063d09de08a146100aa578063d826f88f146100b2575b600080fd5b6100646100bc565b6040519081526020015b60405180910390f35b60015461008a906001600160a01b031681565b6040516001600160a01b03909116815260200161006e565b600054610064565b61006461015a565b6100ba6101a8565b005b600080600054116101035760405162461bcd60e51b815260206004820152600c60248201526b436f756e746572207a65726f60a01b60448201526064015b60405180910390fd5b6001600080828254610115919061020b565b909155505060005460405190815233907fd9c54a7ce09befe3fdcb8df8a148bf9539a6bf2a9ea228578ee5b784daf15253906020015b60405180910390a25060005490565b6000600160008082825461016e9190610224565b909155505060005460405190815233907f721c20121297512b72821b97f5326877ea8ecf4bb9948fea5bfcb6453074d37f9060200161014b565b6001546001600160a01b031633146101ef5760405162461bcd60e51b815260206004820152600a60248201526927b7363c9037bbb732b960b11b60448201526064016100fa565b60008055565b634e487b7160e01b600052601160045260246000fd5b8181038181111561021e5761021e6101f5565b92915050565b8082018082111561021e5761021e6101f556fea2646970667358221220f93c16c21c967505da9aa75a86fe85e0ff3da7fd1f3c914bfec58ed3d829da3e64736f6c63430008130033","linkReferences":{}},"methodIdentifiers":{"decrement()":"2baeceb7","getCount()":"a87d942c","increment()":"d09de08a","owner()":"8da5cb5b","reset()":"d826f88f"}}}}}