{"abi":[{"type":"constructor","inputs":[{"name":"pool","type":"address","internalType":"address"},{"name":"underlyingAsset","type":"address","internalType":"address"},{"name":"name_","type":"string","internalType":"string"},{"name":"symbol_","type":"string","internalType":"string"}],"stateMutability":"nonpayable"},{"type":"function","name":"POOL","inputs":[],"outputs":[{"name":"","type":"address","internalType":"address"}],"stateMutability":"view"},{"type":"function","name":"UNDERLYING_ASSET","inputs":[],"outputs":[{"name":"","type":"address","internalType":"address"}],"stateMutability":"view"},{"type":"function","name":"allowance","inputs":[{"name":"owner","type":"address","internalType":"address"},{"name":"spender","type":"address","internalType":"address"}],"outputs":[{"name":"","type":"uint256","internalType":"uint256"}],"stateMutability":"view"},{"type":"function","name":"approve","inputs":[{"name":"spender","type":"address","internalType":"address"},{"name":"value","type":"uint256","internalType":"uint256"}],"outputs":[{"name":"","type":"bool","internalType":"bool"}],"stateMutability":"nonpayable"},{"type":"function","name":"approveDelegation","inputs":[{"name":"delegatee","type":"address","internalType":"address"},{"name":"amount","type":"uint256","internalType":"uint256"}],"outputs":[],"stateMutability":"nonpayable"},{"type":"function","name":"averageStableRate","inputs":[],"outputs":[{"name":"","type":"uint256","internalType":"uint256"}],"stateMutability":"view"},{"type":"function","name":"balanceOf","inputs":[{"name":"account","type":"address","internalType":"address"}],"outputs":[{"name":"","type":"uint256","internalType":"uint256"}],"stateMutability":"view"},{"type":"function","name":"borrowAllowances","inputs":[{"name":"","type":"address","internalType":"address"},{"name":"","type":"address","internalType":"address"}],"outputs":[{"name":"","type":"uint256","internalType":"uint256"}],"stateMutability":"view"},{"type":"function","name":"burn","inputs":[{"name":"from","type":"address","internalType":"address"},{"name":"amount","type":"uint256","internalType":"uint256"}],"outputs":[{"name":"","type":"uint256","internalType":"uint256"}],"stateMutability":"nonpayable"},{"type":"function","name":"decimals","inputs":[],"outputs":[{"name":"","type":"uint8","internalType":"uint8"}],"stateMutability":"view"},{"type":"function","name":"getAverageStableRate","inputs":[],"outputs":[{"name":"","type":"uint256","internalType":"uint256"}],"stateMutability":"view"},{"type":"function","name":"getUserStableRate","inputs":[{"name":"user","type":"address","internalType":"address"}],"outputs":[{"name":"","type":"uint256","internalType":"uint256"}],"stateMutability":"view"},{"type":"function","name":"mint","inputs":[{"name":"user","type":"address","internalType":"address"},{"name":"onBehalfOf","type":"address","internalType":"address"},{"name":"amount","type":"uint256","internalType":"uint256"},{"name":"rate","type":"uint256","internalType":"uint256"}],"outputs":[{"name":"","type":"bool","internalType":"bool"},{"name":"","type":"uint256","internalType":"uint256"}],"stateMutability":"nonpayable"},{"type":"function","name":"name","inputs":[],"outputs":[{"name":"","type":"string","internalType":"string"}],"stateMutability":"view"},{"type":"function","name":"principalBalanceOf","inputs":[{"name":"account","type":"address","internalType":"address"}],"outputs":[{"name":"","type":"uint256","internalType":"uint256"}],"stateMutability":"view"},{"type":"function","name":"symbol","inputs":[],"outputs":[{"name":"","type":"string","internalType":"string"}],"stateMutability":"view"},{"type":"function","name":"totalSupply","inputs":[],"outputs":[{"name":"","type":"uint256","internalType":"uint256"}],"stateMutability":"view"},{"type":"function","name":"totalSupplyLastUpdated","inputs":[],"outputs":[{"name":"","type":"uint40","internalType":"uint40"}],"stateMutability":"view"},{"type":"function","name":"transfer","inputs":[{"name":"","type":"address","internalType":"address"},{"name":"","type":"uint256","internalType":"uint256"}],"outputs":[{"name":"","type":"bool","internalType":"bool"}],"stateMutability":"pure"},{"type":"function","name":"transferFrom","inputs":[{"name":"","type":"address","internalType":"address"},{"name":"","type":"address","internalType":"address"},{"name":"","type":"uint256","internalType":"uint256"}],"outputs":[{"name":"","type":"bool","internalType":"bool"}],"stateMutability":"pure"},{"type":"function","name":"userLastUpdateTimestamp","inputs":[{"name":"","type":"address","internalType":"address"}],"outputs":[{"name":"","type":"uint40","internalType":"uint40"}],"stateMutability":"view"},{"type":"function","name":"userStableRate","inputs":[{"name":"","type":"address","internalType":"address"}],"outputs":[{"name":"","type":"uint256","internalType":"uint256"}],"stateMutability":"view"},{"type":"event","name":"Approval","inputs":[{"name":"owner","type":"address","indexed":true,"internalType":"address"},{"name":"spender","type":"address","indexed":true,"internalType":"address"},{"name":"value","type":"uint256","indexed":false,"internalType":"uint256"}],"anonymous":false},{"type":"event","name":"Burn","inputs":[{"name":"from","type":"address","indexed":true,"internalType":"address"},{"name":"amount","type":"uint256","indexed":false,"internalType":"uint256"},{"name":"currentBalance","type":"uint256","indexed":false,"internalType":"uint256"},{"name":"balanceIncrease","type":"uint256","indexed":false,"internalType":"uint256"},{"name":"avgStableRate","type":"uint256","indexed":false,"internalType":"uint256"},{"name":"newTotalSupply","type":"uint256","indexed":false,"internalType":"uint256"}],"anonymous":false},{"type":"event","name":"Mint","inputs":[{"name":"user","type":"address","indexed":true,"internalType":"address"},{"name":"onBehalfOf","type":"address","indexed":true,"internalType":"address"},{"name":"amount","type":"uint256","indexed":false,"internalType":"uint256"},{"name":"currentBalance","type":"uint256","indexed":false,"internalType":"uint256"},{"name":"balanceIncrease","type":"uint256","indexed":false,"internalType":"uint256"},{"name":"newRate","type":"uint256","indexed":false,"internalType":"uint256"},{"name":"avgStableRate","type":"uint256","indexed":false,"internalType":"uint256"},{"name":"newTotalSupply","type":"uint256","indexed":false,"internalType":"uint256"}],"anonymous":false},{"type":"event","name":"Transfer","inputs":[{"name":"from","type":"address","indexed":true,"internalType":"address"},{"name":"to","type":"address","indexed":true,"internalType":"address"},{"name":"value","type":"uint256","indexed":false,"internalType":"uint256"}],"anonymous":false},{"type":"error","name":"ERC20InsufficientAllowance","inputs":[{"name":"spender","type":"address","internalType":"address"},{"name":"allowance","type":"uint256","internalType":"uint256"},{"name":"needed","type":"uint256","internalType":"uint256"}]},{"type":"error","name":"ERC20InsufficientBalance","inputs":[{"name":"sender","type":"address","internalType":"address"},{"name":"balance","type":"uint256","internalType":"uint256"},{"name":"needed","type":"uint256","internalType":"uint256"}]},{"type":"error","name":"ERC20InvalidApprover","inputs":[{"name":"approver","type":"address","internalType":"address"}]},{"type":"error","name":"ERC20InvalidReceiver","inputs":[{"name":"receiver","type":"address","internalType":"address"}]},{"type":"error","name":"ERC20InvalidSender","inputs":[{"name":"sender","type":"address","internalType":"address"}]},{"type":"error","name":"ERC20InvalidSpender","inputs":[{"name":"spender","type":"address","internalType":"address"}]}],"bytecode":{"object":"0x60c0604052346200036057620010ec803803806200001d8162000364565b9283398101608082820312620003605762000038826200038a565b90602090620000498285016200038a565b604085015190946001600160401b03918281116200036057836200006f9183016200039f565b92606082015183811162000360576200008992016200039f565b82518281116200026b576003918254916001958684811c9416801562000355575b8885101462000341578190601f94858111620002ee575b5088908583116001146200028b575f926200027f575b50505f1982861b1c191690861b1783555b80519384116200026b5760049586548681811c9116801562000260575b828210146200024d5783811162000205575b50809285116001146200019b57509383949184925f956200018f575b50501b925f19911b1c19161790555b60805260a05264ffffffffff421664ffffffffff19600a541617600a55604051610cdc90816200041082396080518181816102cd01528181610555015261080f015260a051816101a50152f35b015193505f8062000133565b92919084601f198116885f52855f20955f905b89838310620001ea5750505010620001d0575b50505050811b01905562000142565b01519060f8845f19921b161c191690555f808080620001c1565b858701518955909701969485019488935090810190620001ae565b875f52815f208480880160051c82019284891062000243575b0160051c019087905b8281106200023757505062000117565b5f815501879062000227565b925081926200021e565b602288634e487b7160e01b5f525260245ffd5b90607f169062000105565b634e487b7160e01b5f52604160045260245ffd5b015190505f80620000d7565b90889350601f19831691875f528a5f20925f5b8c828210620002d75750508411620002bf575b505050811b018355620000e8565b01515f1983881b60f8161c191690555f8080620002b1565b8385015186558c979095019493840193016200029e565b909150855f52885f208580850160051c8201928b861062000337575b918a91869594930160051c01915b82811062000328575050620000c1565b5f81558594508a910162000318565b925081926200030a565b634e487b7160e01b5f52602260045260245ffd5b93607f1693620000aa565b5f80fd5b6040519190601f01601f191682016001600160401b038111838210176200026b57604052565b51906001600160a01b03821682036200036057565b919080601f84011215620003605782516001600160401b0381116200026b57602090620003d5601f8201601f1916830162000364565b9281845282828701011162000360575f5b818110620003fb5750825f9394955001015290565b8581018301518482018401528201620003e656fe6080604081815260049182361015610015575f80fd5b5f92833560e01c91826306fdde03146109fe57508163095ea7b3146109545781630bdfb1d81461090b57816318160ddd146108ec57816323b872dd146108c95781632e90d85714610889578163313ce5671461086d57816370a082311461083e5781637535d246146107fa5781638bed106f146107d257816390f6fcf2146107b357816395d89b41146106945781639dc29fac14610525578163a9059cbb14610503578163b3f1c93d1461029157508063c04a8a1014610253578063c634dfaa1461021c578063dd62ed3e146101d4578063e602539314610191578063e78c9b3b1461015a578063f27990021461013c5763f4fcdc5014610114575f80fd5b3461013857816003193601126101385760209064ffffffffff600a54169051908152f35b5080fd5b50346101385781600319360112610138576020906009549051908152f35b50346101385760203660031901126101385760209181906001600160a01b03610181610b1d565b1681526005845220549051908152f35b5034610138578160031936011261013857517f00000000000000000000000000000000000000000000000000000000000000006001600160a01b03168152602090f35b5034610138578060031936011261013857806020926101f1610b1d565b6101f9610b37565b6001600160a01b0391821683526001865283832091168252845220549051908152f35b50346101385760203660031901126101385760209181906001600160a01b03610243610b1d565b1681526007845220549051908152f35b503461013857806003193601126101385761026c610b1d565b338352600b60209081528284206001600160a01b039092168452528120602435905580f35b9050346104ff5760803660031901126104ff576102ac610b1d565b926102b5610b37565b606435949091604435916001600160a01b036102f4337f0000000000000000000000000000000000000000000000000000000000000000831614610b4d565b80851691169381850361046c575b61030b90610bda565b959150928281526020956007875288822054159785155f146103ea5750867fc16f4e4ca34d790de4c656c72fd015c667d688f20be64eea360618545c4c530f928a60c0936103df9a9b9c9d905b6103628b8b610bc0565b89855260078652838520556005855281838520558264ffffffffff42169460068752209364ffffffffff199481868254161790556103a28c600854610bc0565b9485600855600a541617600a556103b98b8b610bc0565b92600954938151968d88528701528501526060840152608083015260a0820152a3610bc0565b908351928352820152f35b996104109061040a88610404898e60058e52882054610b99565b92610b99565b90610bc0565b61041a8787610bc0565b908115610459578a899a9b9c5060c0936103df9a937fc16f4e4ca34d790de4c656c72fd015c667d688f20be64eea360618545c4c530f96930490610358565b634e487b7160e01b845260128c52602484fd5b818352600b602052868320858452602052868320548481106104ab57908461030b92848652600b60205289862088875260205203888520559050610302565b875162461bcd60e51b8152602081890152602860248201527f537461626c6544656274546f6b656e3a20696e73756666696369656e742064656044820152673632b3b0ba34b7b760c11b6064820152608490fd5b8280fd5b505034610138573660031901126105225761051c610b1d565b50610c57565b80fd5b919050346104ff57806003193601126104ff57610540610b1d565b602435939092906001600160a01b0361057c337f0000000000000000000000000000000000000000000000000000000000000000831614610b4d565b61058585610bda565b949091508782106106435750957f44bd20a79e993bdcc7cbedf54a3b4d19fb78490124b6b90d04fe3242eea579e89260a0926105c38360209a610bcd565b9716948582526007895287878320558715610635575b8664ffffffffff42169260068b52209164ffffffffff1992818482541617905561060584600854610bcd565b9283600855600a541617600a55600954908751938452888a8501528784015260608301526080820152a251908152f35b6005895281878120556105d9565b608490602087519162461bcd60e51b8352820152602560248201527f537461626c6544656274546f6b656e3a206275726e20657863656564732062616044820152646c616e636560d81b6064820152fd5b838334610138578160031936011261013857805190828454600181811c908083169283156107a9575b60209384841081146107965783885290811561077a5750600114610725575b505050829003601f01601f191682019267ffffffffffffffff841183851017610712575082918261070e925282610ad6565b0390f35b634e487b7160e01b815260418552602490fd5b8787529192508591837f8a35acfbc15ff81a39ae7d344fd709f28e8600b4aa8c65c6b64bfe7fe36bd19b5b83851061076657505050508301018580806106dc565b805488860183015293019284908201610750565b60ff1916878501525050151560051b84010190508580806106dc565b634e487b7160e01b895260228a52602489fd5b91607f16916106bd565b5050346101385781600319360112610138576020906009549051908152f35b5050346101385760203660031901126101385760209181906001600160a01b03610181610b1d565b505034610138578160031936011261013857517f00000000000000000000000000000000000000000000000000000000000000006001600160a01b03168152602090f35b5050346101385760203660031901126101385760209061086461085f610b1d565b610bda565b50915191825250f35b5050346101385781600319360112610138576020905160128152f35b5050346101385760203660031901126101385760209164ffffffffff9082906001600160a01b036108b8610b1d565b168152600685522054169051908152f35b8334610522576060366003190112610522576108e3610b1d565b5061051c610b37565b5050346101385781600319360112610138576020906008549051908152f35b50503461013857806003193601126101385780602092610929610b1d565b610931610b37565b6001600160a01b039182168352600b865283832091168252845220549051908152f35b9050346104ff57816003193601126104ff5761096e610b1d565b6024359033156109e7576001600160a01b03169182156109d057508083602095338152600187528181208582528752205582519081527f8c5be1e5ebec7d5bd14f71427d1e84f3dd0314c0f7b2291e5b200ac8c7c3b925843392a35160018152f35b8351634a1406b160e11b8152908101859052602490fd5b835163e602df0560e01b8152808401869052602490fd5b849084346104ff57826003193601126104ff5782600354600181811c90808316928315610acc575b60209384841081146107965783885290811561077a5750600114610a7657505050829003601f01601f191682019267ffffffffffffffff841183851017610712575082918261070e925282610ad6565b600387529192508591837fc2575a0e9e593c00f959f8c92f12db2869c3395a3b0502d05e2516446f71f85b5b838510610ab857505050508301018580806106dc565b805488860183015293019284908201610aa2565b91607f1691610a26565b602080825282518183018190529093925f5b828110610b0957505060409293505f838284010152601f8019910116010190565b818101860151848201604001528501610ae8565b600435906001600160a01b0382168203610b3357565b5f80fd5b602435906001600160a01b0382168203610b3357565b15610b5457565b60405162461bcd60e51b815260206004820152601a60248201527f537461626c6544656274546f6b656e3a206f6e6c7920706f6f6c0000000000006044820152606490fd5b81810292918115918404141715610bac57565b634e487b7160e01b5f52601160045260245ffd5b91908201809211610bac57565b91908203918211610bac57565b6001600160a01b03165f9081526007602052604081205491908215610c4f57610c3f6e0612d847b578e7643c28ac00000000916005602052610c3a610c3364ffffffffff60408085205494600660205220541642610bcd565b9186610b99565b610b99565b0490610c4b8284610bc0565b9190565b915081908190565b60405162461bcd60e51b815260206004820152602160248201527f537461626c6544656274546f6b656e3a206e6f6e2d7472616e7366657261626c6044820152606560f81b6064820152608490fdfea264697066735822122083e172d0c559483447a7a760a0ea5c9d525fe7e525493564a8f60b743b7bc0cd64736f6c63430008140033","linkReferences":{}},"methodIdentifiers":{"POOL()":"7535d246","UNDERLYING_ASSET()":"e6025393","allowance(address,address)":"dd62ed3e","approve(address,uint256)":"095ea7b3","approveDelegation(address,uint256)":"c04a8a10","averageStableRate()":"f2799002","balanceOf(address)":"70a08231","borrowAllowances(address,address)":"0bdfb1d8","burn(address,uint256)":"9dc29fac","decimals()":"313ce567","getAverageStableRate()":"90f6fcf2","getUserStableRate(address)":"e78c9b3b","mint(address,address,uint256,uint256)":"b3f1c93d","name()":"06fdde03","principalBalanceOf(address)":"c634dfaa","symbol()":"95d89b41","totalSupply()":"18160ddd","totalSupplyLastUpdated()":"f4fcdc50","transfer(address,uint256)":"a9059cbb","transferFrom(address,address,uint256)":"23b872dd","userLastUpdateTimestamp(address)":"2e90d857","userStableRate(address)":"8bed106f"},"id":37}