{
  "_format": "hh-sol-artifact-1",
  "contractName": "UniversalAdapter",
  "sourceName": "adapters/UniversalAdapter.sol",
  "abi": [
    {
      "anonymous": false,
      "inputs": [
        {
          "indexed": true,
          "internalType": "address",
          "name": "bridge",
          "type": "address"
        }
      ],
      "name": "BridgeSet",
      "type": "event"
    },
    {
      "anonymous": false,
      "inputs": [
        {
          "indexed": true,
          "internalType": "uint256",
          "name": "chainId",
          "type": "uint256"
        },
        {
          "indexed": false,
          "internalType": "address",
          "name": "bridge",
          "type": "address"
        }
      ],
      "name": "ChainRegistered",
      "type": "event"
    },
    {
      "anonymous": false,
      "inputs": [
        {
          "indexed": true,
          "internalType": "address",
          "name": "operator",
          "type": "address"
        },
        {
          "indexed": false,
          "internalType": "bool",
          "name": "enabled",
          "type": "bool"
        }
      ],
      "name": "OperatorSet",
      "type": "event"
    },
    {
      "inputs": [],
      "name": "bridge",
      "outputs": [
        {
          "internalType": "address",
          "name": "",
          "type": "address"
        }
      ],
      "stateMutability": "view",
      "type": "function"
    },
    {
      "inputs": [
        {
          "internalType": "uint256",
          "name": "",
          "type": "uint256"
        }
      ],
      "name": "chainRegistry",
      "outputs": [
        {
          "internalType": "address",
          "name": "",
          "type": "address"
        }
      ],
      "stateMutability": "view",
      "type": "function"
    },
    {
      "inputs": [
        {
          "internalType": "address",
          "name": "wrapped",
          "type": "address"
        },
        {
          "internalType": "address",
          "name": "user",
          "type": "address"
        },
        {
          "internalType": "uint256",
          "name": "amount",
          "type": "uint256"
        },
        {
          "internalType": "uint256",
          "name": "chainId",
          "type": "uint256"
        }
      ],
      "name": "deposit",
      "outputs": [],
      "stateMutability": "nonpayable",
      "type": "function"
    },
    {
      "inputs": [
        {
          "internalType": "address",
          "name": "",
          "type": "address"
        }
      ],
      "name": "isOperator",
      "outputs": [
        {
          "internalType": "bool",
          "name": "",
          "type": "bool"
        }
      ],
      "stateMutability": "view",
      "type": "function"
    },
    {
      "inputs": [
        {
          "internalType": "uint256",
          "name": "chainId",
          "type": "uint256"
        },
        {
          "internalType": "address",
          "name": "bridgeAddr",
          "type": "address"
        }
      ],
      "name": "registerChain",
      "outputs": [],
      "stateMutability": "nonpayable",
      "type": "function"
    },
    {
      "inputs": [
        {
          "internalType": "address",
          "name": "_bridge",
          "type": "address"
        }
      ],
      "name": "setBridge",
      "outputs": [],
      "stateMutability": "nonpayable",
      "type": "function"
    },
    {
      "inputs": [
        {
          "internalType": "address",
          "name": "operator",
          "type": "address"
        },
        {
          "internalType": "bool",
          "name": "enabled",
          "type": "bool"
        }
      ],
      "name": "setOperator",
      "outputs": [],
      "stateMutability": "nonpayable",
      "type": "function"
    },
    {
      "inputs": [
        {
          "internalType": "address",
          "name": "wrapped",
          "type": "address"
        },
        {
          "internalType": "address",
          "name": "user",
          "type": "address"
        },
        {
          "internalType": "uint256",
          "name": "amount",
          "type": "uint256"
        },
        {
          "internalType": "uint256",
          "name": "chainId",
          "type": "uint256"
        }
      ],
      "name": "withdraw",
      "outputs": [],
      "stateMutability": "nonpayable",
      "type": "function"
    }
  ],
  "bytecode": "0x608060405234801561001057600080fd5b506104f5806100206000396000f3fe608060405234801561001057600080fd5b50600436106100885760003560e01c80637e25b5f81161005b5780637e25b5f81461010057806383e279a8146101135780638dd1480214610154578063e78cea921461016757600080fd5b806320e8c5651461008d578063558a7297146100a25780636d70f7ae146100b55780637bfe950c146100ed575b600080fd5b6100a061009b3660046103da565b61017a565b005b6100a06100b036600461041c565b610236565b6100d86100c3366004610458565b60026020526000908152604090205460ff1681565b60405190151581526020015b60405180910390f35b6100a06100fb3660046103da565b610296565b6100a061010e36600461047a565b610319565b61013c6101213660046104a6565b6001602052600090815260409020546001600160a01b031681565b6040516001600160a01b0390911681526020016100e4565b6100a0610162366004610458565b610376565b60005461013c906001600160a01b031681565b3360009081526002602052604090205460ff166101cd5760405162461bcd60e51b815260206004820152600c60248201526b2737ba1037b832b930ba37b960a11b60448201526064015b60405180910390fd5b6040516340c10f1960e01b81526001600160a01b038481166004830152602482018490528516906340c10f19906044015b600060405180830381600087803b15801561021857600080fd5b505af115801561022c573d6000803e3d6000fd5b5050505050505050565b6001600160a01b038216600081815260026020908152604091829020805460ff191685151590811790915591519182527f1a594081ae893ab78e67d9b9e843547318164322d32c65369d78a96172d9dc8f91015b60405180910390a25050565b3360009081526002602052604090205460ff166102e45760405162461bcd60e51b815260206004820152600c60248201526b2737ba1037b832b930ba37b960a11b60448201526064016101c4565b604051632770a7eb60e21b81526001600160a01b03848116600483015260248201849052851690639dc29fac906044016101fe565b60008281526001602090815260409182902080546001600160a01b0319166001600160a01b038516908117909155915191825283917f7f74812a5c28f04eea9007878d0e63eb304afe494a442babbe1b2875fbc1cfd6910161028a565b600080546001600160a01b0319166001600160a01b038316908117825560405190917fa49730bff544fd0b716395c592e39c6fd2d2481a19b9229b5b240483db95a49591a250565b80356001600160a01b03811681146103d557600080fd5b919050565b600080600080608085870312156103f057600080fd5b6103f9856103be565b9350610407602086016103be565b93969395505050506040820135916060013590565b6000806040838503121561042f57600080fd5b610438836103be565b91506020830135801515811461044d57600080fd5b809150509250929050565b60006020828403121561046a57600080fd5b610473826103be565b9392505050565b6000806040838503121561048d57600080fd5b8235915061049d602084016103be565b90509250929050565b6000602082840312156104b857600080fd5b503591905056fea2646970667358221220fc7aec80e00671051d251cdd9196b62926eaa40449666d3b7cb86a7466f0a73e64736f6c63430008180033",
  "linkReferences": {},
  "deployedLinkReferences": {}
}