{"abi":[{"type":"constructor","inputs":[{"name":"_priceOracle","type":"address","internalType":"address"}],"stateMutability":"nonpayable"},{"type":"function","name":"MAX_LIQUIDATION_BONUS","inputs":[],"outputs":[{"name":"","type":"uint256","internalType":"uint256"}],"stateMutability":"view"},{"type":"function","name":"MAX_LIQUIDATION_THRESHOLD","inputs":[],"outputs":[{"name":"","type":"uint256","internalType":"uint256"}],"stateMutability":"view"},{"type":"function","name":"MAX_LTV","inputs":[],"outputs":[{"name":"","type":"uint256","internalType":"uint256"}],"stateMutability":"view"},{"type":"function","name":"MIN_LIQUIDATION_BONUS","inputs":[],"outputs":[{"name":"","type":"uint256","internalType":"uint256"}],"stateMutability":"view"},{"type":"function","name":"PERCENTAGE_FACTOR","inputs":[],"outputs":[{"name":"","type":"uint256","internalType":"uint256"}],"stateMutability":"view"},{"type":"function","name":"addEModeCategory","inputs":[{"name":"categoryId","type":"uint8","internalType":"uint8"},{"name":"ltv","type":"uint16","internalType":"uint16"},{"name":"liquidationThreshold","type":"uint16","internalType":"uint16"},{"name":"liquidationBonus","type":"uint16","internalType":"uint16"},{"name":"priceSource","type":"address","internalType":"address"},{"name":"label","type":"string","internalType":"string"}],"outputs":[],"stateMutability":"nonpayable"},{"type":"function","name":"canLiquidate","inputs":[{"name":"user","type":"address","internalType":"address"},{"name":"collateralValueUSD","type":"uint256","internalType":"uint256"},{"name":"debtValueUSD","type":"uint256","internalType":"uint256"}],"outputs":[{"name":"","type":"bool","internalType":"bool"}],"stateMutability":"view"},{"type":"function","name":"collateralCount","inputs":[],"outputs":[{"name":"","type":"uint256","internalType":"uint256"}],"stateMutability":"view"},{"type":"function","name":"collateralList","inputs":[{"name":"","type":"uint256","internalType":"uint256"}],"outputs":[{"name":"","type":"address","internalType":"address"}],"stateMutability":"view"},{"type":"function","name":"configs","inputs":[{"name":"","type":"address","internalType":"address"}],"outputs":[{"name":"ltv","type":"uint16","internalType":"uint16"},{"name":"liquidationThreshold","type":"uint16","internalType":"uint16"},{"name":"liquidationBonus","type":"uint16","internalType":"uint16"},{"name":"decimals","type":"uint8","internalType":"uint8"},{"name":"active","type":"bool","internalType":"bool"},{"name":"frozen","type":"bool","internalType":"bool"},{"name":"borrowingEnabled","type":"bool","internalType":"bool"},{"name":"stableRateEnabled","type":"bool","internalType":"bool"},{"name":"isolationMode","type":"bool","internalType":"bool"},{"name":"debtCeiling","type":"uint256","internalType":"uint256"},{"name":"supplyCap","type":"uint256","internalType":"uint256"},{"name":"borrowCap","type":"uint256","internalType":"uint256"},{"name":"reserveFactor","type":"uint256","internalType":"uint256"},{"name":"eMode","type":"address","internalType":"address"}],"stateMutability":"view"},{"type":"function","name":"configureCollateral","inputs":[{"name":"asset","type":"address","internalType":"address"},{"name":"ltv","type":"uint16","internalType":"uint16"},{"name":"liquidationThreshold","type":"uint16","internalType":"uint16"},{"name":"liquidationBonus","type":"uint16","internalType":"uint16"},{"name":"decimals","type":"uint8","internalType":"uint8"}],"outputs":[],"stateMutability":"nonpayable"},{"type":"function","name":"eModeCategories","inputs":[{"name":"","type":"uint8","internalType":"uint8"}],"outputs":[{"name":"ltv","type":"uint16","internalType":"uint16"},{"name":"liquidationThreshold","type":"uint16","internalType":"uint16"},{"name":"liquidationBonus","type":"uint16","internalType":"uint16"},{"name":"priceSource","type":"address","internalType":"address"},{"name":"label","type":"string","internalType":"string"}],"stateMutability":"view"},{"type":"function","name":"getAllCollaterals","inputs":[],"outputs":[{"name":"","type":"address[]","internalType":"address[]"}],"stateMutability":"view"},{"type":"function","name":"getBorrowCap","inputs":[{"name":"asset","type":"address","internalType":"address"}],"outputs":[{"name":"","type":"uint256","internalType":"uint256"}],"stateMutability":"view"},{"type":"function","name":"getCollateralConfig","inputs":[{"name":"asset","type":"address","internalType":"address"}],"outputs":[{"name":"","type":"tuple","internalType":"struct CollateralManager.CollateralConfig","components":[{"name":"ltv","type":"uint16","internalType":"uint16"},{"name":"liquidationThreshold","type":"uint16","internalType":"uint16"},{"name":"liquidationBonus","type":"uint16","internalType":"uint16"},{"name":"decimals","type":"uint8","internalType":"uint8"},{"name":"active","type":"bool","internalType":"bool"},{"name":"frozen","type":"bool","internalType":"bool"},{"name":"borrowingEnabled","type":"bool","internalType":"bool"},{"name":"stableRateEnabled","type":"bool","internalType":"bool"},{"name":"isolationMode","type":"bool","internalType":"bool"},{"name":"debtCeiling","type":"uint256","internalType":"uint256"},{"name":"supplyCap","type":"uint256","internalType":"uint256"},{"name":"borrowCap","type":"uint256","internalType":"uint256"},{"name":"reserveFactor","type":"uint256","internalType":"uint256"},{"name":"eMode","type":"address","internalType":"address"}]}],"stateMutability":"view"},{"type":"function","name":"getEModeCategory","inputs":[{"name":"categoryId","type":"uint8","internalType":"uint8"}],"outputs":[{"name":"","type":"tuple","internalType":"struct CollateralManager.EModeCategory","components":[{"name":"ltv","type":"uint16","internalType":"uint16"},{"name":"liquidationThreshold","type":"uint16","internalType":"uint16"},{"name":"liquidationBonus","type":"uint16","internalType":"uint16"},{"name":"priceSource","type":"address","internalType":"address"},{"name":"label","type":"string","internalType":"string"}]}],"stateMutability":"view"},{"type":"function","name":"getLiquidationBonus","inputs":[{"name":"asset","type":"address","internalType":"address"},{"name":"user","type":"address","internalType":"address"}],"outputs":[{"name":"","type":"uint256","internalType":"uint256"}],"stateMutability":"view"},{"type":"function","name":"getLiquidationThreshold","inputs":[{"name":"asset","type":"address","internalType":"address"},{"name":"user","type":"address","internalType":"address"}],"outputs":[{"name":"","type":"uint256","internalType":"uint256"}],"stateMutability":"view"},{"type":"function","name":"getLtv","inputs":[{"name":"asset","type":"address","internalType":"address"},{"name":"user","type":"address","internalType":"address"}],"outputs":[{"name":"","type":"uint256","internalType":"uint256"}],"stateMutability":"view"},{"type":"function","name":"getMaxBorrowable","inputs":[{"name":"asset","type":"address","internalType":"address"},{"name":"user","type":"address","internalType":"address"},{"name":"collateralValueUSD","type":"uint256","internalType":"uint256"}],"outputs":[{"name":"","type":"uint256","internalType":"uint256"}],"stateMutability":"view"},{"type":"function","name":"getSupplyCap","inputs":[{"name":"asset","type":"address","internalType":"address"}],"outputs":[{"name":"","type":"uint256","internalType":"uint256"}],"stateMutability":"view"},{"type":"function","name":"isBorrowingEnabled","inputs":[{"name":"asset","type":"address","internalType":"address"}],"outputs":[{"name":"","type":"bool","internalType":"bool"}],"stateMutability":"view"},{"type":"function","name":"isCollateralEnabled","inputs":[{"name":"asset","type":"address","internalType":"address"}],"outputs":[{"name":"","type":"bool","internalType":"bool"}],"stateMutability":"view"},{"type":"function","name":"isStableRateEnabled","inputs":[{"name":"asset","type":"address","internalType":"address"}],"outputs":[{"name":"","type":"bool","internalType":"bool"}],"stateMutability":"view"},{"type":"function","name":"owner","inputs":[],"outputs":[{"name":"","type":"address","internalType":"address"}],"stateMutability":"view"},{"type":"function","name":"pool","inputs":[],"outputs":[{"name":"","type":"address","internalType":"address"}],"stateMutability":"view"},{"type":"function","name":"priceOracle","inputs":[],"outputs":[{"name":"","type":"address","internalType":"address"}],"stateMutability":"view"},{"type":"function","name":"renounceOwnership","inputs":[],"outputs":[],"stateMutability":"nonpayable"},{"type":"function","name":"setActive","inputs":[{"name":"asset","type":"address","internalType":"address"},{"name":"active","type":"bool","internalType":"bool"}],"outputs":[],"stateMutability":"nonpayable"},{"type":"function","name":"setBorrowingEnabled","inputs":[{"name":"asset","type":"address","internalType":"address"},{"name":"enabled","type":"bool","internalType":"bool"}],"outputs":[],"stateMutability":"nonpayable"},{"type":"function","name":"setCaps","inputs":[{"name":"asset","type":"address","internalType":"address"},{"name":"supplyCap","type":"uint256","internalType":"uint256"},{"name":"borrowCap","type":"uint256","internalType":"uint256"}],"outputs":[],"stateMutability":"nonpayable"},{"type":"function","name":"setFrozen","inputs":[{"name":"asset","type":"address","internalType":"address"},{"name":"frozen","type":"bool","internalType":"bool"}],"outputs":[],"stateMutability":"nonpayable"},{"type":"function","name":"setIsolationMode","inputs":[{"name":"asset","type":"address","internalType":"address"},{"name":"isolated","type":"bool","internalType":"bool"},{"name":"debtCeiling","type":"uint256","internalType":"uint256"}],"outputs":[],"stateMutability":"nonpayable"},{"type":"function","name":"setLtvParameters","inputs":[{"name":"asset","type":"address","internalType":"address"},{"name":"ltv","type":"uint16","internalType":"uint16"},{"name":"liquidationThreshold","type":"uint16","internalType":"uint16"},{"name":"liquidationBonus","type":"uint16","internalType":"uint16"}],"outputs":[],"stateMutability":"nonpayable"},{"type":"function","name":"setPool","inputs":[{"name":"_pool","type":"address","internalType":"address"}],"outputs":[],"stateMutability":"nonpayable"},{"type":"function","name":"setReserveFactor","inputs":[{"name":"asset","type":"address","internalType":"address"},{"name":"factor","type":"uint256","internalType":"uint256"}],"outputs":[],"stateMutability":"nonpayable"},{"type":"function","name":"setStableRateEnabled","inputs":[{"name":"asset","type":"address","internalType":"address"},{"name":"enabled","type":"bool","internalType":"bool"}],"outputs":[],"stateMutability":"nonpayable"},{"type":"function","name":"setUserEMode","inputs":[{"name":"user","type":"address","internalType":"address"},{"name":"categoryId","type":"uint8","internalType":"uint8"}],"outputs":[],"stateMutability":"nonpayable"},{"type":"function","name":"transferOwnership","inputs":[{"name":"newOwner","type":"address","internalType":"address"}],"outputs":[],"stateMutability":"nonpayable"},{"type":"function","name":"userEMode","inputs":[{"name":"","type":"address","internalType":"address"}],"outputs":[{"name":"","type":"uint8","internalType":"uint8"}],"stateMutability":"view"},{"type":"event","name":"BorrowingEnabled","inputs":[{"name":"asset","type":"address","indexed":true,"internalType":"address"},{"name":"enabled","type":"bool","indexed":false,"internalType":"bool"}],"anonymous":false},{"type":"event","name":"CapsSet","inputs":[{"name":"asset","type":"address","indexed":true,"internalType":"address"},{"name":"supplyCap","type":"uint256","indexed":false,"internalType":"uint256"},{"name":"borrowCap","type":"uint256","indexed":false,"internalType":"uint256"}],"anonymous":false},{"type":"event","name":"CollateralActivated","inputs":[{"name":"asset","type":"address","indexed":true,"internalType":"address"},{"name":"active","type":"bool","indexed":false,"internalType":"bool"}],"anonymous":false},{"type":"event","name":"CollateralConfigured","inputs":[{"name":"asset","type":"address","indexed":true,"internalType":"address"},{"name":"ltv","type":"uint256","indexed":false,"internalType":"uint256"},{"name":"liquidationThreshold","type":"uint256","indexed":false,"internalType":"uint256"},{"name":"liquidationBonus","type":"uint256","indexed":false,"internalType":"uint256"}],"anonymous":false},{"type":"event","name":"CollateralFrozen","inputs":[{"name":"asset","type":"address","indexed":true,"internalType":"address"},{"name":"frozen","type":"bool","indexed":false,"internalType":"bool"}],"anonymous":false},{"type":"event","name":"EModeCategoryAdded","inputs":[{"name":"id","type":"uint8","indexed":true,"internalType":"uint8"},{"name":"label","type":"string","indexed":false,"internalType":"string"}],"anonymous":false},{"type":"event","name":"IsolationModeSet","inputs":[{"name":"asset","type":"address","indexed":true,"internalType":"address"},{"name":"isolated","type":"bool","indexed":false,"internalType":"bool"},{"name":"debtCeiling","type":"uint256","indexed":false,"internalType":"uint256"}],"anonymous":false},{"type":"event","name":"OwnershipTransferred","inputs":[{"name":"previousOwner","type":"address","indexed":true,"internalType":"address"},{"name":"newOwner","type":"address","indexed":true,"internalType":"address"}],"anonymous":false},{"type":"event","name":"UserEModeChanged","inputs":[{"name":"user","type":"address","indexed":true,"internalType":"address"},{"name":"eMode","type":"uint8","indexed":false,"internalType":"uint8"}],"anonymous":false},{"type":"error","name":"OwnableInvalidOwner","inputs":[{"name":"owner","type":"address","internalType":"address"}]},{"type":"error","name":"OwnableUnauthorizedAccount","inputs":[{"name":"account","type":"address","internalType":"address"}]}],"bytecode":{"object":"0x6080346100c257601f6120da38819003918201601f19168301916001600160401b038311848410176100c6578084926020946040528339810103126100c257516001600160a01b0390818116908190036100c25733156100aa575f5460018060a01b03199033828216175f55604051933391167f8be0079c531659141344cd1fd0a4f28419497f9722a3daafe3b4186f6b6457e05f80a36004541617600455611fff90816100db8239f35b604051631e4fbdf760e01b81525f6004820152602490fd5b5f80fd5b634e487b7160e01b5f52604160045260245ffdfe60806040526004361015610011575f80fd5b5f3560e01c8063096b6eab146118db5780630ac715631461156757806316f0115b1461153f5780631cd61a291461151c57806320c3b03d146114f35780632630c12f146114cb5780632ce621ed146114af5780632ce962cf1461142b5780633024a912146113e957806332936c44146113bd57806337442b6c146113675780633d68dc841461132c5780634437152a1461129e57806344b0aef5146112635780634b4e6753146111c9578063528377b5146111725780635c4af24f146110dc578063715018a61461108557806381bf8d3d14611069578063858dae2c1461102e57806387309f8b146110125780638da5cb5b14610feb5780639b697d3d14610bbd5780639e682254146105e5578063a41c8c0b14610af9578063ac869cd814610a6f578063aebf95fc14610909578063b6e156d6146108dd578063b6faaf8a146108c0578063cb245e5b14610833578063d1778cd6146107f3578063d69d4cdc14610713578063d9bfdb41146106b1578063e5a2e6fa146105ea578063ee01e5e7146105e5578063efeec38c1461057e578063f2fde38b146104f4578063f5125d3f146104c0578063f6a44b38146102b65763fce89878146101d1575f80fd5b346102b25760203660031901126102b2576101c06001600160a01b03806101f6611b0e565b165f52600160205260405f209081549160018101549160028201546003830154916005600485015494015416936040519561ffff8082168852808260101c1660208901528160201c16604088015260ff90818160301c166060890152818160381c1615156080890152818160401c16151560a0890152818160481c16151560c0890152818160501c16151560e089015260581c1615156101008701526101208601526101408501526101608401526101808301526101a0820152f35b5f80fd5b346102b25760203660031901126102b2576102cf611b0e565b5f6101a06040516102df816119bd565b8281528260208201528260408201528260608201528260808201528260a08201528260c08201528260e08201528261010082015282610120820152826101408201528261016082015282610180820152015260018060a01b03165f5260016020526101c060405f20604051610353816119bd565b81549161ffff8316825261ffff8360101c16602083015261ffff8360201c16604083015260ff8360301c16606083015260ff8360381c161515608083015260ff8360401c16151560a083015260ff8360481c16151560c083015260ff8360501c16151560e083015260ff8360581c1615156101008301526001810154610120830152600281015461014083015260038101546101608301526004810154610180830152600560018060a01b03910154166101a082015261ffff6040519216825261ffff602082015116602083015261ffff604082015116604083015260ff606082015116606083015260808101511515608083015260a0810151151560a083015260c0810151151560c083015260e0810151151560e083015261010081015115156101008301526101208101516101208301526101408101516101408301526101608101516101608301526101808101516101808301526101a060018060a01b03910151166101a0820152f35b346102b25760403660031901126102b25760206104ec6104de611b0e565b6104e6611b24565b90611ca6565b604051908152f35b346102b25760203660031901126102b25761050d611b0e565b610515611bd8565b6001600160a01b03908116908115610566575f54826bffffffffffffffffffffffff60a01b8216175f55167f8be0079c531659141344cd1fd0a4f28419497f9722a3daafe3b4186f6b6457e05f80a3005b604051631e4fbdf760e01b81525f6004820152602490fd5b346102b25760407f6806c6169898920521cc6099da39b1c3207743aa68299fb40eb9cc655f645f356105af36611b3a565b93916105b9611bd8565b60018060a01b031693845f526001602052806003845f20846002820155015582519182526020820152a2005b611bbc565b346102b25760403660031901126102b257610603611b0e565b6024359060ff82168092036102b2576005546001600160a01b0391908216330361066c577f41d4f02358fd9776ee2335fd9b7c69559a06d4231d7005722e41bfcd96ff8ce8916020911692835f526003825260405f208160ff19825416179055604051908152a2005b60405162461bcd60e51b815260206004820152601c60248201527f436f6c6c61746572616c4d616e616765723a206f6e6c7920706f6f6c000000006044820152606490fd5b346102b25760403660031901126102b2576107116106cd611b0e565b6106d5611b64565b906106de611bd8565b6001600160a01b03165f908152600160205260409020805460ff60501b191691151560501b60ff60501b16919091179055565b005b346102b2576020806003193601126102b25760ff61072f611959565b6060608060405161073f816119a1565b5f81525f868201525f60408201525f838201520152165f526002815260405f20906107ef60405191610770836119a1565b835461ffff94858216855285838601818460101c1681528160408801918186881c1683526107b2600160608b0196818060a01b03809960301c168852016119fc565b9660808a019788526040519a8b9a828c525116908a01525116604088015251166060860152511660808401525160a08084015260c0830190611a9d565b0390f35b346102b25760203660031901126102b2576001600160a01b03610814611b0e565b165f526001602052602060ff60405f205460501c166040519015158152f35b346102b25760403660031901126102b25761084c611b0e565b7ff831e2504297237f801b3c2100da4048c5ecef759e8c5015879eabd26802567e6020610877611b64565b92610880611bd8565b6001600160a01b03165f8181526001835260409020805469ff000000000000000000191685151560481b60ff60481b16179055925b6040519015158152a2005b346102b2575f3660031901126102b2576020600654604051908152f35b346102b25760403660031901126102b25760206104ec6108fb611b0e565b610903611b24565b90611ddb565b346102b25760803660031901126102b257610922611b0e565b61092a611adb565b90610933611aec565b61093b611afd565b91610944611bd8565b6001600160a01b03165f8181526001602052604090205490939060381c60ff1615610a2a57610a25836109ff7f117efbf6baef2ab42e375f47484578c94789b4c29afc68e56619ac552b3131289561ffff6109b481871680926109ab612328831115611c03565b89161015611c4f565b5f898152600160209081526040909120805465ffffffff00001990931665ffffffffffff199093169290921763ffff000060108a901b161792901b65ffff0000000016919091179055565b6040805161ffff9485168152948416602086015292169183019190915281906060820190565b0390a2005b60405162461bcd60e51b815260206004820152601d60248201527f436f6c6c61746572616c4d616e616765723a206e6f74206163746976650000006044820152606490fd5b346102b25760403660031901126102b257610a88611b0e565b7f5d92b1ac00ba05a7cbe656da7e84f7622aeb0f2b489b68e54e8ddf8c0241a5ce6020610ab3611b64565b92610abc611bd8565b6001600160a01b03165f81815260018352604090819020805468ff0000000000000000191686151590921b60ff60401b16919091179055926108b5565b346102b2575f3660031901126102b257604051806006548083526020809301809160065f527ff652222313e28459528d920b65115c16c04f3efc82aaedc97be59f3f377c0d3f905f5b86828210610ba0578686610b58828803836119da565b60405192839281840190828552518091526040840192915f5b828110610b8057505050500390f35b83516001600160a01b031685528695509381019392810192600101610b71565b83546001600160a01b031685529093019260019283019201610b42565b346102b25760a03660031901126102b257610bd6611b0e565b610bde611adb565b90610be7611aec565b610bef611afd565b9160843560ff81168091036102b257610c06611bd8565b6001600160a01b03821615610fa65761ffff8516610c28612328821115611c03565b61ffff8416906126488211610f5357610c4381831015611c4f565b61ffff86169261271084101580610f47575b15610f035760ff9360018060a01b0386165f52600160205260405f20549360405193610c80856119bd565b8452602084015260408301526060820152600160808201525f60a0820152600160c08201525f60e08201525f6101008201525f6101208201525f6101408201525f6101608201526103e86101808201525f6101a082015260018060a01b0384165f526001602052600560405f2061ffff83511661ffff19825416178155610d2461ffff602085015116829063ffff000082549160101b169063ffff00001916179055565b60408381015182546060860151608087015160a088015160c089015160e08a01516101008b015190151560501b60ff60501b1691151560481b60ff60481b1692151590971b60ff60401b1692151560381b60ff60381b16603094851b66ff0000000000001660209790971b65ffff00000000166bffffffffffffffff000000001990961695909517959095179390931717919091179190911791151560581b60ff60581b1691909117825561012084015160018301556101408401516002830155610160840151600383015561018084015160048301556101a090930151910180546001600160a01b039092166001600160a01b03199092169190911790551c1615610e80575b6040805161ffff9586168152928516602084015293909216928101929092526001600160a01b0316907f117efbf6baef2ab42e375f47484578c94789b4c29afc68e56619ac552b313128908060608101610a25565b60065468010000000000000000811015610eef577f117efbf6baef2ab42e375f47484578c94789b4c29afc68e56619ac552b31312893610ec9826001610a259401600655611b73565b81546001600160a01b0386811660039390931b92831b921b19161790559350610e2b9050565b634e487b7160e01b5f52604160045260245ffd5b606460405162461bcd60e51b815260206004820152602060248201527f436f6c6c61746572616c4d616e616765723a20696e76616c696420626f6e75736044820152fd5b50612cec841115610c55565b60405162461bcd60e51b815260206004820152602560248201527f436f6c6c61746572616c4d616e616765723a207468726573686f6c6420746f6f604482015264040d0d2ced60db1b6064820152608490fd5b60405162461bcd60e51b815260206004820152601d60248201527f436f6c6c61746572616c4d616e616765723a207a65726f2061737365740000006044820152606490fd5b346102b2575f3660031901126102b2575f546040516001600160a01b039091168152602090f35b346102b2575f3660031901126102b2576020604051612cec8152f35b346102b25760203660031901126102b2576001600160a01b0361104f611b0e565b165f5260016020526020600260405f200154604051908152f35b346102b2575f3660031901126102b25760206040516123288152f35b346102b2575f3660031901126102b25761109d611bd8565b5f80546001600160a01b0319811682556001600160a01b03167f8be0079c531659141344cd1fd0a4f28419497f9722a3daafe3b4186f6b6457e08280a3005b346102b25760603660031901126102b2576110f5611b0e565b7f92e3786062cd07e331b724e50d5998afbf6e1adfea7661998c0518110d80ba146040611120611b64565b6044359361112c611bd8565b6001600160a01b03165f8181526001602081905290849020805460ff60581b191684151560581b60ff60581b1617815591959182910155825191151582526020820152a2005b346102b25760203660031901126102b2576001600160a01b03611193611b0e565b165f526001602052602060405f205460ff8160381c1690816111bb575b506040519015158152f35b61ffff9150161515826111b0565b346102b25760403660031901126102b2576111e2611b0e565b602435906111ee611bd8565b6127108211611213576001600160a01b03165f90815260016020526040902060040155005b60405162461bcd60e51b815260206004820152602260248201527f436f6c6c61746572616c4d616e616765723a20666163746f7220746f6f2068696044820152610ced60f31b6064820152608490fd5b346102b25760203660031901126102b2576001600160a01b03611284611b0e565b165f526003602052602060ff60405f205416604051908152f35b346102b25760203660031901126102b2576112b7611b0e565b6112bf611bd8565b600554906001600160a01b03908183166112e7576001600160a01b0319909216911617600555005b60405162461bcd60e51b815260206004820152601e60248201527f436f6c6c61746572616c4d616e616765723a20616c72656164792073657400006044820152606490fd5b346102b25760203660031901126102b2576001600160a01b0361134d611b0e565b165f5260016020526020600360405f200154604051908152f35b346102b25760203660031901126102b2576001600160a01b03611388611b0e565b165f526001602052602060405f205460ff8160381c1690816113af57506040519015158152f35b60ff915060481c16826111b0565b346102b25760403660031901126102b25760206104ec6113db611b0e565b6113e3611b24565b90611d3e565b346102b25760203660031901126102b2576004356006548110156102b257611412602091611b73565b905460405160039290921b1c6001600160a01b03168152f35b346102b25760403660031901126102b257611444611b0e565b7fa37116c022cd4c3e265392c8535afb1dcfcdaa925ed02e98d6428b455d336d93602061146f611b64565b92611478611bd8565b6001600160a01b03165f8181526001835260409020805467ff00000000000000191685151560381b60ff60381b16179055926108b5565b346102b2575f3660031901126102b25760206040516126488152f35b346102b2575f3660031901126102b2576004546040516001600160a01b039091168152602090f35b346102b25760603660031901126102b25760206104ec6115146104de611b0e565b604435611f2d565b346102b257602061153561152f36611b3a565b91611e9d565b6040519015158152f35b346102b2575f3660031901126102b2576005546040516001600160a01b039091168152602090f35b346102b25760c03660031901126102b257611580611959565b611588611adb565b611590611aec565b611598611afd565b6084356001600160a01b0381169291908390036102b25767ffffffffffffffff60a435116102b25736602360a4350112156102b25767ffffffffffffffff60a43560040135116102b25736602460a4356004013560a4350101116102b2576115fe611bd8565b60ff85161561188a5761ffff8092816040519661161a886119a1565b16865216602085015216604083015260608201526040519061164c6020601f19601f60a43560040135011601836119da565b60a43560048101358084529060240160208401375f602060a43560040135840101526080810191825260ff83165f526002602052606060405f209161ffff81511661ffff198454161783556116be61ffff602083015116849063ffff000082549160101b169063ffff00001916179055565b6040810151835465ffff00000000191660209190911b65ffff0000000016178355015181546601000000000000600160d01b03191660309190911b6601000000000000600160d01b0316178155905180516001928301929167ffffffffffffffff8211610eef5761172f8454611969565b601f8111611842575b50602090601f83116001146117e2579282939183925f946117d7575b50501b915f199060031b1c19161790555b7f8205d29eb0feb481c4a7992374230912cf4722e3d726e8d83f24241e2613501a60ff604051926020845260a43560040135602085015260a43560040135602460a4350160408601375f604060a43560040135860101521691604081601f19601f60a4356004013501168101030190a2005b015192508680611754565b90601f19831691855f528360205f20935f5b8782821061182957505010611811575b505050811b019055611765565b01515f1960f88460031b161c19169055848080611804565b84860151875590950194602094850194879350016117f4565b845f5260205f20601f840160051c81019160208510611880575b601f0160051c019084905b828110611875575050611738565b5f8155018490611867565b909150819061185c565b60405162461bcd60e51b815260206004820152602360248201527f436f6c6c61746572616c4d616e616765723a20696e76616c69642063617465676044820152626f727960e81b6064820152608490fd5b346102b25760203660031901126102b25760ff6118f6611959565b165f52600260205260405f206119106001825492016119fc565b906107ef60405192839261ffff8082168552808260101c1660208601528160201c16604085015260018060a01b039060301c16606084015260a0608084015260a0830190611a9d565b6004359060ff821682036102b257565b90600182811c92168015611997575b602083101461198357565b634e487b7160e01b5f52602260045260245ffd5b91607f1691611978565b60a0810190811067ffffffffffffffff821117610eef57604052565b6101c0810190811067ffffffffffffffff821117610eef57604052565b90601f8019910116810190811067ffffffffffffffff821117610eef57604052565b9060405191825f825492611a0f84611969565b9081845260019485811690815f14611a7a5750600114611a3a575b5050611a38925003836119da565b565b909391505f52602090815f20935f915b818310611a62575050611a3893508201015f80611a2a565b85548884018501529485019487945091830191611a4a565b915050611a3894506020925060ff191682840152151560051b8201015f80611a2a565b91908251928382525f5b848110611ac7575050825f602080949584010152601f8019910116010190565b602081830181015184830182015201611aa7565b6024359061ffff821682036102b257565b6044359061ffff821682036102b257565b6064359061ffff821682036102b257565b600435906001600160a01b03821682036102b257565b602435906001600160a01b03821682036102b257565b60609060031901126102b2576004356001600160a01b03811681036102b257906024359060443590565b6024359081151582036102b257565b600654811015611ba85760065f527ff652222313e28459528d920b65115c16c04f3efc82aaedc97be59f3f377c0d3f01905f90565b634e487b7160e01b5f52603260045260245ffd5b346102b2575f3660031901126102b25760206040516127108152f35b5f546001600160a01b03163303611beb57565b60405163118cdaa760e01b8152336004820152602490fd5b15611c0a57565b60405162461bcd60e51b815260206004820152601f60248201527f436f6c6c61746572616c4d616e616765723a206c747620746f6f2068696768006044820152606490fd5b15611c5657565b60405162461bcd60e51b815260206004820152602260248201527f436f6c6c61746572616c4d616e616765723a207468726573686f6c64203c206c6044820152613a3b60f11b6064820152608490fd5b60018060a01b0390815f93168352600360205260ff60408420541680611cdc575b501681526001602052604090205461ffff1690565b8352600260205260408320604051611cf3816119a1565b611d2a60018354938661ffff958681168652868160101c166020870152868160201c16604087015260301c166060850152016119fc565b608082015251168015611cc7579250505090565b60018060a01b0390815f93168352600360205260ff60408420541680611d77575b501681526001602052604090205460101c61ffff1690565b8352600260205260408320604051611d8e816119a1565b8154906080611dc9600161ffff958686168552886020860196888160101c168852888160201c16604088015260301c166060860152016119fc565b91015251168015611d5f579250505090565b60018060a01b03805f931683526020916003835260ff60408520541680611e14575b5016825260018152604090912054901c61ffff1690565b84526002835260408420604051611e2a816119a1565b8154906080611e63600161ffff958686168552868660101c168a86015288604086019688818d1c16885260301c166060860152016119fc565b91015251168015611dfd57935050505090565b81810292918115918404141715611e8957565b634e487b7160e01b5f52601160045260245ffd5b908215611f265760065415611f265760065f527ff652222313e28459528d920b65115c16c04f3efc82aaedc97be59f3f377c0d3f54611eee92611ee8916001600160a01b0316611d3e565b90611e76565b9061271080820291820403611e89578015611f1257670de0b6b3a764000091041090565b634e487b7160e01b5f52601260045260245ffd5b5050505f90565b9081158015611fc1575b611fbb578015611f12578061138819048211611f6a57611f5691611e76565b6113888101809111611e8957612710900490565b60405162461bcd60e51b815260206004820152602360248201527f50657263656e746167654d6174683a2070657263656e744d756c206f766572666044820152626c6f7760e81b6064820152608490fd5b50505f90565b508015611f3756fea2646970667358221220ffffa13ad515ccfe328cbfcebe5e55f229cbef3aa95d8a6a3e5a1af2cf99925a64736f6c63430008140033","linkReferences":{}},"methodIdentifiers":{"MAX_LIQUIDATION_BONUS()":"87309f8b","MAX_LIQUIDATION_THRESHOLD()":"2ce621ed","MAX_LTV()":"81bf8d3d","MIN_LIQUIDATION_BONUS()":"9e682254","PERCENTAGE_FACTOR()":"ee01e5e7","addEModeCategory(uint8,uint16,uint16,uint16,address,string)":"0ac71563","canLiquidate(address,uint256,uint256)":"1cd61a29","collateralCount()":"b6faaf8a","collateralList(uint256)":"3024a912","configs(address)":"fce89878","configureCollateral(address,uint16,uint16,uint16,uint8)":"9b697d3d","eModeCategories(uint8)":"096b6eab","getAllCollaterals()":"a41c8c0b","getBorrowCap(address)":"3d68dc84","getCollateralConfig(address)":"f6a44b38","getEModeCategory(uint8)":"d69d4cdc","getLiquidationBonus(address,address)":"b6e156d6","getLiquidationThreshold(address,address)":"32936c44","getLtv(address,address)":"f5125d3f","getMaxBorrowable(address,address,uint256)":"20c3b03d","getSupplyCap(address)":"858dae2c","isBorrowingEnabled(address)":"37442b6c","isCollateralEnabled(address)":"528377b5","isStableRateEnabled(address)":"d1778cd6","owner()":"8da5cb5b","pool()":"16f0115b","priceOracle()":"2630c12f","renounceOwnership()":"715018a6","setActive(address,bool)":"2ce962cf","setBorrowingEnabled(address,bool)":"cb245e5b","setCaps(address,uint256,uint256)":"efeec38c","setFrozen(address,bool)":"ac869cd8","setIsolationMode(address,bool,uint256)":"5c4af24f","setLtvParameters(address,uint16,uint16,uint16)":"aebf95fc","setPool(address)":"4437152a","setReserveFactor(address,uint256)":"4b4e6753","setStableRateEnabled(address,bool)":"d9bfdb41","setUserEMode(address,uint8)":"e5a2e6fa","transferOwnership(address)":"f2fde38b","userEMode(address)":"44b0aef5"},"id":29}