{"abi":[{"type":"function","name":"createCustomModel","inputs":[{"name":"optimalUtilization","type":"uint256","internalType":"uint256"},{"name":"baseRate","type":"uint256","internalType":"uint256"},{"name":"slope1","type":"uint256","internalType":"uint256"},{"name":"slope2","type":"uint256","internalType":"uint256"},{"name":"stableOffset","type":"uint256","internalType":"uint256"},{"name":"stableSlope1","type":"uint256","internalType":"uint256"},{"name":"stableSlope2","type":"uint256","internalType":"uint256"}],"outputs":[{"name":"","type":"address","internalType":"address"}],"stateMutability":"nonpayable"},{"type":"function","name":"createEthModel","inputs":[],"outputs":[{"name":"","type":"address","internalType":"address"}],"stateMutability":"nonpayable"},{"type":"function","name":"createStablecoinModel","inputs":[],"outputs":[{"name":"","type":"address","internalType":"address"}],"stateMutability":"nonpayable"},{"type":"function","name":"createVolatileModel","inputs":[],"outputs":[{"name":"","type":"address","internalType":"address"}],"stateMutability":"nonpayable"},{"type":"event","name":"ModelCreated","inputs":[{"name":"model","type":"address","indexed":true,"internalType":"address"},{"name":"name","type":"string","indexed":false,"internalType":"string"}],"anonymous":false}],"bytecode":{"object":"0x6080806040523461001657610f83908161001b8239f35b5f80fdfe60806040818152600480361015610014575f80fd5b5f9260e0908435821c908163abe90e041461030a57508063d621bcbf14610222578063dc6600151461015c5763f802a06c1461004e575f80fd5b34610158578360031936011261015857825191610b318084019184831067ffffffffffffffff84111761014557509083916103fd83396b01743b34e18439b50200000081526a108b2a2c280290940000008060208301526a39e7139a8c08fa06000000868301526b09b18ab5df7180b6b800000060608301526a295be96e64066972000000608083015260a08201526b04d8c55aefb8c05b5c00000060c082015203019083f0801561013a576020925060018060a01b031690815f80516020610f2e8339815191526060835186815260088782015267566f6c6174696c6560c01b85820152a251908152f35b5051903d90823e3d90fd5b634e487b7160e01b875260419052602486fd5b8380fd5b5034610158578060031936011261015857825191610b31908184019184831067ffffffffffffffff84111761020f57908492916103fd84393581526024356020820152604435858201526064356060820152608435608082015260a43560a082015260c43560c082015203019083f0801561013a576020925060018060a01b031690815f80516020610f2e8339815191526060835186815260068782015265437573746f6d60d01b85820152a251908152f35b634e487b7160e01b875260418252602487fd5b5034610158578360031936011261015857825191610b318084019184831067ffffffffffffffff84111761014557509083916103fd83396b0219aada9b14535aca00000081526a084595161401484a0000008060208301526a2116545850052128000000868301526b033b2e3c9fd0803ce800000060608301526a18d0bf423c03d8de000000608083015260a08201526b0295be96e64066972000000060c082015203019083f0801561013a576020925060018060a01b031690815f80516020610f2e833981519152606083518681526003878201526208aa8960eb1b85820152a251908152f35b929050346103f857846003193601126103f857610b318084019184831067ffffffffffffffff84111761014557509083916103fd83396b0295be96e64066972000000081528560208201526a2116545850052128000000858201526b026c62ad77dc602dae00000060608201526a108b2a2c2802909400000060808201526a0422ca8b0a00a42500000060a08201526b01f04ef12cb04cf15800000060c082015203019083f0801561013a576020925060018060a01b031690815f80516020610f2e83398151915260608351868152600a878201526929ba30b13632b1b7b4b760b11b85820152a251908152f35b8480fdfe6101603461018d57601f610b3138819003918201601f19168301916001600160401b038311848410176101915780849260e09460405283398101031261018d57805190602081015191604082015160608301519060808401519460c060a08601519501519380151580610178575b156101415760805260a05260c05260e0526101009283526101209182526101409081526040519161098b93846101a685396080518481816101e9015281816104e7015261065a015260a05184818161029e0152818161045801528181610547015281816105bc0152610634015260c0518481816101af0152818161027d0152818161051b015261059b015260e05184818160e2015281816102c401526105e301525183818161022301526106130152518281816103600152818161068e01526106e5015251818181610300015261070d0152f35b60405162461bcd60e51b815260206004820152600f60248201526e125b9d985b1a59081bdc1d1a5b585b608a1b6044820152606490fd5b506b033b2e3c9fd0803ce8000000811061006d565b5f80fd5b634e487b7160e01b5f52604160045260245ffdfe6040608081526004361015610012575f80fd5b5f90813560e01c806329624bcc1461038857806334762ca51461038357806337c24aa41461038357806352dee0f014610349578063552033c4146103235780635fdeef46146102e957806380031e371461026157806385c96306146102465780639386c4c21461020c578063a15f30ac146101d2578063b7291eea14610198578063c3fd608514610178578063dfc7b30d1461015d578063e6a69ab81461013f578063f5de8387146101095763f9fbf215146100cc575f80fd5b34610105578160031936011261010557602090517f00000000000000000000000000000000000000000000000000000000000000008152f35b5080fd5b50346101055760c03660031901126101055760209061013860a435608435606435604435602435600435610763565b9051908152f35b5034610105578160031936011261010557602090516301e133808152f35b5034610105576020906101386101723661047f565b5061060e565b5034610105576020366003190112610105576020906101386004356104e5565b5034610105578160031936011261010557602090517f00000000000000000000000000000000000000000000000000000000000000008152f35b5034610105578160031936011261010557602090517f00000000000000000000000000000000000000000000000000000000000000008152f35b5034610105578160031936011261010557602090517f00000000000000000000000000000000000000000000000000000000000000008152f35b50346101055760209061013861025b3661047f565b906104b6565b50346101055781600319360112610105576020906101386102c27f00000000000000000000000000000000000000000000000000000000000000007f0000000000000000000000000000000000000000000000000000000000000000610495565b7f000000000000000000000000000000000000000000000000000000000000000090610495565b5034610105578160031936011261010557602090517f00000000000000000000000000000000000000000000000000000000000000008152f35b5034610105578160031936011261010557602090516b033b2e3c9fd0803ce80000008152f35b5034610105578160031936011261010557602090517f00000000000000000000000000000000000000000000000000000000000000008152f35b610441565b5034610105576101203660031901126101055760643590608435906024356044356001600160a01b0360e4358181160361043d576101043590811680910361043d576060965061041f926104009290911561042f576103e6916104d8565b6103fb6004356103f68789610495565b610495565b6104b6565b610409816104e5565b936104138261060e565b95868660c43594610763565b9281519384526020840152820152f35b610438916104d8565b6103e6565b8680fd5b3461047b575f36600319011261047b5760206040517f00000000000000000000000000000000000000000000000000000000000000008152f35b5f80fd5b604090600319011261047b576004359060243590565b919082018092116104a257565b634e487b7160e01b5f52601160045260245ffd5b80156104d2576104c96104cf9282610495565b9061088a565b90565b50505f90565b919082039182116104a257565b7f00000000000000000000000000000000000000000000000000000000000000009081811161056b576104cf91610540610545927f0000000000000000000000000000000000000000000000000000000000000000906107e2565b61088a565b7f0000000000000000000000000000000000000000000000000000000000000000610495565b81610575916104d8565b6b033b2e3c9fd0803ce80000009182039182116104a2576106086104cf926105406105e07f00000000000000000000000000000000000000000000000000000000000000007f0000000000000000000000000000000000000000000000000000000000000000610495565b937f0000000000000000000000000000000000000000000000000000000000000000906107e2565b90610495565b6106587f00000000000000000000000000000000000000000000000000000000000000007f0000000000000000000000000000000000000000000000000000000000000000610495565b7f0000000000000000000000000000000000000000000000000000000000000000918281116106b3576104cf92610540610608927f0000000000000000000000000000000000000000000000000000000000000000906107e2565b826106bd916104d8565b906b033b2e3c9fd0803ce80000009283039283116104a2576104cf9261054061070a610608937f000000000000000000000000000000000000000000000000000000000000000090610495565b937f0000000000000000000000000000000000000000000000000000000000000000906107e2565b818102929181159184041417156104a257565b811561074f570490565b634e487b7160e01b5f52601260045260245ffd5b94939290926107728183610495565b9283156107d7576107989461078d6106089261079395610732565b92610732565b610745565b6b033b2e3c9fd0803ce800000091828102908082048414901517156104a257612710900482039182116104a2576104cf926107d2916107e2565b6107e2565b505050505050505f90565b9081158015610882575b6104d257801561074f57806b019d971e4fe8401e740000001904821161083d5761081591610732565b6b019d971e4fe8401e7400000081018091116104a2576b033b2e3c9fd0803ce8000000900490565b60405162461bcd60e51b815260206004820152601b60248201527f5761645261794d6174683a207261794d756c206f766572666c6f7700000000006044820152606490fd5b5080156107ec565b908015610910578060011c916b033b2e3c9fd0803ce8000000908184190481116108cb578181029181830414901517156104a2576104cf9261079391610495565b60405162461bcd60e51b815260206004820152601b60248201527f5761645261794d6174683a20726179446976206f766572666c6f7700000000006044820152606490fd5b60405162461bcd60e51b815260206004820152601a60248201527f5761645261794d6174683a20726179446976206279207a65726f0000000000006044820152606490fdfea26469706673582212206aa92eeaf5feffe7f0c70001a201d036619001add88cd171a1abcc1227c5fd5b64736f6c63430008140033a3de183f678912a55b3a6b08e3e8870458c3b312a0a935018620f4bb40e93db6a264697066735822122068637074b129865e83210b2afd6086028c7f84a6a42f3535c58f77ad8975f42164736f6c63430008140033","linkReferences":{}},"methodIdentifiers":{"createCustomModel(uint256,uint256,uint256,uint256,uint256,uint256,uint256)":"dc660015","createEthModel()":"d621bcbf","createStablecoinModel()":"abe90e04","createVolatileModel()":"f802a06c"},"id":30}