{"abi":[{"type":"constructor","inputs":[],"stateMutability":"nonpayable"},{"type":"function","name":"TIMELOCK_DELAY","inputs":[],"outputs":[{"name":"","type":"uint256","internalType":"uint256"}],"stateMutability":"view"},{"type":"function","name":"batchInitReserves","inputs":[{"name":"inputs","type":"tuple[]","internalType":"struct PoolConfigurator.InitReserveInput[]","components":[{"name":"underlying","type":"address","internalType":"address"},{"name":"treasury","type":"address","internalType":"address"},{"name":"incentivesController","type":"address","internalType":"address"},{"name":"aTokenName","type":"string","internalType":"string"},{"name":"aTokenSymbol","type":"string","internalType":"string"},{"name":"variableDebtTokenName","type":"string","internalType":"string"},{"name":"variableDebtTokenSymbol","type":"string","internalType":"string"},{"name":"stableDebtTokenName","type":"string","internalType":"string"},{"name":"stableDebtTokenSymbol","type":"string","internalType":"string"},{"name":"ltv","type":"uint16","internalType":"uint16"},{"name":"liquidationThreshold","type":"uint16","internalType":"uint16"},{"name":"liquidationBonus","type":"uint16","internalType":"uint16"},{"name":"decimals","type":"uint8","internalType":"uint8"}]}],"outputs":[],"stateMutability":"nonpayable"},{"type":"function","name":"cancelTimelocked","inputs":[{"name":"operationId","type":"bytes32","internalType":"bytes32"}],"outputs":[],"stateMutability":"nonpayable"},{"type":"function","name":"collateralManager","inputs":[],"outputs":[{"name":"","type":"address","internalType":"address"}],"stateMutability":"view"},{"type":"function","name":"executeTimelocked","inputs":[{"name":"operationId","type":"bytes32","internalType":"bytes32"},{"name":"target","type":"address","internalType":"address"},{"name":"data","type":"bytes","internalType":"bytes"}],"outputs":[],"stateMutability":"nonpayable"},{"type":"function","name":"getReserveTokens","inputs":[{"name":"asset","type":"address","internalType":"address"}],"outputs":[{"name":"","type":"tuple","internalType":"struct PoolConfigurator.ReserveTokens","components":[{"name":"aToken","type":"address","internalType":"address"},{"name":"variableDebtToken","type":"address","internalType":"address"},{"name":"stableDebtToken","type":"address","internalType":"address"}]}],"stateMutability":"view"},{"type":"function","name":"getTimelockExecuteTime","inputs":[{"name":"operationId","type":"bytes32","internalType":"bytes32"}],"outputs":[{"name":"","type":"uint256","internalType":"uint256"}],"stateMutability":"view"},{"type":"function","name":"initReserve","inputs":[{"name":"input","type":"tuple","internalType":"struct PoolConfigurator.InitReserveInput","components":[{"name":"underlying","type":"address","internalType":"address"},{"name":"treasury","type":"address","internalType":"address"},{"name":"incentivesController","type":"address","internalType":"address"},{"name":"aTokenName","type":"string","internalType":"string"},{"name":"aTokenSymbol","type":"string","internalType":"string"},{"name":"variableDebtTokenName","type":"string","internalType":"string"},{"name":"variableDebtTokenSymbol","type":"string","internalType":"string"},{"name":"stableDebtTokenName","type":"string","internalType":"string"},{"name":"stableDebtTokenSymbol","type":"string","internalType":"string"},{"name":"ltv","type":"uint16","internalType":"uint16"},{"name":"liquidationThreshold","type":"uint16","internalType":"uint16"},{"name":"liquidationBonus","type":"uint16","internalType":"uint16"},{"name":"decimals","type":"uint8","internalType":"uint8"}]}],"outputs":[],"stateMutability":"nonpayable"},{"type":"function","name":"initialize","inputs":[{"name":"_pool","type":"address","internalType":"address"},{"name":"_collateralManager","type":"address","internalType":"address"},{"name":"_oracleRouter","type":"address","internalType":"address"},{"name":"_interestRateModel","type":"address","internalType":"address"}],"outputs":[],"stateMutability":"nonpayable"},{"type":"function","name":"interestRateModel","inputs":[],"outputs":[{"name":"","type":"address","internalType":"address"}],"stateMutability":"view"},{"type":"function","name":"isReserveInitialized","inputs":[{"name":"asset","type":"address","internalType":"address"}],"outputs":[{"name":"","type":"bool","internalType":"bool"}],"stateMutability":"view"},{"type":"function","name":"oracleRouter","inputs":[],"outputs":[{"name":"","type":"address","internalType":"address"}],"stateMutability":"view"},{"type":"function","name":"owner","inputs":[],"outputs":[{"name":"","type":"address","internalType":"address"}],"stateMutability":"view"},{"type":"function","name":"pendingChanges","inputs":[{"name":"","type":"bytes32","internalType":"bytes32"}],"outputs":[{"name":"","type":"uint256","internalType":"uint256"}],"stateMutability":"view"},{"type":"function","name":"pool","inputs":[],"outputs":[{"name":"","type":"address","internalType":"address"}],"stateMutability":"view"},{"type":"function","name":"renounceOwnership","inputs":[],"outputs":[],"stateMutability":"nonpayable"},{"type":"function","name":"reserveTokens","inputs":[{"name":"","type":"address","internalType":"address"}],"outputs":[{"name":"aToken","type":"address","internalType":"address"},{"name":"variableDebtToken","type":"address","internalType":"address"},{"name":"stableDebtToken","type":"address","internalType":"address"}],"stateMutability":"view"},{"type":"function","name":"scheduleTimelocked","inputs":[{"name":"operationId","type":"bytes32","internalType":"bytes32"},{"name":"","type":"bytes","internalType":"bytes"}],"outputs":[],"stateMutability":"nonpayable"},{"type":"function","name":"setBorrowingEnabled","inputs":[{"name":"asset","type":"address","internalType":"address"},{"name":"enabled","type":"bool","internalType":"bool"}],"outputs":[],"stateMutability":"nonpayable"},{"type":"function","name":"setPoolPaused","inputs":[{"name":"paused","type":"bool","internalType":"bool"}],"outputs":[],"stateMutability":"nonpayable"},{"type":"function","name":"setReserveCaps","inputs":[{"name":"asset","type":"address","internalType":"address"},{"name":"supplyCap","type":"uint256","internalType":"uint256"},{"name":"borrowCap","type":"uint256","internalType":"uint256"}],"outputs":[],"stateMutability":"nonpayable"},{"type":"function","name":"setReserveFactor","inputs":[{"name":"asset","type":"address","internalType":"address"},{"name":"factor","type":"uint256","internalType":"uint256"}],"outputs":[],"stateMutability":"nonpayable"},{"type":"function","name":"setReserveFrozen","inputs":[{"name":"asset","type":"address","internalType":"address"},{"name":"frozen","type":"bool","internalType":"bool"}],"outputs":[],"stateMutability":"nonpayable"},{"type":"function","name":"setReservePaused","inputs":[{"name":"asset","type":"address","internalType":"address"},{"name":"paused","type":"bool","internalType":"bool"}],"outputs":[],"stateMutability":"nonpayable"},{"type":"function","name":"setStableRateBorrowingEnabled","inputs":[{"name":"asset","type":"address","internalType":"address"},{"name":"enabled","type":"bool","internalType":"bool"}],"outputs":[],"stateMutability":"nonpayable"},{"type":"function","name":"transferOwnership","inputs":[{"name":"newOwner","type":"address","internalType":"address"}],"outputs":[],"stateMutability":"nonpayable"},{"type":"function","name":"updateFlashLoanPremium","inputs":[{"name":"premium","type":"uint128","internalType":"uint128"}],"outputs":[],"stateMutability":"nonpayable"},{"type":"function","name":"updateReserveParameters","inputs":[{"name":"asset","type":"address","internalType":"address"},{"name":"ltv","type":"uint16","internalType":"uint16"},{"name":"liquidationThreshold","type":"uint16","internalType":"uint16"},{"name":"liquidationBonus","type":"uint16","internalType":"uint16"}],"outputs":[],"stateMutability":"nonpayable"},{"type":"event","name":"BorrowingEnabled","inputs":[{"name":"asset","type":"address","indexed":true,"internalType":"address"},{"name":"enabled","type":"bool","indexed":false,"internalType":"bool"}],"anonymous":false},{"type":"event","name":"FlashLoanPremiumUpdated","inputs":[{"name":"premium","type":"uint128","indexed":false,"internalType":"uint128"}],"anonymous":false},{"type":"event","name":"OwnershipTransferred","inputs":[{"name":"previousOwner","type":"address","indexed":true,"internalType":"address"},{"name":"newOwner","type":"address","indexed":true,"internalType":"address"}],"anonymous":false},{"type":"event","name":"PoolPaused","inputs":[{"name":"paused","type":"bool","indexed":false,"internalType":"bool"}],"anonymous":false},{"type":"event","name":"ReserveCapsUpdated","inputs":[{"name":"asset","type":"address","indexed":true,"internalType":"address"},{"name":"supplyCap","type":"uint256","indexed":false,"internalType":"uint256"},{"name":"borrowCap","type":"uint256","indexed":false,"internalType":"uint256"}],"anonymous":false},{"type":"event","name":"ReserveFactorUpdated","inputs":[{"name":"asset","type":"address","indexed":true,"internalType":"address"},{"name":"factor","type":"uint256","indexed":false,"internalType":"uint256"}],"anonymous":false},{"type":"event","name":"ReserveFrozen","inputs":[{"name":"asset","type":"address","indexed":true,"internalType":"address"},{"name":"frozen","type":"bool","indexed":false,"internalType":"bool"}],"anonymous":false},{"type":"event","name":"ReserveInitialized","inputs":[{"name":"underlying","type":"address","indexed":true,"internalType":"address"},{"name":"aToken","type":"address","indexed":false,"internalType":"address"},{"name":"variableDebtToken","type":"address","indexed":false,"internalType":"address"},{"name":"stableDebtToken","type":"address","indexed":false,"internalType":"address"}],"anonymous":false},{"type":"event","name":"ReserveParametersUpdated","inputs":[{"name":"asset","type":"address","indexed":true,"internalType":"address"},{"name":"ltv","type":"uint256","indexed":false,"internalType":"uint256"},{"name":"liquidationThreshold","type":"uint256","indexed":false,"internalType":"uint256"},{"name":"liquidationBonus","type":"uint256","indexed":false,"internalType":"uint256"}],"anonymous":false},{"type":"event","name":"ReservePaused","inputs":[{"name":"asset","type":"address","indexed":true,"internalType":"address"},{"name":"paused","type":"bool","indexed":false,"internalType":"bool"}],"anonymous":false},{"type":"event","name":"StableRateEnabled","inputs":[{"name":"asset","type":"address","indexed":true,"internalType":"address"},{"name":"enabled","type":"bool","indexed":false,"internalType":"bool"}],"anonymous":false},{"type":"event","name":"TimelockCancelled","inputs":[{"name":"id","type":"bytes32","indexed":true,"internalType":"bytes32"}],"anonymous":false},{"type":"event","name":"TimelockExecuted","inputs":[{"name":"id","type":"bytes32","indexed":true,"internalType":"bytes32"}],"anonymous":false},{"type":"event","name":"TimelockScheduled","inputs":[{"name":"id","type":"bytes32","indexed":true,"internalType":"bytes32"},{"name":"executeTime","type":"uint256","indexed":false,"internalType":"uint256"}],"anonymous":false},{"type":"error","name":"OwnableInvalidOwner","inputs":[{"name":"owner","type":"address","internalType":"address"}]},{"type":"error","name":"OwnableUnauthorizedAccount","inputs":[{"name":"account","type":"address","internalType":"address"}]}],"bytecode":{"object":"0x60808060405234610078573315610063575f8054336001600160a01b03198216811783556040519290916001600160a01b0316907f8be0079c531659141344cd1fd0a4f28419497f9722a3daafe3b4186f6b6457e09080a36158d2908161007d8239f35b631e4fbdf760e01b81525f6004820152602490fd5b5f80fdfe6080604052600436101562000012575f80fd5b5f803560e01c80630b7118d41462001a0d57806313f51f8a14620014d657806316f0115b14620014ab5780631be090a514620013e057806323be345c14620013b557806334bf8d3014620012fd578063400f21be14620010d757806349facafa146200128e5780634b4e675314620011035780634dda551814620010d757806355a29e9114620010ac5780635ba1c1a9146200108c578063682ab50d1462000dcb578063715018a61462000d6d578063835bbd551462000cf2578063877fcec71462000c5857806389df1e9e1462000c165780638afceacf1462000aa35780638c4b2931146200096d5780638da5cb5b1462000944578063bee015b414620007fc578063cb245e5b14620006cb578063ce8fc0801462000555578063e5b1516d1462000429578063f15569a81462000320578063f2fde38b1462000293578063f3fdb15a14620002685763f8c8765e146200016b575f80fd5b346200026557608036600319011262000265576200018862001b94565b6200019262001baf565b906001600160a01b039060443582811691908290036200026157606435938385168095036200025d57620001c562001c2b565b6001548481166200020a5784926bffffffffffffffffffffffff60a01b9586911691161760015516826002541617600255816003541617600355600454161760045580f35b60405162461bcd60e51b815260206004820152602560248201527f506f6f6c436f6e666967757261746f723a20616c726561647920696e697469616044820152641b1a5e995960da1b6064820152608490fd5b8580fd5b8480fd5b80fd5b503462000265578060031936011262000265576004546040516001600160a01b039091168152602090f35b5034620002655760203660031901126200026557620002b162001b94565b620002bb62001c2b565b6001600160a01b03908116908115620003075782546001600160a01b0319811683178455167f8be0079c531659141344cd1fd0a4f28419497f9722a3daafe3b4186f6b6457e08380a380f35b604051631e4fbdf760e01b815260048101849052602490fd5b50346200026557604036600319011262000265576004356024356001600160401b03811162000425576200035990369060040162001bfb565b50506200036562001c2b565b80825260066020526040822054620003d4576202a3004201804211620003c05760207f8707ea175e75ad64eba2d8b3d6ffe47c0b47309134b4df98c6f32c4828e96b729183855260068252806040862055604051908152a280f35b634e487b7160e01b83526011600452602483fd5b60405162461bcd60e51b815260206004820152602360248201527f506f6f6c436f6e666967757261746f723a20616c7265616479207363686564756044820152621b195960ea1b6064820152608490fd5b8280fd5b50346200026557604036600319011262000265576200044762001b94565b6200045162001beb565b906200045c62001c2b565b6001546001600160a01b03919062000478908316151562001c57565b600254604051631590d39b60e31b602082019081526001600160a01b038416602483015285151560448301528692839290861691908390620004c881606481015b03601f19810183528262001d9f565b51925af1620004d662001e05565b501562000510577f0c4443d258a350d27dc50c378b2ebf165e6469725f786d21b30cab16823f55879160209160405194151585521692a280f35b60405162461bcd60e51b815260206004820152601f60248201527f506f6f6c436f6e666967757261746f723a20667265657a65206661696c6564006044820152606490fd5b50346200026557602036600319011262000265576004356fffffffffffffffffffffffffffffffff8116809103620006c7576200059162001c2b565b6001546001600160a01b0316620005aa81151562001c57565b6103e88211620006775782809160405182602082019163097044c360e21b835286602482015260248152620005df8162001d53565b51925af1620005ed62001e05565b5015620006225760207fee6e13b7a384923633a42d7976ba8a21e59e50ecc7b9f6895c3e50af0d304d1a91604051908152a180f35b60405162461bcd60e51b815260206004820152602760248201527f506f6f6c436f6e666967757261746f723a207072656d69756d207570646174656044820152660819985a5b195960ca1b6064820152608490fd5b60405162461bcd60e51b815260206004820152602260248201527f506f6f6c436f6e666967757261746f723a207072656d69756d20746f6f2068696044820152610ced60f31b6064820152608490fd5b5080fd5b5034620002655760403660031901126200026557620006e962001b94565b620006f362001beb565b90620006fe62001c2b565b6001546001600160a01b0391906200071a908316151562001c57565b60025460405163cb245e5b60e01b602082019081526001600160a01b038416602483015285151560448301528692839290861691908390620007608160648101620004b9565b51925af16200076e62001e05565b5015620007a8577ff831e2504297237f801b3c2100da4048c5ecef759e8c5015879eabd26802567e9160209160405194151585521692a280f35b60405162461bcd60e51b815260206004820152602660248201527f506f6f6c436f6e666967757261746f723a20626f72726f7720636f6e6669672060448201526519985a5b195960d21b6064820152608490fd5b50346200026557606036600319011262000265576200081a62001b94565b6024356044356200082a62001c2b565b6001546001600160a01b03939062000846908516151562001c57565b836002541690604051946020860191633bfbb0e360e21b835216948560248201528460448201528360648201526064815260a081018181106001600160401b03821117620009305760405251869283929083905af1620008a562001e05565b5015620008df577ff43f535d1eea7874b6e2f9dbd9f3ab3ca41f4a1d291055be1ada8d5289be450b9160409182519182526020820152a280f35b60405162461bcd60e51b8152602060048201526024808201527f506f6f6c436f6e666967757261746f723a206361707320636f6e6669672066616044820152631a5b195960e21b6064820152608490fd5b634e487b7160e01b88526041600452602488fd5b50346200026557806003193601126200026557546040516001600160a01b039091168152602090f35b50346200026557604036600319011262000265576200098b62001b94565b6200099562001beb565b90620009a062001c2b565b6001546001600160a01b039190620009bc908316151562001c57565b60025460405163d9bfdb4160e01b602082019081526001600160a01b03841660248301528515156044830152869283929086169190839062000a028160648101620004b9565b51925af162000a1062001e05565b501562000a4a577fe6410dee4ff44dd771a32cf569a3622f6c9d8abf82934162b16b5662f86c8e859160209160405194151585521692a280f35b60405162461bcd60e51b815260206004820152602b60248201527f506f6f6c436f6e666967757261746f723a20737461626c65207261746520636f60448201526a1b999a59c819985a5b195960aa1b6064820152608490fd5b503462000265576060366003190112620002655760043562000ac462001baf565b6044356001600160401b03811162000c125762000ae690369060040162001bfb565b9162000af162001c2b565b8385526006602052604085205462000b0b81151562001e94565b421062000bbf5784928380938682526006602052816040812055826040519384928337810182815203925af162000b4162001e05565b501562000b6f577f608879471643fec8a3d053e61fed9b5bb710b0ae4b697d1678d92eb5ea6d00be8280a280f35b60405162461bcd60e51b815260206004820152602260248201527f506f6f6c436f6e666967757261746f723a20657865637574696f6e206661696c604482015261195960f21b6064820152608490fd5b60405162461bcd60e51b815260206004820152602560248201527f506f6f6c436f6e666967757261746f723a2074696d656c6f636b206e6f742070604482015264185cdcd95960da1b6064820152608490fd5b8380fd5b50346200026557602036600319011262000265576020906001600160a01b03906040908262000c4462001b94565b168152600584522054161515604051908152f35b5034620002655760203660031901126200026557606090604062000c7b62001b94565b918082805162000c8b8162001d53565b828152826020820152015260018060a01b0380931681526005602052209060405162000cb78162001d53565b818084541693848352604082600281600185015416936020870194855201541693019283526040519485525116602084015251166040820152f35b50346200026557602036600319011262000265576001600160a01b03906040908262000d1d62001b94565b1681526005602052209062000d6981835416916002816001860154169401541660405193849384916040919493606084019560018060a01b039283809216865216602085015216910152565b0390f35b5034620002655780600319360112620002655762000d8a62001c2b565b80546001600160a01b03198116825581906001600160a01b03167f8be0079c531659141344cd1fd0a4f28419497f9722a3daafe3b4186f6b6457e08280a380f35b50346200026557602080600319360112620006c757600435906001600160401b0380831162000c12573660238401121562000c12578260040135918183116200026157602491600593368482871b8801011162001088579362000e2d62001c2b565b6001805490966001600160a01b03929162000e4c908416151562001c57565b368190036101c2190191895b88811062000e64578a80f35b8781831b8401013584811215620010845783018b89820191303b15620006c75762000fbb604051936309fa8fc560e11b85528b60048601528962000ea88262001bc6565b168d86015260448a62000ebd82860162001bc6565b169086015260648a62000ed282860162001bc6565b169086015262000f0060846101a062000eee8287018562001dd1565b9190928901526101c488019162001cee565b9062000f9762000f7662000f5662000f3660a49562000f22878a018762001dd1565b908c602319998a8286030191015262001cee565b60c462000f46818a018762001dd1565b91888d850301908d015262001cee565b60e462000f668189018662001dd1565b91878c850301908c015262001cee565b61010462000f878188018562001dd1565b91868b850301908b015262001cee565b9162000faa610124928387019062001dd1565b929091888503019088015262001cee565b9061ffff6101448162000fd082850162001bdb565b16908601526101648162000fe682850162001bdb565b16908601526101849062000ffc82840162001bdb565b16908501526101a4809101359160ff831680930362000c125784928392830152038183305af18015620010795762001054575b505f1981146200104157890162000e58565b634e487b7160e01b8b526011600452878bfd5b86811162001066576040525f6200102f565b634e487b7160e01b8c526041600452888cfd5b6040513d8e823e3d90fd5b8b80fd5b8680fd5b5034620002655780600319360112620002655760206040516202a3008152f35b503462000265578060031936011262000265576003546040516001600160a01b039091168152602090f35b503462000265576020366003190112620002655760406020916004358152600683522054604051908152f35b50346200026557604036600319011262000265576200112162001b94565b6024356200112e62001c2b565b6001546001600160a01b0392906200114a908416151562001c57565b61271082116200124a57826002541690604051936020850191634b4e675360e01b8352169384602482015283604482015260448152608081018181106001600160401b03821117620012365760405251859283929083905af1620011ad62001e05565b5015620011e25760207fa9e6d8c6a7ceab34e1bbc36191cd138bd9190f9e9e04482afb77cecc652720b691604051908152a280f35b60405162461bcd60e51b815260206004820152602660248201527f506f6f6c436f6e666967757261746f723a20666163746f7220636f6e6669672060448201526519985a5b195960d21b6064820152608490fd5b634e487b7160e01b87526041600452602487fd5b606460405162461bcd60e51b815260206004820152602060248201527f506f6f6c436f6e666967757261746f723a20696e76616c696420666163746f726044820152fd5b5034620002655760203660031901126200026557600435620012af62001c2b565b8082526006602052620012c86040832054151562001e94565b80825260066020528160408120557fa32a56a4fb497457a2ff2c7acd600aac5dd868b3c2fd537c030e2bbfaecd47e18280a280f35b5034620002655760203660031901126200026557600435801515809103620006c75760207fbd466af87c4fabd1fa3d061817020a39c29d7986649f582f9f405c8eb8aa7c0b916200134d62001c2b565b600154620013ab90859081906001600160a01b03166200136f81151562001c57565b60405182878201916305b0e2cf60e21b835287602482015260248152620013968162001d53565b51925af1620013a462001e05565b5062001e47565b604051908152a180f35b503462000265578060031936011262000265576002546040516001600160a01b039091168152602090f35b5034620002655760403660031901126200026557620013fe62001b94565b7fe188d542a5f11925d3a3af33703cdd30a43cb3e8066a3cf68b1b57f61a5a94b560206200142b62001beb565b926200143662001c2b565b6001546001600160a01b03919062001452908316151562001c57565b600254604051632ce962cf60e01b8582019081526001600160a01b0384166024830152961560448201819052966200149e928992839291871691908390620013968160648101620004b9565b604051941585521692a280f35b503462000265578060031936011262000265576001546040516001600160a01b039091168152602090f35b50346200026557600319602036820112620006c7576004356001600160401b039182821162000c12576101a090823603011262000425576200151762001c2b565b6001546001600160a01b03166200153081151562001c57565b6001600160a01b03620015466004840162001ca4565b168452600560205260408420546001600160a01b0316620019c9576200156f8260040162001ca4565b6200157d6024840162001ca4565b6200158b6044850162001ca4565b6200159d606486018660040162001cb9565b9091620015b1608488018860040162001cb9565b94909560405197886117468101108b6117468b011117620019b557928897959262001637979592620016209561174662001ee28c396117468b019081526001600160a01b039182166020820152918116604083015291909116606082015260c060808201819052019162001cee565b916117468501830360a06117468701015262001cee565b039084f08015620019aa576001546001600160a01b03166200165c6004840162001ca4565b6200166e60a485018560040162001cb9565b6200168360c487949394018760040162001cb9565b93909260405195611189808801908882108c8311176200199657918897959391620016b6979593620036288a3962001d0e565b039085f09283156200198b576001546001600160a01b0316620016dc6004850162001ca4565b90620016ef60e486018660040162001cb9565b906200170361010488018860040162001cb9565b949093604051966110ec8089019189831090831117620019965791889795939162001736979593620047b18a3962001d0e565b039085f09081156200198b576040516001600160a01b03928316948316929190911690620017648162001d53565b8181526020810183815260408201868152916002906001600160a01b036200178f6004890162001ca4565b168952600560205260408920905181546001600160a01b039182166001600160a01b0319918216178355935160018301805491831691861691909117905593519101805491909316911617905584620017eb6004850162001ca4565b620017fa610124860162001dc1565b906200180a610144870162001dc1565b916200181a610164880162001dc1565b926101848801359060ff82168092036200025d576002546001600160a01b03169485620018b7575b868b7f2a069b08eadd1ba3aeb05729cf22947a941b9f400cfc778be430b52a946372828b8b620018b18f6200188160018060a01b039160040162001ca4565b604080516001600160a01b0395861681529585166020870152939096169284019290925293169281906060820190565b0390a280f35b604051639b697d3d60e01b602082019081526001600160a01b03909616602482015261ffff9485166044820152918416606483015292909216608483015260a4808301919091528152839291908390620019118162001d83565b51925af16200191f62001e05565b50156200193357845f808080808062001842565b60405162461bcd60e51b815260206004820152602a60248201527f506f6f6c436f6e666967757261746f723a20636f6c6c61746572616c20636f6e604482015269199a59c819985a5b195960b21b6064820152608490fd5b6040513d86823e3d90fd5b634e487b7160e01b8d52604160045260248dfd5b6040513d85823e3d90fd5b634e487b7160e01b8c52604160045260248cfd5b606460405162461bcd60e51b815260206004820152602060248201527f506f6f6c436f6e666967757261746f723a2072657365727665206578697374736044820152fd5b503462000265576080366003190112620002655762001a2b62001b94565b60243561ffff9081811680910362000c12576044358281168091036200026157606435928316809303620002615762001a6362001c2b565b6001546001600160a01b0394859162001a80908316151562001c57565b16938486526005602052806040872054161562001b43578590600254168062001ae0575b5050907f5dea3c738b22d484fb5eac7c755a2df32c68e4617db31d154d354c58c2c53df99260609260405192835260208301526040820152a280f35b8190604094939451826020820191639b697d3d60e01b83528960248201528660448201528760648201528860848201528160a482015260a4815262001b258162001d83565b51925af162001b3362001e05565b5015620019335790845f62001aa4565b60405162461bcd60e51b815260206004820152602360248201527f506f6f6c436f6e666967757261746f723a2072657365727665206e6f7420666f6044820152621d5b9960ea1b6064820152608490fd5b600435906001600160a01b038216820362001bab57565b5f80fd5b602435906001600160a01b038216820362001bab57565b35906001600160a01b038216820362001bab57565b359061ffff8216820362001bab57565b60243590811515820362001bab57565b9181601f8401121562001bab578235916001600160401b03831162001bab576020838186019501011162001bab57565b5f546001600160a01b0316330362001c3f57565b60405163118cdaa760e01b8152336004820152602490fd5b1562001c5f57565b60405162461bcd60e51b815260206004820152601e60248201527f506f6f6c436f6e666967757261746f723a20706f6f6c206e6f742073657400006044820152606490fd5b356001600160a01b038116810362001bab5790565b903590601e198136030182121562001bab57018035906001600160401b03821162001bab5760200191813603831362001bab57565b908060209392818452848401375f828201840152601f01601f1916010190565b9492909362001d50969462001d419360018060a01b03809216885216602087015260806040870152608086019162001cee565b92606081850391015262001cee565b90565b606081019081106001600160401b0382111762001d6f57604052565b634e487b7160e01b5f52604160045260245ffd5b60e081019081106001600160401b0382111762001d6f57604052565b90601f801991011681019081106001600160401b0382111762001d6f57604052565b3561ffff8116810362001bab5790565b9035601e198236030181121562001bab5701602081359101916001600160401b03821162001bab57813603831362001bab57565b3d1562001e42573d906001600160401b03821162001d6f576040519162001e37601f8201601f19166020018462001d9f565b82523d5f602084013e565b606090565b1562001e4f57565b60405162461bcd60e51b815260206004820152601e60248201527f506f6f6c436f6e666967757261746f723a207061757365206661696c656400006044820152606490fd5b1562001e9c57565b60405162461bcd60e51b815260206004820152601f60248201527f506f6f6c436f6e666967757261746f723a206e6f74207363686564756c6564006044820152606490fdfe60c060405234620004645762001746803803806200001d8162000468565b928339810160c082820312620004645762000038826200048e565b906020620000488185016200048e565b9262000057604086016200048e565b9462000066606082016200048e565b608082015190946001600160401b039290918381116200046457826200008e918301620004a3565b9160a08201518481116200046457620000a89201620004a3565b9181518181116200036f576003908154906001948583811c9316801562000459575b8984101462000445578190601f93848111620003f2575b5089908483116001146200038f575f9262000383575b50505f1982851b1c191690851b1782555b84519283116200036f5760049485548581811c9116801562000364575b89821014620003515782811162000309575b5087918411600114620002a2579383949184925f9562000296575b50501b925f19911b1c19161781555b6001600160a01b0394828616156200025e5785169283156200021b57505060a0526080528160018060a01b03199316836006541617600655169060075416176007556b033b2e3c9fd0803ce8000000600555604051611232908162000514823960805181818161013d015281816102c9015281816103fa015281816109230152610a87015260a0518181816101e9015281816103cf015281816104b301528181610798015281816107e90152818161087601526108ef0152f35b60405162461bcd60e51b815291820152601760248201527f41546f6b656e3a207a65726f20756e6465726c79696e67000000000000000000604482015260649150fd5b60405162461bcd60e51b8152808301859052601160248201527010551bdad95b8e881e995c9bc81c1bdbdb607a1b6044820152606490fd5b015193505f8062000152565b9190601f19841692865f5284895f20945f5b8b89838310620002f15750505010620002d7575b50505050811b01815562000161565b01519060f8845f19921b161c191690555f808080620002c8565b868601518955909701969485019488935001620002b4565b865f52885f208380870160051c8201928b881062000347575b0160051c019086905b8281106200033b57505062000137565b5f81550186906200032b565b9250819262000322565b602287634e487b7160e01b5f525260245ffd5b90607f169062000125565b634e487b7160e01b5f52604160045260245ffd5b015190505f80620000f7565b90879350601f19831691865f528b5f20925f5b8d828210620003db5750508411620003c3575b505050811b01825562000108565b01515f1983871b60f8161c191690555f8080620003b5565b8385015186558b97909501949384019301620003a2565b909150845f52895f208480850160051c8201928c86106200043b575b918991869594930160051c01915b8281106200042c575050620000e1565b5f81558594508991016200041c565b925081926200040e565b634e487b7160e01b5f52602260045260245ffd5b92607f1692620000ca565b5f80fd5b6040519190601f01601f191682016001600160401b038111838210176200036f57604052565b51906001600160a01b03821682036200046457565b919080601f84011215620004645782516001600160401b0381116200036f57602090620004d9601f8201601f1916830162000468565b9281845282828701011162000464575f5b818110620004ff5750825f9394955001015290565b8581018301518482018401528201620004ea56fe6080604081815260049182361015610015575f80fd5b5f92833560e01c91826306fdde0314610b8457508163095ea7b314610ada57816318160ddd14610ab65781631b206b7314610a725781631da24f3e14610a3a57816323b872dd14610963578163313ce567146109475781634efecaa5146108cd57816361d027b3146108a45781636fd976761461085d57816370a08231146108185781637535d246146107d45781637df5bd3b1461077c57816381045ead1461047257816395d89b411461065d578163a9059cbb1461062c578163af1df25514610603578163b1bf962d146105e4578163b3f1c93d14610491578163bbf44f3314610472578163cea9d26f146103a9578163d7020d0a146101c357508063dd62ed3e146101705763e60253931461012a575f80fd5b3461016c578160031936011261016c57517f00000000000000000000000000000000000000000000000000000000000000006001600160a01b03168152602090f35b5080fd5b503461016c578060031936011261016c57610189610ca3565b6001600160a01b0360243581811692908390036101bf579160209491849316825260018552828220908252845220549051908152f35b8480fd5b8391503461016c576101d436610cf2565b9095929390916001600160a01b0391610210337f0000000000000000000000000000000000000000000000000000000000000000851614610d2b565b8360055561021e8489610e62565b958615610366578316958688526008602052858820549181831061031757507f4cf25bc1d991c17529c25213d3cc0cda295eeaad5f13f361969b12ea48015f90889994879461030c6102c1602099966102a18d978f9d8e5f805160206111dd8339815191529f8b905260088f5220610297828254610d8c565b9055600954610d8c565b6009556102bb6102b18983610d99565b9160055490610d99565b90610d8c565b956102ed89847f0000000000000000000000000000000000000000000000000000000000000000610f2b565b8751938493169689846040919493926060820195825260208201520152565b0390a351908152a380f35b608490602088519162461bcd60e51b8352820152602360248201527f41546f6b656e3a206275726e20616d6f756e7420657863656564732062616c616044820152626e636560e81b6064820152fd5b855162461bcd60e51b8152602081840152601b60248201527f41546f6b656e3a20696e76616c6964206275726e20616d6f756e7400000000006044820152606490fd5b8391503461016c576103ba36610cbd565b9290916001600160a01b03919082906103f6337f0000000000000000000000000000000000000000000000000000000000000000841614610d2b565b16917f000000000000000000000000000000000000000000000000000000000000000016821461042f575061042c939450610f2b565b80f35b606490602087519162461bcd60e51b8352820152602060248201527f41546f6b656e3a2063616e6e6f742072657363756520756e6465726c79696e676044820152fd5b50503461016c578160031936011261016c576020906005549051908152f35b8284346105e1576104a136610cf2565b6001600160a01b03949391926104da337f0000000000000000000000000000000000000000000000000000000000000000881614610d2b565b816005556104e88285610e62565b97881561059e5750851694859283865260086020528786209889549961050e828c610d6b565b90556009549061051d91610d6b565b60095561052a838a610d99565b600554610537908b610d99565b61054091610d8c565b88518681526020810191909152604081019390935216907f458f5fa412d0f69b08dd84872b0215675cc67bc1d5b6fd93300a1c3878b8619690606090a3835190815260205f805160206111dd83398151915291a35190158152602090f35b606490602089519162461bcd60e51b8352820152601b60248201527f41546f6b656e3a20696e76616c6964206d696e7420616d6f756e7400000000006044820152fd5b80fd5b50503461016c578160031936011261016c576020906009549051908152f35b50503461016c578160031936011261016c5760075490516001600160a01b039091168152602090f35b50503461016c578060031936011261016c5760209061065661064c610ca3565b6024359033610fa9565b5160018152f35b83833461016c578160031936011261016c57805190828454600181811c90808316928315610772575b602093848410811461075f5783885290811561074357506001146106ee575b505050829003601f01601f191682019267ffffffffffffffff8411838510176106db57508291826106d7925282610c5c565b0390f35b634e487b7160e01b815260418552602490fd5b8787529192508591837f8a35acfbc15ff81a39ae7d344fd709f28e8600b4aa8c65c6b64bfe7fe36bd19b5b83851061072f57505050508301018580806106a5565b805488860183015293019284908201610719565b60ff1916878501525050151560051b84010190508580806106a5565b634e487b7160e01b895260228a52602489fd5b91607f1691610686565b919050346107d05736600319011261016c5761042c906107c6337f00000000000000000000000000000000000000000000000000000000000000006001600160a01b031614610d2b565b6024359035611172565b8280fd5b50503461016c578160031936011261016c57517f00000000000000000000000000000000000000000000000000000000000000006001600160a01b03168152602090f35b50503461016c57602036600319011261016c576020916108569082906001600160a01b03610844610ca3565b16815260088552205460055490610d99565b9051908152f35b83346105e15761086c36610cbd565b5061042c915050337f00000000000000000000000000000000000000000000000000000000000000006001600160a01b031614610d2b565b50503461016c578160031936011261016c5760065490516001600160a01b039091168152602090f35b50503461016c573660031901126105e15761042c6108e9610ca3565b61091d337f00000000000000000000000000000000000000000000000000000000000000006001600160a01b031614610d2b565b602435907f0000000000000000000000000000000000000000000000000000000000000000610f2b565b50503461016c578160031936011261016c576020905160128152f35b8391503461016c5761097436610cbd565b6001600160a01b03831680865260016020908152878720338852905286862054919592945f1983106109af575b602088610656898989610fa9565b868310610a17578115610a005733156109e957508252600160209081528683203384528152918690209085900390558290610656876109a1565b8751634a1406b160e11b8152908101849052602490fd5b875163e602df0560e01b8152908101849052602490fd5b60649087848a5192637dc7a0d960e11b8452339084015260248301526044820152fd5b50503461016c57602036600319011261016c5760209181906001600160a01b03610a62610ca3565b1681526008845220549051908152f35b50503461016c578160031936011261016c57517f00000000000000000000000000000000000000000000000000000000000000006001600160a01b03168152602090f35b50503461016c578160031936011261016c5760209061085660095460055490610d99565b9050346107d057816003193601126107d057610af4610ca3565b602435903315610b6d576001600160a01b0316918215610b5657508083602095338152600187528181208582528752205582519081527f8c5be1e5ebec7d5bd14f71427d1e84f3dd0314c0f7b2291e5b200ac8c7c3b925843392a35160018152f35b8351634a1406b160e11b8152908101859052602490fd5b835163e602df0560e01b8152808401869052602490fd5b849084346107d057826003193601126107d05782600354600181811c90808316928315610c52575b602093848410811461075f578388529081156107435750600114610bfc57505050829003601f01601f191682019267ffffffffffffffff8411838510176106db57508291826106d7925282610c5c565b600387529192508591837fc2575a0e9e593c00f959f8c92f12db2869c3395a3b0502d05e2516446f71f85b5b838510610c3e57505050508301018580806106a5565b805488860183015293019284908201610c28565b91607f1691610bac565b602080825282518183018190529093925f5b828110610c8f57505060409293505f838284010152601f8019910116010190565b818101860151848201604001528501610c6e565b600435906001600160a01b0382168203610cb957565b5f80fd5b6060906003190112610cb9576001600160a01b03906004358281168103610cb957916024359081168103610cb9579060443590565b6080906003190112610cb9576001600160a01b03906004358281168103610cb957916024359081168103610cb957906044359060643590565b15610d3257565b60405162461bcd60e51b815260206004820152601160248201527010551bdad95b8e881bdb9b1e481c1bdbdb607a1b6044820152606490fd5b91908201809211610d7857565b634e487b7160e01b5f52601160045260245ffd5b91908203918211610d7857565b90811590818015610e5a575b610e53578015610e3f57806b019d971e4fe8401e7400000019048311610dfa57808302928304141715610d78576b019d971e4fe8401e740000008101809111610d78576b033b2e3c9fd0803ce8000000900490565b60405162461bcd60e51b815260206004820152601b60248201527f5761645261794d6174683a207261794d756c206f766572666c6f7700000000006044820152606490fd5b634e487b7160e01b5f52601260045260245ffd5b5050505f90565b508015610da5565b8115610ee6578160011c6b033b2e3c9fd0803ce800000091828219048111610ea157828102928184041490151715610d7857610e9d91610d6b565b0490565b60405162461bcd60e51b815260206004820152601b60248201527f5761645261794d6174683a20726179446976206f766572666c6f7700000000006044820152606490fd5b60405162461bcd60e51b815260206004820152601a60248201527f5761645261794d6174683a20726179446976206279207a65726f0000000000006044820152606490fd5b60405163a9059cbb60e01b5f9081526001600160a01b039384166004526024949094529260209060448180855af160015f5114811615610f8a575b8360405215610f7457505050565b635274afe760e01b835216600482015260249150fd5b6001811516610fa057813b15153d151616610f66565b833d5f823e3d90fd5b6001600160a01b0390811691821561112d57169182156110e8578282146110ab5760055490610fd88282610e62565b915f9084825260209360088552604092818482205410611069577f4beccb90f994c31aced7a23b5611020728a23d8ec5cddd1a3e9d97b96fda86668480948a946110555f805160206111dd8339815191529a9998868d80985260088c52818120611043858254610d8c565b905588815260088c5220918254610d6b565b905581519087825288820152a351908152a3565b60648685519062461bcd60e51b825280600483015260248201527f41546f6b656e3a207472616e7366657220657863656564732062616c616e63656044820152fd5b60405162461bcd60e51b815260206004820152601560248201527420aa37b5b2b71d1039b2b633103a3930b739b332b960591b6044820152606490fd5b60405162461bcd60e51b815260206004820152601860248201527f41546f6b656e3a207472616e7366657220746f207a65726f00000000000000006044820152606490fd5b60405162461bcd60e51b815260206004820152601a60248201527f41546f6b656e3a207472616e736665722066726f6d207a65726f0000000000006044820152606490fd5b9081156111d8575f805160206111dd8339815191526020611198835f9460055585610e62565b6111c760018060a01b03918260065416865260088452604086206111bd828254610d6b565b9055600954610d6b565b6009556006541693604051908152a3565b505056feddf252ad1be2c89b69c2b068fc378daa952ba7f163c4a11628f55a4df523b3efa2646970667358221220a32a496d43f4599df855c15673c0ef41a3b2f4f08644c51e13f285ff62a419e864736f6c6343000814003360c060405234620004015762001189803803806200001d8162000405565b928339810190608081830312620004015762000039816200042b565b906020620000498183016200042b565b604083015190946001600160401b039390918481116200040157826200007191830162000440565b91606082015185811162000401576200008b920162000440565b9281518181116200030c576003908154906001948583811c93168015620003f6575b87841014620003e2578190601f938481116200038f575b5087908483116001146200032c575f9262000320575b50505f1982851b1c191690851b1782555b85519283116200030c5760049586548581811c9116801562000301575b87821014620002ee57828111620002a6575b50859184116001146200023f579383949184925f9562000233575b50501b925f19911b1c19161782555b6001600160a01b0383811615620001ef57841615620001ac57505060805260a0526b033b2e3c9fd0803ce8000000600555604051610cd89081620004b1823960805181818161013a015281816104170152610752015260a05181818161034a0152610a2b0152f35b60405162461bcd60e51b815291820152601a60248201527f44656274546f6b656e3a207a65726f20756e6465726c79696e67000000000000604482015260649150fd5b60405162461bcd60e51b8152808401839052601460248201527f44656274546f6b656e3a207a65726f20706f6f6c0000000000000000000000006044820152606490fd5b015193505f8062000135565b9190601f19841692875f5284875f20945f5b89898383106200028e575050501062000274575b50505050811b01825562000144565b01519060f8845f19921b161c191690555f80808062000265565b86860151895590970196948501948893500162000251565b875f52865f208380870160051c820192898810620002e4575b0160051c019086905b828110620002d85750506200011a565b5f8155018690620002c8565b92508192620002bf565b602288634e487b7160e01b5f525260245ffd5b90607f169062000108565b634e487b7160e01b5f52604160045260245ffd5b015190505f80620000da565b90879350601f19831691865f52895f20925f5b8b82821062000378575050841162000360575b505050811b018255620000eb565b01515f1983871b60f8161c191690555f808062000352565b8385015186558b979095019493840193016200033f565b909150845f52875f208480850160051c8201928a8610620003d8575b918991869594930160051c01915b828110620003c9575050620000c4565b5f8155859450899101620003b9565b92508192620003ab565b634e487b7160e01b5f52602260045260245ffd5b92607f1692620000ad565b5f80fd5b6040519190601f01601f191682016001600160401b038111838210176200030c57604052565b51906001600160a01b03821682036200040157565b919080601f84011215620004015782516001600160401b0381116200030c5760209062000476601f8201601f1916830162000405565b9281845282828701011162000401575f5b8181106200049c5750825f9394955001015290565b85810183015184820184015282016200048756fe608060409080825260049182361015610016575f80fd5b5f91823560e01c90816306fdde03146108ae57508063095ea7b3146105fd5780630bdfb1d8146107c5578063165e78051461072057806318160ddd1461088b5780631b206b73146102cb5780631da24f3e1461085457806323b872dd14610828578063313ce5671461080d5780636bd76d24146107c557806370a08231146107815780637535d2461461073e57806381045ead1461072057806395d89b4114610602578063a9059cbb146105fd578063b1bf962d146105df578063b3f1c93d146103da578063c04a8a10146102fd578063dd62ed3e146102d0578063e6025393146102cb5763f5298aca14610109575f80fd5b346102c75760603660031901126102c7576101226109cd565b602435939092906044356001600160a01b03610161337f0000000000000000000000000000000000000000000000000000000000000000831614610a5a565b8160055561016f8288610b94565b958615610284571691828452600660205284842054908682106102415750602096837f743033787f4738ff4d6a7225ce2bd0977ee5f86b91a902a58f5e4d0b297b46447fddf252ad1be2c89b69c2b068fc378daa952ba7f163c4a11628f55a4df523b3ef9461021c8b95848a52600687528a8a206101ee8d8254610abe565b90556101fc8c600754610abe565b60075561021661020c8483610acb565b9160055490610acb565b90610abe565b895185815260208101919091526040810191909152606090a28551908152a351908152f35b606490602087519162461bcd60e51b8352820152601f60248201527f44656274546f6b656e3a206275726e20657863656564732062616c616e6365006044820152fd5b855162461bcd60e51b8152602081860152601e60248201527f44656274546f6b656e3a20696e76616c6964206275726e20616d6f756e7400006044820152606490fd5b5080fd5b610a16565b50346102c757806003193601126102c757906020916102ed6109cd565b506102f66109e7565b5051908152f35b5082346103d657816003193601126103d6576103176109cd565b602435926001600160a01b03918216928315610394575033855260086020528085208386526020528381862055519283527f000000000000000000000000000000000000000000000000000000000000000016917fda919360433220e13b51e8c211e490d148e61a3bd53de8c097194e458b97f3e160203392a480f35b6020606492519162461bcd60e51b8352820152601960248201527f44656274546f6b656e3a207a65726f2064656c656761746565000000000000006044820152fd5b8280fd5b5091346102c75760803660031901126102c7576103f56109cd565b6103fd6109e7565b6064359390604435906001600160a01b0390819061043e337f0000000000000000000000000000000000000000000000000000000000000000841614610a5a565b169316838103610558575b856005556104578683610b94565b94851561051557507fddf252ad1be2c89b69c2b068fc378daa952ba7f163c4a11628f55a4df523b3ef9184602092818652600684527f458f5fa412d0f69b08dd84872b0215675cc67bc1d5b6fd93300a1c3878b861968a8720998a549a6104be8b8d610a9d565b90556104cc8a600754610a9d565b6007556104e96104dc828d610acb565b6102168d60055490610acb565b8c5186815260208101919091526040810191909152606090a38751908152a38251911582526020820152f35b606490602089519162461bcd60e51b8352820152601e60248201527f44656274546f6b656e3a20696e76616c6964206d696e7420616d6f756e7400006044820152fd5b83835260086020528683208184526020528683205482811061059157829085855260086020528885208386526020520387842055610449565b875162461bcd60e51b8152602081880152602260248201527f44656274546f6b656e3a20696e73756666696369656e742064656c656761746960448201526137b760f11b6064820152608490fd5b50346102c757816003193601126102c7576020906007549051908152f35b6109fd565b50346102c757816003193601126102c757805190828454600181811c90808316928315610716575b6020938484108114610703578388529081156106e75750600114610692575b505050829003601f01601f191682019267ffffffffffffffff84118385101761067f575082918261067b925282610986565b0390f35b634e487b7160e01b815260418552602490fd5b8787529192508591837f8a35acfbc15ff81a39ae7d344fd709f28e8600b4aa8c65c6b64bfe7fe36bd19b5b8385106106d357505050508301015f8080610649565b8054888601830152930192849082016106bd565b60ff1916878501525050151560051b84010190505f8080610649565b634e487b7160e01b895260228a52602489fd5b91607f169161062a565b50346102c757816003193601126102c7576020906005549051908152f35b50346102c757816003193601126102c757517f00000000000000000000000000000000000000000000000000000000000000006001600160a01b03168152602090f35b50346102c75760203660031901126102c7576020916107be9082906001600160a01b036107ac6109cd565b16815260068552205460055490610acb565b9051908152f35b50346102c757806003193601126102c757806020926107e26109cd565b6107ea6109e7565b6001600160a01b0391821683526008865283832091168252845220549051908152f35b50346102c757816003193601126102c7576020905160128152f35b8234610851576060366003190112610851576108426109cd565b5061084b6109e7565b50610c5d565b80fd5b50346102c75760203660031901126102c75760209181906001600160a01b0361087b6109cd565b1681526006845220549051908152f35b50346102c757816003193601126102c7576020906107be60075460055490610acb565b919050346103d657826003193601126103d65782600354600181811c9080831692831561097c575b6020938484108114610703578388529081156106e7575060011461092657505050829003601f01601f191682019267ffffffffffffffff84118385101761067f575082918261067b925282610986565b600387529192508591837fc2575a0e9e593c00f959f8c92f12db2869c3395a3b0502d05e2516446f71f85b5b83851061096857505050508301015f8080610649565b805488860183015293019284908201610952565b91607f16916108d6565b602080825282518183018190529093925f5b8281106109b957505060409293505f838284010152601f8019910116010190565b818101860151848201604001528501610998565b600435906001600160a01b03821682036109e357565b5f80fd5b602435906001600160a01b03821682036109e357565b346109e35760403660031901126109e35761084b6109cd565b346109e3575f3660031901126109e3576040517f00000000000000000000000000000000000000000000000000000000000000006001600160a01b03168152602090f35b15610a6157565b60405162461bcd60e51b81526020600482015260146024820152731119589d151bdad95b8e881bdb9b1e481c1bdbdb60621b6044820152606490fd5b91908201809211610aaa57565b634e487b7160e01b5f52601160045260245ffd5b91908203918211610aaa57565b90811590818015610b8c575b610b85578015610b7157806b019d971e4fe8401e7400000019048311610b2c57808302928304141715610aaa576b019d971e4fe8401e740000008101809111610aaa576b033b2e3c9fd0803ce8000000900490565b60405162461bcd60e51b815260206004820152601b60248201527f5761645261794d6174683a207261794d756c206f766572666c6f7700000000006044820152606490fd5b634e487b7160e01b5f52601260045260245ffd5b5050505f90565b508015610ad7565b8115610c18578160011c6b033b2e3c9fd0803ce800000091828219048111610bd357828102928184041490151715610aaa57610bcf91610a9d565b0490565b60405162461bcd60e51b815260206004820152601b60248201527f5761645261794d6174683a20726179446976206f766572666c6f7700000000006044820152606490fd5b60405162461bcd60e51b815260206004820152601a60248201527f5761645261794d6174683a20726179446976206279207a65726f0000000000006044820152606490fd5b60405162461bcd60e51b815260206004820152601b60248201527f44656274546f6b656e3a206e6f6e2d7472616e7366657261626c6500000000006044820152606490fdfea2646970667358221220b3b0c404c027664f0ecef4c578b069122d16f00e8f17599b7abd29b939939e3164736f6c6343000814003360c0604052346200036057620010ec803803806200001d8162000364565b9283398101608082820312620003605762000038826200038a565b90602090620000498285016200038a565b604085015190946001600160401b03918281116200036057836200006f9183016200039f565b92606082015183811162000360576200008992016200039f565b82518281116200026b576003918254916001958684811c9416801562000355575b8885101462000341578190601f94858111620002ee575b5088908583116001146200028b575f926200027f575b50505f1982861b1c191690861b1783555b80519384116200026b5760049586548681811c9116801562000260575b828210146200024d5783811162000205575b50809285116001146200019b57509383949184925f956200018f575b50501b925f19911b1c19161790555b60805260a05264ffffffffff421664ffffffffff19600a541617600a55604051610cdc90816200041082396080518181816102cd01528181610555015261080f015260a051816101a50152f35b015193505f8062000133565b92919084601f198116885f52855f20955f905b89838310620001ea5750505010620001d0575b50505050811b01905562000142565b01519060f8845f19921b161c191690555f808080620001c1565b858701518955909701969485019488935090810190620001ae565b875f52815f208480880160051c82019284891062000243575b0160051c019087905b8281106200023757505062000117565b5f815501879062000227565b925081926200021e565b602288634e487b7160e01b5f525260245ffd5b90607f169062000105565b634e487b7160e01b5f52604160045260245ffd5b015190505f80620000d7565b90889350601f19831691875f528a5f20925f5b8c828210620002d75750508411620002bf575b505050811b018355620000e8565b01515f1983881b60f8161c191690555f8080620002b1565b8385015186558c979095019493840193016200029e565b909150855f52885f208580850160051c8201928b861062000337575b918a91869594930160051c01915b82811062000328575050620000c1565b5f81558594508a910162000318565b925081926200030a565b634e487b7160e01b5f52602260045260245ffd5b93607f1693620000aa565b5f80fd5b6040519190601f01601f191682016001600160401b038111838210176200026b57604052565b51906001600160a01b03821682036200036057565b919080601f84011215620003605782516001600160401b0381116200026b57602090620003d5601f8201601f1916830162000364565b9281845282828701011162000360575f5b818110620003fb5750825f9394955001015290565b8581018301518482018401528201620003e656fe6080604081815260049182361015610015575f80fd5b5f92833560e01c91826306fdde03146109fe57508163095ea7b3146109545781630bdfb1d81461090b57816318160ddd146108ec57816323b872dd146108c95781632e90d85714610889578163313ce5671461086d57816370a082311461083e5781637535d246146107fa5781638bed106f146107d257816390f6fcf2146107b357816395d89b41146106945781639dc29fac14610525578163a9059cbb14610503578163b3f1c93d1461029157508063c04a8a1014610253578063c634dfaa1461021c578063dd62ed3e146101d4578063e602539314610191578063e78c9b3b1461015a578063f27990021461013c5763f4fcdc5014610114575f80fd5b3461013857816003193601126101385760209064ffffffffff600a54169051908152f35b5080fd5b50346101385781600319360112610138576020906009549051908152f35b50346101385760203660031901126101385760209181906001600160a01b03610181610b1d565b1681526005845220549051908152f35b5034610138578160031936011261013857517f00000000000000000000000000000000000000000000000000000000000000006001600160a01b03168152602090f35b5034610138578060031936011261013857806020926101f1610b1d565b6101f9610b37565b6001600160a01b0391821683526001865283832091168252845220549051908152f35b50346101385760203660031901126101385760209181906001600160a01b03610243610b1d565b1681526007845220549051908152f35b503461013857806003193601126101385761026c610b1d565b338352600b60209081528284206001600160a01b039092168452528120602435905580f35b9050346104ff5760803660031901126104ff576102ac610b1d565b926102b5610b37565b606435949091604435916001600160a01b036102f4337f0000000000000000000000000000000000000000000000000000000000000000831614610b4d565b80851691169381850361046c575b61030b90610bda565b959150928281526020956007875288822054159785155f146103ea5750867fc16f4e4ca34d790de4c656c72fd015c667d688f20be64eea360618545c4c530f928a60c0936103df9a9b9c9d905b6103628b8b610bc0565b89855260078652838520556005855281838520558264ffffffffff42169460068752209364ffffffffff199481868254161790556103a28c600854610bc0565b9485600855600a541617600a556103b98b8b610bc0565b92600954938151968d88528701528501526060840152608083015260a0820152a3610bc0565b908351928352820152f35b996104109061040a88610404898e60058e52882054610b99565b92610b99565b90610bc0565b61041a8787610bc0565b908115610459578a899a9b9c5060c0936103df9a937fc16f4e4ca34d790de4c656c72fd015c667d688f20be64eea360618545c4c530f96930490610358565b634e487b7160e01b845260128c52602484fd5b818352600b602052868320858452602052868320548481106104ab57908461030b92848652600b60205289862088875260205203888520559050610302565b875162461bcd60e51b8152602081890152602860248201527f537461626c6544656274546f6b656e3a20696e73756666696369656e742064656044820152673632b3b0ba34b7b760c11b6064820152608490fd5b8280fd5b505034610138573660031901126105225761051c610b1d565b50610c57565b80fd5b919050346104ff57806003193601126104ff57610540610b1d565b602435939092906001600160a01b0361057c337f0000000000000000000000000000000000000000000000000000000000000000831614610b4d565b61058585610bda565b949091508782106106435750957f44bd20a79e993bdcc7cbedf54a3b4d19fb78490124b6b90d04fe3242eea579e89260a0926105c38360209a610bcd565b9716948582526007895287878320558715610635575b8664ffffffffff42169260068b52209164ffffffffff1992818482541617905561060584600854610bcd565b9283600855600a541617600a55600954908751938452888a8501528784015260608301526080820152a251908152f35b6005895281878120556105d9565b608490602087519162461bcd60e51b8352820152602560248201527f537461626c6544656274546f6b656e3a206275726e20657863656564732062616044820152646c616e636560d81b6064820152fd5b838334610138578160031936011261013857805190828454600181811c908083169283156107a9575b60209384841081146107965783885290811561077a5750600114610725575b505050829003601f01601f191682019267ffffffffffffffff841183851017610712575082918261070e925282610ad6565b0390f35b634e487b7160e01b815260418552602490fd5b8787529192508591837f8a35acfbc15ff81a39ae7d344fd709f28e8600b4aa8c65c6b64bfe7fe36bd19b5b83851061076657505050508301018580806106dc565b805488860183015293019284908201610750565b60ff1916878501525050151560051b84010190508580806106dc565b634e487b7160e01b895260228a52602489fd5b91607f16916106bd565b5050346101385781600319360112610138576020906009549051908152f35b5050346101385760203660031901126101385760209181906001600160a01b03610181610b1d565b505034610138578160031936011261013857517f00000000000000000000000000000000000000000000000000000000000000006001600160a01b03168152602090f35b5050346101385760203660031901126101385760209061086461085f610b1d565b610bda565b50915191825250f35b5050346101385781600319360112610138576020905160128152f35b5050346101385760203660031901126101385760209164ffffffffff9082906001600160a01b036108b8610b1d565b168152600685522054169051908152f35b8334610522576060366003190112610522576108e3610b1d565b5061051c610b37565b5050346101385781600319360112610138576020906008549051908152f35b50503461013857806003193601126101385780602092610929610b1d565b610931610b37565b6001600160a01b039182168352600b865283832091168252845220549051908152f35b9050346104ff57816003193601126104ff5761096e610b1d565b6024359033156109e7576001600160a01b03169182156109d057508083602095338152600187528181208582528752205582519081527f8c5be1e5ebec7d5bd14f71427d1e84f3dd0314c0f7b2291e5b200ac8c7c3b925843392a35160018152f35b8351634a1406b160e11b8152908101859052602490fd5b835163e602df0560e01b8152808401869052602490fd5b849084346104ff57826003193601126104ff5782600354600181811c90808316928315610acc575b60209384841081146107965783885290811561077a5750600114610a7657505050829003601f01601f191682019267ffffffffffffffff841183851017610712575082918261070e925282610ad6565b600387529192508591837fc2575a0e9e593c00f959f8c92f12db2869c3395a3b0502d05e2516446f71f85b5b838510610ab857505050508301018580806106dc565b805488860183015293019284908201610aa2565b91607f1691610a26565b602080825282518183018190529093925f5b828110610b0957505060409293505f838284010152601f8019910116010190565b818101860151848201604001528501610ae8565b600435906001600160a01b0382168203610b3357565b5f80fd5b602435906001600160a01b0382168203610b3357565b15610b5457565b60405162461bcd60e51b815260206004820152601a60248201527f537461626c6544656274546f6b656e3a206f6e6c7920706f6f6c0000000000006044820152606490fd5b81810292918115918404141715610bac57565b634e487b7160e01b5f52601160045260245ffd5b91908201809211610bac57565b91908203918211610bac57565b6001600160a01b03165f9081526007602052604081205491908215610c4f57610c3f6e0612d847b578e7643c28ac00000000916005602052610c3a610c3364ffffffffff60408085205494600660205220541642610bcd565b9186610b99565b610b99565b0490610c4b8284610bc0565b9190565b915081908190565b60405162461bcd60e51b815260206004820152602160248201527f537461626c6544656274546f6b656e3a206e6f6e2d7472616e7366657261626c6044820152606560f81b6064820152608490fdfea264697066735822122083e172d0c559483447a7a760a0ea5c9d525fe7e525493564a8f60b743b7bc0cd64736f6c63430008140033a26469706673582212201bb3c351e13c53111971053c37b7d97df2390db7cee5ce4c35ffbcdaf51ffb6664736f6c63430008140033","linkReferences":{}},"methodIdentifiers":{"TIMELOCK_DELAY()":"5ba1c1a9","batchInitReserves((address,address,address,string,string,string,string,string,string,uint16,uint16,uint16,uint8)[])":"682ab50d","cancelTimelocked(bytes32)":"49facafa","collateralManager()":"23be345c","executeTimelocked(bytes32,address,bytes)":"8afceacf","getReserveTokens(address)":"877fcec7","getTimelockExecuteTime(bytes32)":"400f21be","initReserve((address,address,address,string,string,string,string,string,string,uint16,uint16,uint16,uint8))":"13f51f8a","initialize(address,address,address,address)":"f8c8765e","interestRateModel()":"f3fdb15a","isReserveInitialized(address)":"89df1e9e","oracleRouter()":"55a29e91","owner()":"8da5cb5b","pendingChanges(bytes32)":"4dda5518","pool()":"16f0115b","renounceOwnership()":"715018a6","reserveTokens(address)":"835bbd55","scheduleTimelocked(bytes32,bytes)":"f15569a8","setBorrowingEnabled(address,bool)":"cb245e5b","setPoolPaused(bool)":"34bf8d30","setReserveCaps(address,uint256,uint256)":"bee015b4","setReserveFactor(address,uint256)":"4b4e6753","setReserveFrozen(address,bool)":"e5b1516d","setReservePaused(address,bool)":"1be090a5","setStableRateBorrowingEnabled(address,bool)":"8c4b2931","transferOwnership(address)":"f2fde38b","updateFlashLoanPremium(uint128)":"ce8fc080","updateReserveParameters(address,uint16,uint16,uint16)":"0b7118d4"},"id":33}