{
  "_format": "hh-sol-artifact-1",
  "contractName": "SimpleDEX",
  "sourceName": "contracts/SimpleDEX.sol",
  "abi": [
    {
      "inputs": [
        {
          "internalType": "address",
          "name": "_tokenA",
          "type": "address"
        },
        {
          "internalType": "address",
          "name": "_tokenB",
          "type": "address"
        }
      ],
      "stateMutability": "nonpayable",
      "type": "constructor"
    },
    {
      "inputs": [
        {
          "internalType": "address",
          "name": "owner",
          "type": "address"
        }
      ],
      "name": "OwnableInvalidOwner",
      "type": "error"
    },
    {
      "inputs": [
        {
          "internalType": "address",
          "name": "account",
          "type": "address"
        }
      ],
      "name": "OwnableUnauthorizedAccount",
      "type": "error"
    },
    {
      "inputs": [],
      "name": "ReentrancyGuardReentrantCall",
      "type": "error"
    },
    {
      "inputs": [
        {
          "internalType": "address",
          "name": "token",
          "type": "address"
        }
      ],
      "name": "SafeERC20FailedOperation",
      "type": "error"
    },
    {
      "anonymous": false,
      "inputs": [
        {
          "indexed": true,
          "internalType": "address",
          "name": "provider",
          "type": "address"
        },
        {
          "indexed": false,
          "internalType": "uint256",
          "name": "amountA",
          "type": "uint256"
        },
        {
          "indexed": false,
          "internalType": "uint256",
          "name": "amountB",
          "type": "uint256"
        },
        {
          "indexed": false,
          "internalType": "uint256",
          "name": "lpTokens",
          "type": "uint256"
        }
      ],
      "name": "LiquidityAdded",
      "type": "event"
    },
    {
      "anonymous": false,
      "inputs": [
        {
          "indexed": true,
          "internalType": "address",
          "name": "provider",
          "type": "address"
        },
        {
          "indexed": false,
          "internalType": "uint256",
          "name": "amountA",
          "type": "uint256"
        },
        {
          "indexed": false,
          "internalType": "uint256",
          "name": "amountB",
          "type": "uint256"
        },
        {
          "indexed": false,
          "internalType": "uint256",
          "name": "lpTokens",
          "type": "uint256"
        }
      ],
      "name": "LiquidityRemoved",
      "type": "event"
    },
    {
      "anonymous": false,
      "inputs": [
        {
          "indexed": true,
          "internalType": "address",
          "name": "previousOwner",
          "type": "address"
        },
        {
          "indexed": true,
          "internalType": "address",
          "name": "newOwner",
          "type": "address"
        }
      ],
      "name": "OwnershipTransferred",
      "type": "event"
    },
    {
      "anonymous": false,
      "inputs": [
        {
          "indexed": true,
          "internalType": "address",
          "name": "user",
          "type": "address"
        },
        {
          "indexed": false,
          "internalType": "address",
          "name": "tokenIn",
          "type": "address"
        },
        {
          "indexed": false,
          "internalType": "uint256",
          "name": "amountIn",
          "type": "uint256"
        },
        {
          "indexed": false,
          "internalType": "address",
          "name": "tokenOut",
          "type": "address"
        },
        {
          "indexed": false,
          "internalType": "uint256",
          "name": "amountOut",
          "type": "uint256"
        }
      ],
      "name": "Swap",
      "type": "event"
    },
    {
      "anonymous": false,
      "inputs": [
        {
          "indexed": false,
          "internalType": "uint256",
          "name": "reserveA",
          "type": "uint256"
        },
        {
          "indexed": false,
          "internalType": "uint256",
          "name": "reserveB",
          "type": "uint256"
        }
      ],
      "name": "Sync",
      "type": "event"
    },
    {
      "inputs": [],
      "name": "BPS_DENOMINATOR",
      "outputs": [
        {
          "internalType": "uint256",
          "name": "",
          "type": "uint256"
        }
      ],
      "stateMutability": "view",
      "type": "function"
    },
    {
      "inputs": [],
      "name": "FEE_BPS",
      "outputs": [
        {
          "internalType": "uint256",
          "name": "",
          "type": "uint256"
        }
      ],
      "stateMutability": "view",
      "type": "function"
    },
    {
      "inputs": [],
      "name": "MINIMUM_LIQUIDITY",
      "outputs": [
        {
          "internalType": "uint256",
          "name": "",
          "type": "uint256"
        }
      ],
      "stateMutability": "view",
      "type": "function"
    },
    {
      "inputs": [
        {
          "internalType": "uint256",
          "name": "amountA",
          "type": "uint256"
        },
        {
          "internalType": "uint256",
          "name": "amountB",
          "type": "uint256"
        },
        {
          "internalType": "uint256",
          "name": "minLpTokens",
          "type": "uint256"
        }
      ],
      "name": "addLiquidity",
      "outputs": [
        {
          "internalType": "uint256",
          "name": "lpTokens",
          "type": "uint256"
        }
      ],
      "stateMutability": "nonpayable",
      "type": "function"
    },
    {
      "inputs": [
        {
          "internalType": "address",
          "name": "",
          "type": "address"
        }
      ],
      "name": "balanceOf",
      "outputs": [
        {
          "internalType": "uint256",
          "name": "",
          "type": "uint256"
        }
      ],
      "stateMutability": "view",
      "type": "function"
    },
    {
      "inputs": [
        {
          "internalType": "uint256",
          "name": "amountIn",
          "type": "uint256"
        }
      ],
      "name": "getAmountOutAToB",
      "outputs": [
        {
          "internalType": "uint256",
          "name": "amountOut",
          "type": "uint256"
        }
      ],
      "stateMutability": "view",
      "type": "function"
    },
    {
      "inputs": [
        {
          "internalType": "uint256",
          "name": "amountIn",
          "type": "uint256"
        }
      ],
      "name": "getAmountOutBToA",
      "outputs": [
        {
          "internalType": "uint256",
          "name": "amountOut",
          "type": "uint256"
        }
      ],
      "stateMutability": "view",
      "type": "function"
    },
    {
      "inputs": [],
      "name": "getPriceAInB",
      "outputs": [
        {
          "internalType": "uint256",
          "name": "price",
          "type": "uint256"
        }
      ],
      "stateMutability": "view",
      "type": "function"
    },
    {
      "inputs": [],
      "name": "getPriceBInA",
      "outputs": [
        {
          "internalType": "uint256",
          "name": "price",
          "type": "uint256"
        }
      ],
      "stateMutability": "view",
      "type": "function"
    },
    {
      "inputs": [],
      "name": "getReserves",
      "outputs": [
        {
          "internalType": "uint256",
          "name": "_reserveA",
          "type": "uint256"
        },
        {
          "internalType": "uint256",
          "name": "_reserveB",
          "type": "uint256"
        }
      ],
      "stateMutability": "view",
      "type": "function"
    },
    {
      "inputs": [],
      "name": "owner",
      "outputs": [
        {
          "internalType": "address",
          "name": "",
          "type": "address"
        }
      ],
      "stateMutability": "view",
      "type": "function"
    },
    {
      "inputs": [
        {
          "internalType": "uint256",
          "name": "lpTokens",
          "type": "uint256"
        },
        {
          "internalType": "uint256",
          "name": "minAmountA",
          "type": "uint256"
        },
        {
          "internalType": "uint256",
          "name": "minAmountB",
          "type": "uint256"
        }
      ],
      "name": "removeLiquidity",
      "outputs": [
        {
          "internalType": "uint256",
          "name": "amountA",
          "type": "uint256"
        },
        {
          "internalType": "uint256",
          "name": "amountB",
          "type": "uint256"
        }
      ],
      "stateMutability": "nonpayable",
      "type": "function"
    },
    {
      "inputs": [],
      "name": "renounceOwnership",
      "outputs": [],
      "stateMutability": "nonpayable",
      "type": "function"
    },
    {
      "inputs": [],
      "name": "reserveA",
      "outputs": [
        {
          "internalType": "uint256",
          "name": "",
          "type": "uint256"
        }
      ],
      "stateMutability": "view",
      "type": "function"
    },
    {
      "inputs": [],
      "name": "reserveB",
      "outputs": [
        {
          "internalType": "uint256",
          "name": "",
          "type": "uint256"
        }
      ],
      "stateMutability": "view",
      "type": "function"
    },
    {
      "inputs": [
        {
          "internalType": "uint256",
          "name": "amountIn",
          "type": "uint256"
        },
        {
          "internalType": "uint256",
          "name": "minAmountOut",
          "type": "uint256"
        }
      ],
      "name": "swapAForB",
      "outputs": [
        {
          "internalType": "uint256",
          "name": "amountOut",
          "type": "uint256"
        }
      ],
      "stateMutability": "nonpayable",
      "type": "function"
    },
    {
      "inputs": [
        {
          "internalType": "uint256",
          "name": "amountIn",
          "type": "uint256"
        },
        {
          "internalType": "uint256",
          "name": "minAmountOut",
          "type": "uint256"
        }
      ],
      "name": "swapBForA",
      "outputs": [
        {
          "internalType": "uint256",
          "name": "amountOut",
          "type": "uint256"
        }
      ],
      "stateMutability": "nonpayable",
      "type": "function"
    },
    {
      "inputs": [],
      "name": "tokenA",
      "outputs": [
        {
          "internalType": "contract IERC20",
          "name": "",
          "type": "address"
        }
      ],
      "stateMutability": "view",
      "type": "function"
    },
    {
      "inputs": [],
      "name": "tokenB",
      "outputs": [
        {
          "internalType": "contract IERC20",
          "name": "",
          "type": "address"
        }
      ],
      "stateMutability": "view",
      "type": "function"
    },
    {
      "inputs": [],
      "name": "totalSupply",
      "outputs": [
        {
          "internalType": "uint256",
          "name": "",
          "type": "uint256"
        }
      ],
      "stateMutability": "view",
      "type": "function"
    },
    {
      "inputs": [
        {
          "internalType": "address",
          "name": "newOwner",
          "type": "address"
        }
      ],
      "name": "transferOwnership",
      "outputs": [],
      "stateMutability": "nonpayable",
      "type": "function"
    }
  ],
  "bytecode": "0x60c060405234801561000f575f80fd5b506040516116d03803806116d083398101604081905261002e916101b4565b60017f9b779b17422d0df92223018b32b4d1fa46e071723d6817e2486d003becc55f0055338061007857604051631e4fbdf760e01b81525f60048201526024015b60405180910390fd5b6100818161014a565b506001600160a01b038216158015906100a257506001600160a01b03811615155b6100df5760405162461bcd60e51b815260206004820152600e60248201526d496e76616c696420746f6b656e7360901b604482015260640161006f565b806001600160a01b0316826001600160a01b0316036101335760405162461bcd60e51b815260206004820152601060248201526f4964656e746963616c20746f6b656e7360801b604482015260640161006f565b6001600160a01b039182166080521660a0526101e5565b5f80546001600160a01b038381166001600160a01b0319831681178455604051919092169283917f8be0079c531659141344cd1fd0a4f28419497f9722a3daafe3b4186f6b6457e09190a35050565b80516001600160a01b03811681146101af575f80fd5b919050565b5f80604083850312156101c5575f80fd5b6101ce83610199565b91506101dc60208401610199565b90509250929050565b60805160a05161147661025a5f395f818161021a0152818161039e01528181610793015281816107f4015281816109b301528181610a4c0152610d0b01525f818161015c015281816103690152818161072f015281816107c801528181610a1701528181610a780152610cd701526114765ff3fe608060405234801561000f575f80fd5b5060043610610132575f3560e01c806370a08231116100b4578063b28d980011610079578063b28d980014610290578063ba9a7a5614610298578063bf333f2c146102a1578063dc5fa6c5146102a9578063e1a45218146102b2578063f2fde38b146102bb575f80fd5b806370a082311461023c578063715018a61461025b578063857620e1146102655780638da5cb5b146102785780639e27278714610288575f80fd5b80631e0c5d68116100fa5780631e0c5d68146101c9578063422f1043146101dc578063553a1db7146101ef5780635938c86b146102025780635f64b55b14610215575f80fd5b80630902f1ac146101365780630fc63d101461015757806311db6ce41461019657806318160ddd146101b757806319e36f3b146101c0575b5f80fd5b6001546002545b604080519283526020830191909152015b60405180910390f35b61017e7f000000000000000000000000000000000000000000000000000000000000000081565b6040516001600160a01b03909116815260200161014e565b6101a96101a43660046112c0565b6102ce565b60405190815260200161014e565b6101a960035481565b6101a960025481565b6101a96101d73660046112c0565b6102e4565b6101a96101ea3660046112d7565b6102f4565b6101a96101fd366004611300565b61062a565b6101a9610210366004611300565b6108ae565b61017e7f000000000000000000000000000000000000000000000000000000000000000081565b6101a961024a366004611320565b60046020525f908152604090205481565b610263610ad2565b005b61013d6102733660046112d7565b610ae5565b5f546001600160a01b031661017e565b6101a9610dd9565b6101a9610e22565b6101a96103e881565b6101a9601e81565b6101a960015481565b6101a961271081565b6102636102c9366004611320565b610e5c565b5f6102de82600154600254610e99565b92915050565b5f6102de82600254600154610e99565b5f6102fd610f5e565b5f8411801561030b57505f83115b61035c5760405162461bcd60e51b815260206004820152601860248201527f416d6f756e7473206d75737420626520706f736974697665000000000000000060448201526064015b60405180910390fd5b6103916001600160a01b037f000000000000000000000000000000000000000000000000000000000000000016333087610f79565b6103c66001600160a01b037f000000000000000000000000000000000000000000000000000000000000000016333086610f79565b6003545f03610480576103e86103db84610fb5565b6103e486610fb5565b6103ee919061135a565b6103f89190611371565b90505f81116104495760405162461bcd60e51b815260206004820152601e60248201527f496e73756666696369656e7420696e697469616c206c697175696469747900006044820152606401610353565b6103e860038190555f805260046020527f17ef568e3e12ab5b9c7254a8d58478811de00f9e6eb34345acd53bf8fd09d3ec556104d0565b5f60015460035486610492919061135a565b61049c9190611398565b90505f600254600354866104b0919061135a565b6104ba9190611398565b90508082106104c957806104cb565b815b925050505b818110156105195760405162461bcd60e51b8152602060048201526016602482015275496e73756666696369656e74204c5020746f6b656e7360501b6044820152606401610353565b335f90815260046020526040812080548392906105379084906113b7565b925050819055508060035f82825461054f91906113b7565b925050819055508360015f82825461056791906113b7565b925050819055508260025f82825461057f91906113b7565b9091555050604080518581526020810185905290810182905233907f64b83944e79c3ce8d4c297411de637c3e102d064677aac0c163976ebdcd6f50e9060600160405180910390a27fcf2aa50876cdfbb541206f89af0ee78d44a2abf8d328e37fa4917f982149848a600154600254604051610605929190918252602082015260400190565b60405180910390a161062360015f8051602061142183398151915255565b9392505050565b5f610633610f5e565b5f831161067c5760405162461bcd60e51b8152602060048201526017602482015276416d6f756e74206d75737420626520706f73697469766560481b6044820152606401610353565b5f60015411801561068e57505f600254115b6106aa5760405162461bcd60e51b8152600401610353906113ca565b6106b983600154600254610e99565b9050818110156107015760405162461bcd60e51b8152602060048201526013602482015272125b9cdd59999a58da595b9d081bdd5d1c1d5d606a1b6044820152606401610353565b60025481106107225760405162461bcd60e51b8152600401610353906113f0565b6107576001600160a01b037f000000000000000000000000000000000000000000000000000000000000000016333086610f79565b8260015f82825461076891906113b7565b925050819055508060025f8282546107809190611371565b909155506107ba90506001600160a01b037f000000000000000000000000000000000000000000000000000000000000000016338361110d565b604080516001600160a01b037f000000000000000000000000000000000000000000000000000000000000000081168252602082018690527f000000000000000000000000000000000000000000000000000000000000000016918101919091526060810182905233907f5380cf97d8f645d3c4896da60c053458dca03a3a31cec642ac80e1ddf0d8d02a906080015b60405180910390a27fcf2aa50876cdfbb541206f89af0ee78d44a2abf8d328e37fa4917f982149848a600154600254604051610890929190918252602082015260400190565b60405180910390a16102de60015f8051602061142183398151915255565b5f6108b7610f5e565b5f83116109005760405162461bcd60e51b8152602060048201526017602482015276416d6f756e74206d75737420626520706f73697469766560481b6044820152606401610353565b5f60015411801561091257505f600254115b61092e5760405162461bcd60e51b8152600401610353906113ca565b61093d83600254600154610e99565b9050818110156109855760405162461bcd60e51b8152602060048201526013602482015272125b9cdd59999a58da595b9d081bdd5d1c1d5d606a1b6044820152606401610353565b60015481106109a65760405162461bcd60e51b8152600401610353906113f0565b6109db6001600160a01b037f000000000000000000000000000000000000000000000000000000000000000016333086610f79565b8260025f8282546109ec91906113b7565b925050819055508060015f828254610a049190611371565b90915550610a3e90506001600160a01b037f000000000000000000000000000000000000000000000000000000000000000016338361110d565b604080516001600160a01b037f000000000000000000000000000000000000000000000000000000000000000081168252602082018690527f000000000000000000000000000000000000000000000000000000000000000016918101919091526060810182905233907f5380cf97d8f645d3c4896da60c053458dca03a3a31cec642ac80e1ddf0d8d02a9060800161084a565b610ada611147565b610ae35f611173565b565b5f80610aef610f5e565b5f8511610b3e5760405162461bcd60e51b815260206004820152601a60248201527f4c5020746f6b656e73206d75737420626520706f7369746976650000000000006044820152606401610353565b335f90815260046020526040902054851115610b955760405162461bcd60e51b8152602060048201526016602482015275496e73756666696369656e74204c5020746f6b656e7360501b6044820152606401610353565b600354600154610ba5908761135a565b610baf9190611398565b915060035460025486610bc2919061135a565b610bcc9190611398565b905083821015610c165760405162461bcd60e51b8152602060048201526015602482015274496e73756666696369656e7420616d6f756e74204160581b6044820152606401610353565b82811015610c5e5760405162461bcd60e51b815260206004820152601560248201527424b739bab33334b1b4b2b73a1030b6b7bab73a102160591b6044820152606401610353565b335f9081526004602052604081208054879290610c7c908490611371565b925050819055508460035f828254610c949190611371565b925050819055508160015f828254610cac9190611371565b925050819055508060025f828254610cc49190611371565b90915550610cfe90506001600160a01b037f000000000000000000000000000000000000000000000000000000000000000016338461110d565b610d326001600160a01b037f000000000000000000000000000000000000000000000000000000000000000016338361110d565b604080518381526020810183905290810186905233907f1dc8bb69df2b8e91fbdcbfcf93d951b3f0000f085a95fe3f7946d6161439245d9060600160405180910390a27fcf2aa50876cdfbb541206f89af0ee78d44a2abf8d328e37fa4917f982149848a600154600254604051610db3929190918252602082015260400190565b60405180910390a1610dd160015f8051602061142183398151915255565b935093915050565b5f8060015411610dfb5760405162461bcd60e51b8152600401610353906113ca565b600154600254610e1390670de0b6b3a764000061135a565b610e1d9190611398565b905090565b5f8060025411610e445760405162461bcd60e51b8152600401610353906113ca565b600254600154610e1390670de0b6b3a764000061135a565b610e64611147565b6001600160a01b038116610e8d57604051631e4fbdf760e01b81525f6004820152602401610353565b610e9681611173565b50565b5f808411610ede5760405162461bcd60e51b8152602060048201526012602482015271125b9cdd59999a58da595b9d081a5b9c1d5d60721b6044820152606401610353565b5f83118015610eec57505f82115b610f085760405162461bcd60e51b8152600401610353906113f0565b5f610f16601e612710611371565b610f20908661135a565b90505f610f2d848361135a565b90505f82610f3d6127108861135a565b610f4791906113b7565b9050610f538183611398565b979650505050505050565b610f666111c2565b60025f8051602061142183398151915255565b610f878484848460016111f1565b610faf57604051635274afe760e01b81526001600160a01b0385166004820152602401610353565b50505050565b5f60018211610fc2575090565b816001600160801b8210610fdb5760809190911c9060401b5b680100000000000000008210610ff65760409190911c9060201b5b640100000000821061100d5760209190911c9060101b5b6201000082106110225760109190911c9060081b5b61010082106110365760089190911c9060041b5b601082106110495760049190911c9060021b5b600482106110555760011b5b600302600190811c9081858161106d5761106d611384565b048201901c9050600181858161108557611085611384565b048201901c9050600181858161109d5761109d611384565b048201901c905060018185816110b5576110b5611384565b048201901c905060018185816110cd576110cd611384565b048201901c905060018185816110e5576110e5611384565b048201901c90506111048185816110fe576110fe611384565b04821190565b90039392505050565b61111a838383600161125e565b61114257604051635274afe760e01b81526001600160a01b0384166004820152602401610353565b505050565b5f546001600160a01b03163314610ae35760405163118cdaa760e01b8152336004820152602401610353565b5f80546001600160a01b038381166001600160a01b0319831681178455604051919092169283917f8be0079c531659141344cd1fd0a4f28419497f9722a3daafe3b4186f6b6457e09190a35050565b5f8051602061142183398151915254600203610ae357604051633ee5aeb560e01b815260040160405180910390fd5b6040516323b872dd60e01b5f8181526001600160a01b038781166004528616602452604485905291602083606481808c5af1925060015f5114831661124d578383151615611241573d5f823e3d81fd5b5f883b113d1516831692505b604052505f60605295945050505050565b60405163a9059cbb60e01b5f8181526001600160a01b038616600452602485905291602083604481808b5af1925060015f511483166112b45783831516156112a8573d5f823e3d81fd5b5f873b113d1516831692505b60405250949350505050565b5f602082840312156112d0575f80fd5b5035919050565b5f805f606084860312156112e9575f80fd5b505081359360208301359350604090920135919050565b5f8060408385031215611311575f80fd5b50508035926020909101359150565b5f60208284031215611330575f80fd5b81356001600160a01b0381168114610623575f80fd5b634e487b7160e01b5f52601160045260245ffd5b80820281158282048414176102de576102de611346565b818103818111156102de576102de611346565b634e487b7160e01b5f52601260045260245ffd5b5f826113b257634e487b7160e01b5f52601260045260245ffd5b500490565b808201808211156102de576102de611346565b6020808252600c908201526b4e6f206c697175696469747960a01b604082015260600190565b602080825260169082015275496e73756666696369656e74206c697175696469747960501b60408201526060019056fe9b779b17422d0df92223018b32b4d1fa46e071723d6817e2486d003becc55f00a26469706673582212207617b1ee9b6a1cf382594d4a01082608d84c879798c9a827f40807268c3e327a64736f6c634300081a0033",
  "linkReferences": {},
  "deployedLinkReferences": {}
}