{
  "_format": "hh-sol-artifact-1",
  "contractName": "X3FlashPool",
  "sourceName": "contracts/X3FlashPool.sol",
  "abi": [
    {
      "inputs": [],
      "stateMutability": "nonpayable",
      "type": "constructor"
    },
    {
      "anonymous": false,
      "inputs": [
        {
          "indexed": true,
          "internalType": "address",
          "name": "borrower",
          "type": "address"
        },
        {
          "indexed": true,
          "internalType": "address",
          "name": "token",
          "type": "address"
        },
        {
          "indexed": false,
          "internalType": "uint256",
          "name": "amount",
          "type": "uint256"
        },
        {
          "indexed": false,
          "internalType": "uint256",
          "name": "fee",
          "type": "uint256"
        }
      ],
      "name": "FlashLoanIssued",
      "type": "event"
    },
    {
      "anonymous": false,
      "inputs": [
        {
          "indexed": true,
          "internalType": "address",
          "name": "borrower",
          "type": "address"
        },
        {
          "indexed": true,
          "internalType": "address",
          "name": "token",
          "type": "address"
        },
        {
          "indexed": false,
          "internalType": "uint256",
          "name": "amount",
          "type": "uint256"
        },
        {
          "indexed": false,
          "internalType": "uint256",
          "name": "fee",
          "type": "uint256"
        }
      ],
      "name": "FlashLoanRepaid",
      "type": "event"
    },
    {
      "inputs": [
        {
          "internalType": "address",
          "name": "token",
          "type": "address"
        },
        {
          "internalType": "uint256",
          "name": "initialReserve",
          "type": "uint256"
        }
      ],
      "name": "addToken",
      "outputs": [],
      "stateMutability": "nonpayable",
      "type": "function"
    },
    {
      "inputs": [
        {
          "internalType": "address",
          "name": "token",
          "type": "address"
        },
        {
          "internalType": "uint256",
          "name": "amount",
          "type": "uint256"
        }
      ],
      "name": "deposit",
      "outputs": [],
      "stateMutability": "nonpayable",
      "type": "function"
    },
    {
      "inputs": [
        {
          "internalType": "address",
          "name": "token",
          "type": "address"
        },
        {
          "internalType": "uint256",
          "name": "amount",
          "type": "uint256"
        },
        {
          "internalType": "bytes",
          "name": "data",
          "type": "bytes"
        }
      ],
      "name": "flashLoan",
      "outputs": [
        {
          "internalType": "bool",
          "name": "",
          "type": "bool"
        }
      ],
      "stateMutability": "nonpayable",
      "type": "function"
    },
    {
      "inputs": [
        {
          "internalType": "address",
          "name": "token",
          "type": "address"
        }
      ],
      "name": "getReserve",
      "outputs": [
        {
          "internalType": "uint256",
          "name": "",
          "type": "uint256"
        }
      ],
      "stateMutability": "view",
      "type": "function"
    },
    {
      "inputs": [],
      "name": "owner",
      "outputs": [
        {
          "internalType": "address",
          "name": "",
          "type": "address"
        }
      ],
      "stateMutability": "view",
      "type": "function"
    },
    {
      "inputs": [
        {
          "internalType": "address",
          "name": "token",
          "type": "address"
        }
      ],
      "name": "removeToken",
      "outputs": [],
      "stateMutability": "nonpayable",
      "type": "function"
    },
    {
      "inputs": [
        {
          "internalType": "address",
          "name": "",
          "type": "address"
        }
      ],
      "name": "reserves",
      "outputs": [
        {
          "internalType": "uint256",
          "name": "",
          "type": "uint256"
        }
      ],
      "stateMutability": "view",
      "type": "function"
    },
    {
      "inputs": [
        {
          "internalType": "address",
          "name": "",
          "type": "address"
        }
      ],
      "name": "supportedTokens",
      "outputs": [
        {
          "internalType": "bool",
          "name": "",
          "type": "bool"
        }
      ],
      "stateMutability": "view",
      "type": "function"
    },
    {
      "inputs": [
        {
          "internalType": "address",
          "name": "token",
          "type": "address"
        },
        {
          "internalType": "uint256",
          "name": "amount",
          "type": "uint256"
        }
      ],
      "name": "withdraw",
      "outputs": [],
      "stateMutability": "nonpayable",
      "type": "function"
    }
  ],
  "bytecode": "0x608060405234801561001057600080fd5b50600080546001600160a01b03191633179055610a85806100326000396000f3fe608060405234801561001057600080fd5b50600436106100935760003560e01c8063af81c5b911610066578063af81c5b914610123578063c9a396e914610136578063d66bd5241461016d578063e0232b421461018d578063f3fef3a3146101a057600080fd5b806347e7ef24146100985780635fa7b584146100ad57806368c4ac26146100c05780638da5cb5b146100f8575b600080fd5b6100ab6100a63660046108a2565b6101b3565b005b6100ab6100bb3660046108cc565b6102bf565b6100e36100ce3660046108cc565b60026020526000908152604090205460ff1681565b60405190151581526020015b60405180910390f35b60005461010b906001600160a01b031681565b6040516001600160a01b0390911681526020016100ef565b6100ab6101313660046108a2565b61030a565b61015f6101443660046108cc565b6001600160a01b031660009081526001602052604090205490565b6040519081526020016100ef565b61015f61017b3660046108cc565b60016020526000908152604090205481565b6100e361019b3660046108ee565b61043b565b6100ab6101ae3660046108a2565b61075a565b6001600160a01b03821660009081526002602052604090205460ff166102165760405162461bcd60e51b8152602060048201526013602482015272151bdad95b881b9bdd081cdd5c1c1bdc9d1959606a1b60448201526064015b60405180910390fd5b6040516323b872dd60e01b8152336004820152306024820152604481018290526001600160a01b038316906323b872dd906064016020604051808303816000875af1158015610269573d6000803e3d6000fd5b505050506040513d601f19601f8201168201806040525081019061028d9190610975565b506001600160a01b038216600090815260016020526040812080548392906102b69084906109ad565b90915550505050565b6000546001600160a01b031633146102e95760405162461bcd60e51b815260040161020d906109c6565b6001600160a01b03166000908152600260205260409020805460ff19169055565b6000546001600160a01b031633146103345760405162461bcd60e51b815260040161020d906109c6565b6001600160a01b03821661037a5760405162461bcd60e51b815260206004820152600d60248201526c24b73b30b634b2103a37b5b2b760991b604482015260640161020d565b6001600160a01b0382166000908152600260205260409020805460ff191660011790558015610437576040516323b872dd60e01b8152336004820152306024820152604481018290526001600160a01b038316906323b872dd906064016020604051808303816000875af11580156103f6573d6000803e3d6000fd5b505050506040513d601f19601f8201168201806040525081019061041a9190610975565b506001600160a01b03821660009081526001602052604090208190555b5050565b6001600160a01b03841660009081526002602052604081205460ff166104995760405162461bcd60e51b8152602060048201526013602482015272151bdad95b881b9bdd081cdd5c1c1bdc9d1959606a1b604482015260640161020d565b6001600160a01b0385166000908152600160205260409020548411156104fa5760405162461bcd60e51b8152602060048201526016602482015275496e73756666696369656e74206c697175696469747960501b604482015260640161020d565b600061271061050a8660056109ea565b6105149190610a01565b6001600160a01b038716600090815260016020526040812080549293508792909190610541908490610a23565b909155505060405163a9059cbb60e01b8152336004820152602481018690526001600160a01b0387169063a9059cbb906044016020604051808303816000875af1158015610593573d6000803e3d6000fd5b505050506040513d601f19601f820116820180604052508101906105b79190610975565b5060408051868152602081018390526001600160a01b0388169133917f8ba770700826aa30e61bb482f59c8f489da0cb22709da79492c105016c0748b4910160405180910390a3600061060a82876109ad565b6001600160a01b0388166000908152600160205260409020549091506106319082906109ad565b6040516370a0823160e01b81523060048201526001600160a01b038916906370a0823190602401602060405180830381865afa158015610675573d6000803e3d6000fd5b505050506040513d601f19601f820116820180604052508101906106999190610a36565b10156106da5760405162461bcd60e51b815260206004820152601060248201526f14995c185e5b595b9d0819985a5b195960821b604482015260640161020d565b6001600160a01b038716600090815260016020526040812080548392906107029084906109ad565b909155505060408051878152602081018490526001600160a01b0389169133917f07fbdcc91cae63c31a9119c87a33e8142d1c8035c7eb0cf9cd54d3ec2edfe4eb910160405180910390a35060019695505050505050565b6000546001600160a01b031633146107845760405162461bcd60e51b815260040161020d906109c6565b6001600160a01b0382166000908152600160205260409020548111156107e35760405162461bcd60e51b8152602060048201526014602482015273496e73756666696369656e74207265736572766560601b604482015260640161020d565b6001600160a01b0382166000908152600160205260408120805483929061080b908490610a23565b909155505060405163a9059cbb60e01b8152336004820152602481018290526001600160a01b0383169063a9059cbb906044016020604051808303816000875af115801561085d573d6000803e3d6000fd5b505050506040513d601f19601f820116820180604052508101906108819190610975565b505050565b80356001600160a01b038116811461089d57600080fd5b919050565b600080604083850312156108b557600080fd5b6108be83610886565b946020939093013593505050565b6000602082840312156108de57600080fd5b6108e782610886565b9392505050565b6000806000806060858703121561090457600080fd5b61090d85610886565b935060208501359250604085013567ffffffffffffffff8082111561093157600080fd5b818701915087601f83011261094557600080fd5b81358181111561095457600080fd5b88602082850101111561096657600080fd5b95989497505060200194505050565b60006020828403121561098757600080fd5b815180151581146108e757600080fd5b634e487b7160e01b600052601160045260246000fd5b808201808211156109c0576109c0610997565b92915050565b6020808252600a908201526927b7363c9037bbb732b960b11b604082015260600190565b80820281158282048414176109c0576109c0610997565b600082610a1e57634e487b7160e01b600052601260045260246000fd5b500490565b818103818111156109c0576109c0610997565b600060208284031215610a4857600080fd5b505191905056fea2646970667358221220e489ace39f0b5a2bbce308f79f495b75380132a165607cc89b2e5795cdb42e9364736f6c63430008180033",
  "linkReferences": {},
  "deployedLinkReferences": {}
}