{
  "_format": "hh-sol-artifact-1",
  "contractName": "HubFeeCollector",
  "sourceName": "contracts/hub/HubFeeCollector.sol",
  "abi": [
    {
      "inputs": [],
      "stateMutability": "nonpayable",
      "type": "constructor"
    },
    {
      "anonymous": false,
      "inputs": [
        {
          "indexed": true,
          "internalType": "address",
          "name": "token",
          "type": "address"
        },
        {
          "indexed": false,
          "internalType": "uint256",
          "name": "amount",
          "type": "uint256"
        },
        {
          "indexed": true,
          "internalType": "address",
          "name": "destination",
          "type": "address"
        },
        {
          "indexed": false,
          "internalType": "uint256",
          "name": "timestamp",
          "type": "uint256"
        }
      ],
      "name": "CollectorAudit",
      "type": "event"
    },
    {
      "anonymous": false,
      "inputs": [
        {
          "indexed": true,
          "internalType": "address",
          "name": "router",
          "type": "address"
        }
      ],
      "name": "FeeRouterUpdated",
      "type": "event"
    },
    {
      "anonymous": false,
      "inputs": [
        {
          "indexed": true,
          "internalType": "address",
          "name": "payer",
          "type": "address"
        },
        {
          "indexed": true,
          "internalType": "address",
          "name": "token",
          "type": "address"
        },
        {
          "indexed": false,
          "internalType": "uint256",
          "name": "amount",
          "type": "uint256"
        },
        {
          "indexed": false,
          "internalType": "uint256",
          "name": "targetChainId",
          "type": "uint256"
        },
        {
          "indexed": false,
          "internalType": "bytes32",
          "name": "category",
          "type": "bytes32"
        },
        {
          "indexed": false,
          "internalType": "bytes",
          "name": "data",
          "type": "bytes"
        }
      ],
      "name": "HubFeeCollected",
      "type": "event"
    },
    {
      "anonymous": false,
      "inputs": [
        {
          "indexed": true,
          "internalType": "address",
          "name": "previousOwner",
          "type": "address"
        },
        {
          "indexed": true,
          "internalType": "address",
          "name": "newOwner",
          "type": "address"
        }
      ],
      "name": "OwnershipTransferred",
      "type": "event"
    },
    {
      "inputs": [
        {
          "internalType": "address",
          "name": "payer",
          "type": "address"
        },
        {
          "internalType": "address",
          "name": "token",
          "type": "address"
        },
        {
          "internalType": "uint256",
          "name": "amount",
          "type": "uint256"
        },
        {
          "internalType": "uint256",
          "name": "targetChainId",
          "type": "uint256"
        },
        {
          "internalType": "bytes32",
          "name": "category",
          "type": "bytes32"
        },
        {
          "internalType": "bytes",
          "name": "data",
          "type": "bytes"
        }
      ],
      "name": "collectHubFee",
      "outputs": [],
      "stateMutability": "payable",
      "type": "function"
    },
    {
      "inputs": [],
      "name": "feeRouter",
      "outputs": [
        {
          "internalType": "address",
          "name": "",
          "type": "address"
        }
      ],
      "stateMutability": "view",
      "type": "function"
    },
    {
      "inputs": [],
      "name": "owner",
      "outputs": [
        {
          "internalType": "address",
          "name": "",
          "type": "address"
        }
      ],
      "stateMutability": "view",
      "type": "function"
    },
    {
      "inputs": [],
      "name": "renounceOwnership",
      "outputs": [],
      "stateMutability": "nonpayable",
      "type": "function"
    },
    {
      "inputs": [
        {
          "internalType": "address",
          "name": "_feeRouter",
          "type": "address"
        }
      ],
      "name": "setFeeRouter",
      "outputs": [],
      "stateMutability": "nonpayable",
      "type": "function"
    },
    {
      "inputs": [
        {
          "internalType": "address",
          "name": "newOwner",
          "type": "address"
        }
      ],
      "name": "transferOwnership",
      "outputs": [],
      "stateMutability": "nonpayable",
      "type": "function"
    }
  ],
  "bytecode": "0x608060405234801561001057600080fd5b5061001a3361001f565b61006f565b600080546001600160a01b038381166001600160a01b0319831681178455604051919092169283917f8be0079c531659141344cd1fd0a4f28419497f9722a3daafe3b4186f6b6457e09190a35050565b610be48061007e6000396000f3fe6080604052600436106100555760003560e01c8063715018a61461005a5780638da5cb5b14610071578063c267ada4146100a7578063cf300b91146100c7578063f29ebf61146100da578063f2fde38b146100fa575b600080fd5b34801561006657600080fd5b5061006f61011a565b005b34801561007d57600080fd5b506000546001600160a01b03165b6040516001600160a01b03909116815260200160405180910390f35b3480156100b357600080fd5b5061006f6100c23660046109e9565b61012e565b61006f6100d5366004610a0b565b6101cc565b3480156100e657600080fd5b5060015461008b906001600160a01b031681565b34801561010657600080fd5b5061006f6101153660046109e9565b6104ba565b610122610533565b61012c600061058d565b565b610136610533565b6001600160a01b0381166101825760405162461bcd60e51b815260206004820152600e60248201526d24b73b30b634b2103937baba32b960911b60448201526064015b60405180910390fd5b600180546001600160a01b0319166001600160a01b0383169081179091556040517f5ccf3fd6765dc8494fc06089f546346290465d6e9ee1c0a33854372d264d9c4890600090a250565b6001546001600160a01b03166102195760405162461bcd60e51b8152602060048201526012602482015271119959481c9bdd5d195c881b9bdd081cd95d60721b6044820152606401610179565b6001600160a01b0386166102f15784341461026e5760405162461bcd60e51b8152602060048201526015602482015274125b9d985b1a59081b985d1a5d9948185b5bdd5b9d605a1b6044820152606401610179565b6001546040516359d0e6a760e01b81526001600160a01b0388811660048301528981166024830152604482018890526064820187905260848201869052909116906359d0e6a790349060a4016000604051808303818588803b1580156102d357600080fd5b505af11580156102e7573d6000803e3d6000fd5b505050505061045e565b6040516370a0823160e01b81523060048201526000906001600160a01b038816906370a0823190602401602060405180830381865afa158015610338573d6000803e3d6000fd5b505050506040513d601f19601f8201168201806040525081019061035c9190610abc565b90508581101561037b5761037b6001600160a01b0388163330896105dd565b600154610395906001600160a01b0389811691168861064e565b6001546040516359d0e6a760e01b81526001600160a01b0389811660048301528a81166024830152604482018990526064820188905260848201879052909116906359d0e6a79060a401600060405180830381600087803b1580156103f957600080fd5b505af115801561040d573d6000803e3d6000fd5b5050600154604080518a81524260208201526001600160a01b039283169450918b1692507faba24238c14a5564fc2ac56fb4c910e4c227b18a40a5027e86a461eeb8ee5077910160405180910390a3505b856001600160a01b0316876001600160a01b03167face41946b23732dcff37b48ff85de8df7144786bcd1e206b96d21b6e6c08316187878787876040516104a9959493929190610ad5565b60405180910390a350505050505050565b6104c2610533565b6001600160a01b0381166105275760405162461bcd60e51b815260206004820152602660248201527f4f776e61626c653a206e6577206f776e657220697320746865207a65726f206160448201526564647265737360d01b6064820152608401610179565b6105308161058d565b50565b6000546001600160a01b0316331461012c5760405162461bcd60e51b815260206004820181905260248201527f4f776e61626c653a2063616c6c6572206973206e6f7420746865206f776e65726044820152606401610179565b600080546001600160a01b038381166001600160a01b0319831681178455604051919092169283917f8be0079c531659141344cd1fd0a4f28419497f9722a3daafe3b4186f6b6457e09190a35050565b6040516001600160a01b03808516602483015283166044820152606481018290526106489085906323b872dd60e01b906084015b60408051601f198184030181529190526020810180516001600160e01b03166001600160e01b031990931692909217909152610768565b50505050565b8015806106c85750604051636eb1769f60e11b81523060048201526001600160a01b03838116602483015284169063dd62ed3e90604401602060405180830381865afa1580156106a2573d6000803e3d6000fd5b505050506040513d601f19601f820116820180604052508101906106c69190610abc565b155b6107335760405162461bcd60e51b815260206004820152603660248201527f5361666545524332303a20617070726f76652066726f6d206e6f6e2d7a65726f60448201527520746f206e6f6e2d7a65726f20616c6c6f77616e636560501b6064820152608401610179565b6040516001600160a01b03831660248201526044810182905261076390849063095ea7b360e01b90606401610611565b505050565b60006107bd826040518060400160405280602081526020017f5361666545524332303a206c6f772d6c6576656c2063616c6c206661696c6564815250856001600160a01b031661083d9092919063ffffffff16565b90508051600014806107de5750808060200190518101906107de9190610b19565b6107635760405162461bcd60e51b815260206004820152602a60248201527f5361666545524332303a204552433230206f7065726174696f6e20646964206e6044820152691bdd081cdd58d8d9595960b21b6064820152608401610179565b606061084c8484600085610854565b949350505050565b6060824710156108b55760405162461bcd60e51b815260206004820152602660248201527f416464726573733a20696e73756666696369656e742062616c616e636520666f6044820152651c8818d85b1b60d21b6064820152608401610179565b600080866001600160a01b031685876040516108d19190610b5f565b60006040518083038185875af1925050503d806000811461090e576040519150601f19603f3d011682016040523d82523d6000602084013e610913565b606091505b50915091506109248783838761092f565b979650505050505050565b6060831561099e578251600003610997576001600160a01b0385163b6109975760405162461bcd60e51b815260206004820152601d60248201527f416464726573733a2063616c6c20746f206e6f6e2d636f6e74726163740000006044820152606401610179565b508161084c565b61084c83838151156109b35781518083602001fd5b8060405162461bcd60e51b81526004016101799190610b7b565b80356001600160a01b03811681146109e457600080fd5b919050565b6000602082840312156109fb57600080fd5b610a04826109cd565b9392505050565b600080600080600080600060c0888a031215610a2657600080fd5b610a2f886109cd565b9650610a3d602089016109cd565b955060408801359450606088013593506080880135925060a088013567ffffffffffffffff80821115610a6f57600080fd5b818a0191508a601f830112610a8357600080fd5b813581811115610a9257600080fd5b8b6020828501011115610aa457600080fd5b60208301945080935050505092959891949750929550565b600060208284031215610ace57600080fd5b5051919050565b85815284602082015283604082015260806060820152816080820152818360a0830137600081830160a090810191909152601f909201601f19160101949350505050565b600060208284031215610b2b57600080fd5b81518015158114610a0457600080fd5b60005b83811015610b56578181015183820152602001610b3e565b50506000910152565b60008251610b71818460208701610b3b565b9190910192915050565b6020815260008251806020840152610b9a816040850160208701610b3b565b601f01601f1916919091016040019291505056fea26469706673582212203c75f57015044d83ac95b697b82f917b2111c96cbb123e0e00e37ed8db2bc77f64736f6c63430008180033",
  "linkReferences": {},
  "deployedLinkReferences": {}
}