{"abi":[{"type":"constructor","inputs":[{"name":"pool","type":"address","internalType":"address"},{"name":"underlyingAsset","type":"address","internalType":"address"},{"name":"treasury_","type":"address","internalType":"address"},{"name":"incentivesController_","type":"address","internalType":"address"},{"name":"name_","type":"string","internalType":"string"},{"name":"symbol_","type":"string","internalType":"string"}],"stateMutability":"nonpayable"},{"type":"function","name":"POOL","inputs":[],"outputs":[{"name":"","type":"address","internalType":"address"}],"stateMutability":"view"},{"type":"function","name":"UNDERLYING_ASSET","inputs":[],"outputs":[{"name":"","type":"address","internalType":"contract IERC20"}],"stateMutability":"view"},{"type":"function","name":"allowance","inputs":[{"name":"owner","type":"address","internalType":"address"},{"name":"spender","type":"address","internalType":"address"}],"outputs":[{"name":"","type":"uint256","internalType":"uint256"}],"stateMutability":"view"},{"type":"function","name":"approve","inputs":[{"name":"spender","type":"address","internalType":"address"},{"name":"value","type":"uint256","internalType":"uint256"}],"outputs":[{"name":"","type":"bool","internalType":"bool"}],"stateMutability":"nonpayable"},{"type":"function","name":"balanceOf","inputs":[{"name":"account","type":"address","internalType":"address"}],"outputs":[{"name":"","type":"uint256","internalType":"uint256"}],"stateMutability":"view"},{"type":"function","name":"burn","inputs":[{"name":"from","type":"address","internalType":"address"},{"name":"receiverOfUnderlying","type":"address","internalType":"address"},{"name":"amount","type":"uint256","internalType":"uint256"},{"name":"index","type":"uint256","internalType":"uint256"}],"outputs":[],"stateMutability":"nonpayable"},{"type":"function","name":"decimals","inputs":[],"outputs":[{"name":"","type":"uint8","internalType":"uint8"}],"stateMutability":"view"},{"type":"function","name":"getIndex","inputs":[],"outputs":[{"name":"","type":"uint256","internalType":"uint256"}],"stateMutability":"view"},{"type":"function","name":"getUnderlyingAsset","inputs":[],"outputs":[{"name":"","type":"address","internalType":"address"}],"stateMutability":"view"},{"type":"function","name":"handleRepayment","inputs":[{"name":"user","type":"address","internalType":"address"},{"name":"onBehalfOf","type":"address","internalType":"address"},{"name":"amount","type":"uint256","internalType":"uint256"}],"outputs":[],"stateMutability":"nonpayable"},{"type":"function","name":"incentivesController","inputs":[],"outputs":[{"name":"","type":"address","internalType":"address"}],"stateMutability":"view"},{"type":"function","name":"liquidityIndex","inputs":[],"outputs":[{"name":"","type":"uint256","internalType":"uint256"}],"stateMutability":"view"},{"type":"function","name":"mint","inputs":[{"name":"caller","type":"address","internalType":"address"},{"name":"onBehalfOf","type":"address","internalType":"address"},{"name":"amount","type":"uint256","internalType":"uint256"},{"name":"index","type":"uint256","internalType":"uint256"}],"outputs":[{"name":"","type":"bool","internalType":"bool"}],"stateMutability":"nonpayable"},{"type":"function","name":"mintToTreasury","inputs":[{"name":"amount","type":"uint256","internalType":"uint256"},{"name":"index","type":"uint256","internalType":"uint256"}],"outputs":[],"stateMutability":"nonpayable"},{"type":"function","name":"name","inputs":[],"outputs":[{"name":"","type":"string","internalType":"string"}],"stateMutability":"view"},{"type":"function","name":"rescueTokens","inputs":[{"name":"token","type":"address","internalType":"address"},{"name":"to","type":"address","internalType":"address"},{"name":"amount","type":"uint256","internalType":"uint256"}],"outputs":[],"stateMutability":"nonpayable"},{"type":"function","name":"scaledBalanceOf","inputs":[{"name":"account","type":"address","internalType":"address"}],"outputs":[{"name":"","type":"uint256","internalType":"uint256"}],"stateMutability":"view"},{"type":"function","name":"scaledTotalSupply","inputs":[],"outputs":[{"name":"","type":"uint256","internalType":"uint256"}],"stateMutability":"view"},{"type":"function","name":"symbol","inputs":[],"outputs":[{"name":"","type":"string","internalType":"string"}],"stateMutability":"view"},{"type":"function","name":"totalSupply","inputs":[],"outputs":[{"name":"","type":"uint256","internalType":"uint256"}],"stateMutability":"view"},{"type":"function","name":"transfer","inputs":[{"name":"to","type":"address","internalType":"address"},{"name":"amount","type":"uint256","internalType":"uint256"}],"outputs":[{"name":"","type":"bool","internalType":"bool"}],"stateMutability":"nonpayable"},{"type":"function","name":"transferFrom","inputs":[{"name":"from","type":"address","internalType":"address"},{"name":"to","type":"address","internalType":"address"},{"name":"amount","type":"uint256","internalType":"uint256"}],"outputs":[{"name":"","type":"bool","internalType":"bool"}],"stateMutability":"nonpayable"},{"type":"function","name":"transferUnderlyingTo","inputs":[{"name":"target","type":"address","internalType":"address"},{"name":"amount","type":"uint256","internalType":"uint256"}],"outputs":[],"stateMutability":"nonpayable"},{"type":"function","name":"treasury","inputs":[],"outputs":[{"name":"","type":"address","internalType":"address"}],"stateMutability":"view"},{"type":"event","name":"Approval","inputs":[{"name":"owner","type":"address","indexed":true,"internalType":"address"},{"name":"spender","type":"address","indexed":true,"internalType":"address"},{"name":"value","type":"uint256","indexed":false,"internalType":"uint256"}],"anonymous":false},{"type":"event","name":"BalanceTransfer","inputs":[{"name":"from","type":"address","indexed":true,"internalType":"address"},{"name":"to","type":"address","indexed":true,"internalType":"address"},{"name":"amount","type":"uint256","indexed":false,"internalType":"uint256"},{"name":"index","type":"uint256","indexed":false,"internalType":"uint256"}],"anonymous":false},{"type":"event","name":"Burn","inputs":[{"name":"from","type":"address","indexed":true,"internalType":"address"},{"name":"target","type":"address","indexed":true,"internalType":"address"},{"name":"amount","type":"uint256","indexed":false,"internalType":"uint256"},{"name":"balanceIncrease","type":"uint256","indexed":false,"internalType":"uint256"},{"name":"index","type":"uint256","indexed":false,"internalType":"uint256"}],"anonymous":false},{"type":"event","name":"Mint","inputs":[{"name":"caller","type":"address","indexed":true,"internalType":"address"},{"name":"onBehalfOf","type":"address","indexed":true,"internalType":"address"},{"name":"amount","type":"uint256","indexed":false,"internalType":"uint256"},{"name":"balanceIncrease","type":"uint256","indexed":false,"internalType":"uint256"},{"name":"index","type":"uint256","indexed":false,"internalType":"uint256"}],"anonymous":false},{"type":"event","name":"Transfer","inputs":[{"name":"from","type":"address","indexed":true,"internalType":"address"},{"name":"to","type":"address","indexed":true,"internalType":"address"},{"name":"value","type":"uint256","indexed":false,"internalType":"uint256"}],"anonymous":false},{"type":"error","name":"ERC20InsufficientAllowance","inputs":[{"name":"spender","type":"address","internalType":"address"},{"name":"allowance","type":"uint256","internalType":"uint256"},{"name":"needed","type":"uint256","internalType":"uint256"}]},{"type":"error","name":"ERC20InsufficientBalance","inputs":[{"name":"sender","type":"address","internalType":"address"},{"name":"balance","type":"uint256","internalType":"uint256"},{"name":"needed","type":"uint256","internalType":"uint256"}]},{"type":"error","name":"ERC20InvalidApprover","inputs":[{"name":"approver","type":"address","internalType":"address"}]},{"type":"error","name":"ERC20InvalidReceiver","inputs":[{"name":"receiver","type":"address","internalType":"address"}]},{"type":"error","name":"ERC20InvalidSender","inputs":[{"name":"sender","type":"address","internalType":"address"}]},{"type":"error","name":"ERC20InvalidSpender","inputs":[{"name":"spender","type":"address","internalType":"address"}]},{"type":"error","name":"SafeERC20FailedOperation","inputs":[{"name":"token","type":"address","internalType":"address"}]}],"bytecode":{"object":"0x60c060405234620004645762001746803803806200001d8162000468565b928339810160c082820312620004645762000038826200048e565b906020620000488185016200048e565b9262000057604086016200048e565b9462000066606082016200048e565b608082015190946001600160401b039290918381116200046457826200008e918301620004a3565b9160a08201518481116200046457620000a89201620004a3565b9181518181116200036f576003908154906001948583811c9316801562000459575b8984101462000445578190601f93848111620003f2575b5089908483116001146200038f575f9262000383575b50505f1982851b1c191690851b1782555b84519283116200036f5760049485548581811c9116801562000364575b89821014620003515782811162000309575b5087918411600114620002a2579383949184925f9562000296575b50501b925f19911b1c19161781555b6001600160a01b0394828616156200025e5785169283156200021b57505060a0526080528160018060a01b03199316836006541617600655169060075416176007556b033b2e3c9fd0803ce8000000600555604051611232908162000514823960805181818161013d015281816102c9015281816103fa015281816109230152610a87015260a0518181816101e9015281816103cf015281816104b301528181610798015281816107e90152818161087601526108ef0152f35b60405162461bcd60e51b815291820152601760248201527f41546f6b656e3a207a65726f20756e6465726c79696e67000000000000000000604482015260649150fd5b60405162461bcd60e51b8152808301859052601160248201527010551bdad95b8e881e995c9bc81c1bdbdb607a1b6044820152606490fd5b015193505f8062000152565b9190601f19841692865f5284895f20945f5b8b89838310620002f15750505010620002d7575b50505050811b01815562000161565b01519060f8845f19921b161c191690555f808080620002c8565b868601518955909701969485019488935001620002b4565b865f52885f208380870160051c8201928b881062000347575b0160051c019086905b8281106200033b57505062000137565b5f81550186906200032b565b9250819262000322565b602287634e487b7160e01b5f525260245ffd5b90607f169062000125565b634e487b7160e01b5f52604160045260245ffd5b015190505f80620000f7565b90879350601f19831691865f528b5f20925f5b8d828210620003db5750508411620003c3575b505050811b01825562000108565b01515f1983871b60f8161c191690555f8080620003b5565b8385015186558b97909501949384019301620003a2565b909150845f52895f208480850160051c8201928c86106200043b575b918991869594930160051c01915b8281106200042c575050620000e1565b5f81558594508991016200041c565b925081926200040e565b634e487b7160e01b5f52602260045260245ffd5b92607f1692620000ca565b5f80fd5b6040519190601f01601f191682016001600160401b038111838210176200036f57604052565b51906001600160a01b03821682036200046457565b919080601f84011215620004645782516001600160401b0381116200036f57602090620004d9601f8201601f1916830162000468565b9281845282828701011162000464575f5b818110620004ff5750825f9394955001015290565b8581018301518482018401528201620004ea56fe6080604081815260049182361015610015575f80fd5b5f92833560e01c91826306fdde0314610b8457508163095ea7b314610ada57816318160ddd14610ab65781631b206b7314610a725781631da24f3e14610a3a57816323b872dd14610963578163313ce567146109475781634efecaa5146108cd57816361d027b3146108a45781636fd976761461085d57816370a08231146108185781637535d246146107d45781637df5bd3b1461077c57816381045ead1461047257816395d89b411461065d578163a9059cbb1461062c578163af1df25514610603578163b1bf962d146105e4578163b3f1c93d14610491578163bbf44f3314610472578163cea9d26f146103a9578163d7020d0a146101c357508063dd62ed3e146101705763e60253931461012a575f80fd5b3461016c578160031936011261016c57517f00000000000000000000000000000000000000000000000000000000000000006001600160a01b03168152602090f35b5080fd5b503461016c578060031936011261016c57610189610ca3565b6001600160a01b0360243581811692908390036101bf579160209491849316825260018552828220908252845220549051908152f35b8480fd5b8391503461016c576101d436610cf2565b9095929390916001600160a01b0391610210337f0000000000000000000000000000000000000000000000000000000000000000851614610d2b565b8360055561021e8489610e62565b958615610366578316958688526008602052858820549181831061031757507f4cf25bc1d991c17529c25213d3cc0cda295eeaad5f13f361969b12ea48015f90889994879461030c6102c1602099966102a18d978f9d8e5f805160206111dd8339815191529f8b905260088f5220610297828254610d8c565b9055600954610d8c565b6009556102bb6102b18983610d99565b9160055490610d99565b90610d8c565b956102ed89847f0000000000000000000000000000000000000000000000000000000000000000610f2b565b8751938493169689846040919493926060820195825260208201520152565b0390a351908152a380f35b608490602088519162461bcd60e51b8352820152602360248201527f41546f6b656e3a206275726e20616d6f756e7420657863656564732062616c616044820152626e636560e81b6064820152fd5b855162461bcd60e51b8152602081840152601b60248201527f41546f6b656e3a20696e76616c6964206275726e20616d6f756e7400000000006044820152606490fd5b8391503461016c576103ba36610cbd565b9290916001600160a01b03919082906103f6337f0000000000000000000000000000000000000000000000000000000000000000841614610d2b565b16917f000000000000000000000000000000000000000000000000000000000000000016821461042f575061042c939450610f2b565b80f35b606490602087519162461bcd60e51b8352820152602060248201527f41546f6b656e3a2063616e6e6f742072657363756520756e6465726c79696e676044820152fd5b50503461016c578160031936011261016c576020906005549051908152f35b8284346105e1576104a136610cf2565b6001600160a01b03949391926104da337f0000000000000000000000000000000000000000000000000000000000000000881614610d2b565b816005556104e88285610e62565b97881561059e5750851694859283865260086020528786209889549961050e828c610d6b565b90556009549061051d91610d6b565b60095561052a838a610d99565b600554610537908b610d99565b61054091610d8c565b88518681526020810191909152604081019390935216907f458f5fa412d0f69b08dd84872b0215675cc67bc1d5b6fd93300a1c3878b8619690606090a3835190815260205f805160206111dd83398151915291a35190158152602090f35b606490602089519162461bcd60e51b8352820152601b60248201527f41546f6b656e3a20696e76616c6964206d696e7420616d6f756e7400000000006044820152fd5b80fd5b50503461016c578160031936011261016c576020906009549051908152f35b50503461016c578160031936011261016c5760075490516001600160a01b039091168152602090f35b50503461016c578060031936011261016c5760209061065661064c610ca3565b6024359033610fa9565b5160018152f35b83833461016c578160031936011261016c57805190828454600181811c90808316928315610772575b602093848410811461075f5783885290811561074357506001146106ee575b505050829003601f01601f191682019267ffffffffffffffff8411838510176106db57508291826106d7925282610c5c565b0390f35b634e487b7160e01b815260418552602490fd5b8787529192508591837f8a35acfbc15ff81a39ae7d344fd709f28e8600b4aa8c65c6b64bfe7fe36bd19b5b83851061072f57505050508301018580806106a5565b805488860183015293019284908201610719565b60ff1916878501525050151560051b84010190508580806106a5565b634e487b7160e01b895260228a52602489fd5b91607f1691610686565b919050346107d05736600319011261016c5761042c906107c6337f00000000000000000000000000000000000000000000000000000000000000006001600160a01b031614610d2b565b6024359035611172565b8280fd5b50503461016c578160031936011261016c57517f00000000000000000000000000000000000000000000000000000000000000006001600160a01b03168152602090f35b50503461016c57602036600319011261016c576020916108569082906001600160a01b03610844610ca3565b16815260088552205460055490610d99565b9051908152f35b83346105e15761086c36610cbd565b5061042c915050337f00000000000000000000000000000000000000000000000000000000000000006001600160a01b031614610d2b565b50503461016c578160031936011261016c5760065490516001600160a01b039091168152602090f35b50503461016c573660031901126105e15761042c6108e9610ca3565b61091d337f00000000000000000000000000000000000000000000000000000000000000006001600160a01b031614610d2b565b602435907f0000000000000000000000000000000000000000000000000000000000000000610f2b565b50503461016c578160031936011261016c576020905160128152f35b8391503461016c5761097436610cbd565b6001600160a01b03831680865260016020908152878720338852905286862054919592945f1983106109af575b602088610656898989610fa9565b868310610a17578115610a005733156109e957508252600160209081528683203384528152918690209085900390558290610656876109a1565b8751634a1406b160e11b8152908101849052602490fd5b875163e602df0560e01b8152908101849052602490fd5b60649087848a5192637dc7a0d960e11b8452339084015260248301526044820152fd5b50503461016c57602036600319011261016c5760209181906001600160a01b03610a62610ca3565b1681526008845220549051908152f35b50503461016c578160031936011261016c57517f00000000000000000000000000000000000000000000000000000000000000006001600160a01b03168152602090f35b50503461016c578160031936011261016c5760209061085660095460055490610d99565b9050346107d057816003193601126107d057610af4610ca3565b602435903315610b6d576001600160a01b0316918215610b5657508083602095338152600187528181208582528752205582519081527f8c5be1e5ebec7d5bd14f71427d1e84f3dd0314c0f7b2291e5b200ac8c7c3b925843392a35160018152f35b8351634a1406b160e11b8152908101859052602490fd5b835163e602df0560e01b8152808401869052602490fd5b849084346107d057826003193601126107d05782600354600181811c90808316928315610c52575b602093848410811461075f578388529081156107435750600114610bfc57505050829003601f01601f191682019267ffffffffffffffff8411838510176106db57508291826106d7925282610c5c565b600387529192508591837fc2575a0e9e593c00f959f8c92f12db2869c3395a3b0502d05e2516446f71f85b5b838510610c3e57505050508301018580806106a5565b805488860183015293019284908201610c28565b91607f1691610bac565b602080825282518183018190529093925f5b828110610c8f57505060409293505f838284010152601f8019910116010190565b818101860151848201604001528501610c6e565b600435906001600160a01b0382168203610cb957565b5f80fd5b6060906003190112610cb9576001600160a01b03906004358281168103610cb957916024359081168103610cb9579060443590565b6080906003190112610cb9576001600160a01b03906004358281168103610cb957916024359081168103610cb957906044359060643590565b15610d3257565b60405162461bcd60e51b815260206004820152601160248201527010551bdad95b8e881bdb9b1e481c1bdbdb607a1b6044820152606490fd5b91908201809211610d7857565b634e487b7160e01b5f52601160045260245ffd5b91908203918211610d7857565b90811590818015610e5a575b610e53578015610e3f57806b019d971e4fe8401e7400000019048311610dfa57808302928304141715610d78576b019d971e4fe8401e740000008101809111610d78576b033b2e3c9fd0803ce8000000900490565b60405162461bcd60e51b815260206004820152601b60248201527f5761645261794d6174683a207261794d756c206f766572666c6f7700000000006044820152606490fd5b634e487b7160e01b5f52601260045260245ffd5b5050505f90565b508015610da5565b8115610ee6578160011c6b033b2e3c9fd0803ce800000091828219048111610ea157828102928184041490151715610d7857610e9d91610d6b565b0490565b60405162461bcd60e51b815260206004820152601b60248201527f5761645261794d6174683a20726179446976206f766572666c6f7700000000006044820152606490fd5b60405162461bcd60e51b815260206004820152601a60248201527f5761645261794d6174683a20726179446976206279207a65726f0000000000006044820152606490fd5b60405163a9059cbb60e01b5f9081526001600160a01b039384166004526024949094529260209060448180855af160015f5114811615610f8a575b8360405215610f7457505050565b635274afe760e01b835216600482015260249150fd5b6001811516610fa057813b15153d151616610f66565b833d5f823e3d90fd5b6001600160a01b0390811691821561112d57169182156110e8578282146110ab5760055490610fd88282610e62565b915f9084825260209360088552604092818482205410611069577f4beccb90f994c31aced7a23b5611020728a23d8ec5cddd1a3e9d97b96fda86668480948a946110555f805160206111dd8339815191529a9998868d80985260088c52818120611043858254610d8c565b905588815260088c5220918254610d6b565b905581519087825288820152a351908152a3565b60648685519062461bcd60e51b825280600483015260248201527f41546f6b656e3a207472616e7366657220657863656564732062616c616e63656044820152fd5b60405162461bcd60e51b815260206004820152601560248201527420aa37b5b2b71d1039b2b633103a3930b739b332b960591b6044820152606490fd5b60405162461bcd60e51b815260206004820152601860248201527f41546f6b656e3a207472616e7366657220746f207a65726f00000000000000006044820152606490fd5b60405162461bcd60e51b815260206004820152601a60248201527f41546f6b656e3a207472616e736665722066726f6d207a65726f0000000000006044820152606490fd5b9081156111d8575f805160206111dd8339815191526020611198835f9460055585610e62565b6111c760018060a01b03918260065416865260088452604086206111bd828254610d6b565b9055600954610d6b565b6009556006541693604051908152a3565b505056feddf252ad1be2c89b69c2b068fc378daa952ba7f163c4a11628f55a4df523b3efa2646970667358221220a32a496d43f4599df855c15673c0ef41a3b2f4f08644c51e13f285ff62a419e864736f6c63430008140033","linkReferences":{}},"methodIdentifiers":{"POOL()":"7535d246","UNDERLYING_ASSET()":"e6025393","allowance(address,address)":"dd62ed3e","approve(address,uint256)":"095ea7b3","balanceOf(address)":"70a08231","burn(address,address,uint256,uint256)":"d7020d0a","decimals()":"313ce567","getIndex()":"81045ead","getUnderlyingAsset()":"1b206b73","handleRepayment(address,address,uint256)":"6fd97676","incentivesController()":"af1df255","liquidityIndex()":"bbf44f33","mint(address,address,uint256,uint256)":"b3f1c93d","mintToTreasury(uint256,uint256)":"7df5bd3b","name()":"06fdde03","rescueTokens(address,address,uint256)":"cea9d26f","scaledBalanceOf(address)":"1da24f3e","scaledTotalSupply()":"b1bf962d","symbol()":"95d89b41","totalSupply()":"18160ddd","transfer(address,uint256)":"a9059cbb","transferFrom(address,address,uint256)":"23b872dd","transferUnderlyingTo(address,uint256)":"4efecaa5","treasury()":"61d027b3"},"id":36}