{"abi":[{"type":"constructor","inputs":[],"stateMutability":"nonpayable"},{"type":"function","name":"BPS_PRECISION","inputs":[],"outputs":[{"name":"","type":"uint256","internalType":"uint256"}],"stateMutability":"view"},{"type":"function","name":"DAY","inputs":[],"outputs":[{"name":"","type":"uint256","internalType":"uint256"}],"stateMutability":"view"},{"type":"function","name":"DEFAULT_ADMIN_ROLE","inputs":[],"outputs":[{"name":"","type":"bytes32","internalType":"bytes32"}],"stateMutability":"view"},{"type":"function","name":"HOUR","inputs":[],"outputs":[{"name":"","type":"uint256","internalType":"uint256"}],"stateMutability":"view"},{"type":"function","name":"OPERATOR_ROLE","inputs":[],"outputs":[{"name":"","type":"bytes32","internalType":"bytes32"}],"stateMutability":"view"},{"type":"function","name":"UPGRADER_ROLE","inputs":[],"outputs":[{"name":"","type":"bytes32","internalType":"bytes32"}],"stateMutability":"view"},{"type":"function","name":"UPGRADE_INTERFACE_VERSION","inputs":[],"outputs":[{"name":"","type":"string","internalType":"string"}],"stateMutability":"view"},{"type":"function","name":"acceptBid","inputs":[{"name":"jobId","type":"uint256","internalType":"uint256"},{"name":"bidIndex","type":"uint256","internalType":"uint256"}],"outputs":[],"stateMutability":"nonpayable"},{"type":"function","name":"activate","inputs":[],"outputs":[],"stateMutability":"nonpayable"},{"type":"function","name":"addGPU","inputs":[{"name":"model","type":"string","internalType":"string"},{"name":"vramGB","type":"uint256","internalType":"uint256"},{"name":"computeUnits","type":"uint256","internalType":"uint256"},{"name":"tier","type":"uint8","internalType":"enum GPUMarketplace.GPUTier"},{"name":"tensorCores","type":"bool","internalType":"bool"},{"name":"benchmarkScore","type":"uint256","internalType":"uint256"}],"outputs":[],"stateMutability":"nonpayable"},{"type":"function","name":"addStake","inputs":[{"name":"amount","type":"uint256","internalType":"uint256"}],"outputs":[],"stateMutability":"nonpayable"},{"type":"function","name":"cancelJob","inputs":[{"name":"jobId","type":"uint256","internalType":"uint256"}],"outputs":[],"stateMutability":"nonpayable"},{"type":"function","name":"completeJob","inputs":[{"name":"jobId","type":"uint256","internalType":"uint256"},{"name":"resultHash","type":"bytes32","internalType":"bytes32"}],"outputs":[],"stateMutability":"nonpayable"},{"type":"function","name":"createJob","inputs":[{"name":"jobType","type":"uint8","internalType":"enum GPUMarketplace.JobType"},{"name":"minTier","type":"uint8","internalType":"enum GPUMarketplace.GPUTier"},{"name":"requiredGPUs","type":"uint256","internalType":"uint256"},{"name":"requiredVRAM","type":"uint256","internalType":"uint256"},{"name":"maxHourlyRate","type":"uint256","internalType":"uint256"},{"name":"maxDuration","type":"uint256","internalType":"uint256"},{"name":"jobSpec","type":"bytes","internalType":"bytes"}],"outputs":[{"name":"jobId","type":"uint256","internalType":"uint256"}],"stateMutability":"nonpayable"},{"type":"function","name":"findProviders","inputs":[{"name":"minTier","type":"uint8","internalType":"enum GPUMarketplace.GPUTier"},{"name":"requiredGPUs","type":"uint256","internalType":"uint256"},{"name":"maxRate","type":"uint256","internalType":"uint256"},{"name":"limit","type":"uint256","internalType":"uint256"}],"outputs":[{"name":"","type":"address[]","internalType":"address[]"}],"stateMutability":"view"},{"type":"function","name":"getJob","inputs":[{"name":"jobId","type":"uint256","internalType":"uint256"}],"outputs":[{"name":"","type":"tuple","internalType":"struct GPUMarketplace.Job","components":[{"name":"jobId","type":"uint256","internalType":"uint256"},{"name":"requester","type":"address","internalType":"address"},{"name":"provider","type":"address","internalType":"address"},{"name":"jobType","type":"uint8","internalType":"enum GPUMarketplace.JobType"},{"name":"status","type":"uint8","internalType":"enum GPUMarketplace.JobStatus"},{"name":"minTier","type":"uint8","internalType":"enum GPUMarketplace.GPUTier"},{"name":"requiredGPUs","type":"uint256","internalType":"uint256"},{"name":"requiredVRAM","type":"uint256","internalType":"uint256"},{"name":"maxHourlyRate","type":"uint256","internalType":"uint256"},{"name":"maxDuration","type":"uint256","internalType":"uint256"},{"name":"startTime","type":"uint256","internalType":"uint256"},{"name":"endTime","type":"uint256","internalType":"uint256"},{"name":"totalCost","type":"uint256","internalType":"uint256"},{"name":"escrowAmount","type":"uint256","internalType":"uint256"},{"name":"jobSpec","type":"bytes","internalType":"bytes"},{"name":"resultHash","type":"bytes32","internalType":"bytes32"}]}],"stateMutability":"view"},{"type":"function","name":"getJobBids","inputs":[{"name":"jobId","type":"uint256","internalType":"uint256"}],"outputs":[{"name":"","type":"tuple[]","internalType":"struct GPUMarketplace.Bid[]","components":[{"name":"provider","type":"address","internalType":"address"},{"name":"hourlyRate","type":"uint256","internalType":"uint256"},{"name":"estimatedDuration","type":"uint256","internalType":"uint256"},{"name":"timestamp","type":"uint256","internalType":"uint256"},{"name":"accepted","type":"bool","internalType":"bool"}]}],"stateMutability":"view"},{"type":"function","name":"getMarketMetrics","inputs":[],"outputs":[{"name":"","type":"tuple","internalType":"struct GPUMarketplace.MarketMetrics","components":[{"name":"totalProviders","type":"uint256","internalType":"uint256"},{"name":"activeProviders","type":"uint256","internalType":"uint256"},{"name":"totalGPUs","type":"uint256","internalType":"uint256"},{"name":"availableGPUs","type":"uint256","internalType":"uint256"},{"name":"totalJobs","type":"uint256","internalType":"uint256"},{"name":"completedJobs","type":"uint256","internalType":"uint256"},{"name":"totalVolume","type":"uint256","internalType":"uint256"},{"name":"averageHourlyRate","type":"uint256","internalType":"uint256"}]}],"stateMutability":"view"},{"type":"function","name":"getProvider","inputs":[{"name":"addr","type":"address","internalType":"address"}],"outputs":[{"name":"status","type":"uint8","internalType":"enum GPUMarketplace.ProviderStatus"},{"name":"totalGPUs","type":"uint256","internalType":"uint256"},{"name":"availableGPUs","type":"uint256","internalType":"uint256"},{"name":"hourlyRate","type":"uint256","internalType":"uint256"},{"name":"reputation","type":"uint256","internalType":"uint256"},{"name":"jobsCompleted","type":"uint256","internalType":"uint256"}],"stateMutability":"view"},{"type":"function","name":"getProviderGPUs","inputs":[{"name":"addr","type":"address","internalType":"address"}],"outputs":[{"name":"","type":"tuple[]","internalType":"struct GPUMarketplace.GPUSpec[]","components":[{"name":"model","type":"string","internalType":"string"},{"name":"vramGB","type":"uint256","internalType":"uint256"},{"name":"computeUnits","type":"uint256","internalType":"uint256"},{"name":"tier","type":"uint8","internalType":"enum GPUMarketplace.GPUTier"},{"name":"tensorCores","type":"bool","internalType":"bool"},{"name":"benchmarkScore","type":"uint256","internalType":"uint256"}]}],"stateMutability":"view"},{"type":"function","name":"getRoleAdmin","inputs":[{"name":"role","type":"bytes32","internalType":"bytes32"}],"outputs":[{"name":"","type":"bytes32","internalType":"bytes32"}],"stateMutability":"view"},{"type":"function","name":"grantRole","inputs":[{"name":"role","type":"bytes32","internalType":"bytes32"},{"name":"account","type":"address","internalType":"address"}],"outputs":[],"stateMutability":"nonpayable"},{"type":"function","name":"hasRole","inputs":[{"name":"role","type":"bytes32","internalType":"bytes32"},{"name":"account","type":"address","internalType":"address"}],"outputs":[{"name":"","type":"bool","internalType":"bool"}],"stateMutability":"view"},{"type":"function","name":"heartbeat","inputs":[],"outputs":[],"stateMutability":"nonpayable"},{"type":"function","name":"heartbeatTimeout","inputs":[],"outputs":[{"name":"","type":"uint256","internalType":"uint256"}],"stateMutability":"view"},{"type":"function","name":"initialize","inputs":[{"name":"_admin","type":"address","internalType":"address"},{"name":"_paymentToken","type":"address","internalType":"address"},{"name":"_treasury","type":"address","internalType":"address"},{"name":"_platformFee","type":"uint256","internalType":"uint256"}],"outputs":[],"stateMutability":"nonpayable"},{"type":"function","name":"jobCount","inputs":[],"outputs":[{"name":"","type":"uint256","internalType":"uint256"}],"stateMutability":"view"},{"type":"function","name":"jobEscrow","inputs":[{"name":"","type":"uint256","internalType":"uint256"}],"outputs":[{"name":"","type":"uint256","internalType":"uint256"}],"stateMutability":"view"},{"type":"function","name":"metrics","inputs":[],"outputs":[{"name":"totalProviders","type":"uint256","internalType":"uint256"},{"name":"activeProviders","type":"uint256","internalType":"uint256"},{"name":"totalGPUs","type":"uint256","internalType":"uint256"},{"name":"availableGPUs","type":"uint256","internalType":"uint256"},{"name":"totalJobs","type":"uint256","internalType":"uint256"},{"name":"completedJobs","type":"uint256","internalType":"uint256"},{"name":"totalVolume","type":"uint256","internalType":"uint256"},{"name":"averageHourlyRate","type":"uint256","internalType":"uint256"}],"stateMutability":"view"},{"type":"function","name":"minStakeByTier","inputs":[{"name":"","type":"uint8","internalType":"enum GPUMarketplace.GPUTier"}],"outputs":[{"name":"","type":"uint256","internalType":"uint256"}],"stateMutability":"view"},{"type":"function","name":"paymentToken","inputs":[],"outputs":[{"name":"","type":"address","internalType":"contract IERC20"}],"stateMutability":"view"},{"type":"function","name":"placeBid","inputs":[{"name":"jobId","type":"uint256","internalType":"uint256"},{"name":"hourlyRate","type":"uint256","internalType":"uint256"},{"name":"estimatedDuration","type":"uint256","internalType":"uint256"}],"outputs":[],"stateMutability":"nonpayable"},{"type":"function","name":"platformFee","inputs":[],"outputs":[{"name":"","type":"uint256","internalType":"uint256"}],"stateMutability":"view"},{"type":"function","name":"providerList","inputs":[{"name":"","type":"uint256","internalType":"uint256"}],"outputs":[{"name":"","type":"address","internalType":"address"}],"stateMutability":"view"},{"type":"function","name":"providersByTier","inputs":[{"name":"","type":"uint8","internalType":"enum GPUMarketplace.GPUTier"},{"name":"","type":"uint256","internalType":"uint256"}],"outputs":[{"name":"","type":"address","internalType":"address"}],"stateMutability":"view"},{"type":"function","name":"proxiableUUID","inputs":[],"outputs":[{"name":"","type":"bytes32","internalType":"bytes32"}],"stateMutability":"view"},{"type":"function","name":"registerProvider","inputs":[{"name":"endpoint","type":"string","internalType":"string"},{"name":"regionHash","type":"bytes32","internalType":"bytes32"},{"name":"hourlyRate","type":"uint256","internalType":"uint256"}],"outputs":[],"stateMutability":"nonpayable"},{"type":"function","name":"renounceRole","inputs":[{"name":"role","type":"bytes32","internalType":"bytes32"},{"name":"callerConfirmation","type":"address","internalType":"address"}],"outputs":[],"stateMutability":"nonpayable"},{"type":"function","name":"reportFailure","inputs":[{"name":"jobId","type":"uint256","internalType":"uint256"},{"name":"reason","type":"string","internalType":"string"}],"outputs":[],"stateMutability":"nonpayable"},{"type":"function","name":"revokeRole","inputs":[{"name":"role","type":"bytes32","internalType":"bytes32"},{"name":"account","type":"address","internalType":"address"}],"outputs":[],"stateMutability":"nonpayable"},{"type":"function","name":"startJob","inputs":[{"name":"jobId","type":"uint256","internalType":"uint256"}],"outputs":[],"stateMutability":"nonpayable"},{"type":"function","name":"supportsInterface","inputs":[{"name":"interfaceId","type":"bytes4","internalType":"bytes4"}],"outputs":[{"name":"","type":"bool","internalType":"bool"}],"stateMutability":"view"},{"type":"function","name":"treasury","inputs":[],"outputs":[{"name":"","type":"address","internalType":"address"}],"stateMutability":"view"},{"type":"function","name":"updateHourlyRate","inputs":[{"name":"newRate","type":"uint256","internalType":"uint256"}],"outputs":[],"stateMutability":"nonpayable"},{"type":"function","name":"upgradeToAndCall","inputs":[{"name":"newImplementation","type":"address","internalType":"address"},{"name":"data","type":"bytes","internalType":"bytes"}],"outputs":[],"stateMutability":"payable"},{"type":"event","name":"EscrowRefunded","inputs":[{"name":"jobId","type":"uint256","indexed":true,"internalType":"uint256"},{"name":"requester","type":"address","indexed":true,"internalType":"address"},{"name":"amount","type":"uint256","indexed":false,"internalType":"uint256"}],"anonymous":false},{"type":"event","name":"GPUAdded","inputs":[{"name":"provider","type":"address","indexed":true,"internalType":"address"},{"name":"model","type":"string","indexed":false,"internalType":"string"},{"name":"tier","type":"uint8","indexed":false,"internalType":"enum GPUMarketplace.GPUTier"}],"anonymous":false},{"type":"event","name":"Initialized","inputs":[{"name":"version","type":"uint64","indexed":false,"internalType":"uint64"}],"anonymous":false},{"type":"event","name":"JobBidPlaced","inputs":[{"name":"jobId","type":"uint256","indexed":true,"internalType":"uint256"},{"name":"provider","type":"address","indexed":true,"internalType":"address"},{"name":"hourlyRate","type":"uint256","indexed":false,"internalType":"uint256"}],"anonymous":false},{"type":"event","name":"JobCompleted","inputs":[{"name":"jobId","type":"uint256","indexed":true,"internalType":"uint256"},{"name":"provider","type":"address","indexed":true,"internalType":"address"},{"name":"duration","type":"uint256","indexed":false,"internalType":"uint256"},{"name":"payment","type":"uint256","indexed":false,"internalType":"uint256"}],"anonymous":false},{"type":"event","name":"JobCreated","inputs":[{"name":"jobId","type":"uint256","indexed":true,"internalType":"uint256"},{"name":"requester","type":"address","indexed":true,"internalType":"address"},{"name":"jobType","type":"uint8","indexed":false,"internalType":"enum GPUMarketplace.JobType"},{"name":"escrowAmount","type":"uint256","indexed":false,"internalType":"uint256"}],"anonymous":false},{"type":"event","name":"JobFailed","inputs":[{"name":"jobId","type":"uint256","indexed":true,"internalType":"uint256"},{"name":"reason","type":"string","indexed":false,"internalType":"string"}],"anonymous":false},{"type":"event","name":"JobMatched","inputs":[{"name":"jobId","type":"uint256","indexed":true,"internalType":"uint256"},{"name":"provider","type":"address","indexed":true,"internalType":"address"}],"anonymous":false},{"type":"event","name":"PaymentReleased","inputs":[{"name":"jobId","type":"uint256","indexed":true,"internalType":"uint256"},{"name":"provider","type":"address","indexed":true,"internalType":"address"},{"name":"amount","type":"uint256","indexed":false,"internalType":"uint256"}],"anonymous":false},{"type":"event","name":"ProviderRegistered","inputs":[{"name":"provider","type":"address","indexed":true,"internalType":"address"},{"name":"totalGPUs","type":"uint256","indexed":false,"internalType":"uint256"},{"name":"highestTier","type":"uint8","indexed":false,"internalType":"enum GPUMarketplace.GPUTier"}],"anonymous":false},{"type":"event","name":"ProviderUpdated","inputs":[{"name":"provider","type":"address","indexed":true,"internalType":"address"},{"name":"status","type":"uint8","indexed":false,"internalType":"enum GPUMarketplace.ProviderStatus"}],"anonymous":false},{"type":"event","name":"RoleAdminChanged","inputs":[{"name":"role","type":"bytes32","indexed":true,"internalType":"bytes32"},{"name":"previousAdminRole","type":"bytes32","indexed":true,"internalType":"bytes32"},{"name":"newAdminRole","type":"bytes32","indexed":true,"internalType":"bytes32"}],"anonymous":false},{"type":"event","name":"RoleGranted","inputs":[{"name":"role","type":"bytes32","indexed":true,"internalType":"bytes32"},{"name":"account","type":"address","indexed":true,"internalType":"address"},{"name":"sender","type":"address","indexed":true,"internalType":"address"}],"anonymous":false},{"type":"event","name":"RoleRevoked","inputs":[{"name":"role","type":"bytes32","indexed":true,"internalType":"bytes32"},{"name":"account","type":"address","indexed":true,"internalType":"address"},{"name":"sender","type":"address","indexed":true,"internalType":"address"}],"anonymous":false},{"type":"event","name":"Upgraded","inputs":[{"name":"implementation","type":"address","indexed":true,"internalType":"address"}],"anonymous":false},{"type":"error","name":"AccessControlBadConfirmation","inputs":[]},{"type":"error","name":"AccessControlUnauthorizedAccount","inputs":[{"name":"account","type":"address","internalType":"address"},{"name":"neededRole","type":"bytes32","internalType":"bytes32"}]},{"type":"error","name":"AddressEmptyCode","inputs":[{"name":"target","type":"address","internalType":"address"}]},{"type":"error","name":"ERC1967InvalidImplementation","inputs":[{"name":"implementation","type":"address","internalType":"address"}]},{"type":"error","name":"ERC1967NonPayable","inputs":[]},{"type":"error","name":"FailedCall","inputs":[]},{"type":"error","name":"HeartbeatExpired","inputs":[]},{"type":"error","name":"InsufficientEscrow","inputs":[]},{"type":"error","name":"InsufficientStake","inputs":[]},{"type":"error","name":"InvalidInitialization","inputs":[]},{"type":"error","name":"InvalidJobStatus","inputs":[]},{"type":"error","name":"JobNotFound","inputs":[]},{"type":"error","name":"NotInitializing","inputs":[]},{"type":"error","name":"NotJobProvider","inputs":[]},{"type":"error","name":"NotJobRequester","inputs":[]},{"type":"error","name":"ProviderNotActive","inputs":[]},{"type":"error","name":"ProviderNotRegistered","inputs":[]},{"type":"error","name":"ReentrancyGuardReentrantCall","inputs":[]},{"type":"error","name":"SafeERC20FailedOperation","inputs":[{"name":"token","type":"address","internalType":"address"}]},{"type":"error","name":"UUPSUnauthorizedCallContext","inputs":[]},{"type":"error","name":"UUPSUnsupportedProxiableUUID","inputs":[{"name":"slot","type":"bytes32","internalType":"bytes32"}]}],"bytecode":{"object":"0x60a08060405234620000f5573060805260017f9b779b17422d0df92223018b32b4d1fa46e071723d6817e2486d003becc55f00557ff0c57e16840df040f15088dc2f81fe391c3923bec73e23a9662efc9c229c6a009081549060ff8260401c16620000e657506001600160401b036002600160401b031982821601620000a0575b604051613de69081620000fb8239608051818181610f7901526110ab0152f35b6001600160401b031990911681179091556040519081527fc7f505b2f371ae2175ee4913f4499e1f2633a7b5936321eed1cdaeb6115181d290602090a138808062000080565b63f92ee8a960e01b8152600490fd5b600080fdfe6080604052600436101561001257600080fd5b60003560e01c806301ffc9a7146102e757806302e9d5e4146102e25780630c4f321f146102dd5780630f15f4c0146102d85780631dffa3dc146102d3578063248a9ca3146102ce57806326232a2e146102c957806327cfe856146102c45780632f2ff15d146102bf5780633013ce29146102ba57806332eb573d146102b557806336568abe146102b0578063390bfd3c146102ab5780633defb962146102a6578063411f0903146102a15780634c5d8a0f1461029c5780634cb9d7fd146102975780634f1ef2861461029257806352d1902d1461028d57806355f21eb7146102885780635e62be251461028357806361d027b31461027e5780637bca38be146102795780638bf02bf7146102745780638f5a206e1461026f57806391d148541461026a5780639a7075b414610265578063a04748f614610260578063a217fddf1461025b578063a39dc9be14610256578063ad3cb1cc14610251578063bf22c4571461024c578063cb2dc59f14610247578063cf756fdf14610242578063d2556c231461023d578063d547741f14610238578063df4c481a14610233578063e12552941461022e578063e41de31314610229578063e460112a14610224578063e7f5b8261461021f578063eb4f16b51461021a578063ebb59fad14610215578063f5b541a6146102105763f72c0d8b1461020b57600080fd5b612461565b612426565b6120e0565b61206a565b611ff2565b611f07565b611eea565b611e61565b611cf6565b611caa565b611b60565b6119d9565b611978565b6118cb565b61176a565b61174d565b611731565b6116d7565b611578565b611421565b6113e4565b611385565b611367565b61133e565b61117b565b6110fb565b611098565b610f29565b610d30565b610c9e565b610b01565b610a9a565b610a3f565b61098e565b610954565b6108c5565b610879565b610819565b6107fb565b6107bf565b610660565b61059e565b610572565b610342565b3461033d57602036600319011261033d5760043563ffffffff60e01b811680910361033d57602090637965db0b60e01b811490811561032c575b506040519015158152f35b6301ffc9a760e01b14905038610321565b600080fd5b3461033d57604036600319011261033d576004803590610360613482565b610374826000526003602052604060002090565b8054156105625760018101546001600160a01b03929033908416036105535760028201916103a7835460ff9060a81c1690565b6103b0816117cf565b610543576103d36024356103ce876000526005602052604060002090565b61249c565b50928284016103f26103ed6103e9835460ff1690565b1590565b6124b8565b845461041c906001600160a01b03165b6001600160a01b0316600090815260208190526040902090565b93600161042e865460ff9060a01c1690565b610437816110f1565b0361053457509260036104d09361049f6104cb946104606104dd9998600160ff19825416179055565b875461048c906001600160a01b03165b82546001600160a01b0319166001600160a01b03909116178255565b805460ff60a81b1916600160a81b179055565b426007820155019081546104b860038301918254612535565b8091551561051d575b5054600d54612535565b600d55565b546001600160a01b031690565b16907f39851fb4f8df838ed0ebf2814c3474a075b9ac21c04a7966565c266988e347c1600080a361051b6001600080516020613d7183398151915255565b005b805460ff60a01b1916600160a11b179055386104c1565b604051638017c96b60e01b8152fd5b5060405163b969563b60e01b8152fd5b6040516307fb217d60e11b8152fd5b5060405163c0a8563160e01b8152fd5b3461033d57602036600319011261033d5760043560005260066020526020604060002054604051908152f35b3461033d57600036600319011261033d5733600090815260208190526040902080546001600160a01b03161561064e576105d7816134b2565b60048201541061063c57805460ff60a01b1916600160a01b178155600b4291015561060b610606600b54612566565b600b55565b6040516001815233907f2358a1b03a1dd7df808a5a28af7a0ee2efa4d082256ae5ea765b856fa59586b890602090a2005b6040516378de4a6960e11b8152600490fd5b604051636ad77c6360e11b8152600490fd5b3461033d57602036600319011261033d5760043561067c613482565b610690816000526003602052604060002090565b8054156107ad576001810154336001600160a01b039091160361079b5760028101906106c1825460ff9060a81c1690565b6106ca816117cf565b61078957815460ff60a81b1916600560a81b17909155600a0154906107316106f6606484048094612535565b92610712843361070d60075460018060a01b031690565b61353f565b6007546001600160a01b03166009546001600160a01b03165b9061353f565b60008181526006602052604081205560405191825233917feac97bc1917fcedc984e3d0671d4e83b359890323d5d1c2de32b28d17c356ced9080602081010390a361051b6001600080516020613d7183398151915255565b60405163b969563b60e01b8152600490fd5b6040516307fb217d60e11b8152600490fd5b60405163c0a8563160e01b8152600490fd5b3461033d57602036600319011261033d57600435600052600080516020613d518339815191526020526020600160406000200154604051908152f35b3461033d57600036600319011261033d576020600854604051908152f35b3461033d57600036600319011261033d576020604051620151808152f35b602435906001600160a01b038216820361033d57565b600435906001600160a01b038216820361033d57565b604435906001600160a01b038216820361033d57565b3461033d57604036600319011261033d5761051b600435610898610837565b9080600052600080516020613d518339815191526020526108c060016040600020015461369c565b6138ca565b3461033d57600036600319011261033d576007546040516001600160a01b039091168152602090f35b60043590600382101561033d57565b634e487b7160e01b600052602160045260246000fd5b6003111561091d57565b6108fd565b600381101561091d576000526012602052604060002090565b600381101561091d576000526002602052604060002090565b3461033d57602036600319011261033d5761096d6108ee565b600381101561091d5760005260126020526020604060002054604051908152f35b3461033d57604036600319011261033d576109a7610837565b336001600160a01b038216036109c35761051b90600435613904565b60405163334bd91960e11b8152600490fd5b634e487b7160e01b600052603260045260246000fd5b600154811015610a225760016000527fb10e2d527612073b26eecdfd717e6a320cf44b4afac2b0732d9fcbe2b7fa0cf60190600090565b6109d5565b8054821015610a225760005260206000200190600090565b3461033d57602036600319011261033d5760043560015481101561033d5760016000527fb10e2d527612073b26eecdfd717e6a320cf44b4afac2b0732d9fcbe2b7fa0cf601546040516001600160a01b039091168152602090f35b3461033d57600080600319360112610ad15733815260208190526040812080546001600160a01b03161561064e57600b4291015580f35b80fd5b9181601f8401121561033d578235916001600160401b03831161033d576020838186019501011161033d57565b3461033d57604036600319011261033d576004356024356001600160401b03811161033d57610b34903690600401610ad4565b610b3f9291926135c8565b610b53826000526003602052604060002090565b928354156107ad5760028401805491600260ff8460a81c16610b74816117cf565b03610789576001600160a01b0392831660009081526020819052604090207feac97bc1917fcedc984e3d0671d4e83b359890323d5d1c2de32b28d17c356ced94610c889387927f2bd9ee9604d2aacfdb0cb87e65cb6f7fd811d9038e61b24e3295676cd180c9d19291610c2a91610bf990825460ff60a81b1916600160aa1b17909255565b4260088c015560088101610c0d8154612566565b905560038b0154610c2360038301918254612583565b905561399c565b6007546001600160a01b031660018a018054909591610c5a91600a906001600160a01b03169c019b8c549161353f565b600084815260066020526040812055610c78604051928392836125b1565b0390a2546001600160a01b031690565b935460405190815293169280602081015b0390a3005b3461033d57600036600319011261033d576020600454604051908152f35b60208082019080835283518092528060408094019401926000905b838210610ce657505050505090565b845180516001600160a01b03168752808401518785015280820151878301526060808201519088015260809081015115159087015260a09095019493820193600190910190610cd7565b3461033d5760208060031936011261033d57600480356000526005808352604092604060002090815493610d63856125c5565b95610d716040519788610e59565b8587526000938452828420918388015b878610610d9a5760405180610d968b82610cbc565b0390f35b86856001928551610daa81610e02565b848060a01b03885416815284880154838201526002880154878201526003880154606082015260ff868901541615156080820152815201940195019492610d81565b634e487b7160e01b600052604160045260246000fd5b60a081019081106001600160401b03821117610e1d57604052565b610dec565b60c081019081106001600160401b03821117610e1d57604052565b61010081019081106001600160401b03821117610e1d57604052565b90601f801991011681019081106001600160401b03821117610e1d57604052565b60405190610e8782610e02565b565b6040519061020082018281106001600160401b03821117610e1d57604052565b604051906101e082018281106001600160401b03821117610e1d57604052565b60405190610e8782610e3d565b60405190610e8782610e22565b9291926001600160401b038211610e1d5760405191610f0c601f8201601f191660200184610e59565b82948184528183011161033d578281602093846000960137010152565b604036600319011261033d57610f3d61084d565b6024356001600160401b03811161033d573660238201121561033d57610f6d903690602481600401359101610ee3565b6001600160a01b0391907f0000000000000000000000000000000000000000000000000000000000000000831630811490811561107c575b5061106a576020600493610fb7613644565b6040516352d1902d60e01b8152948591829086165afa60009381611039575b5061100057604051634c9c8ce360e01b81526001600160a01b0383166004820152602490fd5b0390fd5b90600080516020613d3183398151915283036110205761051b9250613be8565b604051632a87526960e21b815260048101849052602490fd5b61105c91945060203d602011611063575b6110548183610e59565b8101906139de565b9238610fd6565b503d61104a565b60405163703e46dd60e11b8152600490fd5b905083600080516020613d318339815191525416141538610fa5565b3461033d57600036600319011261033d577f00000000000000000000000000000000000000000000000000000000000000006001600160a01b0316300361106a576020604051600080516020613d318339815191528152f35b6005111561091d57565b3461033d57602036600319011261033d576001600160a01b0361111c61084d565b16600052600060205260c0604060002060ff815460a01c1690600281015490600381015460058201549060076006840154930154936040519561115e816110f1565b8652602086015260408501526060840152608083015260a0820152f35b3461033d57606036600319011261033d5760048035602435916111a8826000526003602052604060002090565b8054156105625760028101549160ff8360a81c166111c5816117cf565b61132f5733600090815260208190526040902080549091906001600160a01b0381161561131f5760ff60019160a01c166111fe816110f1565b0361053457611211600b83015442612535565b601354106113105760038201549260038101548094106112d1579160ff611255949284611248600561125a999701548b11156125dc565b01549360b01c1690613a6c565b612618565b61129d611271826000526005602052604060002090565b611279610e7a565b3381529084602083015260443560408301524260608301526000608083015261266f565b60405191825233917ff8757828842fee3a560943884967f4f5fcdba11614f6940ee992e0d26beb948e908060208101610c99565b610ffc8260405191829162461bcd60e51b8352820160609060208152600f60208201526e4e6f7420656e6f756768204750557360881b60408201520190565b604051630a59e02f60e01b8152fd5b50604051636ad77c6360e11b8152fd5b60405163b969563b60e01b8152fd5b3461033d57600036600319011261033d576009546040516001600160a01b039091168152602090f35b3461033d57600036600319011261033d576020601354604051908152f35b3461033d5760c036600319011261033d576004356001600160401b03811161033d576113b5903690600401610ad4565b90606435600381101561033d5760843590811515820361033d5761051b9360a4359360443591602435916126ea565b3461033d57602036600319011261033d5733600090815260208190526040902080546001600160a01b03161561064e576005600435910155600080f35b3461033d57604036600319011261033d57602060ff611474611441610837565b600435600052600080516020613d51833981519152845260406000209060018060a01b0316600052602052604060002090565b54166040519015158152f35b919082519283825260005b8481106114ac575050826000602080949584010152601f8019910116010190565b60208183018101518483018201520161148b565b90600382101561091d5752565b6020808201908083528351809252604092604081018260408560051b8401019601946000925b858410611504575050505050505090565b909192939495968580600192603f198582030187528a519061152f60c0835190808452830190611480565b9183810151848301528781015188830152611552606080830151908401906114c0565b60808082015115159083015260a0809101519101529901940194019295949391906114f3565b3461033d5760208060031936011261033d576001600160a01b0361159a61084d565b1690600091825281815260016040906001828520018054906115bb826125c5565b946115c885519687610e59565b82865280860191875280872087925b8484106115eb57865180610d968a826114cd565b85838851926115f984610e22565b8951938c9486546116098161284d565b808352908681169081156116bb5750600114611682575b5061163081600596970382610e59565b8152848601548382015260028601548b82015261166a600387015460ff9061165d82821660608601612841565b60081c1615156080830152565b600486015460a08201528152019201930192906115d7565b878f52848f2096508e905b8082106116a35750810184019550611630611620565b875483830187015296909501958b958995019061168d565b60ff19168684015250151560051b810184019550611630611620565b3461033d57600036600319011261033d57610100600a54600b54600c54600d54600e54600f54916010549360115495604051978852602088015260408701526060860152608085015260a084015260c083015260e0820152f35b3461033d57600036600319011261033d57602060405160008152f35b3461033d57600036600319011261033d576020604051610e108152f35b3461033d57600036600319011261033d5760405160408101908082106001600160401b03831117610e1d57610d969160405260058152640352e302e360dc1b6020820152604051918291602083526020830190611480565b906117cc826110f1565b52565b6007111561091d57565b90600782101561091d5752565b60208082528251828201528201516001600160a01b0316604082015260408201516001600160a01b03166060820152611827606083015160808301906117c2565b611839608083015160a08301906117d9565b61184b60a083015160c08301906114c0565b60c082015160e082015260e0820151610100908183015282015161012090818301528201516101409081830152820151610160908183015282015161018090818301528201516101a090818301528201516101c09081830152820151610200906118c26101e0918383860152610220850190611480565b93015191015290565b3461033d57602036600319011261033d576118e4610e89565b6101e06000918281528260208201528260408201528260608201528260808201528260a08201528260c08201528260e08201528261010082015282610120820152826101408201528261016082015282610180820152826101a082015260606101c08201520152610d9661196c6119676004356000526003602052604060002090565b612ca5565b604051918291826117e6565b3461033d57604036600319011261033d576119916108ee565b60243590600381101561091d5760005260026020526040600020805482101561033d576020916119c091610a27565b905460405160039290921b1c6001600160a01b03168152f35b3461033d57608036600319011261033d576119f261084d565b6119fa610837565b611a02610863565b91600080516020613d9183398151915254926001600160401b0360ff8560401c1615941680159081611b13575b6001149081611b09575b159081611b00575b50611aee57600080516020613d91833981519152805467ffffffffffffffff19166001179055611a7a9284611ac9575b60643592612d86565b611a8057005b600080516020613d91833981519152805460ff60401b19169055604051600181527fc7f505b2f371ae2175ee4913f4499e1f2633a7b5936321eed1cdaeb6115181d290602090a1005b600080516020613d91833981519152805460ff60401b1916600160401b179055611a71565b60405163f92ee8a960e01b8152600490fd5b90501538611a41565b303b159150611a39565b859150611a2f565b602090602060408183019282815285518094520193019160005b828110611b43575050505090565b83516001600160a01b031685529381019392810192600101611b35565b3461033d57608036600319011261033d57611b796108ee565b6024356044359160643592611b8d84612e99565b92600092839560018097600154915b611bb2575b86885260405180610d968a82611b1b565b81811080611ca1575b15611c9c5790611c2982611bee610402611bd98d9a999897966109eb565b905460039190911b1c6001600160a01b031690565b86868a611c00845460ff9060a01c1690565b611c09816110f1565b149283611c8c575b83611c7c575b83611c6a575b505050611c3457612566565b909192939495611b9c565b611c65611c43611bd9836109eb565b611c56611c4f8c612566565b9b8d612ecb565b6001600160a01b039091169052565b612566565b611c7493506139ed565b868638611c1d565b9250896005840154111592611c17565b9250816003840154101592611c11565b611ba1565b50828710611bbb565b3461033d57604036600319011261033d5761051b600435611cc9610837565b9080600052600080516020613d51833981519152602052611cf160016040600020015461369c565b613904565b3461033d57606036600319011261033d576004356001600160401b03811161033d57611d29611dec913690600401610ad4565b611d34929192613482565b33600090815260208190526040902054611d57906001600160a01b031615612edf565b611dc9611d62612f20565b93611d6b610ea9565b3381529260009586602086015260408501528560608501528560808501528560a085015260443560c08501526101f460e085015285610100850152856101208501528561014085015242610160850152426101808501523691610ee3565b6101a08201526024356101c082015233600090815260208190526040902061305a565b611df533612b2b565b611e08611e03600a54612566565b600a55565b6040517f57d314643bba38495581cebe1f7627d299bd42671765bfd77105c4f5093a530a339180611e4481906000602060408401938281520152565b0390a2611e5e6001600080516020613d7183398151915255565b80f35b3461033d57602036600319011261033d57611e886004356000526003602052604060002090565b8054156107ad57600281018054336001600160a01b03821603611ed85760ff60019160a81c16611eb7816117cf565b0361078957805460ff60a81b1916600160a91b179055600742910155600080f35b60405163c226996b60e01b8152600490fd5b3461033d57600036600319011261033d5760206040516127108152f35b3461033d57600080600319360112610ad15760e0604051611f2781610e3d565b8281528260208201528260408201528260608201528260808201528260a08201528260c08201520152610d96611f5b610ec9565b600a548152600b546020820152600c546040820152600d546060820152600e546080820152600f5460a082015260105460c082015260115460e08201526040519182918291909160e080610100830194805184526020810151602085015260408101516040850152606081015160608501526080810151608085015260a081015160a085015260c081015160c08501520151910152565b3461033d5760e036600319011261033d57600435600581101561033d57602435600381101561033d5760c435906001600160401b03821161033d57610d969261204261205a933690600401610ad4565b92909160a43591608435916064359160443591613121565b6040519081529081906020820190565b3461033d57602036600319011261033d57600435612086613482565b336000526000602052604060002060018060a01b0390818154161561064e576120b9836004936007541630903390613afc565b0180549182018092116120db57556001600080516020613d7183398151915255005b61251f565b3461033d5760408060031936011261033d576004356120fd613482565b612111816000526003602052604060002090565b80541561241557600281018054909190336001600160a01b038216036124045760ff60029160a81c16612143816117cf565b036123f357336000908152602081905260409020612165600783015442612535565b60068301548082116123eb575b50600161217e86613b69565b015490600384019283546121a0612195828661282e565b610e1085049061282e565b9384156123d3575b50506122769061225d6121c86121c06008548761282e565b612710900490565b916121f76121e3846121de89600a8d0154612535565b612535565b8a5460ff60a81b1916600360a81b17909a55565b426008890155856009890155602435600c890155600781016122198154612566565b90556009810161222a878254612583565b9055865461223d60038301918254612583565b9055805460029060a01c60ff16612253816110f1565b146123bd576139bd565b60075461071290859033906001600160a01b031661353f565b6122c56104cb8615159485612393575b6000898152600660205260408120556122a86122a3600f54612566565b600f55565b6122bc6122b786601054612583565b601055565b54600d54612583565b865190815260208101829052339086907fbeccb946f65bcbea37397b769e33a37dabec51c94907407fd5f2eaa81f1a0bfa90604090a3847f21d71db5be59bb9fa133895586b7404307dd33fb93b16db09dc6f1d9d7d231b08751806123303395829190602083019252565b0390a361234f575b61051b6001600080516020613d7183398151915255565b6001015492519081526001600160a01b03909216917feac97bc1917fcedc984e3d0671d4e83b359890323d5d1c2de32b28d17c356ced90602090a338808080612338565b6007546123b89089906001600160a01b031660018a01546001600160a01b031661072b565b612286565b805460ff60a01b1916600160a01b1781556139bd565b612276929450906123e39161282e565b9290386121a8565b905038612172565b835163b969563b60e01b8152600490fd5b845163c226996b60e01b8152600490fd5b825163c0a8563160e01b8152600490fd5b3461033d57600036600319011261033d5760206040517f97667070c54ef182b0f5858b034beac1b6f3089aa2d3188bb1e8929f4fa9b9298152f35b3461033d57600036600319011261033d5760206040517f189ab7a9244df0848122154315af71fe140f3db0fe014031783b0946b8c9d2e38152f35b8054821015610a22576000526005602060002091020190600090565b156124bf57565b60405162461bcd60e51b8152602060048201526014602482015273109a5908185b1c9958591e481858d8d95c1d195960621b6044820152606490fd5b90600781101561091d57815460ff60a81b191660a89190911b60ff60a81b16179055565b634e487b7160e01b600052601160045260246000fd5b919082039182116120db57565b9061254c816110f1565b815460ff60a01b191660a09190911b60ff60a01b16179055565b60001981146120db5760010190565b90600182018092116120db57565b919082018092116120db57565b908060209392818452848401376000828201840152601f01601f1916010190565b9160206125c2938181520191612590565b90565b6001600160401b038111610e1d5760051b60200190565b156125e357565b60405162461bcd60e51b815260206004820152600d60248201526c0a4c2e8ca40e8dede40d0d2ced609b1b6044820152606490fd5b1561261f57565b60405162461bcd60e51b81526020600482015260126024820152714750557320646f6e2774207175616c69667960701b6044820152606490fd5b634e487b7160e01b600052600060045260246000fd5b8054600160401b811015610e1d5761268c9160018201815561249c565b6126e557815181546001600160a01b0319166001600160a01b039190911617815560809060049060208401516001820155604084015160028201556060840151600382015501910151151560ff80198354169116179055565b612659565b959490926126f6613482565b33600090815260208190526040902080549092906001600160a01b03161561064e5761272186610922565b549161273b60028501936127358554612575565b9061282e565b60048501541061063c577f7079a7400e9d7995c7727e3504e6bf9d380a08cb804fac0992045ad6f63476cf976127a96127b7938b9360039861278761277e610ed6565b968c3691610ee3565b8652602086015260408501526127a08a60608601612841565b15156080840152565b60a082015260018401612afe565b6127c18154612566565b9055016127ce8154612566565b90556127e36127de600c54612566565b600c55565b6127f16104cb600d54612566565b612803336127fe8461093b565b612b8f565b612814604051928392339684612bca565b0390a2610e876001600080516020613d7183398151915255565b818102929181159184041417156120db57565b600382101561091d5752565b90600182811c9216801561287d575b602083101461286757565b634e487b7160e01b600052602260045260246000fd5b91607f169161285c565b818110612892575050565b60008155600101612887565b9190601f81116128ad57505050565b610e87926000526020600020906020601f840160051c830193106128d9575b601f0160051c0190612887565b90915081906128cc565b91909182516001600160401b038111610e1d5761290a81612904845461284d565b8461289e565b602080601f831160011461294d5750819061293e939495600092612942575b50508160011b916000199060031b1c19161790565b9055565b015190503880612929565b90601f1983169561296385600052602060002090565b926000905b8882106129a057505083600195969710612987575b505050811b019055565b015160001960f88460031b161c1916905538808061297d565b80600185968294968601518155019501930190612968565b90600381101561091d5760ff80198354169116179055565b9080518051906001600160401b038211610e1d576129f8826129f2865461284d565b8661289e565b602090816001601f851114612a8957508260a09360049593612a30936000926129425750508160011b916000199060031b1c19161790565b84555b6020810151600185015560408101516002850155612a8260038501612a656060840151612a5f81610913565b826129b8565b60808301511515815461ff00191690151560081b61ff0016179055565b0151910155565b9190601f198416612a9f87600052602060002090565b936000905b828210612ae657505092600192859260a0966004989610612acd575b505050811b018455612a33565b015160001960f88460031b161c19169055388080612ac0565b80600186978294978701518155019601940190612aa4565b8054600160401b811015610e1d57612b1b9160018201815561249c565b9190916126e557610e87916129d0565b600154600160401b811015610e1d576001810180600155811015610a225760016000527fb10e2d527612073b26eecdfd717e6a320cf44b4afac2b0732d9fcbe2b7fa0cf60180546001600160a01b0319166001600160a01b03909216919091179055565b8054600160401b811015610e1d57612bac91600182018155610a27565b60018060a09493941b038084549260031b9316831b921b1916179055565b939290612be5602091610e8794604088526040880191612590565b9401906114c0565b6117cc826110f1565b600782101561091d5752565b90604051918260008254612c158161284d565b90818452602094600191600181169081600014612c835750600114612c44575b505050610e8792500383610e59565b600090815285812095935091905b818310612c6b575050610e879350820101388080612c35565b85548884018501529485019487945091830191612c52565b92505050610e8794925060ff191682840152151560051b820101388080612c35565b90600c612cb0610e89565b8354815260018401546001600160a01b031660208201529260028101546001600160a01b0381166040860152612d149060ff90612cf5828260a01c1660608901612bed565b612d07828260a81c1660808901612bf6565b60b01c1660a08601612841565b600381015460c0850152600481015460e085015260058101546101008501526006810154610120850152600781015461014085015260088101546101608501526009810154610180850152600a8101546101a0850152612d76600b8201612c02565b6101c085015201546101e0830152565b91909160ff600080516020613d918339815191525460401c1615612e875780612db1612dc1926136ca565b50612dbb8161377f565b50613859565b50600780546001600160a01b039384166001600160a01b03199182161790915560098054929093169116179055600855601260205268056bc75e2d631000007f7e7fa33969761a458e04f477e039a608702b4f924981d6653935a8319a08ad7b55681b1ae4d6e2ef5000007f71a67924699a20698523213e55fe499d539379d7769cd5567e2c45d583f815a3556002600052686c6b935b8bbd4000007f8e1fee8c88a9e04123b21e90cae2727a7715bf522a1e46eb5934ccd05203a6b25561012c601355565b604051631afcd79f60e31b8152600490fd5b90612ea3826125c5565b612eb06040519182610e59565b8281528092612ec1601f19916125c5565b0190602036910137565b8051821015610a225760209160051b010190565b15612ee657565b60405162461bcd60e51b8152602060048201526012602482015271105b1c9958591e481c9959da5cdd195c995960721b6044820152606490fd5b604051602081018181106001600160401b03821117610e1d576040526000815290565b815191600160401b8311610e1d578154838355808410612fa2575b50612f73602080920192600052602060002090565b6000925b848410612f85575050505050565b60058382612f9660019451866129d0565b01920193019290612f77565b60059080820290828204036120db5784820282810486036120db576000908582526020822092830192015b828110612fdc57505050612f5e565b80612fe885925461284d565b8061300d575b5082600182015582600282015582600382015582600482015501612fcd565b601f908181116001146130265750508281555b38612fee565b60016130489261303b85600052602060002090565b9201851c82019101612887565b60008181526020812081835555613020565b815181546001600160a01b0319166001600160a01b0390911617815590600d906101c090613095602082015161308f816110f1565b85612542565b6130a6604082015160018601612f43565b606081015160028501556080810151600385015560a0810151600485015560c0810151600585015560e08101516006850155610100810151600785015561012081015160088501556101408101516009850155610160810151600a850155610180810151600b850155612a826101a0820151600c86016128e3565b9396959091929495613131613482565b61313b848961282e565b610e1088046131499161282e565b600854613156908261282e565b612710900461316491612583565b6007549097906001600160a01b031688303361317f93613afc565b60045461318b90612566565b98899761319789600455565b61319f610e89565b89815233602082015296600060408901819052966131c08a60608b01612bed565b8760808a015260a08901906131d491612841565b60c088015260e0870152610100860152610120850152826101408501528261016085015282610180850152866101a0850152369061321192610ee3565b6101c08301526101e0820152613231836000526003602052604060002090565b9061323b91613376565b82613250836000526006602052604060002090565b55600e5461325d90612566565b600e55604051809133946132719183613468565b037f5d594adddba5e7a88f58127f00c12b990133cb54393b89fdcd438dd02240989691a390610e876001600080516020613d7183398151915255565b90600381101561091d57815460ff60b01b191660b09190911b60ff60b01b16179055565b91909182516001600160401b038111610e1d576132f281612904845461284d565b602080601f83116001146133255750819061293e9394956000926129425750508160011b916000199060031b1c19161790565b90601f1983169561333b85600052602060002090565b926000905b88821061335e5750508360019596971061298757505050811b019055565b80600185968294968601518155019501930190613340565b8151815560208201516001820180546001600160a01b0319166001600160a01b0392831617905560408301519192600c926101e0926134009160028701916133be9116610470565b6133d560608401516133cf816110f1565b82612542565b6133ec60808401516133e6816117cf565b826124fb565b60a0830151906133fb82610913565b6132ad565b60c0810151600385015560e08101516004850155610100810151600585015561012081015160068501556101408101516007850155610160810151600885015561018081015160098501556101a0810151600a850155612a826101c0820151600b86016132d1565b604081019392916020919061347c816110f1565b81520152565b600080516020613d7183398151915260028154146134a05760029055565b604051633ee5aeb560e01b8152600490fd5b9060009160005b60018201805482101561351b576134d0828261249c565b5060ff9182600380930154168281101561091d5787106134f6575b5050506001016134b9565b8360019497506135059161249c565b5001541661351281610913565b939038806134eb565b505060026135356125c2939461353081610913565b610922565b549101549061282e565b60405163a9059cbb60e01b60009081526001600160a01b039384166004526024949094529260209060448180855af16001600051148116156135a8575b836040521561358a57505050565b635274afe760e01b8352166001600160a01b03166004820152602490fd5b60018115166135be57813b15153d15161661357c565b833d6000823e3d90fd5b3360009081527f448256db8f8fb95ee3eaaf89c1051414494e85cebb6057fcf996cc3d0ccfb456602052604090207f97667070c54ef182b0f5858b034beac1b6f3089aa2d3188bb1e8929f4fa9b9299060ff905b5416156136265750565b6044906040519063e2517d3f60e01b82523360048301526024820152fd5b3360009081527fab71e3f32666744d246edff3f96e4bdafee2e9867098cdd118a979a7464786a8602052604090207f189ab7a9244df0848122154315af71fe140f3db0fe014031783b0946b8c9d2e39060ff9061361c565b6000818152600080516020613d5183398151915260209081526040808320338452909152902060ff9061361c565b6001600160a01b03811660009081527fb7db2dd08fcb62d0c9e08c51941cae53c267786a0b75803fb7960902fc8ef97d6020526040812054600080516020613d518339815191529060ff1661377957818052602090815260408083206001600160a01b038516600090815292529020805460ff1916600117905533916001600160a01b0316907f2f8788117e7eff1d82e926ec794901d17c78024a50270940304540a733656f0d8180a4600190565b50905090565b6001600160a01b03811660009081527f448256db8f8fb95ee3eaaf89c1051414494e85cebb6057fcf996cc3d0ccfb456602052604081207f97667070c54ef182b0f5858b034beac1b6f3089aa2d3188bb1e8929f4fa9b92990600080516020613d518339815191529060ff905b541661385257818352602090815260408084206001600160a01b038616600090815292529020805460ff1916600117905533926001600160a01b0316917f2f8788117e7eff1d82e926ec794901d17c78024a50270940304540a733656f0d9080a4600190565b5050905090565b6001600160a01b03811660009081527fab71e3f32666744d246edff3f96e4bdafee2e9867098cdd118a979a7464786a8602052604081207f189ab7a9244df0848122154315af71fe140f3db0fe014031783b0946b8c9d2e390600080516020613d518339815191529060ff906137ec565b6000818152600080516020613d51833981519152602081815260408084206001600160a01b0387168552909152822091929160ff906137ec565b6000818152600080516020613d51833981519152602081815260408084206001600160a01b038716855290915282205491929160ff161561385257818352602090815260408084206001600160a01b038616600090815292529020805460ff1916905533926001600160a01b0316917ff6391f5c32d9c69d2a47ea670b442974b53935d1edc7fd64eb21e047a839171b9080a4600190565b600601805490603282116139ae575050565b60311982019182116120db5755565b6006018054906103b682106139d0575050565b600582018092116120db5755565b9081602091031261033d575190565b90916000805b60018085018054831015613a605782613a0b9161249c565b5060ff600380920154169081101561091d578690613a2882610913565b101580613a59575b613a3e575b506001016139f3565b91613a4890612566565b91838310613a355794505050505090565b5080613a30565b50505050505050600090565b919060009060005b60018086018054831015613aef5782613a8c9161249c565b50600360ff81830154169081101561091d5782858a92613aab82610913565b10159283613ae1575b505050613ac5575b50600101613a74565b92613acf90612566565b92848410613abc579550505050505090565b015410159050878238613ab4565b5050505050505050600090565b6040516323b872dd60e01b60009081526001600160a01b03938416600452938316602452604494909452909160209060648180855af1600160005114811615613b53575b8360405260006060521561358a57505050565b60018115166135be57813b15153d151616613b40565b600052600560205260406000206000908054915b828110613bbb5760405162461bcd60e51b815260206004820152600f60248201526e139bc81858d8d95c1d195908189a59608a1b6044820152606490fd5b60ff6004613bc9838561249c565b50015416613bd957600101613b7d565b90613be4925061249c565b5090565b90813b15613c6e57600080516020613d3183398151915280546001600160a01b0319166001600160a01b0384169081179091557fbc7cd75a20ee27fd9adebab32041f755214dbc6bffa90cc0225b39da2e5c2d3b600080a2805115613c5357613c5091613c8f565b50565b505034613c5c57565b60405163b398979f60e01b8152600490fd5b604051634c9c8ce360e01b81526001600160a01b0383166004820152602490fd5b9060008091602081519101845af48080613cf7575b15613cb35750506125c2613d16565b15613cdb57604051639996b31560e01b81526001600160a01b03919091166004820152602490fd5b3d1515600003613d0a5760405163d6bda27560e01b8152600490fd5b503d151580613ca45750813b1515613ca4565b6040513d6000823e3d90fd5b604051903d82523d6000602084013e60203d83010160405256fe360894a13ba1a3210667c828492db98dca3e2076cc3735a920a3ca505d382bbc02dd7bc7dec4dceedda775e58dd541e08a116c6c53815c0bd028192f7b6268009b779b17422d0df92223018b32b4d1fa46e071723d6817e2486d003becc55f00f0c57e16840df040f15088dc2f81fe391c3923bec73e23a9662efc9c229c6a00a264697066735822122037d2e23f517f9306cee00636dc45193f160ca593f6665c551542241c49dfa04764736f6c63430008160033","linkReferences":{}},"methodIdentifiers":{"BPS_PRECISION()":"e41de313","DAY()":"27cfe856","DEFAULT_ADMIN_ROLE()":"a217fddf","HOUR()":"a39dc9be","OPERATOR_ROLE()":"f5b541a6","UPGRADER_ROLE()":"f72c0d8b","UPGRADE_INTERFACE_VERSION()":"ad3cb1cc","acceptBid(uint256,uint256)":"02e9d5e4","activate()":"0f15f4c0","addGPU(string,uint256,uint256,uint8,bool,uint256)":"8bf02bf7","addStake(uint256)":"eb4f16b5","cancelJob(uint256)":"1dffa3dc","completeJob(uint256,bytes32)":"ebb59fad","createJob(uint8,uint8,uint256,uint256,uint256,uint256,bytes)":"e7f5b826","findProviders(uint8,uint256,uint256,uint256)":"d2556c23","getJob(uint256)":"bf22c457","getJobBids(uint256)":"4cb9d7fd","getMarketMetrics()":"e460112a","getProvider(address)":"55f21eb7","getProviderGPUs(address)":"9a7075b4","getRoleAdmin(bytes32)":"248a9ca3","grantRole(bytes32,address)":"2f2ff15d","hasRole(bytes32,address)":"91d14854","heartbeat()":"3defb962","heartbeatTimeout()":"7bca38be","initialize(address,address,address,uint256)":"cf756fdf","jobCount()":"4c5d8a0f","jobEscrow(uint256)":"0c4f321f","metrics()":"a04748f6","minStakeByTier(uint8)":"32eb573d","paymentToken()":"3013ce29","placeBid(uint256,uint256,uint256)":"5e62be25","platformFee()":"26232a2e","providerList(uint256)":"390bfd3c","providersByTier(uint8,uint256)":"cb2dc59f","proxiableUUID()":"52d1902d","registerProvider(string,bytes32,uint256)":"df4c481a","renounceRole(bytes32,address)":"36568abe","reportFailure(uint256,string)":"411f0903","revokeRole(bytes32,address)":"d547741f","startJob(uint256)":"e1255294","supportsInterface(bytes4)":"01ffc9a7","treasury()":"61d027b3","updateHourlyRate(uint256)":"8f5a206e","upgradeToAndCall(address,bytes)":"4f1ef286"},"id":42}