{
  "_format": "hh-sol-artifact-1",
  "contractName": "HubStakingPool",
  "sourceName": "contracts/hub/HubStakingPool.sol",
  "abi": [
    {
      "inputs": [
        {
          "internalType": "address",
          "name": "_stakingToken",
          "type": "address"
        },
        {
          "internalType": "address",
          "name": "_rewardToken",
          "type": "address"
        },
        {
          "internalType": "uint256",
          "name": "_rewardRate",
          "type": "uint256"
        }
      ],
      "stateMutability": "nonpayable",
      "type": "constructor"
    },
    {
      "anonymous": false,
      "inputs": [
        {
          "indexed": true,
          "internalType": "address",
          "name": "user",
          "type": "address"
        },
        {
          "indexed": false,
          "internalType": "uint256",
          "name": "amount",
          "type": "uint256"
        }
      ],
      "name": "Claimed",
      "type": "event"
    },
    {
      "anonymous": false,
      "inputs": [
        {
          "indexed": true,
          "internalType": "address",
          "name": "previousOwner",
          "type": "address"
        },
        {
          "indexed": true,
          "internalType": "address",
          "name": "newOwner",
          "type": "address"
        }
      ],
      "name": "OwnershipTransferred",
      "type": "event"
    },
    {
      "anonymous": false,
      "inputs": [
        {
          "indexed": false,
          "internalType": "uint256",
          "name": "rewardRate",
          "type": "uint256"
        }
      ],
      "name": "RewardRateUpdated",
      "type": "event"
    },
    {
      "anonymous": false,
      "inputs": [
        {
          "indexed": true,
          "internalType": "address",
          "name": "user",
          "type": "address"
        },
        {
          "indexed": false,
          "internalType": "uint256",
          "name": "amount",
          "type": "uint256"
        }
      ],
      "name": "Staked",
      "type": "event"
    },
    {
      "anonymous": false,
      "inputs": [
        {
          "indexed": true,
          "internalType": "address",
          "name": "user",
          "type": "address"
        },
        {
          "indexed": false,
          "internalType": "uint256",
          "name": "amount",
          "type": "uint256"
        }
      ],
      "name": "Unstaked",
      "type": "event"
    },
    {
      "inputs": [],
      "name": "accRewardPerShare",
      "outputs": [
        {
          "internalType": "uint256",
          "name": "",
          "type": "uint256"
        }
      ],
      "stateMutability": "view",
      "type": "function"
    },
    {
      "inputs": [],
      "name": "claim",
      "outputs": [],
      "stateMutability": "nonpayable",
      "type": "function"
    },
    {
      "inputs": [],
      "name": "lastUpdateBlock",
      "outputs": [
        {
          "internalType": "uint256",
          "name": "",
          "type": "uint256"
        }
      ],
      "stateMutability": "view",
      "type": "function"
    },
    {
      "inputs": [],
      "name": "owner",
      "outputs": [
        {
          "internalType": "address",
          "name": "",
          "type": "address"
        }
      ],
      "stateMutability": "view",
      "type": "function"
    },
    {
      "inputs": [
        {
          "internalType": "address",
          "name": "user",
          "type": "address"
        }
      ],
      "name": "pendingReward",
      "outputs": [
        {
          "internalType": "uint256",
          "name": "",
          "type": "uint256"
        }
      ],
      "stateMutability": "view",
      "type": "function"
    },
    {
      "inputs": [],
      "name": "renounceOwnership",
      "outputs": [],
      "stateMutability": "nonpayable",
      "type": "function"
    },
    {
      "inputs": [
        {
          "internalType": "address",
          "name": "",
          "type": "address"
        }
      ],
      "name": "rewardDebt",
      "outputs": [
        {
          "internalType": "uint256",
          "name": "",
          "type": "uint256"
        }
      ],
      "stateMutability": "view",
      "type": "function"
    },
    {
      "inputs": [],
      "name": "rewardRate",
      "outputs": [
        {
          "internalType": "uint256",
          "name": "",
          "type": "uint256"
        }
      ],
      "stateMutability": "view",
      "type": "function"
    },
    {
      "inputs": [],
      "name": "rewardToken",
      "outputs": [
        {
          "internalType": "contract IERC20",
          "name": "",
          "type": "address"
        }
      ],
      "stateMutability": "view",
      "type": "function"
    },
    {
      "inputs": [
        {
          "internalType": "uint256",
          "name": "_rewardRate",
          "type": "uint256"
        }
      ],
      "name": "setRewardRate",
      "outputs": [],
      "stateMutability": "nonpayable",
      "type": "function"
    },
    {
      "inputs": [
        {
          "internalType": "uint256",
          "name": "amount",
          "type": "uint256"
        }
      ],
      "name": "stake",
      "outputs": [],
      "stateMutability": "nonpayable",
      "type": "function"
    },
    {
      "inputs": [
        {
          "internalType": "address",
          "name": "",
          "type": "address"
        }
      ],
      "name": "stakeAmount",
      "outputs": [
        {
          "internalType": "uint256",
          "name": "",
          "type": "uint256"
        }
      ],
      "stateMutability": "view",
      "type": "function"
    },
    {
      "inputs": [
        {
          "internalType": "address",
          "name": "account",
          "type": "address"
        }
      ],
      "name": "stakePower",
      "outputs": [
        {
          "internalType": "uint256",
          "name": "",
          "type": "uint256"
        }
      ],
      "stateMutability": "view",
      "type": "function"
    },
    {
      "inputs": [],
      "name": "stakingToken",
      "outputs": [
        {
          "internalType": "contract IERC20",
          "name": "",
          "type": "address"
        }
      ],
      "stateMutability": "view",
      "type": "function"
    },
    {
      "inputs": [],
      "name": "totalStaked",
      "outputs": [
        {
          "internalType": "uint256",
          "name": "",
          "type": "uint256"
        }
      ],
      "stateMutability": "view",
      "type": "function"
    },
    {
      "inputs": [
        {
          "internalType": "address",
          "name": "newOwner",
          "type": "address"
        }
      ],
      "name": "transferOwnership",
      "outputs": [],
      "stateMutability": "nonpayable",
      "type": "function"
    },
    {
      "inputs": [
        {
          "internalType": "uint256",
          "name": "amount",
          "type": "uint256"
        }
      ],
      "name": "unstake",
      "outputs": [],
      "stateMutability": "nonpayable",
      "type": "function"
    },
    {
      "inputs": [],
      "name": "updatePool",
      "outputs": [],
      "stateMutability": "nonpayable",
      "type": "function"
    }
  ],
  "bytecode": "0x608060405234801561001057600080fd5b50604051610f51380380610f5183398101604081905261002f91610191565b61003833610125565b6001600160a01b0383166100935760405162461bcd60e51b815260206004820152601560248201527f496e76616c6964207374616b696e6720746f6b656e000000000000000000000060448201526064015b60405180910390fd5b6001600160a01b0382166100e95760405162461bcd60e51b815260206004820152601460248201527f496e76616c69642072657761726420746f6b656e000000000000000000000000604482015260640161008a565b600180546001600160a01b039485166001600160a01b0319918216179091556002805493909416921691909117909155600355436005556101cd565b600080546001600160a01b038381166001600160a01b0319831681178455604051919092169283917f8be0079c531659141344cd1fd0a4f28419497f9722a3daafe3b4186f6b6457e09190a35050565b80516001600160a01b038116811461018c57600080fd5b919050565b6000806000606084860312156101a657600080fd5b6101af84610175565b92506101bd60208501610175565b9150604084015190509250925092565b610d75806101dc6000396000f3fe608060405234801561001057600080fd5b50600436106101165760003560e01c8063939d6237116100a2578063bf13526711610071578063bf13526714610222578063e3161ddd14610242578063f2fde38b1461024a578063f40f0f521461025d578063f7c618c11461027057600080fd5b8063939d6237146101ea5780639e447fc6146101f3578063a218141b14610206578063a694fc3a1461020f57600080fd5b8063715018a6116100e9578063715018a61461019457806372f702f31461019c5780637b0a47ee146101c7578063817b1cd2146101d05780638da5cb5b146101d957600080fd5b806301e92a041461011b5780632e17de78146101575780634e71d92d1461016c5780635873eb9b14610174575b600080fd5b610144610129366004610bed565b6001600160a01b031660009081526007602052604090205490565b6040519081526020015b60405180910390f35b61016a610165366004610c16565b610283565b005b61016a61045b565b610144610182366004610bed565b60086020526000908152604090205481565b61016a61053f565b6001546101af906001600160a01b031681565b6040516001600160a01b03909116815260200161014e565b61014460035481565b61014460045481565b6000546001600160a01b03166101af565b61014460065481565b61016a610201366004610c16565b610553565b61014460055481565b61016a61021d366004610c16565b61059e565b610144610230366004610bed565b60076020526000908152604090205481565b61016a6106ab565b61016a610258366004610bed565b610714565b61014461026b366004610bed565b61078d565b6002546101af906001600160a01b031681565b600081116102c75760405162461bcd60e51b815260206004820152600c60248201526b5a65726f20756e7374616b6560a01b60448201526064015b60405180910390fd5b3360009081526007602052604090205481111561031b5760405162461bcd60e51b8152602060048201526012602482015271496e73756666696369656e74207374616b6560701b60448201526064016102be565b6103236106ab565b600061032e3361078d565b33600090815260076020526040812080549293508492909190610352908490610c45565b92505081905550816004600082825461036b9190610c45565b90915550506006543360009081526007602052604090205464e8d4a510009161039391610c5e565b61039d9190610c75565b336000818152600860205260409020919091556001546103c9916001600160a01b039091169084610838565b80156103e6576002546103e6906001600160a01b03163383610838565b60405182815233907f0f5bb82176feb1b5e747e28471aa92156a04d9f3ab9f45f28e2d704232b93f759060200160405180910390a280156104575760405181815233907fd8138f8a3f377c5259ca548e70e4c2de94f129f5a11036a15b69513cba2b426a9060200160405180910390a25b5050565b6104636106ab565b600061046e3361078d565b9050600081116104ad5760405162461bcd60e51b815260206004820152600a6024820152694e6f207265776172647360b01b60448201526064016102be565b6006543360009081526007602052604090205464e8d4a51000916104d091610c5e565b6104da9190610c75565b33600081815260086020526040902091909155600254610506916001600160a01b039091169083610838565b60405181815233907fd8138f8a3f377c5259ca548e70e4c2de94f129f5a11036a15b69513cba2b426a906020015b60405180910390a250565b6105476108a0565b61055160006108fa565b565b61055b6108a0565b6105636106ab565b60038190556040518181527f41d466ebd06fb97e7786086ac8b69b7eb7da798592036251291d34e9791cde019060200160405180910390a150565b600081116105db5760405162461bcd60e51b815260206004820152600a6024820152695a65726f207374616b6560b01b60448201526064016102be565b6105e36106ab565b6001546105fb906001600160a01b031633308461094a565b336000908152600760205260408120805483929061061a908490610c97565b9250508190555080600460008282546106339190610c97565b90915550506006543360009081526007602052604090205464e8d4a510009161065b91610c5e565b6106659190610c75565b33600081815260086020526040908190209290925590517f9e71bc8eea02a63969f509818f2dafb9254532904319f9dbda79b67bd34a5f3d906105349084815260200190565b6004546000036106bb5743600555565b6000600554436106cb9190610c45565b9050600454600354826106de9190610c5e565b6106ed9064e8d4a51000610c5e565b6106f79190610c75565b600660008282546107089190610c97565b90915550504360055550565b61071c6108a0565b6001600160a01b0381166107815760405162461bcd60e51b815260206004820152602660248201527f4f776e61626c653a206e6577206f776e657220697320746865207a65726f206160448201526564647265737360d01b60648201526084016102be565b61078a816108fa565b50565b60065460045460009190156107e6576000600554436107ac9190610c45565b9050600454600354826107bf9190610c5e565b6107ce9064e8d4a51000610c5e565b6107d89190610c75565b6107e29083610c97565b9150505b6001600160a01b03831660009081526008602090815260408083205460079092529091205464e8d4a510009061081d908490610c5e565b6108279190610c75565b6108319190610c45565b9392505050565b6040516001600160a01b03831660248201526044810182905261089b90849063a9059cbb60e01b906064015b60408051601f198184030181529190526020810180516001600160e01b03166001600160e01b031990931692909217909152610988565b505050565b6000546001600160a01b031633146105515760405162461bcd60e51b815260206004820181905260248201527f4f776e61626c653a2063616c6c6572206973206e6f7420746865206f776e657260448201526064016102be565b600080546001600160a01b038381166001600160a01b0319831681178455604051919092169283917f8be0079c531659141344cd1fd0a4f28419497f9722a3daafe3b4186f6b6457e09190a35050565b6040516001600160a01b03808516602483015283166044820152606481018290526109829085906323b872dd60e01b90608401610864565b50505050565b60006109dd826040518060400160405280602081526020017f5361666545524332303a206c6f772d6c6576656c2063616c6c206661696c6564815250856001600160a01b0316610a5d9092919063ffffffff16565b90508051600014806109fe5750808060200190518101906109fe9190610caa565b61089b5760405162461bcd60e51b815260206004820152602a60248201527f5361666545524332303a204552433230206f7065726174696f6e20646964206e6044820152691bdd081cdd58d8d9595960b21b60648201526084016102be565b6060610a6c8484600085610a74565b949350505050565b606082471015610ad55760405162461bcd60e51b815260206004820152602660248201527f416464726573733a20696e73756666696369656e742062616c616e636520666f6044820152651c8818d85b1b60d21b60648201526084016102be565b600080866001600160a01b03168587604051610af19190610cf0565b60006040518083038185875af1925050503d8060008114610b2e576040519150601f19603f3d011682016040523d82523d6000602084013e610b33565b606091505b5091509150610b4487838387610b4f565b979650505050505050565b60608315610bbe578251600003610bb7576001600160a01b0385163b610bb75760405162461bcd60e51b815260206004820152601d60248201527f416464726573733a2063616c6c20746f206e6f6e2d636f6e747261637400000060448201526064016102be565b5081610a6c565b610a6c8383815115610bd35781518083602001fd5b8060405162461bcd60e51b81526004016102be9190610d0c565b600060208284031215610bff57600080fd5b81356001600160a01b038116811461083157600080fd5b600060208284031215610c2857600080fd5b5035919050565b634e487b7160e01b600052601160045260246000fd5b81810381811115610c5857610c58610c2f565b92915050565b8082028115828204841417610c5857610c58610c2f565b600082610c9257634e487b7160e01b600052601260045260246000fd5b500490565b80820180821115610c5857610c58610c2f565b600060208284031215610cbc57600080fd5b8151801515811461083157600080fd5b60005b83811015610ce7578181015183820152602001610ccf565b50506000910152565b60008251610d02818460208701610ccc565b9190910192915050565b6020815260008251806020840152610d2b816040850160208701610ccc565b601f01601f1916919091016040019291505056fea26469706673582212208cee884d012feb67351b98f130d2d5435a86da11010bab7acc2031c72398487564736f6c63430008180033",
  "linkReferences": {},
  "deployedLinkReferences": {}
}