{
  "_format": "hh-sol-artifact-1",
  "contractName": "AtomicSwapAdapter",
  "sourceName": "contracts/AtomicSwapAdapter.sol",
  "abi": [
    {
      "inputs": [],
      "stateMutability": "nonpayable",
      "type": "constructor"
    },
    {
      "inputs": [],
      "name": "InvalidAmount",
      "type": "error"
    },
    {
      "inputs": [],
      "name": "InvalidHashlock",
      "type": "error"
    },
    {
      "inputs": [],
      "name": "InvalidParticipant",
      "type": "error"
    },
    {
      "inputs": [],
      "name": "InvalidPreimage",
      "type": "error"
    },
    {
      "inputs": [],
      "name": "InvalidToken",
      "type": "error"
    },
    {
      "inputs": [],
      "name": "NotInitiator",
      "type": "error"
    },
    {
      "inputs": [
        {
          "internalType": "address",
          "name": "owner",
          "type": "address"
        }
      ],
      "name": "OwnableInvalidOwner",
      "type": "error"
    },
    {
      "inputs": [
        {
          "internalType": "address",
          "name": "account",
          "type": "address"
        }
      ],
      "name": "OwnableUnauthorizedAccount",
      "type": "error"
    },
    {
      "inputs": [],
      "name": "ReentrancyGuardReentrantCall",
      "type": "error"
    },
    {
      "inputs": [],
      "name": "RemoteTimelockDeltaTooSmall",
      "type": "error"
    },
    {
      "inputs": [],
      "name": "RemoteTimelockNotLonger",
      "type": "error"
    },
    {
      "inputs": [
        {
          "internalType": "address",
          "name": "token",
          "type": "address"
        }
      ],
      "name": "SafeERC20FailedOperation",
      "type": "error"
    },
    {
      "inputs": [],
      "name": "SwapAlreadyClaimed",
      "type": "error"
    },
    {
      "inputs": [],
      "name": "SwapAlreadyExists",
      "type": "error"
    },
    {
      "inputs": [],
      "name": "SwapAlreadyRefunded",
      "type": "error"
    },
    {
      "inputs": [],
      "name": "SwapExpired",
      "type": "error"
    },
    {
      "inputs": [],
      "name": "SwapNotExpired",
      "type": "error"
    },
    {
      "inputs": [],
      "name": "SwapNotFound",
      "type": "error"
    },
    {
      "inputs": [],
      "name": "TimelockTooLong",
      "type": "error"
    },
    {
      "inputs": [],
      "name": "TimelockTooShort",
      "type": "error"
    },
    {
      "anonymous": false,
      "inputs": [
        {
          "indexed": true,
          "internalType": "address",
          "name": "previousOwner",
          "type": "address"
        },
        {
          "indexed": true,
          "internalType": "address",
          "name": "newOwner",
          "type": "address"
        }
      ],
      "name": "OwnershipTransferred",
      "type": "event"
    },
    {
      "anonymous": false,
      "inputs": [
        {
          "indexed": true,
          "internalType": "bytes32",
          "name": "swapId",
          "type": "bytes32"
        },
        {
          "indexed": false,
          "internalType": "bytes",
          "name": "preimage",
          "type": "bytes"
        },
        {
          "indexed": false,
          "internalType": "address",
          "name": "claimedBy",
          "type": "address"
        }
      ],
      "name": "TokensClaimed",
      "type": "event"
    },
    {
      "anonymous": false,
      "inputs": [
        {
          "indexed": true,
          "internalType": "bytes32",
          "name": "swapId",
          "type": "bytes32"
        },
        {
          "indexed": true,
          "internalType": "address",
          "name": "initiator",
          "type": "address"
        },
        {
          "indexed": true,
          "internalType": "address",
          "name": "participant",
          "type": "address"
        },
        {
          "indexed": false,
          "internalType": "address",
          "name": "token",
          "type": "address"
        },
        {
          "indexed": false,
          "internalType": "uint256",
          "name": "amount",
          "type": "uint256"
        },
        {
          "indexed": false,
          "internalType": "bytes32",
          "name": "hashlock",
          "type": "bytes32"
        },
        {
          "indexed": false,
          "internalType": "uint256",
          "name": "timelock",
          "type": "uint256"
        }
      ],
      "name": "TokensLocked",
      "type": "event"
    },
    {
      "anonymous": false,
      "inputs": [
        {
          "indexed": true,
          "internalType": "bytes32",
          "name": "swapId",
          "type": "bytes32"
        },
        {
          "indexed": false,
          "internalType": "address",
          "name": "refundedTo",
          "type": "address"
        }
      ],
      "name": "TokensRefunded",
      "type": "event"
    },
    {
      "inputs": [],
      "name": "MAX_TIMELOCK",
      "outputs": [
        {
          "internalType": "uint256",
          "name": "",
          "type": "uint256"
        }
      ],
      "stateMutability": "view",
      "type": "function"
    },
    {
      "inputs": [],
      "name": "MIN_REMOTE_TIMELOCK_DELTA",
      "outputs": [
        {
          "internalType": "uint256",
          "name": "",
          "type": "uint256"
        }
      ],
      "stateMutability": "view",
      "type": "function"
    },
    {
      "inputs": [],
      "name": "MIN_TIMELOCK",
      "outputs": [
        {
          "internalType": "uint256",
          "name": "",
          "type": "uint256"
        }
      ],
      "stateMutability": "view",
      "type": "function"
    },
    {
      "inputs": [
        {
          "internalType": "bytes32",
          "name": "swapId",
          "type": "bytes32"
        }
      ],
      "name": "canClaim",
      "outputs": [
        {
          "internalType": "bool",
          "name": "",
          "type": "bool"
        }
      ],
      "stateMutability": "view",
      "type": "function"
    },
    {
      "inputs": [
        {
          "internalType": "bytes32",
          "name": "swapId",
          "type": "bytes32"
        }
      ],
      "name": "canRefund",
      "outputs": [
        {
          "internalType": "bool",
          "name": "",
          "type": "bool"
        }
      ],
      "stateMutability": "view",
      "type": "function"
    },
    {
      "inputs": [
        {
          "internalType": "bytes32",
          "name": "swapId",
          "type": "bytes32"
        },
        {
          "internalType": "bytes",
          "name": "preimage",
          "type": "bytes"
        }
      ],
      "name": "claim",
      "outputs": [],
      "stateMutability": "nonpayable",
      "type": "function"
    },
    {
      "inputs": [
        {
          "internalType": "bytes",
          "name": "preimage",
          "type": "bytes"
        }
      ],
      "name": "computeHashlock",
      "outputs": [
        {
          "internalType": "bytes32",
          "name": "",
          "type": "bytes32"
        }
      ],
      "stateMutability": "pure",
      "type": "function"
    },
    {
      "inputs": [
        {
          "internalType": "bytes32",
          "name": "preimage",
          "type": "bytes32"
        }
      ],
      "name": "computeHashlockFromBytes32",
      "outputs": [
        {
          "internalType": "bytes32",
          "name": "",
          "type": "bytes32"
        }
      ],
      "stateMutability": "pure",
      "type": "function"
    },
    {
      "inputs": [
        {
          "internalType": "bytes32",
          "name": "swapId",
          "type": "bytes32"
        }
      ],
      "name": "getSwap",
      "outputs": [
        {
          "components": [
            {
              "internalType": "address",
              "name": "initiator",
              "type": "address"
            },
            {
              "internalType": "address",
              "name": "participant",
              "type": "address"
            },
            {
              "internalType": "contract IERC20",
              "name": "token",
              "type": "address"
            },
            {
              "internalType": "uint256",
              "name": "amount",
              "type": "uint256"
            },
            {
              "internalType": "bytes32",
              "name": "hashlock",
              "type": "bytes32"
            },
            {
              "internalType": "uint256",
              "name": "timelock",
              "type": "uint256"
            },
            {
              "internalType": "bool",
              "name": "claimed",
              "type": "bool"
            },
            {
              "internalType": "bool",
              "name": "refunded",
              "type": "bool"
            }
          ],
          "internalType": "struct AtomicSwapAdapter.Swap",
          "name": "",
          "type": "tuple"
        }
      ],
      "stateMutability": "view",
      "type": "function"
    },
    {
      "inputs": [],
      "name": "getSwapNonce",
      "outputs": [
        {
          "internalType": "uint256",
          "name": "",
          "type": "uint256"
        }
      ],
      "stateMutability": "view",
      "type": "function"
    },
    {
      "inputs": [
        {
          "internalType": "uint256",
          "name": "localTimelock",
          "type": "uint256"
        },
        {
          "internalType": "uint256",
          "name": "remoteTimelock",
          "type": "uint256"
        }
      ],
      "name": "isSafeRemoteTimelock",
      "outputs": [
        {
          "internalType": "bool",
          "name": "",
          "type": "bool"
        }
      ],
      "stateMutability": "pure",
      "type": "function"
    },
    {
      "inputs": [
        {
          "internalType": "bytes32",
          "name": "swapId",
          "type": "bytes32"
        }
      ],
      "name": "isSwapActive",
      "outputs": [
        {
          "internalType": "bool",
          "name": "",
          "type": "bool"
        }
      ],
      "stateMutability": "view",
      "type": "function"
    },
    {
      "inputs": [
        {
          "internalType": "address",
          "name": "participant",
          "type": "address"
        },
        {
          "internalType": "contract IERC20",
          "name": "token",
          "type": "address"
        },
        {
          "internalType": "uint256",
          "name": "amount",
          "type": "uint256"
        },
        {
          "internalType": "bytes32",
          "name": "hashlock",
          "type": "bytes32"
        },
        {
          "internalType": "uint256",
          "name": "timelock",
          "type": "uint256"
        }
      ],
      "name": "lockTokens",
      "outputs": [
        {
          "internalType": "bytes32",
          "name": "swapId",
          "type": "bytes32"
        }
      ],
      "stateMutability": "nonpayable",
      "type": "function"
    },
    {
      "inputs": [
        {
          "internalType": "address",
          "name": "participant",
          "type": "address"
        },
        {
          "internalType": "contract IERC20",
          "name": "token",
          "type": "address"
        },
        {
          "internalType": "uint256",
          "name": "amount",
          "type": "uint256"
        },
        {
          "internalType": "bytes32",
          "name": "hashlock",
          "type": "bytes32"
        },
        {
          "internalType": "uint256",
          "name": "timelock",
          "type": "uint256"
        },
        {
          "internalType": "uint256",
          "name": "remoteTimelock",
          "type": "uint256"
        }
      ],
      "name": "lockTokensWithRemoteTimelock",
      "outputs": [
        {
          "internalType": "bytes32",
          "name": "swapId",
          "type": "bytes32"
        }
      ],
      "stateMutability": "nonpayable",
      "type": "function"
    },
    {
      "inputs": [],
      "name": "owner",
      "outputs": [
        {
          "internalType": "address",
          "name": "",
          "type": "address"
        }
      ],
      "stateMutability": "view",
      "type": "function"
    },
    {
      "inputs": [
        {
          "internalType": "bytes32",
          "name": "swapId",
          "type": "bytes32"
        }
      ],
      "name": "refund",
      "outputs": [],
      "stateMutability": "nonpayable",
      "type": "function"
    },
    {
      "inputs": [],
      "name": "renounceOwnership",
      "outputs": [],
      "stateMutability": "nonpayable",
      "type": "function"
    },
    {
      "inputs": [
        {
          "internalType": "bytes32",
          "name": "",
          "type": "bytes32"
        }
      ],
      "name": "swaps",
      "outputs": [
        {
          "internalType": "address",
          "name": "initiator",
          "type": "address"
        },
        {
          "internalType": "address",
          "name": "participant",
          "type": "address"
        },
        {
          "internalType": "contract IERC20",
          "name": "token",
          "type": "address"
        },
        {
          "internalType": "uint256",
          "name": "amount",
          "type": "uint256"
        },
        {
          "internalType": "bytes32",
          "name": "hashlock",
          "type": "bytes32"
        },
        {
          "internalType": "uint256",
          "name": "timelock",
          "type": "uint256"
        },
        {
          "internalType": "bool",
          "name": "claimed",
          "type": "bool"
        },
        {
          "internalType": "bool",
          "name": "refunded",
          "type": "bool"
        }
      ],
      "stateMutability": "view",
      "type": "function"
    },
    {
      "inputs": [
        {
          "internalType": "bytes32",
          "name": "swapId",
          "type": "bytes32"
        }
      ],
      "name": "timeUntilRefund",
      "outputs": [
        {
          "internalType": "uint256",
          "name": "",
          "type": "uint256"
        }
      ],
      "stateMutability": "view",
      "type": "function"
    },
    {
      "inputs": [
        {
          "internalType": "address",
          "name": "newOwner",
          "type": "address"
        }
      ],
      "name": "transferOwnership",
      "outputs": [],
      "stateMutability": "nonpayable",
      "type": "function"
    },
    {
      "inputs": [
        {
          "internalType": "bytes32",
          "name": "",
          "type": "bytes32"
        }
      ],
      "name": "usedSwapIds",
      "outputs": [
        {
          "internalType": "bool",
          "name": "",
          "type": "bool"
        }
      ],
      "stateMutability": "view",
      "type": "function"
    },
    {
      "inputs": [
        {
          "internalType": "bytes",
          "name": "preimage",
          "type": "bytes"
        },
        {
          "internalType": "bytes32",
          "name": "hashlock",
          "type": "bytes32"
        }
      ],
      "name": "verifyPreimage",
      "outputs": [
        {
          "internalType": "bool",
          "name": "",
          "type": "bool"
        }
      ],
      "stateMutability": "pure",
      "type": "function"
    }
  ],
  "bytecode": "0x6080604052348015600e575f80fd5b5060017f9b779b17422d0df92223018b32b4d1fa46e071723d6817e2486d003becc55f00553380605757604051631e4fbdf760e01b81525f600482015260240160405180910390fd5b605e816063565b5060b2565b5f80546001600160a01b038381166001600160a01b0319831681178455604051919092169283917f8be0079c531659141344cd1fd0a4f28419497f9722a3daafe3b4186f6b6457e09190a35050565b611417806100bf5f395ff3fe608060405234801561000f575f80fd5b506004361061013d575f3560e01c80638c8c2003116100b4578063eaaa98fa11610079578063eaaa98fa14610352578063eb84e7f214610365578063ebace8b814610419578063f03310241461042c578063f2fde38b1461043f578063fb0c7549146102a9575f80fd5b80638c8c2003146102f55780638da5cb5b1461030857806394f1825b14610322578063b74649891461032c578063c1df5db91461033f575f80fd5b80633da0e66e116101055780633da0e66e146101c75780635ab52174146102a95780636203305f146102b2578063715018a6146102c55780637249fbb6146102cf57806389cdebe3146102e2575f80fd5b806309ccb7d3146101415780631390380c1461016757806318aecf381461018a57806337f875e6146101925780633b3d6706146101a5575b5f80fd5b61015461014f366004611089565b610452565b6040519081526020015b60405180910390f35b61017a6101753660046110d6565b610489565b604051901515815260200161015e565b600354610154565b6101546101a03660046110f6565b6104ad565b61017a6101b336600461114b565b60026020525f908152604090205460ff1681565b61029c6101d536600461114b565b60408051610100810182525f80825260208201819052918101829052606081018290526080810182905260a0810182905260c0810182905260e0810191909152505f908152600160208181526040928390208351610100808201865282546001600160a01b039081168352948301548516938201939093526002820154909316938301939093526003830154606083015260048301546080830152600583015460a083015260069092015460ff808216151560c0840152929004909116151560e082015290565b60405161015e9190611162565b610154610e1081565b6101546102c036600461114b565b610531565b6102cd61059f565b005b6102cd6102dd36600461114b565b6105b2565b6101546102f036600461114b565b61071f565b61017a61030336600461114b565b610756565b5f546040516001600160a01b03909116815260200161015e565b61015462093a8081565b61015461033a366004611221565b6107ab565b61017a61034d366004611260565b6107fc565b61017a61036036600461114b565b610857565b6103cb61037336600461114b565b600160208190525f918252604090912080549181015460028201546003830154600484015460058501546006909501546001600160a01b03968716969485169593909416939192909160ff8082169161010090041688565b604080516001600160a01b03998a168152978916602089015295909716948601949094526060850192909252608084015260a0830152151560c082015290151560e08201526101000161015e565b61017a61042736600461114b565b6108ab565b6102cd61043a3660046112a8565b6108f0565b6102cd61044d3660046112f0565b610aa9565b5f61045b610ae8565b6104688686868686610b03565b905061048060015f805160206113c283398151915255565b95945050505050565b5f82821180156104a45750610e106104a1848461131f565b10155b90505b92915050565b5f6104b6610ae8565b8282116104d65760405163b5c255d960e01b815260040160405180910390fd5b610e106104e3848461131f565b101561050257604051633a0b5cdf60e21b815260040160405180910390fd5b61050f8787878787610b03565b905061052760015f805160206113c283398151915255565b9695505050505050565b5f60028260405160200161054791815260200190565b60408051601f198184030181529082905261056191611332565b602060405180830381855afa15801561057c573d5f803e3d5ffd5b5050506040513d601f19601f820116820180604052508101906104a79190611348565b6105a7610e8b565b6105b05f610eb7565b565b6105ba610ae8565b5f81815260016020526040902080546001600160a01b03166105ef576040516305ec69df60e41b815260040160405180910390fd5b600681015460ff161561061557604051631529741f60e01b815260040160405180910390fd5b6006810154610100900460ff16156106405760405163a2640b2760e01b815260040160405180910390fd5b8060050154421015610665576040516314f5e72f60e01b815260040160405180910390fd5b80546001600160a01b0316331461068f5760405163215af1ad60e11b815260040160405180910390fd5b60068101805461ff0019166101001790558054600382015460028301546106c4926001600160a01b0391821692911690610f06565b80546040516001600160a01b03909116815282907fa1b1817772fbd5eb244458ea7058ff1893d939c6f40dd1ca4898184f4afdf0c09060200160405180910390a25061071c60015f805160206113c283398151915255565b50565b5f8181526001602052604081206005810154421061073f57505f92915050565b42816005015461074f919061131f565b9392505050565b5f81815260016020526040812080546001600160a01b0316158015906107815750600681015460ff16155b801561079757506006810154610100900460ff16155b801561074f57506005015442101592915050565b5f600283836040516107be92919061135f565b602060405180830381855afa1580156107d9573d5f803e3d5ffd5b5050506040513d601f19601f820116820180604052508101906104a49190611348565b5f816002858560405161081092919061135f565b602060405180830381855afa15801561082b573d5f803e3d5ffd5b5050506040513d601f19601f8201168201806040525081019061084e9190611348565b14949350505050565b5f81815260016020526040812080546001600160a01b0316158015906108825750600681015460ff16155b801561089857506006810154610100900460ff16155b801561074f575060050154421092915050565b5f81815260016020526040812080546001600160a01b0316158015906108d65750600681015460ff16155b801561074f575060060154610100900460ff161592915050565b6108f8610ae8565b5f83815260016020526040902080546001600160a01b031661092d576040516305ec69df60e41b815260040160405180910390fd5b600681015460ff161561095357604051631529741f60e01b815260040160405180910390fd5b6006810154610100900460ff161561097e5760405163a2640b2760e01b815260040160405180910390fd5b806005015442106109a257604051632b32713d60e01b815260040160405180910390fd5b5f600284846040516109b592919061135f565b602060405180830381855afa1580156109d0573d5f803e3d5ffd5b5050506040513d601f19601f820116820180604052508101906109f39190611348565b905081600401548114610a1957604051630cb4548160e11b815260040160405180910390fd5b60068201805460ff1916600190811790915582015460038301546002840154610a50926001600160a01b0391821692911690610f06565b847fd5e56e2c0218855073579771985b758d1bf152a4017a0b0437a35a8ad1d23af2858533604051610a849392919061136e565b60405180910390a25050610aa460015f805160206113c283398151915255565b505050565b610ab1610e8b565b6001600160a01b038116610adf57604051631e4fbdf760e01b81525f60048201526024015b60405180910390fd5b61071c81610eb7565b610af0610f3b565b60025f805160206113c283398151915255565b5f6001600160a01b038616610b2b576040516350a2e21f60e11b815260040160405180910390fd5b6001600160a01b038516610b525760405163c1ab6dc160e01b815260040160405180910390fd5b835f03610b725760405163162908e360e11b815260040160405180910390fd5b82610b9057604051632e0755ab60e01b815260040160405180910390fd5b610b9c610e10426113ae565b821015610bbc576040516301ded1a560e41b815260040160405180910390fd5b610bc962093a80426113ae565b821115610be957604051632e3f1a4f60e11b815260040160405180910390fd5b60038054600101908190556040516bffffffffffffffffffffffff1933606090811b8216602084015289811b8216603484015288901b166048820152605c8101869052607c8101859052609c810184905260bc8101919091524660dc82015260fc0160408051601f1981840301815291815281516020928301205f818152600290935291205490915060ff1615610c93576040516339a2986760e11b815260040160405180910390fd5b600160025f8381526020019081526020015f205f6101000a81548160ff021916908315150217905550604051806101000160405280336001600160a01b03168152602001876001600160a01b03168152602001866001600160a01b031681526020018581526020018481526020018381526020015f151581526020015f151581525060015f8381526020019081526020015f205f820151815f015f6101000a8154816001600160a01b0302191690836001600160a01b031602179055506020820151816001015f6101000a8154816001600160a01b0302191690836001600160a01b031602179055506040820151816002015f6101000a8154816001600160a01b0302191690836001600160a01b03160217905550606082015181600301556080820151816004015560a0820151816005015560c0820151816006015f6101000a81548160ff02191690831515021790555060e08201518160060160016101000a81548160ff021916908315150217905550905050610e28333086886001600160a01b0316610f6a909392919063ffffffff16565b604080516001600160a01b038781168252602082018790529181018590526060810184905290871690339083907fd9d36eccb57f27f4c403bdccd774b38d63bee08d5708cc041ffe959d594a4e189060800160405180910390a495945050505050565b5f546001600160a01b031633146105b05760405163118cdaa760e01b8152336004820152602401610ad6565b5f80546001600160a01b038381166001600160a01b0319831681178455604051919092169283917f8be0079c531659141344cd1fd0a4f28419497f9722a3daafe3b4186f6b6457e09190a35050565b610f138383836001610fa6565b610aa457604051635274afe760e01b81526001600160a01b0384166004820152602401610ad6565b5f805160206113c2833981519152546002036105b057604051633ee5aeb560e01b815260040160405180910390fd5b610f78848484846001611008565b610fa057604051635274afe760e01b81526001600160a01b0385166004820152602401610ad6565b50505050565b60405163a9059cbb60e01b5f8181526001600160a01b038616600452602485905291602083604481808b5af1925060015f51148316610ffc578383151615610ff0573d5f823e3d81fd5b5f873b113d1516831692505b60405250949350505050565b6040516323b872dd60e01b5f8181526001600160a01b038781166004528616602452604485905291602083606481808c5af1925060015f51148316611064578383151615611058573d5f823e3d81fd5b5f883b113d1516831692505b604052505f60605295945050505050565b6001600160a01b038116811461071c575f80fd5b5f805f805f60a0868803121561109d575f80fd5b85356110a881611075565b945060208601356110b881611075565b94979496505050506040830135926060810135926080909101359150565b5f80604083850312156110e7575f80fd5b50508035926020909101359150565b5f805f805f8060c0878903121561110b575f80fd5b863561111681611075565b9550602087013561112681611075565b95989597505050506040840135936060810135936080820135935060a0909101359150565b5f6020828403121561115b575f80fd5b5035919050565b81516001600160a01b03908116825260208084015182169083015260408084015190911690820152606080830151908201526080808301519082015260a0828101519082015260c0808301516101008301916111c19084018215159052565b5060e08301516111d560e084018215159052565b5092915050565b5f8083601f8401126111ec575f80fd5b50813567ffffffffffffffff811115611203575f80fd5b60208301915083602082850101111561121a575f80fd5b9250929050565b5f8060208385031215611232575f80fd5b823567ffffffffffffffff811115611248575f80fd5b611254858286016111dc565b90969095509350505050565b5f805f60408486031215611272575f80fd5b833567ffffffffffffffff811115611288575f80fd5b611294868287016111dc565b909790965060209590950135949350505050565b5f805f604084860312156112ba575f80fd5b83359250602084013567ffffffffffffffff8111156112d7575f80fd5b6112e3868287016111dc565b9497909650939450505050565b5f60208284031215611300575f80fd5b813561074f81611075565b634e487b7160e01b5f52601160045260245ffd5b818103818111156104a7576104a761130b565b5f82518060208501845e5f920191825250919050565b5f60208284031215611358575f80fd5b5051919050565b818382375f9101908152919050565b60408152826040820152828460608301375f60608483018101919091526001600160a01b03929092166020820152601f909201601f191690910101919050565b808201808211156104a7576104a761130b56fe9b779b17422d0df92223018b32b4d1fa46e071723d6817e2486d003becc55f00a2646970667358221220fe321bab8530c875bb7eb214cf7176497b5619c0c9ae2bfc195d8d27b9e42f9864736f6c634300081a0033",
  "linkReferences": {},
  "deployedLinkReferences": {}
}